{
	"ecormerce.sol": {
		"Ecommerce": {
			"abi": [
				{
					"inputs": [],
					"stateMutability": "nonpayable",
					"type": "constructor"
				},
				{
					"stateMutability": "payable",
					"type": "fallback"
				},
				{
					"inputs": [
						{
							"internalType": "uint256",
							"name": "_productId",
							"type": "uint256"
						}
					],
					"name": "buy",
					"outputs": [],
					"stateMutability": "payable",
					"type": "function"
				},
				{
					"inputs": [
						{
							"internalType": "uint256",
							"name": "_productId",
							"type": "uint256"
						}
					],
					"name": "delivery",
					"outputs": [],
					"stateMutability": "nonpayable",
					"type": "function"
				},
				{
					"inputs": [],
					"name": "destroy",
					"outputs": [],
					"stateMutability": "nonpayable",
					"type": "function"
				},
				{
					"inputs": [
						{
							"internalType": "uint256",
							"name": "",
							"type": "uint256"
						}
					],
					"name": "products",
					"outputs": [
						{
							"internalType": "string",
							"name": "title",
							"type": "string"
						},
						{
							"internalType": "string",
							"name": "desc",
							"type": "string"
						},
						{
							"internalType": "address payable",
							"name": "seller",
							"type": "address"
						},
						{
							"internalType": "uint256",
							"name": "productId",
							"type": "uint256"
						},
						{
							"internalType": "uint256",
							"name": "price",
							"type": "uint256"
						},
						{
							"internalType": "address",
							"name": "buyer",
							"type": "address"
						},
						{
							"internalType": "bool",
							"name": "delivered",
							"type": "bool"
						}
					],
					"stateMutability": "view",
					"type": "function"
				},
				{
					"inputs": [
						{
							"internalType": "string",
							"name": "_title",
							"type": "string"
						},
						{
							"internalType": "string",
							"name": "_desc",
							"type": "string"
						},
						{
							"internalType": "uint256",
							"name": "_price",
							"type": "uint256"
						}
					],
					"name": "registerProduct",
					"outputs": [],
					"stateMutability": "nonpayable",
					"type": "function"
				},
				{
					"stateMutability": "payable",
					"type": "receive"
				}
			],
			"devdoc": {
				"kind": "dev",
				"methods": {},
				"version": 1
			},
			"evm": {
				"assembly": "    /* \"ecormerce.sol\":74:2168  contract Ecommerce {... */\n  mstore(0x40, 0x80)\n    /* \"ecormerce.sol\":340:345  false */\n  0x00\n    /* \"ecormerce.sol\":323:345  bool destroyed = false */\n  dup1\n  exp(0x0100, 0x14)\n  dup2\n  sload\n  dup2\n  0xff\n  mul\n  not\n  and\n  swap1\n  dup4\n  iszero\n  iszero\n  mul\n  or\n  swap1\n  sstore\n  pop\n    /* \"ecormerce.sol\":433:434  1 */\n  0x01\n    /* \"ecormerce.sol\":418:434  uint counter = 1 */\n  dup1\n  sstore\n    /* \"ecormerce.sol\":352:412  constructor() {... */\n  callvalue\n  dup1\n  iszero\n  tag_1\n  jumpi\n  0x00\n  dup1\n  revert\ntag_1:\n  pop\n    /* \"ecormerce.sol\":394:404  msg.sender */\n  caller\n    /* \"ecormerce.sol\":376:383  manager */\n  0x00\n  dup1\n    /* \"ecormerce.sol\":376:405  manager = payable(msg.sender) */\n  0x0100\n  exp\n  dup2\n  sload\n  dup2\n  0xffffffffffffffffffffffffffffffffffffffff\n  mul\n  not\n  and\n  swap1\n  dup4\n  0xffffffffffffffffffffffffffffffffffffffff\n  and\n  mul\n  or\n  swap1\n  sstore\n  pop\n    /* \"ecormerce.sol\":74:2168  contract Ecommerce {... */\n  dataSize(sub_0)\n  dup1\n  dataOffset(sub_0)\n  0x00\n  codecopy\n  0x00\n  return\nstop\n\nsub_0: assembly {\n        /* \"ecormerce.sol\":74:2168  contract Ecommerce {... */\n      mstore(0x40, 0x80)\n      jumpi(tag_1, lt(calldatasize, 0x04))\n      shr(0xe0, calldataload(0x00))\n      dup1\n      0x1144fd72\n      eq\n      tag_3\n      jumpi\n      dup1\n      0x3153a15b\n      eq\n      tag_4\n      jumpi\n      dup1\n      0x7acc0b20\n      eq\n      tag_5\n      jumpi\n      dup1\n      0x83197ef0\n      eq\n      tag_6\n      jumpi\n      dup1\n      0xd96a094a\n      eq\n      tag_7\n      jumpi\n      jump(tag_2)\n    tag_1:\n      jumpi(tag_2, calldatasize)\n        /* \"ecormerce.sol\":2134:2138  this */\n      address\n        /* \"ecormerce.sol\":2126:2148  payable(this).transfer */\n      0xffffffffffffffffffffffffffffffffffffffff\n      and\n        /* \"ecormerce.sol\":2126:2159  payable(this).transfer(msg.value) */\n      0x08fc\n        /* \"ecormerce.sol\":2149:2158  msg.value */\n      callvalue\n        /* \"ecormerce.sol\":2126:2159  payable(this).transfer(msg.value) */\n      swap1\n      dup2\n      iszero\n      mul\n      swap1\n      mload(0x40)\n      0x00\n      mload(0x40)\n      dup1\n      dup4\n      sub\n      dup2\n      dup6\n      dup9\n      dup9\n      call\n      swap4\n      pop\n      pop\n      pop\n      pop\n      iszero\n      dup1\n      iszero\n      tag_11\n      jumpi\n      returndatasize\n      0x00\n      dup1\n      returndatacopy\n      revert(0x00, returndatasize)\n    tag_11:\n      stop\n        /* \"ecormerce.sol\":74:2168  contract Ecommerce {... */\n    tag_2:\n        /* \"ecormerce.sol\":2045:2055  msg.sender */\n      caller\n        /* \"ecormerce.sol\":2037:2065  payable(msg.sender).transfer */\n      0xffffffffffffffffffffffffffffffffffffffff\n      and\n        /* \"ecormerce.sol\":2037:2076  payable(msg.sender).transfer(msg.value) */\n      0x08fc\n        /* \"ecormerce.sol\":2066:2075  msg.value */\n      callvalue\n        /* \"ecormerce.sol\":2037:2076  payable(msg.sender).transfer(msg.value) */\n      swap1\n      dup2\n      iszero\n      mul\n      swap1\n      mload(0x40)\n      0x00\n      mload(0x40)\n      dup1\n      dup4\n      sub\n      dup2\n      dup6\n      dup9\n      dup9\n      call\n      swap4\n      pop\n      pop\n      pop\n      pop\n      iszero\n      dup1\n      iszero\n      tag_15\n      jumpi\n      returndatasize\n      0x00\n      dup1\n      returndatacopy\n      revert(0x00, returndatasize)\n    tag_15:\n      stop\n        /* \"ecormerce.sol\":1453:1795  function delivery(uint _productId) public isNotDestroyed {... */\n    tag_3:\n      callvalue\n      dup1\n      iszero\n      tag_16\n      jumpi\n      0x00\n      dup1\n      revert\n    tag_16:\n      pop\n      tag_17\n      0x04\n      dup1\n      calldatasize\n      sub\n      dup2\n      add\n      swap1\n      tag_18\n      swap2\n      swap1\n      tag_19\n      jump\t// in\n    tag_18:\n      tag_20\n      jump\t// in\n    tag_17:\n      stop\n        /* \"ecormerce.sol\":578:1083  function registerProduct(... */\n    tag_4:\n      callvalue\n      dup1\n      iszero\n      tag_21\n      jumpi\n      0x00\n      dup1\n      revert\n    tag_21:\n      pop\n      tag_22\n      0x04\n      dup1\n      calldatasize\n      sub\n      dup2\n      add\n      swap1\n      tag_23\n      swap2\n      swap1\n      tag_24\n      jump\t// in\n    tag_23:\n      tag_25\n      jump\t// in\n    tag_22:\n      stop\n        /* \"ecormerce.sol\":440:465  Product[] public products */\n    tag_5:\n      callvalue\n      dup1\n      iszero\n      tag_26\n      jumpi\n      0x00\n      dup1\n      revert\n    tag_26:\n      pop\n      tag_27\n      0x04\n      dup1\n      calldatasize\n      sub\n      dup2\n      add\n      swap1\n      tag_28\n      swap2\n      swap1\n      tag_19\n      jump\t// in\n    tag_28:\n      tag_29\n      jump\t// in\n    tag_27:\n      mload(0x40)\n      tag_30\n      swap8\n      swap7\n      swap6\n      swap5\n      swap4\n      swap3\n      swap2\n      swap1\n      tag_31\n      jump\t// in\n    tag_30:\n      mload(0x40)\n      dup1\n      swap2\n      sub\n      swap1\n      return\n        /* \"ecormerce.sol\":1800:1993  function destroy() public isNotDestroyed {... */\n    tag_6:\n      callvalue\n      dup1\n      iszero\n      tag_32\n      jumpi\n      0x00\n      dup1\n      revert\n    tag_32:\n      pop\n      tag_33\n      tag_34\n      jump\t// in\n    tag_33:\n      stop\n        /* \"ecormerce.sol\":1089:1447  function buy(uint _productId) public payable isNotDestroyed {... */\n    tag_7:\n      tag_35\n      0x04\n      dup1\n      calldatasize\n      sub\n      dup2\n      add\n      swap1\n      tag_36\n      swap2\n      swap1\n      tag_19\n      jump\t// in\n    tag_36:\n      tag_37\n      jump\t// in\n    tag_35:\n      stop\n        /* \"ecormerce.sol\":1453:1795  function delivery(uint _productId) public isNotDestroyed {... */\n    tag_20:\n        /* \"ecormerce.sol\":517:526  destroyed */\n      0x00\n      0x14\n      swap1\n      sload\n      swap1\n      0x0100\n      exp\n      swap1\n      div\n      0xff\n      and\n        /* \"ecormerce.sol\":516:526  !destroyed */\n      iszero\n        /* \"ecormerce.sol\":508:554  require(!destroyed, \"Contract does not exist\") */\n      tag_39\n      jumpi\n      mload(0x40)\n      0x08c379a000000000000000000000000000000000000000000000000000000000\n      dup2\n      mstore\n      0x04\n      add\n      tag_40\n      swap1\n      tag_41\n      jump\t// in\n    tag_40:\n      mload(0x40)\n      dup1\n      swap2\n      sub\n      swap1\n      revert\n    tag_39:\n        /* \"ecormerce.sol\":1575:1585  msg.sender */\n      caller\n        /* \"ecormerce.sol\":1541:1585  products[_productId - 1].buyer == msg.sender */\n      0xffffffffffffffffffffffffffffffffffffffff\n      and\n        /* \"ecormerce.sol\":1541:1549  products */\n      0x02\n        /* \"ecormerce.sol\":1563:1564  1 */\n      0x01\n        /* \"ecormerce.sol\":1550:1560  _productId */\n      dup4\n        /* \"ecormerce.sol\":1550:1564  _productId - 1 */\n      tag_43\n      swap2\n      swap1\n      tag_44\n      jump\t// in\n    tag_43:\n        /* \"ecormerce.sol\":1541:1565  products[_productId - 1] */\n      dup2\n      sload\n      dup2\n      lt\n      tag_45\n      jumpi\n      tag_46\n      tag_47\n      jump\t// in\n    tag_46:\n    tag_45:\n      swap1\n      0x00\n      mstore\n      keccak256(0x00, 0x20)\n      swap1\n      0x06\n      mul\n      add\n        /* \"ecormerce.sol\":1541:1571  products[_productId - 1].buyer */\n      0x05\n      add\n      0x00\n      swap1\n      sload\n      swap1\n      0x0100\n      exp\n      swap1\n      div\n      0xffffffffffffffffffffffffffffffffffffffff\n      and\n        /* \"ecormerce.sol\":1541:1585  products[_productId - 1].buyer == msg.sender */\n      0xffffffffffffffffffffffffffffffffffffffff\n      and\n      eq\n        /* \"ecormerce.sol\":1520:1633  require(... */\n      tag_49\n      jumpi\n      mload(0x40)\n      0x08c379a000000000000000000000000000000000000000000000000000000000\n      dup2\n      mstore\n      0x04\n      add\n      tag_50\n      swap1\n      tag_51\n      jump\t// in\n    tag_50:\n      mload(0x40)\n      dup1\n      swap2\n      sub\n      swap1\n      revert\n    tag_49:\n        /* \"ecormerce.sol\":1680:1684  true */\n      0x01\n        /* \"ecormerce.sol\":1643:1651  products */\n      0x02\n        /* \"ecormerce.sol\":1665:1666  1 */\n      0x01\n        /* \"ecormerce.sol\":1652:1662  _productId */\n      dup4\n        /* \"ecormerce.sol\":1652:1666  _productId - 1 */\n      tag_52\n      swap2\n      swap1\n      tag_44\n      jump\t// in\n    tag_52:\n        /* \"ecormerce.sol\":1643:1667  products[_productId - 1] */\n      dup2\n      sload\n      dup2\n      lt\n      tag_53\n      jumpi\n      tag_54\n      tag_47\n      jump\t// in\n    tag_54:\n    tag_53:\n      swap1\n      0x00\n      mstore\n      keccak256(0x00, 0x20)\n      swap1\n      0x06\n      mul\n      add\n        /* \"ecormerce.sol\":1643:1677  products[_productId - 1].delivered */\n      0x05\n      add\n      0x14\n        /* \"ecormerce.sol\":1643:1684  products[_productId - 1].delivered = true */\n      0x0100\n      exp\n      dup2\n      sload\n      dup2\n      0xff\n      mul\n      not\n      and\n      swap1\n      dup4\n      iszero\n      iszero\n      mul\n      or\n      swap1\n      sstore\n      pop\n        /* \"ecormerce.sol\":1694:1702  products */\n      0x02\n        /* \"ecormerce.sol\":1716:1717  1 */\n      0x01\n        /* \"ecormerce.sol\":1703:1713  _productId */\n      dup3\n        /* \"ecormerce.sol\":1703:1717  _productId - 1 */\n      tag_56\n      swap2\n      swap1\n      tag_44\n      jump\t// in\n    tag_56:\n        /* \"ecormerce.sol\":1694:1718  products[_productId - 1] */\n      dup2\n      sload\n      dup2\n      lt\n      tag_57\n      jumpi\n      tag_58\n      tag_47\n      jump\t// in\n    tag_58:\n    tag_57:\n      swap1\n      0x00\n      mstore\n      keccak256(0x00, 0x20)\n      swap1\n      0x06\n      mul\n      add\n        /* \"ecormerce.sol\":1694:1725  products[_productId - 1].seller */\n      0x02\n      add\n      0x00\n      swap1\n      sload\n      swap1\n      0x0100\n      exp\n      swap1\n      div\n      0xffffffffffffffffffffffffffffffffffffffff\n      and\n        /* \"ecormerce.sol\":1694:1734  products[_productId - 1].seller.transfer */\n      0xffffffffffffffffffffffffffffffffffffffff\n      and\n        /* \"ecormerce.sol\":1694:1788  products[_productId - 1].seller.transfer(... */\n      0x08fc\n        /* \"ecormerce.sol\":1748:1756  products */\n      0x02\n        /* \"ecormerce.sol\":1770:1771  1 */\n      0x01\n        /* \"ecormerce.sol\":1757:1767  _productId */\n      dup5\n        /* \"ecormerce.sol\":1757:1771  _productId - 1 */\n      tag_60\n      swap2\n      swap1\n      tag_44\n      jump\t// in\n    tag_60:\n        /* \"ecormerce.sol\":1748:1772  products[_productId - 1] */\n      dup2\n      sload\n      dup2\n      lt\n      tag_61\n      jumpi\n      tag_62\n      tag_47\n      jump\t// in\n    tag_62:\n    tag_61:\n      swap1\n      0x00\n      mstore\n      keccak256(0x00, 0x20)\n      swap1\n      0x06\n      mul\n      add\n        /* \"ecormerce.sol\":1748:1778  products[_productId - 1].price */\n      0x04\n      add\n      sload\n        /* \"ecormerce.sol\":1694:1788  products[_productId - 1].seller.transfer(... */\n      swap1\n      dup2\n      iszero\n      mul\n      swap1\n      mload(0x40)\n      0x00\n      mload(0x40)\n      dup1\n      dup4\n      sub\n      dup2\n      dup6\n      dup9\n      dup9\n      call\n      swap4\n      pop\n      pop\n      pop\n      pop\n      iszero\n      dup1\n      iszero\n      tag_65\n      jumpi\n      returndatasize\n      0x00\n      dup1\n      returndatacopy\n      revert(0x00, returndatasize)\n    tag_65:\n      pop\n        /* \"ecormerce.sol\":1453:1795  function delivery(uint _productId) public isNotDestroyed {... */\n      pop\n      jump\t// out\n        /* \"ecormerce.sol\":578:1083  function registerProduct(... */\n    tag_25:\n        /* \"ecormerce.sol\":517:526  destroyed */\n      0x00\n      0x14\n      swap1\n      sload\n      swap1\n      0x0100\n      exp\n      swap1\n      div\n      0xff\n      and\n        /* \"ecormerce.sol\":516:526  !destroyed */\n      iszero\n        /* \"ecormerce.sol\":508:554  require(!destroyed, \"Contract does not exist\") */\n      tag_67\n      jumpi\n      mload(0x40)\n      0x08c379a000000000000000000000000000000000000000000000000000000000\n      dup2\n      mstore\n      0x04\n      add\n      tag_68\n      swap1\n      tag_41\n      jump\t// in\n    tag_68:\n      mload(0x40)\n      dup1\n      swap2\n      sub\n      swap1\n      revert\n    tag_67:\n        /* \"ecormerce.sol\":738:739  0 */\n      0x00\n        /* \"ecormerce.sol\":729:735  _price */\n      dup2\n        /* \"ecormerce.sol\":729:739  _price > 0 */\n      gt\n        /* \"ecormerce.sol\":721:777  require(_price > 0, \"Price should be greater than zero\") */\n      tag_70\n      jumpi\n      mload(0x40)\n      0x08c379a000000000000000000000000000000000000000000000000000000000\n      dup2\n      mstore\n      0x04\n      add\n      tag_71\n      swap1\n      tag_72\n      jump\t// in\n    tag_71:\n      mload(0x40)\n      dup1\n      swap2\n      sub\n      swap1\n      revert\n    tag_70:\n        /* \"ecormerce.sol\":787:813  Product memory tempProduct */\n      tag_73\n      tag_74\n      jump\t// in\n    tag_73:\n        /* \"ecormerce.sol\":843:849  _title */\n      dup4\n        /* \"ecormerce.sol\":823:834  tempProduct */\n      dup2\n        /* \"ecormerce.sol\":823:840  tempProduct.title */\n      0x00\n      add\n        /* \"ecormerce.sol\":823:849  tempProduct.title = _title */\n      dup2\n      swap1\n      mstore\n      pop\n        /* \"ecormerce.sol\":878:883  _desc */\n      dup3\n        /* \"ecormerce.sol\":859:870  tempProduct */\n      dup2\n        /* \"ecormerce.sol\":859:875  tempProduct.desc */\n      0x20\n      add\n        /* \"ecormerce.sol\":859:883  tempProduct.desc = _desc */\n      dup2\n      swap1\n      mstore\n      pop\n        /* \"ecormerce.sol\":922:930  10 ** 18 */\n      0x0de0b6b3a7640000\n        /* \"ecormerce.sol\":913:919  _price */\n      dup3\n        /* \"ecormerce.sol\":913:930  _price * 10 ** 18 */\n      tag_75\n      swap2\n      swap1\n      tag_76\n      jump\t// in\n    tag_75:\n        /* \"ecormerce.sol\":893:904  tempProduct */\n      dup2\n        /* \"ecormerce.sol\":893:910  tempProduct.price */\n      0x80\n      add\n        /* \"ecormerce.sol\":893:930  tempProduct.price = _price * 10 ** 18 */\n      dup2\n      dup2\n      mstore\n      pop\n      pop\n        /* \"ecormerce.sol\":969:979  msg.sender */\n      caller\n        /* \"ecormerce.sol\":940:951  tempProduct */\n      dup2\n        /* \"ecormerce.sol\":940:958  tempProduct.seller */\n      0x40\n      add\n        /* \"ecormerce.sol\":940:980  tempProduct.seller = payable(msg.sender) */\n      swap1\n      0xffffffffffffffffffffffffffffffffffffffff\n      and\n      swap1\n      dup2\n      0xffffffffffffffffffffffffffffffffffffffff\n      and\n      dup2\n      mstore\n      pop\n      pop\n        /* \"ecormerce.sol\":1014:1021  counter */\n      sload(0x01)\n        /* \"ecormerce.sol\":990:1001  tempProduct */\n      dup2\n        /* \"ecormerce.sol\":990:1011  tempProduct.productId */\n      0x60\n      add\n        /* \"ecormerce.sol\":990:1021  tempProduct.productId = counter */\n      dup2\n      dup2\n      mstore\n      pop\n      pop\n        /* \"ecormerce.sol\":1031:1039  products */\n      0x02\n        /* \"ecormerce.sol\":1045:1056  tempProduct */\n      dup2\n        /* \"ecormerce.sol\":1031:1057  products.push(tempProduct) */\n      swap1\n      dup1\n      0x01\n      dup2\n      sload\n      add\n      dup1\n      dup3\n      sstore\n      dup1\n      swap2\n      pop\n      pop\n      0x01\n      swap1\n      sub\n      swap1\n      0x00\n      mstore\n      keccak256(0x00, 0x20)\n      swap1\n      0x06\n      mul\n      add\n      0x00\n      swap1\n      swap2\n      swap1\n      swap2\n      swap1\n      swap2\n      pop\n      0x00\n      dup3\n      add\n      mload\n      dup2\n      0x00\n      add\n      swap1\n      dup2\n      tag_78\n      swap2\n      swap1\n      tag_79\n      jump\t// in\n    tag_78:\n      pop\n      0x20\n      dup3\n      add\n      mload\n      dup2\n      0x01\n      add\n      swap1\n      dup2\n      tag_80\n      swap2\n      swap1\n      tag_79\n      jump\t// in\n    tag_80:\n      pop\n      0x40\n      dup3\n      add\n      mload\n      dup2\n      0x02\n      add\n      exp(0x0100, 0x00)\n      dup2\n      sload\n      dup2\n      0xffffffffffffffffffffffffffffffffffffffff\n      mul\n      not\n      and\n      swap1\n      dup4\n      0xffffffffffffffffffffffffffffffffffffffff\n      and\n      mul\n      or\n      swap1\n      sstore\n      pop\n      0x60\n      dup3\n      add\n      mload\n      dup2\n      0x03\n      add\n      sstore\n      0x80\n      dup3\n      add\n      mload\n      dup2\n      0x04\n      add\n      sstore\n      0xa0\n      dup3\n      add\n      mload\n      dup2\n      0x05\n      add\n      exp(0x0100, 0x00)\n      dup2\n      sload\n      dup2\n      0xffffffffffffffffffffffffffffffffffffffff\n      mul\n      not\n      and\n      swap1\n      dup4\n      0xffffffffffffffffffffffffffffffffffffffff\n      and\n      mul\n      or\n      swap1\n      sstore\n      pop\n      0xc0\n      dup3\n      add\n      mload\n      dup2\n      0x05\n      add\n      exp(0x0100, 0x14)\n      dup2\n      sload\n      dup2\n      0xff\n      mul\n      not\n      and\n      swap1\n      dup4\n      iszero\n      iszero\n      mul\n      or\n      swap1\n      sstore\n      pop\n      pop\n      pop\n        /* \"ecormerce.sol\":1067:1074  counter */\n      0x01\n      0x00\n        /* \"ecormerce.sol\":1067:1076  counter++ */\n      dup2\n      sload\n      dup1\n      swap3\n      swap2\n      swap1\n      tag_81\n      swap1\n      tag_82\n      jump\t// in\n    tag_81:\n      swap2\n      swap1\n      pop\n      sstore\n      pop\n        /* \"ecormerce.sol\":711:1083  {... */\n      pop\n        /* \"ecormerce.sol\":578:1083  function registerProduct(... */\n      pop\n      pop\n      pop\n      jump\t// out\n        /* \"ecormerce.sol\":440:465  Product[] public products */\n    tag_29:\n      0x02\n      dup2\n      dup2\n      sload\n      dup2\n      lt\n      tag_83\n      jumpi\n      0x00\n      dup1\n      revert\n    tag_83:\n      swap1\n      0x00\n      mstore\n      keccak256(0x00, 0x20)\n      swap1\n      0x06\n      mul\n      add\n      0x00\n      swap2\n      pop\n      swap1\n      pop\n      dup1\n      0x00\n      add\n      dup1\n      sload\n      tag_85\n      swap1\n      tag_86\n      jump\t// in\n    tag_85:\n      dup1\n      0x1f\n      add\n      0x20\n      dup1\n      swap2\n      div\n      mul\n      0x20\n      add\n      mload(0x40)\n      swap1\n      dup2\n      add\n      0x40\n      mstore\n      dup1\n      swap3\n      swap2\n      swap1\n      dup2\n      dup2\n      mstore\n      0x20\n      add\n      dup3\n      dup1\n      sload\n      tag_87\n      swap1\n      tag_86\n      jump\t// in\n    tag_87:\n      dup1\n      iszero\n      tag_88\n      jumpi\n      dup1\n      0x1f\n      lt\n      tag_89\n      jumpi\n      0x0100\n      dup1\n      dup4\n      sload\n      div\n      mul\n      dup4\n      mstore\n      swap2\n      0x20\n      add\n      swap2\n      jump(tag_88)\n    tag_89:\n      dup3\n      add\n      swap2\n      swap1\n      0x00\n      mstore\n      keccak256(0x00, 0x20)\n      swap1\n    tag_90:\n      dup2\n      sload\n      dup2\n      mstore\n      swap1\n      0x01\n      add\n      swap1\n      0x20\n      add\n      dup1\n      dup4\n      gt\n      tag_90\n      jumpi\n      dup3\n      swap1\n      sub\n      0x1f\n      and\n      dup3\n      add\n      swap2\n    tag_88:\n      pop\n      pop\n      pop\n      pop\n      pop\n      swap1\n      dup1\n      0x01\n      add\n      dup1\n      sload\n      tag_91\n      swap1\n      tag_86\n      jump\t// in\n    tag_91:\n      dup1\n      0x1f\n      add\n      0x20\n      dup1\n      swap2\n      div\n      mul\n      0x20\n      add\n      mload(0x40)\n      swap1\n      dup2\n      add\n      0x40\n      mstore\n      dup1\n      swap3\n      swap2\n      swap1\n      dup2\n      dup2\n      mstore\n      0x20\n      add\n      dup3\n      dup1\n      sload\n      tag_92\n      swap1\n      tag_86\n      jump\t// in\n    tag_92:\n      dup1\n      iszero\n      tag_93\n      jumpi\n      dup1\n      0x1f\n      lt\n      tag_94\n      jumpi\n      0x0100\n      dup1\n      dup4\n      sload\n      div\n      mul\n      dup4\n      mstore\n      swap2\n      0x20\n      add\n      swap2\n      jump(tag_93)\n    tag_94:\n      dup3\n      add\n      swap2\n      swap1\n      0x00\n      mstore\n      keccak256(0x00, 0x20)\n      swap1\n    tag_95:\n      dup2\n      sload\n      dup2\n      mstore\n      swap1\n      0x01\n      add\n      swap1\n      0x20\n      add\n      dup1\n      dup4\n      gt\n      tag_95\n      jumpi\n      dup3\n      swap1\n      sub\n      0x1f\n      and\n      dup3\n      add\n      swap2\n    tag_93:\n      pop\n      pop\n      pop\n      pop\n      pop\n      swap1\n      dup1\n      0x02\n      add\n      0x00\n      swap1\n      sload\n      swap1\n      0x0100\n      exp\n      swap1\n      div\n      0xffffffffffffffffffffffffffffffffffffffff\n      and\n      swap1\n      dup1\n      0x03\n      add\n      sload\n      swap1\n      dup1\n      0x04\n      add\n      sload\n      swap1\n      dup1\n      0x05\n      add\n      0x00\n      swap1\n      sload\n      swap1\n      0x0100\n      exp\n      swap1\n      div\n      0xffffffffffffffffffffffffffffffffffffffff\n      and\n      swap1\n      dup1\n      0x05\n      add\n      0x14\n      swap1\n      sload\n      swap1\n      0x0100\n      exp\n      swap1\n      div\n      0xff\n      and\n      swap1\n      pop\n      dup8\n      jump\t// out\n        /* \"ecormerce.sol\":1800:1993  function destroy() public isNotDestroyed {... */\n    tag_34:\n        /* \"ecormerce.sol\":517:526  destroyed */\n      0x00\n      0x14\n      swap1\n      sload\n      swap1\n      0x0100\n      exp\n      swap1\n      div\n      0xff\n      and\n        /* \"ecormerce.sol\":516:526  !destroyed */\n      iszero\n        /* \"ecormerce.sol\":508:554  require(!destroyed, \"Contract does not exist\") */\n      tag_97\n      jumpi\n      mload(0x40)\n      0x08c379a000000000000000000000000000000000000000000000000000000000\n      dup2\n      mstore\n      0x04\n      add\n      tag_98\n      swap1\n      tag_41\n      jump\t// in\n    tag_98:\n      mload(0x40)\n      dup1\n      swap2\n      sub\n      swap1\n      revert\n    tag_97:\n        /* \"ecormerce.sol\":1870:1880  msg.sender */\n      caller\n        /* \"ecormerce.sol\":1859:1880  manager == msg.sender */\n      0xffffffffffffffffffffffffffffffffffffffff\n      and\n        /* \"ecormerce.sol\":1859:1866  manager */\n      0x00\n      dup1\n      sload\n      swap1\n      0x0100\n      exp\n      swap1\n      div\n      0xffffffffffffffffffffffffffffffffffffffff\n      and\n        /* \"ecormerce.sol\":1859:1880  manager == msg.sender */\n      0xffffffffffffffffffffffffffffffffffffffff\n      and\n      eq\n        /* \"ecormerce.sol\":1851:1911  require(manager == msg.sender, \"only manager can call this\") */\n      tag_100\n      jumpi\n      mload(0x40)\n      0x08c379a000000000000000000000000000000000000000000000000000000000\n      dup2\n      mstore\n      0x04\n      add\n      tag_101\n      swap1\n      tag_102\n      jump\t// in\n    tag_101:\n      mload(0x40)\n      dup1\n      swap2\n      sub\n      swap1\n      revert\n    tag_100:\n        /* \"ecormerce.sol\":1921:1928  manager */\n      0x00\n      dup1\n      sload\n      swap1\n      0x0100\n      exp\n      swap1\n      div\n      0xffffffffffffffffffffffffffffffffffffffff\n      and\n        /* \"ecormerce.sol\":1921:1937  manager.transfer */\n      0xffffffffffffffffffffffffffffffffffffffff\n      and\n        /* \"ecormerce.sol\":1921:1960  manager.transfer(address(this).balance) */\n      0x08fc\n        /* \"ecormerce.sol\":1938:1959  address(this).balance */\n      selfbalance\n        /* \"ecormerce.sol\":1921:1960  manager.transfer(address(this).balance) */\n      swap1\n      dup2\n      iszero\n      mul\n      swap1\n      mload(0x40)\n      0x00\n      mload(0x40)\n      dup1\n      dup4\n      sub\n      dup2\n      dup6\n      dup9\n      dup9\n      call\n      swap4\n      pop\n      pop\n      pop\n      pop\n      iszero\n      dup1\n      iszero\n      tag_104\n      jumpi\n      returndatasize\n      0x00\n      dup1\n      returndatacopy\n      revert(0x00, returndatasize)\n    tag_104:\n      pop\n        /* \"ecormerce.sol\":1982:1986  true */\n      0x01\n        /* \"ecormerce.sol\":1970:1979  destroyed */\n      0x00\n      0x14\n        /* \"ecormerce.sol\":1970:1986  destroyed = true */\n      0x0100\n      exp\n      dup2\n      sload\n      dup2\n      0xff\n      mul\n      not\n      and\n      swap1\n      dup4\n      iszero\n      iszero\n      mul\n      or\n      swap1\n      sstore\n      pop\n        /* \"ecormerce.sol\":1800:1993  function destroy() public isNotDestroyed {... */\n      jump\t// out\n        /* \"ecormerce.sol\":1089:1447  function buy(uint _productId) public payable isNotDestroyed {... */\n    tag_37:\n        /* \"ecormerce.sol\":517:526  destroyed */\n      0x00\n      0x14\n      swap1\n      sload\n      swap1\n      0x0100\n      exp\n      swap1\n      div\n      0xff\n      and\n        /* \"ecormerce.sol\":516:526  !destroyed */\n      iszero\n        /* \"ecormerce.sol\":508:554  require(!destroyed, \"Contract does not exist\") */\n      tag_106\n      jumpi\n      mload(0x40)\n      0x08c379a000000000000000000000000000000000000000000000000000000000\n      dup2\n      mstore\n      0x04\n      add\n      tag_107\n      swap1\n      tag_41\n      jump\t// in\n    tag_107:\n      mload(0x40)\n      dup1\n      swap2\n      sub\n      swap1\n      revert\n    tag_106:\n        /* \"ecormerce.sol\":1214:1223  msg.value */\n      callvalue\n        /* \"ecormerce.sol\":1180:1188  products */\n      0x02\n        /* \"ecormerce.sol\":1202:1203  1 */\n      0x01\n        /* \"ecormerce.sol\":1189:1199  _productId */\n      dup4\n        /* \"ecormerce.sol\":1189:1203  _productId - 1 */\n      tag_109\n      swap2\n      swap1\n      tag_44\n      jump\t// in\n    tag_109:\n        /* \"ecormerce.sol\":1180:1204  products[_productId - 1] */\n      dup2\n      sload\n      dup2\n      lt\n      tag_110\n      jumpi\n      tag_111\n      tag_47\n      jump\t// in\n    tag_111:\n    tag_110:\n      swap1\n      0x00\n      mstore\n      keccak256(0x00, 0x20)\n      swap1\n      0x06\n      mul\n      add\n        /* \"ecormerce.sol\":1180:1210  products[_productId - 1].price */\n      0x04\n      add\n      sload\n        /* \"ecormerce.sol\":1180:1223  products[_productId - 1].price == msg.value */\n      eq\n        /* \"ecormerce.sol\":1159:1268  require(... */\n      tag_113\n      jumpi\n      mload(0x40)\n      0x08c379a000000000000000000000000000000000000000000000000000000000\n      dup2\n      mstore\n      0x04\n      add\n      tag_114\n      swap1\n      tag_115\n      jump\t// in\n    tag_114:\n      mload(0x40)\n      dup1\n      swap2\n      sub\n      swap1\n      revert\n    tag_113:\n        /* \"ecormerce.sol\":1334:1344  msg.sender */\n      caller\n        /* \"ecormerce.sol\":1299:1344  products[_productId - 1].seller != msg.sender */\n      0xffffffffffffffffffffffffffffffffffffffff\n      and\n        /* \"ecormerce.sol\":1299:1307  products */\n      0x02\n        /* \"ecormerce.sol\":1321:1322  1 */\n      0x01\n        /* \"ecormerce.sol\":1308:1318  _productId */\n      dup4\n        /* \"ecormerce.sol\":1308:1322  _productId - 1 */\n      tag_116\n      swap2\n      swap1\n      tag_44\n      jump\t// in\n    tag_116:\n        /* \"ecormerce.sol\":1299:1323  products[_productId - 1] */\n      dup2\n      sload\n      dup2\n      lt\n      tag_117\n      jumpi\n      tag_118\n      tag_47\n      jump\t// in\n    tag_118:\n    tag_117:\n      swap1\n      0x00\n      mstore\n      keccak256(0x00, 0x20)\n      swap1\n      0x06\n      mul\n      add\n        /* \"ecormerce.sol\":1299:1330  products[_productId - 1].seller */\n      0x02\n      add\n      0x00\n      swap1\n      sload\n      swap1\n      0x0100\n      exp\n      swap1\n      div\n      0xffffffffffffffffffffffffffffffffffffffff\n      and\n        /* \"ecormerce.sol\":1299:1344  products[_productId - 1].seller != msg.sender */\n      0xffffffffffffffffffffffffffffffffffffffff\n      and\n      sub\n        /* \"ecormerce.sol\":1278:1387  require(... */\n      tag_120\n      jumpi\n      mload(0x40)\n      0x08c379a000000000000000000000000000000000000000000000000000000000\n      dup2\n      mstore\n      0x04\n      add\n      tag_121\n      swap1\n      tag_122\n      jump\t// in\n    tag_121:\n      mload(0x40)\n      dup1\n      swap2\n      sub\n      swap1\n      revert\n    tag_120:\n        /* \"ecormerce.sol\":1430:1440  msg.sender */\n      caller\n        /* \"ecormerce.sol\":1397:1405  products */\n      0x02\n        /* \"ecormerce.sol\":1419:1420  1 */\n      0x01\n        /* \"ecormerce.sol\":1406:1416  _productId */\n      dup4\n        /* \"ecormerce.sol\":1406:1420  _productId - 1 */\n      tag_123\n      swap2\n      swap1\n      tag_44\n      jump\t// in\n    tag_123:\n        /* \"ecormerce.sol\":1397:1421  products[_productId - 1] */\n      dup2\n      sload\n      dup2\n      lt\n      tag_124\n      jumpi\n      tag_125\n      tag_47\n      jump\t// in\n    tag_125:\n    tag_124:\n      swap1\n      0x00\n      mstore\n      keccak256(0x00, 0x20)\n      swap1\n      0x06\n      mul\n      add\n        /* \"ecormerce.sol\":1397:1427  products[_productId - 1].buyer */\n      0x05\n      add\n      0x00\n        /* \"ecormerce.sol\":1397:1440  products[_productId - 1].buyer = msg.sender */\n      0x0100\n      exp\n      dup2\n      sload\n      dup2\n      0xffffffffffffffffffffffffffffffffffffffff\n      mul\n      not\n      and\n      swap1\n      dup4\n      0xffffffffffffffffffffffffffffffffffffffff\n      and\n      mul\n      or\n      swap1\n      sstore\n      pop\n        /* \"ecormerce.sol\":1089:1447  function buy(uint _productId) public payable isNotDestroyed {... */\n      pop\n      jump\t// out\n    tag_74:\n      mload(0x40)\n      dup1\n      0xe0\n      add\n      0x40\n      mstore\n      dup1\n      0x60\n      dup2\n      mstore\n      0x20\n      add\n      0x60\n      dup2\n      mstore\n      0x20\n      add\n      and(0xffffffffffffffffffffffffffffffffffffffff, 0x00)\n      dup2\n      mstore\n      0x20\n      add\n      0x00\n      dup2\n      mstore\n      0x20\n      add\n      0x00\n      dup2\n      mstore\n      0x20\n      add\n      and(0xffffffffffffffffffffffffffffffffffffffff, 0x00)\n      dup2\n      mstore\n      0x20\n      add\n      iszero(iszero(0x00))\n      dup2\n      mstore\n      pop\n      swap1\n      jump\t// out\n        /* \"#utility.yul\":7:82   */\n    tag_127:\n        /* \"#utility.yul\":40:46   */\n      0x00\n        /* \"#utility.yul\":73:75   */\n      0x40\n        /* \"#utility.yul\":67:76   */\n      mload\n        /* \"#utility.yul\":57:76   */\n      swap1\n      pop\n        /* \"#utility.yul\":7:82   */\n      swap1\n      jump\t// out\n        /* \"#utility.yul\":88:205   */\n    tag_128:\n        /* \"#utility.yul\":197:198   */\n      0x00\n        /* \"#utility.yul\":194:195   */\n      dup1\n        /* \"#utility.yul\":187:199   */\n      revert\n        /* \"#utility.yul\":211:328   */\n    tag_129:\n        /* \"#utility.yul\":320:321   */\n      0x00\n        /* \"#utility.yul\":317:318   */\n      dup1\n        /* \"#utility.yul\":310:322   */\n      revert\n        /* \"#utility.yul\":334:411   */\n    tag_130:\n        /* \"#utility.yul\":371:378   */\n      0x00\n        /* \"#utility.yul\":400:405   */\n      dup2\n        /* \"#utility.yul\":389:405   */\n      swap1\n      pop\n        /* \"#utility.yul\":334:411   */\n      swap2\n      swap1\n      pop\n      jump\t// out\n        /* \"#utility.yul\":417:539   */\n    tag_131:\n        /* \"#utility.yul\":490:514   */\n      tag_190\n        /* \"#utility.yul\":508:513   */\n      dup2\n        /* \"#utility.yul\":490:514   */\n      tag_130\n      jump\t// in\n    tag_190:\n        /* \"#utility.yul\":483:488   */\n      dup2\n        /* \"#utility.yul\":480:515   */\n      eq\n        /* \"#utility.yul\":470:533   */\n      tag_191\n      jumpi\n        /* \"#utility.yul\":529:530   */\n      0x00\n        /* \"#utility.yul\":526:527   */\n      dup1\n        /* \"#utility.yul\":519:531   */\n      revert\n        /* \"#utility.yul\":470:533   */\n    tag_191:\n        /* \"#utility.yul\":417:539   */\n      pop\n      jump\t// out\n        /* \"#utility.yul\":545:684   */\n    tag_132:\n        /* \"#utility.yul\":591:596   */\n      0x00\n        /* \"#utility.yul\":629:635   */\n      dup2\n        /* \"#utility.yul\":616:636   */\n      calldataload\n        /* \"#utility.yul\":607:636   */\n      swap1\n      pop\n        /* \"#utility.yul\":645:678   */\n      tag_193\n        /* \"#utility.yul\":672:677   */\n      dup2\n        /* \"#utility.yul\":645:678   */\n      tag_131\n      jump\t// in\n    tag_193:\n        /* \"#utility.yul\":545:684   */\n      swap3\n      swap2\n      pop\n      pop\n      jump\t// out\n        /* \"#utility.yul\":690:1019   */\n    tag_19:\n        /* \"#utility.yul\":749:755   */\n      0x00\n        /* \"#utility.yul\":798:800   */\n      0x20\n        /* \"#utility.yul\":786:795   */\n      dup3\n        /* \"#utility.yul\":777:784   */\n      dup5\n        /* \"#utility.yul\":773:796   */\n      sub\n        /* \"#utility.yul\":769:801   */\n      slt\n        /* \"#utility.yul\":766:885   */\n      iszero\n      tag_195\n      jumpi\n        /* \"#utility.yul\":804:883   */\n      tag_196\n      tag_128\n      jump\t// in\n    tag_196:\n        /* \"#utility.yul\":766:885   */\n    tag_195:\n        /* \"#utility.yul\":924:925   */\n      0x00\n        /* \"#utility.yul\":949:1002   */\n      tag_197\n        /* \"#utility.yul\":994:1001   */\n      dup5\n        /* \"#utility.yul\":985:991   */\n      dup3\n        /* \"#utility.yul\":974:983   */\n      dup6\n        /* \"#utility.yul\":970:992   */\n      add\n        /* \"#utility.yul\":949:1002   */\n      tag_132\n      jump\t// in\n    tag_197:\n        /* \"#utility.yul\":939:1002   */\n      swap2\n      pop\n        /* \"#utility.yul\":895:1012   */\n      pop\n        /* \"#utility.yul\":690:1019   */\n      swap3\n      swap2\n      pop\n      pop\n      jump\t// out\n        /* \"#utility.yul\":1025:1142   */\n    tag_133:\n        /* \"#utility.yul\":1134:1135   */\n      0x00\n        /* \"#utility.yul\":1131:1132   */\n      dup1\n        /* \"#utility.yul\":1124:1136   */\n      revert\n        /* \"#utility.yul\":1148:1265   */\n    tag_134:\n        /* \"#utility.yul\":1257:1258   */\n      0x00\n        /* \"#utility.yul\":1254:1255   */\n      dup1\n        /* \"#utility.yul\":1247:1259   */\n      revert\n        /* \"#utility.yul\":1271:1373   */\n    tag_135:\n        /* \"#utility.yul\":1312:1318   */\n      0x00\n        /* \"#utility.yul\":1363:1365   */\n      0x1f\n        /* \"#utility.yul\":1359:1366   */\n      not\n        /* \"#utility.yul\":1354:1356   */\n      0x1f\n        /* \"#utility.yul\":1347:1352   */\n      dup4\n        /* \"#utility.yul\":1343:1357   */\n      add\n        /* \"#utility.yul\":1339:1367   */\n      and\n        /* \"#utility.yul\":1329:1367   */\n      swap1\n      pop\n        /* \"#utility.yul\":1271:1373   */\n      swap2\n      swap1\n      pop\n      jump\t// out\n        /* \"#utility.yul\":1379:1559   */\n    tag_136:\n        /* \"#utility.yul\":1427:1504   */\n      0x4e487b7100000000000000000000000000000000000000000000000000000000\n        /* \"#utility.yul\":1424:1425   */\n      0x00\n        /* \"#utility.yul\":1417:1505   */\n      mstore\n        /* \"#utility.yul\":1524:1528   */\n      0x41\n        /* \"#utility.yul\":1521:1522   */\n      0x04\n        /* \"#utility.yul\":1514:1529   */\n      mstore\n        /* \"#utility.yul\":1548:1552   */\n      0x24\n        /* \"#utility.yul\":1545:1546   */\n      0x00\n        /* \"#utility.yul\":1538:1553   */\n      revert\n        /* \"#utility.yul\":1565:1846   */\n    tag_137:\n        /* \"#utility.yul\":1648:1675   */\n      tag_203\n        /* \"#utility.yul\":1670:1674   */\n      dup3\n        /* \"#utility.yul\":1648:1675   */\n      tag_135\n      jump\t// in\n    tag_203:\n        /* \"#utility.yul\":1640:1646   */\n      dup2\n        /* \"#utility.yul\":1636:1676   */\n      add\n        /* \"#utility.yul\":1778:1784   */\n      dup2\n        /* \"#utility.yul\":1766:1776   */\n      dup2\n        /* \"#utility.yul\":1763:1785   */\n      lt\n        /* \"#utility.yul\":1742:1760   */\n      0xffffffffffffffff\n        /* \"#utility.yul\":1730:1740   */\n      dup3\n        /* \"#utility.yul\":1727:1761   */\n      gt\n        /* \"#utility.yul\":1724:1786   */\n      or\n        /* \"#utility.yul\":1721:1809   */\n      iszero\n      tag_204\n      jumpi\n        /* \"#utility.yul\":1789:1807   */\n      tag_205\n      tag_136\n      jump\t// in\n    tag_205:\n        /* \"#utility.yul\":1721:1809   */\n    tag_204:\n        /* \"#utility.yul\":1829:1839   */\n      dup1\n        /* \"#utility.yul\":1825:1827   */\n      0x40\n        /* \"#utility.yul\":1818:1840   */\n      mstore\n        /* \"#utility.yul\":1608:1846   */\n      pop\n        /* \"#utility.yul\":1565:1846   */\n      pop\n      pop\n      jump\t// out\n        /* \"#utility.yul\":1852:1981   */\n    tag_138:\n        /* \"#utility.yul\":1886:1892   */\n      0x00\n        /* \"#utility.yul\":1913:1933   */\n      tag_207\n      tag_127\n      jump\t// in\n    tag_207:\n        /* \"#utility.yul\":1903:1933   */\n      swap1\n      pop\n        /* \"#utility.yul\":1942:1975   */\n      tag_208\n        /* \"#utility.yul\":1970:1974   */\n      dup3\n        /* \"#utility.yul\":1962:1968   */\n      dup3\n        /* \"#utility.yul\":1942:1975   */\n      tag_137\n      jump\t// in\n    tag_208:\n        /* \"#utility.yul\":1852:1981   */\n      swap2\n      swap1\n      pop\n      jump\t// out\n        /* \"#utility.yul\":1987:2295   */\n    tag_139:\n        /* \"#utility.yul\":2049:2053   */\n      0x00\n        /* \"#utility.yul\":2139:2157   */\n      0xffffffffffffffff\n        /* \"#utility.yul\":2131:2137   */\n      dup3\n        /* \"#utility.yul\":2128:2158   */\n      gt\n        /* \"#utility.yul\":2125:2181   */\n      iszero\n      tag_210\n      jumpi\n        /* \"#utility.yul\":2161:2179   */\n      tag_211\n      tag_136\n      jump\t// in\n    tag_211:\n        /* \"#utility.yul\":2125:2181   */\n    tag_210:\n        /* \"#utility.yul\":2199:2228   */\n      tag_212\n        /* \"#utility.yul\":2221:2227   */\n      dup3\n        /* \"#utility.yul\":2199:2228   */\n      tag_135\n      jump\t// in\n    tag_212:\n        /* \"#utility.yul\":2191:2228   */\n      swap1\n      pop\n        /* \"#utility.yul\":2283:2287   */\n      0x20\n        /* \"#utility.yul\":2277:2281   */\n      dup2\n        /* \"#utility.yul\":2273:2288   */\n      add\n        /* \"#utility.yul\":2265:2288   */\n      swap1\n      pop\n        /* \"#utility.yul\":1987:2295   */\n      swap2\n      swap1\n      pop\n      jump\t// out\n        /* \"#utility.yul\":2301:2447   */\n    tag_140:\n        /* \"#utility.yul\":2398:2404   */\n      dup3\n        /* \"#utility.yul\":2393:2396   */\n      dup2\n        /* \"#utility.yul\":2388:2391   */\n      dup4\n        /* \"#utility.yul\":2375:2405   */\n      calldatacopy\n        /* \"#utility.yul\":2439:2440   */\n      0x00\n        /* \"#utility.yul\":2430:2436   */\n      dup4\n        /* \"#utility.yul\":2425:2428   */\n      dup4\n        /* \"#utility.yul\":2421:2437   */\n      add\n        /* \"#utility.yul\":2414:2441   */\n      mstore\n        /* \"#utility.yul\":2301:2447   */\n      pop\n      pop\n      pop\n      jump\t// out\n        /* \"#utility.yul\":2453:2878   */\n    tag_141:\n        /* \"#utility.yul\":2531:2536   */\n      0x00\n        /* \"#utility.yul\":2556:2622   */\n      tag_215\n        /* \"#utility.yul\":2572:2621   */\n      tag_216\n        /* \"#utility.yul\":2614:2620   */\n      dup5\n        /* \"#utility.yul\":2572:2621   */\n      tag_139\n      jump\t// in\n    tag_216:\n        /* \"#utility.yul\":2556:2622   */\n      tag_138\n      jump\t// in\n    tag_215:\n        /* \"#utility.yul\":2547:2622   */\n      swap1\n      pop\n        /* \"#utility.yul\":2645:2651   */\n      dup3\n        /* \"#utility.yul\":2638:2643   */\n      dup2\n        /* \"#utility.yul\":2631:2652   */\n      mstore\n        /* \"#utility.yul\":2683:2687   */\n      0x20\n        /* \"#utility.yul\":2676:2681   */\n      dup2\n        /* \"#utility.yul\":2672:2688   */\n      add\n        /* \"#utility.yul\":2721:2724   */\n      dup5\n        /* \"#utility.yul\":2712:2718   */\n      dup5\n        /* \"#utility.yul\":2707:2710   */\n      dup5\n        /* \"#utility.yul\":2703:2719   */\n      add\n        /* \"#utility.yul\":2700:2725   */\n      gt\n        /* \"#utility.yul\":2697:2809   */\n      iszero\n      tag_217\n      jumpi\n        /* \"#utility.yul\":2728:2807   */\n      tag_218\n      tag_134\n      jump\t// in\n    tag_218:\n        /* \"#utility.yul\":2697:2809   */\n    tag_217:\n        /* \"#utility.yul\":2818:2872   */\n      tag_219\n        /* \"#utility.yul\":2865:2871   */\n      dup5\n        /* \"#utility.yul\":2860:2863   */\n      dup3\n        /* \"#utility.yul\":2855:2858   */\n      dup6\n        /* \"#utility.yul\":2818:2872   */\n      tag_140\n      jump\t// in\n    tag_219:\n        /* \"#utility.yul\":2537:2878   */\n      pop\n        /* \"#utility.yul\":2453:2878   */\n      swap4\n      swap3\n      pop\n      pop\n      pop\n      jump\t// out\n        /* \"#utility.yul\":2898:3238   */\n    tag_142:\n        /* \"#utility.yul\":2954:2959   */\n      0x00\n        /* \"#utility.yul\":3003:3006   */\n      dup3\n        /* \"#utility.yul\":2996:3000   */\n      0x1f\n        /* \"#utility.yul\":2988:2994   */\n      dup4\n        /* \"#utility.yul\":2984:3001   */\n      add\n        /* \"#utility.yul\":2980:3007   */\n      slt\n        /* \"#utility.yul\":2970:3092   */\n      tag_221\n      jumpi\n        /* \"#utility.yul\":3011:3090   */\n      tag_222\n      tag_133\n      jump\t// in\n    tag_222:\n        /* \"#utility.yul\":2970:3092   */\n    tag_221:\n        /* \"#utility.yul\":3128:3134   */\n      dup2\n        /* \"#utility.yul\":3115:3135   */\n      calldataload\n        /* \"#utility.yul\":3153:3232   */\n      tag_223\n        /* \"#utility.yul\":3228:3231   */\n      dup5\n        /* \"#utility.yul\":3220:3226   */\n      dup3\n        /* \"#utility.yul\":3213:3217   */\n      0x20\n        /* \"#utility.yul\":3205:3211   */\n      dup7\n        /* \"#utility.yul\":3201:3218   */\n      add\n        /* \"#utility.yul\":3153:3232   */\n      tag_141\n      jump\t// in\n    tag_223:\n        /* \"#utility.yul\":3144:3232   */\n      swap2\n      pop\n        /* \"#utility.yul\":2960:3238   */\n      pop\n        /* \"#utility.yul\":2898:3238   */\n      swap3\n      swap2\n      pop\n      pop\n      jump\t// out\n        /* \"#utility.yul\":3244:4223   */\n    tag_24:\n        /* \"#utility.yul\":3341:3347   */\n      0x00\n        /* \"#utility.yul\":3349:3355   */\n      dup1\n        /* \"#utility.yul\":3357:3363   */\n      0x00\n        /* \"#utility.yul\":3406:3408   */\n      0x60\n        /* \"#utility.yul\":3394:3403   */\n      dup5\n        /* \"#utility.yul\":3385:3392   */\n      dup7\n        /* \"#utility.yul\":3381:3404   */\n      sub\n        /* \"#utility.yul\":3377:3409   */\n      slt\n        /* \"#utility.yul\":3374:3493   */\n      iszero\n      tag_225\n      jumpi\n        /* \"#utility.yul\":3412:3491   */\n      tag_226\n      tag_128\n      jump\t// in\n    tag_226:\n        /* \"#utility.yul\":3374:3493   */\n    tag_225:\n        /* \"#utility.yul\":3560:3561   */\n      0x00\n        /* \"#utility.yul\":3549:3558   */\n      dup5\n        /* \"#utility.yul\":3545:3562   */\n      add\n        /* \"#utility.yul\":3532:3563   */\n      calldataload\n        /* \"#utility.yul\":3590:3608   */\n      0xffffffffffffffff\n        /* \"#utility.yul\":3582:3588   */\n      dup2\n        /* \"#utility.yul\":3579:3609   */\n      gt\n        /* \"#utility.yul\":3576:3693   */\n      iszero\n      tag_227\n      jumpi\n        /* \"#utility.yul\":3612:3691   */\n      tag_228\n      tag_129\n      jump\t// in\n    tag_228:\n        /* \"#utility.yul\":3576:3693   */\n    tag_227:\n        /* \"#utility.yul\":3717:3780   */\n      tag_229\n        /* \"#utility.yul\":3772:3779   */\n      dup7\n        /* \"#utility.yul\":3763:3769   */\n      dup3\n        /* \"#utility.yul\":3752:3761   */\n      dup8\n        /* \"#utility.yul\":3748:3770   */\n      add\n        /* \"#utility.yul\":3717:3780   */\n      tag_142\n      jump\t// in\n    tag_229:\n        /* \"#utility.yul\":3707:3780   */\n      swap4\n      pop\n        /* \"#utility.yul\":3503:3790   */\n      pop\n        /* \"#utility.yul\":3857:3859   */\n      0x20\n        /* \"#utility.yul\":3846:3855   */\n      dup5\n        /* \"#utility.yul\":3842:3860   */\n      add\n        /* \"#utility.yul\":3829:3861   */\n      calldataload\n        /* \"#utility.yul\":3888:3906   */\n      0xffffffffffffffff\n        /* \"#utility.yul\":3880:3886   */\n      dup2\n        /* \"#utility.yul\":3877:3907   */\n      gt\n        /* \"#utility.yul\":3874:3991   */\n      iszero\n      tag_230\n      jumpi\n        /* \"#utility.yul\":3910:3989   */\n      tag_231\n      tag_129\n      jump\t// in\n    tag_231:\n        /* \"#utility.yul\":3874:3991   */\n    tag_230:\n        /* \"#utility.yul\":4015:4078   */\n      tag_232\n        /* \"#utility.yul\":4070:4077   */\n      dup7\n        /* \"#utility.yul\":4061:4067   */\n      dup3\n        /* \"#utility.yul\":4050:4059   */\n      dup8\n        /* \"#utility.yul\":4046:4068   */\n      add\n        /* \"#utility.yul\":4015:4078   */\n      tag_142\n      jump\t// in\n    tag_232:\n        /* \"#utility.yul\":4005:4078   */\n      swap3\n      pop\n        /* \"#utility.yul\":3800:4088   */\n      pop\n        /* \"#utility.yul\":4127:4129   */\n      0x40\n        /* \"#utility.yul\":4153:4206   */\n      tag_233\n        /* \"#utility.yul\":4198:4205   */\n      dup7\n        /* \"#utility.yul\":4189:4195   */\n      dup3\n        /* \"#utility.yul\":4178:4187   */\n      dup8\n        /* \"#utility.yul\":4174:4196   */\n      add\n        /* \"#utility.yul\":4153:4206   */\n      tag_132\n      jump\t// in\n    tag_233:\n        /* \"#utility.yul\":4143:4206   */\n      swap2\n      pop\n        /* \"#utility.yul\":4098:4216   */\n      pop\n        /* \"#utility.yul\":3244:4223   */\n      swap3\n      pop\n      swap3\n      pop\n      swap3\n      jump\t// out\n        /* \"#utility.yul\":4229:4328   */\n    tag_143:\n        /* \"#utility.yul\":4281:4287   */\n      0x00\n        /* \"#utility.yul\":4315:4320   */\n      dup2\n        /* \"#utility.yul\":4309:4321   */\n      mload\n        /* \"#utility.yul\":4299:4321   */\n      swap1\n      pop\n        /* \"#utility.yul\":4229:4328   */\n      swap2\n      swap1\n      pop\n      jump\t// out\n        /* \"#utility.yul\":4334:4503   */\n    tag_144:\n        /* \"#utility.yul\":4418:4429   */\n      0x00\n        /* \"#utility.yul\":4452:4458   */\n      dup3\n        /* \"#utility.yul\":4447:4450   */\n      dup3\n        /* \"#utility.yul\":4440:4459   */\n      mstore\n        /* \"#utility.yul\":4492:4496   */\n      0x20\n        /* \"#utility.yul\":4487:4490   */\n      dup3\n        /* \"#utility.yul\":4483:4497   */\n      add\n        /* \"#utility.yul\":4468:4497   */\n      swap1\n      pop\n        /* \"#utility.yul\":4334:4503   */\n      swap3\n      swap2\n      pop\n      pop\n      jump\t// out\n        /* \"#utility.yul\":4509:4755   */\n    tag_145:\n        /* \"#utility.yul\":4590:4591   */\n      0x00\n        /* \"#utility.yul\":4600:4713   */\n    tag_237:\n        /* \"#utility.yul\":4614:4620   */\n      dup4\n        /* \"#utility.yul\":4611:4612   */\n      dup2\n        /* \"#utility.yul\":4608:4621   */\n      lt\n        /* \"#utility.yul\":4600:4713   */\n      iszero\n      tag_239\n      jumpi\n        /* \"#utility.yul\":4699:4700   */\n      dup1\n        /* \"#utility.yul\":4694:4697   */\n      dup3\n        /* \"#utility.yul\":4690:4701   */\n      add\n        /* \"#utility.yul\":4684:4702   */\n      mload\n        /* \"#utility.yul\":4680:4681   */\n      dup2\n        /* \"#utility.yul\":4675:4678   */\n      dup5\n        /* \"#utility.yul\":4671:4682   */\n      add\n        /* \"#utility.yul\":4664:4703   */\n      mstore\n        /* \"#utility.yul\":4636:4638   */\n      0x20\n        /* \"#utility.yul\":4633:4634   */\n      dup2\n        /* \"#utility.yul\":4629:4639   */\n      add\n        /* \"#utility.yul\":4624:4639   */\n      swap1\n      pop\n        /* \"#utility.yul\":4600:4713   */\n      jump(tag_237)\n    tag_239:\n        /* \"#utility.yul\":4747:4748   */\n      0x00\n        /* \"#utility.yul\":4738:4744   */\n      dup5\n        /* \"#utility.yul\":4733:4736   */\n      dup5\n        /* \"#utility.yul\":4729:4745   */\n      add\n        /* \"#utility.yul\":4722:4749   */\n      mstore\n        /* \"#utility.yul\":4571:4755   */\n      pop\n        /* \"#utility.yul\":4509:4755   */\n      pop\n      pop\n      pop\n      jump\t// out\n        /* \"#utility.yul\":4761:5138   */\n    tag_146:\n        /* \"#utility.yul\":4849:4852   */\n      0x00\n        /* \"#utility.yul\":4877:4916   */\n      tag_241\n        /* \"#utility.yul\":4910:4915   */\n      dup3\n        /* \"#utility.yul\":4877:4916   */\n      tag_143\n      jump\t// in\n    tag_241:\n        /* \"#utility.yul\":4932:5003   */\n      tag_242\n        /* \"#utility.yul\":4996:5002   */\n      dup2\n        /* \"#utility.yul\":4991:4994   */\n      dup6\n        /* \"#utility.yul\":4932:5003   */\n      tag_144\n      jump\t// in\n    tag_242:\n        /* \"#utility.yul\":4925:5003   */\n      swap4\n      pop\n        /* \"#utility.yul\":5012:5077   */\n      tag_243\n        /* \"#utility.yul\":5070:5076   */\n      dup2\n        /* \"#utility.yul\":5065:5068   */\n      dup6\n        /* \"#utility.yul\":5058:5062   */\n      0x20\n        /* \"#utility.yul\":5051:5056   */\n      dup7\n        /* \"#utility.yul\":5047:5063   */\n      add\n        /* \"#utility.yul\":5012:5077   */\n      tag_145\n      jump\t// in\n    tag_243:\n        /* \"#utility.yul\":5102:5131   */\n      tag_244\n        /* \"#utility.yul\":5124:5130   */\n      dup2\n        /* \"#utility.yul\":5102:5131   */\n      tag_135\n      jump\t// in\n    tag_244:\n        /* \"#utility.yul\":5097:5100   */\n      dup5\n        /* \"#utility.yul\":5093:5132   */\n      add\n        /* \"#utility.yul\":5086:5132   */\n      swap2\n      pop\n        /* \"#utility.yul\":4853:5138   */\n      pop\n        /* \"#utility.yul\":4761:5138   */\n      swap3\n      swap2\n      pop\n      pop\n      jump\t// out\n        /* \"#utility.yul\":5144:5270   */\n    tag_147:\n        /* \"#utility.yul\":5181:5188   */\n      0x00\n        /* \"#utility.yul\":5221:5263   */\n      0xffffffffffffffffffffffffffffffffffffffff\n        /* \"#utility.yul\":5214:5219   */\n      dup3\n        /* \"#utility.yul\":5210:5264   */\n      and\n        /* \"#utility.yul\":5199:5264   */\n      swap1\n      pop\n        /* \"#utility.yul\":5144:5270   */\n      swap2\n      swap1\n      pop\n      jump\t// out\n        /* \"#utility.yul\":5276:5380   */\n    tag_148:\n        /* \"#utility.yul\":5321:5328   */\n      0x00\n        /* \"#utility.yul\":5350:5374   */\n      tag_247\n        /* \"#utility.yul\":5368:5373   */\n      dup3\n        /* \"#utility.yul\":5350:5374   */\n      tag_147\n      jump\t// in\n    tag_247:\n        /* \"#utility.yul\":5339:5374   */\n      swap1\n      pop\n        /* \"#utility.yul\":5276:5380   */\n      swap2\n      swap1\n      pop\n      jump\t// out\n        /* \"#utility.yul\":5386:5528   */\n    tag_149:\n        /* \"#utility.yul\":5489:5521   */\n      tag_249\n        /* \"#utility.yul\":5515:5520   */\n      dup2\n        /* \"#utility.yul\":5489:5521   */\n      tag_148\n      jump\t// in\n    tag_249:\n        /* \"#utility.yul\":5484:5487   */\n      dup3\n        /* \"#utility.yul\":5477:5522   */\n      mstore\n        /* \"#utility.yul\":5386:5528   */\n      pop\n      pop\n      jump\t// out\n        /* \"#utility.yul\":5534:5652   */\n    tag_150:\n        /* \"#utility.yul\":5621:5645   */\n      tag_251\n        /* \"#utility.yul\":5639:5644   */\n      dup2\n        /* \"#utility.yul\":5621:5645   */\n      tag_130\n      jump\t// in\n    tag_251:\n        /* \"#utility.yul\":5616:5619   */\n      dup3\n        /* \"#utility.yul\":5609:5646   */\n      mstore\n        /* \"#utility.yul\":5534:5652   */\n      pop\n      pop\n      jump\t// out\n        /* \"#utility.yul\":5658:5754   */\n    tag_151:\n        /* \"#utility.yul\":5695:5702   */\n      0x00\n        /* \"#utility.yul\":5724:5748   */\n      tag_253\n        /* \"#utility.yul\":5742:5747   */\n      dup3\n        /* \"#utility.yul\":5724:5748   */\n      tag_147\n      jump\t// in\n    tag_253:\n        /* \"#utility.yul\":5713:5748   */\n      swap1\n      pop\n        /* \"#utility.yul\":5658:5754   */\n      swap2\n      swap1\n      pop\n      jump\t// out\n        /* \"#utility.yul\":5760:5878   */\n    tag_152:\n        /* \"#utility.yul\":5847:5871   */\n      tag_255\n        /* \"#utility.yul\":5865:5870   */\n      dup2\n        /* \"#utility.yul\":5847:5871   */\n      tag_151\n      jump\t// in\n    tag_255:\n        /* \"#utility.yul\":5842:5845   */\n      dup3\n        /* \"#utility.yul\":5835:5872   */\n      mstore\n        /* \"#utility.yul\":5760:5878   */\n      pop\n      pop\n      jump\t// out\n        /* \"#utility.yul\":5884:5974   */\n    tag_153:\n        /* \"#utility.yul\":5918:5925   */\n      0x00\n        /* \"#utility.yul\":5961:5966   */\n      dup2\n        /* \"#utility.yul\":5954:5967   */\n      iszero\n        /* \"#utility.yul\":5947:5968   */\n      iszero\n        /* \"#utility.yul\":5936:5968   */\n      swap1\n      pop\n        /* \"#utility.yul\":5884:5974   */\n      swap2\n      swap1\n      pop\n      jump\t// out\n        /* \"#utility.yul\":5980:6089   */\n    tag_154:\n        /* \"#utility.yul\":6061:6082   */\n      tag_258\n        /* \"#utility.yul\":6076:6081   */\n      dup2\n        /* \"#utility.yul\":6061:6082   */\n      tag_153\n      jump\t// in\n    tag_258:\n        /* \"#utility.yul\":6056:6059   */\n      dup3\n        /* \"#utility.yul\":6049:6083   */\n      mstore\n        /* \"#utility.yul\":5980:6089   */\n      pop\n      pop\n      jump\t// out\n        /* \"#utility.yul\":6095:7183   */\n    tag_31:\n        /* \"#utility.yul\":6406:6410   */\n      0x00\n        /* \"#utility.yul\":6444:6447   */\n      0xe0\n        /* \"#utility.yul\":6433:6442   */\n      dup3\n        /* \"#utility.yul\":6429:6448   */\n      add\n        /* \"#utility.yul\":6421:6448   */\n      swap1\n      pop\n        /* \"#utility.yul\":6494:6503   */\n      dup2\n        /* \"#utility.yul\":6488:6492   */\n      dup2\n        /* \"#utility.yul\":6484:6504   */\n      sub\n        /* \"#utility.yul\":6480:6481   */\n      0x00\n        /* \"#utility.yul\":6469:6478   */\n      dup4\n        /* \"#utility.yul\":6465:6482   */\n      add\n        /* \"#utility.yul\":6458:6505   */\n      mstore\n        /* \"#utility.yul\":6522:6600   */\n      tag_260\n        /* \"#utility.yul\":6595:6599   */\n      dup2\n        /* \"#utility.yul\":6586:6592   */\n      dup11\n        /* \"#utility.yul\":6522:6600   */\n      tag_146\n      jump\t// in\n    tag_260:\n        /* \"#utility.yul\":6514:6600   */\n      swap1\n      pop\n        /* \"#utility.yul\":6647:6656   */\n      dup2\n        /* \"#utility.yul\":6641:6645   */\n      dup2\n        /* \"#utility.yul\":6637:6657   */\n      sub\n        /* \"#utility.yul\":6632:6634   */\n      0x20\n        /* \"#utility.yul\":6621:6630   */\n      dup4\n        /* \"#utility.yul\":6617:6635   */\n      add\n        /* \"#utility.yul\":6610:6658   */\n      mstore\n        /* \"#utility.yul\":6675:6753   */\n      tag_261\n        /* \"#utility.yul\":6748:6752   */\n      dup2\n        /* \"#utility.yul\":6739:6745   */\n      dup10\n        /* \"#utility.yul\":6675:6753   */\n      tag_146\n      jump\t// in\n    tag_261:\n        /* \"#utility.yul\":6667:6753   */\n      swap1\n      pop\n        /* \"#utility.yul\":6763:6851   */\n      tag_262\n        /* \"#utility.yul\":6847:6849   */\n      0x40\n        /* \"#utility.yul\":6836:6845   */\n      dup4\n        /* \"#utility.yul\":6832:6850   */\n      add\n        /* \"#utility.yul\":6823:6829   */\n      dup9\n        /* \"#utility.yul\":6763:6851   */\n      tag_149\n      jump\t// in\n    tag_262:\n        /* \"#utility.yul\":6861:6933   */\n      tag_263\n        /* \"#utility.yul\":6929:6931   */\n      0x60\n        /* \"#utility.yul\":6918:6927   */\n      dup4\n        /* \"#utility.yul\":6914:6932   */\n      add\n        /* \"#utility.yul\":6905:6911   */\n      dup8\n        /* \"#utility.yul\":6861:6933   */\n      tag_150\n      jump\t// in\n    tag_263:\n        /* \"#utility.yul\":6943:7016   */\n      tag_264\n        /* \"#utility.yul\":7011:7014   */\n      0x80\n        /* \"#utility.yul\":7000:7009   */\n      dup4\n        /* \"#utility.yul\":6996:7015   */\n      add\n        /* \"#utility.yul\":6987:6993   */\n      dup7\n        /* \"#utility.yul\":6943:7016   */\n      tag_150\n      jump\t// in\n    tag_264:\n        /* \"#utility.yul\":7026:7099   */\n      tag_265\n        /* \"#utility.yul\":7094:7097   */\n      0xa0\n        /* \"#utility.yul\":7083:7092   */\n      dup4\n        /* \"#utility.yul\":7079:7098   */\n      add\n        /* \"#utility.yul\":7070:7076   */\n      dup6\n        /* \"#utility.yul\":7026:7099   */\n      tag_152\n      jump\t// in\n    tag_265:\n        /* \"#utility.yul\":7109:7176   */\n      tag_266\n        /* \"#utility.yul\":7171:7174   */\n      0xc0\n        /* \"#utility.yul\":7160:7169   */\n      dup4\n        /* \"#utility.yul\":7156:7175   */\n      add\n        /* \"#utility.yul\":7147:7153   */\n      dup5\n        /* \"#utility.yul\":7109:7176   */\n      tag_154\n      jump\t// in\n    tag_266:\n        /* \"#utility.yul\":6095:7183   */\n      swap9\n      swap8\n      pop\n      pop\n      pop\n      pop\n      pop\n      pop\n      pop\n      pop\n      jump\t// out\n        /* \"#utility.yul\":7189:7362   */\n    tag_155:\n        /* \"#utility.yul\":7329:7354   */\n      0x436f6e747261637420646f6573206e6f74206578697374000000000000000000\n        /* \"#utility.yul\":7325:7326   */\n      0x00\n        /* \"#utility.yul\":7317:7323   */\n      dup3\n        /* \"#utility.yul\":7313:7327   */\n      add\n        /* \"#utility.yul\":7306:7355   */\n      mstore\n        /* \"#utility.yul\":7189:7362   */\n      pop\n      jump\t// out\n        /* \"#utility.yul\":7368:7734   */\n    tag_156:\n        /* \"#utility.yul\":7510:7513   */\n      0x00\n        /* \"#utility.yul\":7531:7598   */\n      tag_269\n        /* \"#utility.yul\":7595:7597   */\n      0x17\n        /* \"#utility.yul\":7590:7593   */\n      dup4\n        /* \"#utility.yul\":7531:7598   */\n      tag_144\n      jump\t// in\n    tag_269:\n        /* \"#utility.yul\":7524:7598   */\n      swap2\n      pop\n        /* \"#utility.yul\":7607:7700   */\n      tag_270\n        /* \"#utility.yul\":7696:7699   */\n      dup3\n        /* \"#utility.yul\":7607:7700   */\n      tag_155\n      jump\t// in\n    tag_270:\n        /* \"#utility.yul\":7725:7727   */\n      0x20\n        /* \"#utility.yul\":7720:7723   */\n      dup3\n        /* \"#utility.yul\":7716:7728   */\n      add\n        /* \"#utility.yul\":7709:7728   */\n      swap1\n      pop\n        /* \"#utility.yul\":7368:7734   */\n      swap2\n      swap1\n      pop\n      jump\t// out\n        /* \"#utility.yul\":7740:8159   */\n    tag_41:\n        /* \"#utility.yul\":7906:7910   */\n      0x00\n        /* \"#utility.yul\":7944:7946   */\n      0x20\n        /* \"#utility.yul\":7933:7942   */\n      dup3\n        /* \"#utility.yul\":7929:7947   */\n      add\n        /* \"#utility.yul\":7921:7947   */\n      swap1\n      pop\n        /* \"#utility.yul\":7993:8002   */\n      dup2\n        /* \"#utility.yul\":7987:7991   */\n      dup2\n        /* \"#utility.yul\":7983:8003   */\n      sub\n        /* \"#utility.yul\":7979:7980   */\n      0x00\n        /* \"#utility.yul\":7968:7977   */\n      dup4\n        /* \"#utility.yul\":7964:7981   */\n      add\n        /* \"#utility.yul\":7957:8004   */\n      mstore\n        /* \"#utility.yul\":8021:8152   */\n      tag_272\n        /* \"#utility.yul\":8147:8151   */\n      dup2\n        /* \"#utility.yul\":8021:8152   */\n      tag_156\n      jump\t// in\n    tag_272:\n        /* \"#utility.yul\":8013:8152   */\n      swap1\n      pop\n        /* \"#utility.yul\":7740:8159   */\n      swap2\n      swap1\n      pop\n      jump\t// out\n        /* \"#utility.yul\":8165:8345   */\n    tag_157:\n        /* \"#utility.yul\":8213:8290   */\n      0x4e487b7100000000000000000000000000000000000000000000000000000000\n        /* \"#utility.yul\":8210:8211   */\n      0x00\n        /* \"#utility.yul\":8203:8291   */\n      mstore\n        /* \"#utility.yul\":8310:8314   */\n      0x11\n        /* \"#utility.yul\":8307:8308   */\n      0x04\n        /* \"#utility.yul\":8300:8315   */\n      mstore\n        /* \"#utility.yul\":8334:8338   */\n      0x24\n        /* \"#utility.yul\":8331:8332   */\n      0x00\n        /* \"#utility.yul\":8324:8339   */\n      revert\n        /* \"#utility.yul\":8351:8545   */\n    tag_44:\n        /* \"#utility.yul\":8391:8395   */\n      0x00\n        /* \"#utility.yul\":8411:8431   */\n      tag_275\n        /* \"#utility.yul\":8429:8430   */\n      dup3\n        /* \"#utility.yul\":8411:8431   */\n      tag_130\n      jump\t// in\n    tag_275:\n        /* \"#utility.yul\":8406:8431   */\n      swap2\n      pop\n        /* \"#utility.yul\":8445:8465   */\n      tag_276\n        /* \"#utility.yul\":8463:8464   */\n      dup4\n        /* \"#utility.yul\":8445:8465   */\n      tag_130\n      jump\t// in\n    tag_276:\n        /* \"#utility.yul\":8440:8465   */\n      swap3\n      pop\n        /* \"#utility.yul\":8489:8490   */\n      dup3\n        /* \"#utility.yul\":8486:8487   */\n      dup3\n        /* \"#utility.yul\":8482:8491   */\n      sub\n        /* \"#utility.yul\":8474:8491   */\n      swap1\n      pop\n        /* \"#utility.yul\":8513:8514   */\n      dup2\n        /* \"#utility.yul\":8507:8511   */\n      dup2\n        /* \"#utility.yul\":8504:8515   */\n      gt\n        /* \"#utility.yul\":8501:8538   */\n      iszero\n      tag_277\n      jumpi\n        /* \"#utility.yul\":8518:8536   */\n      tag_278\n      tag_157\n      jump\t// in\n    tag_278:\n        /* \"#utility.yul\":8501:8538   */\n    tag_277:\n        /* \"#utility.yul\":8351:8545   */\n      swap3\n      swap2\n      pop\n      pop\n      jump\t// out\n        /* \"#utility.yul\":8551:8731   */\n    tag_47:\n        /* \"#utility.yul\":8599:8676   */\n      0x4e487b7100000000000000000000000000000000000000000000000000000000\n        /* \"#utility.yul\":8596:8597   */\n      0x00\n        /* \"#utility.yul\":8589:8677   */\n      mstore\n        /* \"#utility.yul\":8696:8700   */\n      0x32\n        /* \"#utility.yul\":8693:8694   */\n      0x04\n        /* \"#utility.yul\":8686:8701   */\n      mstore\n        /* \"#utility.yul\":8720:8724   */\n      0x24\n        /* \"#utility.yul\":8717:8718   */\n      0x00\n        /* \"#utility.yul\":8710:8725   */\n      revert\n        /* \"#utility.yul\":8737:8909   */\n    tag_158:\n        /* \"#utility.yul\":8877:8901   */\n      0x4f6e6c792062757965722063616e20636f6e6669726d00000000000000000000\n        /* \"#utility.yul\":8873:8874   */\n      0x00\n        /* \"#utility.yul\":8865:8871   */\n      dup3\n        /* \"#utility.yul\":8861:8875   */\n      add\n        /* \"#utility.yul\":8854:8902   */\n      mstore\n        /* \"#utility.yul\":8737:8909   */\n      pop\n      jump\t// out\n        /* \"#utility.yul\":8915:9281   */\n    tag_159:\n        /* \"#utility.yul\":9057:9060   */\n      0x00\n        /* \"#utility.yul\":9078:9145   */\n      tag_282\n        /* \"#utility.yul\":9142:9144   */\n      0x16\n        /* \"#utility.yul\":9137:9140   */\n      dup4\n        /* \"#utility.yul\":9078:9145   */\n      tag_144\n      jump\t// in\n    tag_282:\n        /* \"#utility.yul\":9071:9145   */\n      swap2\n      pop\n        /* \"#utility.yul\":9154:9247   */\n      tag_283\n        /* \"#utility.yul\":9243:9246   */\n      dup3\n        /* \"#utility.yul\":9154:9247   */\n      tag_158\n      jump\t// in\n    tag_283:\n        /* \"#utility.yul\":9272:9274   */\n      0x20\n        /* \"#utility.yul\":9267:9270   */\n      dup3\n        /* \"#utility.yul\":9263:9275   */\n      add\n        /* \"#utility.yul\":9256:9275   */\n      swap1\n      pop\n        /* \"#utility.yul\":8915:9281   */\n      swap2\n      swap1\n      pop\n      jump\t// out\n        /* \"#utility.yul\":9287:9706   */\n    tag_51:\n        /* \"#utility.yul\":9453:9457   */\n      0x00\n        /* \"#utility.yul\":9491:9493   */\n      0x20\n        /* \"#utility.yul\":9480:9489   */\n      dup3\n        /* \"#utility.yul\":9476:9494   */\n      add\n        /* \"#utility.yul\":9468:9494   */\n      swap1\n      pop\n        /* \"#utility.yul\":9540:9549   */\n      dup2\n        /* \"#utility.yul\":9534:9538   */\n      dup2\n        /* \"#utility.yul\":9530:9550   */\n      sub\n        /* \"#utility.yul\":9526:9527   */\n      0x00\n        /* \"#utility.yul\":9515:9524   */\n      dup4\n        /* \"#utility.yul\":9511:9528   */\n      add\n        /* \"#utility.yul\":9504:9551   */\n      mstore\n        /* \"#utility.yul\":9568:9699   */\n      tag_285\n        /* \"#utility.yul\":9694:9698   */\n      dup2\n        /* \"#utility.yul\":9568:9699   */\n      tag_159\n      jump\t// in\n    tag_285:\n        /* \"#utility.yul\":9560:9699   */\n      swap1\n      pop\n        /* \"#utility.yul\":9287:9706   */\n      swap2\n      swap1\n      pop\n      jump\t// out\n        /* \"#utility.yul\":9712:9932   */\n    tag_160:\n        /* \"#utility.yul\":9852:9886   */\n      0x50726963652073686f756c642062652067726561746572207468616e207a6572\n        /* \"#utility.yul\":9848:9849   */\n      0x00\n        /* \"#utility.yul\":9840:9846   */\n      dup3\n        /* \"#utility.yul\":9836:9850   */\n      add\n        /* \"#utility.yul\":9829:9887   */\n      mstore\n        /* \"#utility.yul\":9921:9924   */\n      0x6f00000000000000000000000000000000000000000000000000000000000000\n        /* \"#utility.yul\":9916:9918   */\n      0x20\n        /* \"#utility.yul\":9908:9914   */\n      dup3\n        /* \"#utility.yul\":9904:9919   */\n      add\n        /* \"#utility.yul\":9897:9925   */\n      mstore\n        /* \"#utility.yul\":9712:9932   */\n      pop\n      jump\t// out\n        /* \"#utility.yul\":9938:10304   */\n    tag_161:\n        /* \"#utility.yul\":10080:10083   */\n      0x00\n        /* \"#utility.yul\":10101:10168   */\n      tag_288\n        /* \"#utility.yul\":10165:10167   */\n      0x21\n        /* \"#utility.yul\":10160:10163   */\n      dup4\n        /* \"#utility.yul\":10101:10168   */\n      tag_144\n      jump\t// in\n    tag_288:\n        /* \"#utility.yul\":10094:10168   */\n      swap2\n      pop\n        /* \"#utility.yul\":10177:10270   */\n      tag_289\n        /* \"#utility.yul\":10266:10269   */\n      dup3\n        /* \"#utility.yul\":10177:10270   */\n      tag_160\n      jump\t// in\n    tag_289:\n        /* \"#utility.yul\":10295:10297   */\n      0x40\n        /* \"#utility.yul\":10290:10293   */\n      dup3\n        /* \"#utility.yul\":10286:10298   */\n      add\n        /* \"#utility.yul\":10279:10298   */\n      swap1\n      pop\n        /* \"#utility.yul\":9938:10304   */\n      swap2\n      swap1\n      pop\n      jump\t// out\n        /* \"#utility.yul\":10310:10729   */\n    tag_72:\n        /* \"#utility.yul\":10476:10480   */\n      0x00\n        /* \"#utility.yul\":10514:10516   */\n      0x20\n        /* \"#utility.yul\":10503:10512   */\n      dup3\n        /* \"#utility.yul\":10499:10517   */\n      add\n        /* \"#utility.yul\":10491:10517   */\n      swap1\n      pop\n        /* \"#utility.yul\":10563:10572   */\n      dup2\n        /* \"#utility.yul\":10557:10561   */\n      dup2\n        /* \"#utility.yul\":10553:10573   */\n      sub\n        /* \"#utility.yul\":10549:10550   */\n      0x00\n        /* \"#utility.yul\":10538:10547   */\n      dup4\n        /* \"#utility.yul\":10534:10551   */\n      add\n        /* \"#utility.yul\":10527:10574   */\n      mstore\n        /* \"#utility.yul\":10591:10722   */\n      tag_291\n        /* \"#utility.yul\":10717:10721   */\n      dup2\n        /* \"#utility.yul\":10591:10722   */\n      tag_161\n      jump\t// in\n    tag_291:\n        /* \"#utility.yul\":10583:10722   */\n      swap1\n      pop\n        /* \"#utility.yul\":10310:10729   */\n      swap2\n      swap1\n      pop\n      jump\t// out\n        /* \"#utility.yul\":10735:11145   */\n    tag_76:\n        /* \"#utility.yul\":10775:10782   */\n      0x00\n        /* \"#utility.yul\":10798:10818   */\n      tag_293\n        /* \"#utility.yul\":10816:10817   */\n      dup3\n        /* \"#utility.yul\":10798:10818   */\n      tag_130\n      jump\t// in\n    tag_293:\n        /* \"#utility.yul\":10793:10818   */\n      swap2\n      pop\n        /* \"#utility.yul\":10832:10852   */\n      tag_294\n        /* \"#utility.yul\":10850:10851   */\n      dup4\n        /* \"#utility.yul\":10832:10852   */\n      tag_130\n      jump\t// in\n    tag_294:\n        /* \"#utility.yul\":10827:10852   */\n      swap3\n      pop\n        /* \"#utility.yul\":10887:10888   */\n      dup3\n        /* \"#utility.yul\":10884:10885   */\n      dup3\n        /* \"#utility.yul\":10880:10889   */\n      mul\n        /* \"#utility.yul\":10909:10939   */\n      tag_295\n        /* \"#utility.yul\":10927:10938   */\n      dup2\n        /* \"#utility.yul\":10909:10939   */\n      tag_130\n      jump\t// in\n    tag_295:\n        /* \"#utility.yul\":10898:10939   */\n      swap2\n      pop\n        /* \"#utility.yul\":11088:11089   */\n      dup3\n        /* \"#utility.yul\":11079:11086   */\n      dup3\n        /* \"#utility.yul\":11075:11090   */\n      div\n        /* \"#utility.yul\":11072:11073   */\n      dup5\n        /* \"#utility.yul\":11069:11091   */\n      eq\n        /* \"#utility.yul\":11049:11050   */\n      dup4\n        /* \"#utility.yul\":11042:11051   */\n      iszero\n        /* \"#utility.yul\":11022:11105   */\n      or\n        /* \"#utility.yul\":10999:11138   */\n      tag_296\n      jumpi\n        /* \"#utility.yul\":11118:11136   */\n      tag_297\n      tag_157\n      jump\t// in\n    tag_297:\n        /* \"#utility.yul\":10999:11138   */\n    tag_296:\n        /* \"#utility.yul\":10783:11145   */\n      pop\n        /* \"#utility.yul\":10735:11145   */\n      swap3\n      swap2\n      pop\n      pop\n      jump\t// out\n        /* \"#utility.yul\":11151:11331   */\n    tag_162:\n        /* \"#utility.yul\":11199:11276   */\n      0x4e487b7100000000000000000000000000000000000000000000000000000000\n        /* \"#utility.yul\":11196:11197   */\n      0x00\n        /* \"#utility.yul\":11189:11277   */\n      mstore\n        /* \"#utility.yul\":11296:11300   */\n      0x22\n        /* \"#utility.yul\":11293:11294   */\n      0x04\n        /* \"#utility.yul\":11286:11301   */\n      mstore\n        /* \"#utility.yul\":11320:11324   */\n      0x24\n        /* \"#utility.yul\":11317:11318   */\n      0x00\n        /* \"#utility.yul\":11310:11325   */\n      revert\n        /* \"#utility.yul\":11337:11657   */\n    tag_86:\n        /* \"#utility.yul\":11381:11387   */\n      0x00\n        /* \"#utility.yul\":11418:11419   */\n      0x02\n        /* \"#utility.yul\":11412:11416   */\n      dup3\n        /* \"#utility.yul\":11408:11420   */\n      div\n        /* \"#utility.yul\":11398:11420   */\n      swap1\n      pop\n        /* \"#utility.yul\":11465:11466   */\n      0x01\n        /* \"#utility.yul\":11459:11463   */\n      dup3\n        /* \"#utility.yul\":11455:11467   */\n      and\n        /* \"#utility.yul\":11486:11504   */\n      dup1\n        /* \"#utility.yul\":11476:11557   */\n      tag_300\n      jumpi\n        /* \"#utility.yul\":11542:11546   */\n      0x7f\n        /* \"#utility.yul\":11534:11540   */\n      dup3\n        /* \"#utility.yul\":11530:11547   */\n      and\n        /* \"#utility.yul\":11520:11547   */\n      swap2\n      pop\n        /* \"#utility.yul\":11476:11557   */\n    tag_300:\n        /* \"#utility.yul\":11604:11606   */\n      0x20\n        /* \"#utility.yul\":11596:11602   */\n      dup3\n        /* \"#utility.yul\":11593:11607   */\n      lt\n        /* \"#utility.yul\":11573:11591   */\n      dup2\n        /* \"#utility.yul\":11570:11608   */\n      sub\n        /* \"#utility.yul\":11567:11651   */\n      tag_301\n      jumpi\n        /* \"#utility.yul\":11623:11641   */\n      tag_302\n      tag_162\n      jump\t// in\n    tag_302:\n        /* \"#utility.yul\":11567:11651   */\n    tag_301:\n        /* \"#utility.yul\":11388:11657   */\n      pop\n        /* \"#utility.yul\":11337:11657   */\n      swap2\n      swap1\n      pop\n      jump\t// out\n        /* \"#utility.yul\":11663:11804   */\n    tag_163:\n        /* \"#utility.yul\":11712:11716   */\n      0x00\n        /* \"#utility.yul\":11735:11738   */\n      dup2\n        /* \"#utility.yul\":11727:11738   */\n      swap1\n      pop\n        /* \"#utility.yul\":11758:11761   */\n      dup2\n        /* \"#utility.yul\":11755:11756   */\n      0x00\n        /* \"#utility.yul\":11748:11762   */\n      mstore\n        /* \"#utility.yul\":11792:11796   */\n      0x20\n        /* \"#utility.yul\":11789:11790   */\n      0x00\n        /* \"#utility.yul\":11779:11797   */\n      keccak256\n        /* \"#utility.yul\":11771:11797   */\n      swap1\n      pop\n        /* \"#utility.yul\":11663:11804   */\n      swap2\n      swap1\n      pop\n      jump\t// out\n        /* \"#utility.yul\":11810:11903   */\n    tag_164:\n        /* \"#utility.yul\":11847:11853   */\n      0x00\n        /* \"#utility.yul\":11894:11896   */\n      0x20\n        /* \"#utility.yul\":11889:11891   */\n      0x1f\n        /* \"#utility.yul\":11882:11887   */\n      dup4\n        /* \"#utility.yul\":11878:11892   */\n      add\n        /* \"#utility.yul\":11874:11897   */\n      div\n        /* \"#utility.yul\":11864:11897   */\n      swap1\n      pop\n        /* \"#utility.yul\":11810:11903   */\n      swap2\n      swap1\n      pop\n      jump\t// out\n        /* \"#utility.yul\":11909:12016   */\n    tag_165:\n        /* \"#utility.yul\":11953:11961   */\n      0x00\n        /* \"#utility.yul\":12003:12008   */\n      dup3\n        /* \"#utility.yul\":11997:12001   */\n      dup3\n        /* \"#utility.yul\":11993:12009   */\n      shl\n        /* \"#utility.yul\":11972:12009   */\n      swap1\n      pop\n        /* \"#utility.yul\":11909:12016   */\n      swap3\n      swap2\n      pop\n      pop\n      jump\t// out\n        /* \"#utility.yul\":12022:12415   */\n    tag_166:\n        /* \"#utility.yul\":12091:12097   */\n      0x00\n        /* \"#utility.yul\":12141:12142   */\n      0x08\n        /* \"#utility.yul\":12129:12139   */\n      dup4\n        /* \"#utility.yul\":12125:12143   */\n      mul\n        /* \"#utility.yul\":12164:12261   */\n      tag_307\n        /* \"#utility.yul\":12194:12260   */\n      0xffffffffffffffffffffffffffffffffffffffffffffffffffffffffffffffff\n        /* \"#utility.yul\":12183:12192   */\n      dup3\n        /* \"#utility.yul\":12164:12261   */\n      tag_165\n      jump\t// in\n    tag_307:\n        /* \"#utility.yul\":12282:12321   */\n      tag_308\n        /* \"#utility.yul\":12312:12320   */\n      dup7\n        /* \"#utility.yul\":12301:12310   */\n      dup4\n        /* \"#utility.yul\":12282:12321   */\n      tag_165\n      jump\t// in\n    tag_308:\n        /* \"#utility.yul\":12270:12321   */\n      swap6\n      pop\n        /* \"#utility.yul\":12354:12358   */\n      dup1\n        /* \"#utility.yul\":12350:12359   */\n      not\n        /* \"#utility.yul\":12343:12348   */\n      dup5\n        /* \"#utility.yul\":12339:12360   */\n      and\n        /* \"#utility.yul\":12330:12360   */\n      swap4\n      pop\n        /* \"#utility.yul\":12403:12407   */\n      dup1\n        /* \"#utility.yul\":12393:12401   */\n      dup7\n        /* \"#utility.yul\":12389:12408   */\n      and\n        /* \"#utility.yul\":12382:12387   */\n      dup5\n        /* \"#utility.yul\":12379:12409   */\n      or\n        /* \"#utility.yul\":12369:12409   */\n      swap3\n      pop\n        /* \"#utility.yul\":12098:12415   */\n      pop\n      pop\n        /* \"#utility.yul\":12022:12415   */\n      swap4\n      swap3\n      pop\n      pop\n      pop\n      jump\t// out\n        /* \"#utility.yul\":12421:12481   */\n    tag_167:\n        /* \"#utility.yul\":12449:12452   */\n      0x00\n        /* \"#utility.yul\":12470:12475   */\n      dup2\n        /* \"#utility.yul\":12463:12475   */\n      swap1\n      pop\n        /* \"#utility.yul\":12421:12481   */\n      swap2\n      swap1\n      pop\n      jump\t// out\n        /* \"#utility.yul\":12487:12629   */\n    tag_168:\n        /* \"#utility.yul\":12537:12546   */\n      0x00\n        /* \"#utility.yul\":12570:12623   */\n      tag_311\n        /* \"#utility.yul\":12588:12622   */\n      tag_312\n        /* \"#utility.yul\":12597:12621   */\n      tag_313\n        /* \"#utility.yul\":12615:12620   */\n      dup5\n        /* \"#utility.yul\":12597:12621   */\n      tag_130\n      jump\t// in\n    tag_313:\n        /* \"#utility.yul\":12588:12622   */\n      tag_167\n      jump\t// in\n    tag_312:\n        /* \"#utility.yul\":12570:12623   */\n      tag_130\n      jump\t// in\n    tag_311:\n        /* \"#utility.yul\":12557:12623   */\n      swap1\n      pop\n        /* \"#utility.yul\":12487:12629   */\n      swap2\n      swap1\n      pop\n      jump\t// out\n        /* \"#utility.yul\":12635:12710   */\n    tag_169:\n        /* \"#utility.yul\":12678:12681   */\n      0x00\n        /* \"#utility.yul\":12699:12704   */\n      dup2\n        /* \"#utility.yul\":12692:12704   */\n      swap1\n      pop\n        /* \"#utility.yul\":12635:12710   */\n      swap2\n      swap1\n      pop\n      jump\t// out\n        /* \"#utility.yul\":12716:12985   */\n    tag_170:\n        /* \"#utility.yul\":12826:12865   */\n      tag_316\n        /* \"#utility.yul\":12857:12864   */\n      dup4\n        /* \"#utility.yul\":12826:12865   */\n      tag_168\n      jump\t// in\n    tag_316:\n        /* \"#utility.yul\":12887:12978   */\n      tag_317\n        /* \"#utility.yul\":12936:12977   */\n      tag_318\n        /* \"#utility.yul\":12960:12976   */\n      dup3\n        /* \"#utility.yul\":12936:12977   */\n      tag_169\n      jump\t// in\n    tag_318:\n        /* \"#utility.yul\":12928:12934   */\n      dup5\n        /* \"#utility.yul\":12921:12925   */\n      dup5\n        /* \"#utility.yul\":12915:12926   */\n      sload\n        /* \"#utility.yul\":12887:12978   */\n      tag_166\n      jump\t// in\n    tag_317:\n        /* \"#utility.yul\":12881:12885   */\n      dup3\n        /* \"#utility.yul\":12874:12979   */\n      sstore\n        /* \"#utility.yul\":12792:12985   */\n      pop\n        /* \"#utility.yul\":12716:12985   */\n      pop\n      pop\n      pop\n      jump\t// out\n        /* \"#utility.yul\":12991:13064   */\n    tag_171:\n        /* \"#utility.yul\":13036:13039   */\n      0x00\n        /* \"#utility.yul\":12991:13064   */\n      swap1\n      jump\t// out\n        /* \"#utility.yul\":13070:13259   */\n    tag_172:\n        /* \"#utility.yul\":13147:13179   */\n      tag_321\n      tag_171\n      jump\t// in\n    tag_321:\n        /* \"#utility.yul\":13188:13253   */\n      tag_322\n        /* \"#utility.yul\":13246:13252   */\n      dup2\n        /* \"#utility.yul\":13238:13244   */\n      dup5\n        /* \"#utility.yul\":13232:13236   */\n      dup5\n        /* \"#utility.yul\":13188:13253   */\n      tag_170\n      jump\t// in\n    tag_322:\n        /* \"#utility.yul\":13123:13259   */\n      pop\n        /* \"#utility.yul\":13070:13259   */\n      pop\n      pop\n      jump\t// out\n        /* \"#utility.yul\":13265:13451   */\n    tag_173:\n        /* \"#utility.yul\":13325:13445   */\n    tag_324:\n        /* \"#utility.yul\":13342:13345   */\n      dup2\n        /* \"#utility.yul\":13335:13340   */\n      dup2\n        /* \"#utility.yul\":13332:13346   */\n      lt\n        /* \"#utility.yul\":13325:13445   */\n      iszero\n      tag_326\n      jumpi\n        /* \"#utility.yul\":13396:13435   */\n      tag_327\n        /* \"#utility.yul\":13433:13434   */\n      0x00\n        /* \"#utility.yul\":13426:13431   */\n      dup3\n        /* \"#utility.yul\":13396:13435   */\n      tag_172\n      jump\t// in\n    tag_327:\n        /* \"#utility.yul\":13369:13370   */\n      0x01\n        /* \"#utility.yul\":13362:13367   */\n      dup2\n        /* \"#utility.yul\":13358:13371   */\n      add\n        /* \"#utility.yul\":13349:13371   */\n      swap1\n      pop\n        /* \"#utility.yul\":13325:13445   */\n      jump(tag_324)\n    tag_326:\n        /* \"#utility.yul\":13265:13451   */\n      pop\n      pop\n      jump\t// out\n        /* \"#utility.yul\":13457:14000   */\n    tag_174:\n        /* \"#utility.yul\":13558:13560   */\n      0x1f\n        /* \"#utility.yul\":13553:13556   */\n      dup3\n        /* \"#utility.yul\":13550:13561   */\n      gt\n        /* \"#utility.yul\":13547:13993   */\n      iszero\n      tag_329\n      jumpi\n        /* \"#utility.yul\":13592:13630   */\n      tag_330\n        /* \"#utility.yul\":13624:13629   */\n      dup2\n        /* \"#utility.yul\":13592:13630   */\n      tag_163\n      jump\t// in\n    tag_330:\n        /* \"#utility.yul\":13676:13705   */\n      tag_331\n        /* \"#utility.yul\":13694:13704   */\n      dup5\n        /* \"#utility.yul\":13676:13705   */\n      tag_164\n      jump\t// in\n    tag_331:\n        /* \"#utility.yul\":13666:13674   */\n      dup2\n        /* \"#utility.yul\":13662:13706   */\n      add\n        /* \"#utility.yul\":13859:13861   */\n      0x20\n        /* \"#utility.yul\":13847:13857   */\n      dup6\n        /* \"#utility.yul\":13844:13862   */\n      lt\n        /* \"#utility.yul\":13841:13890   */\n      iszero\n      tag_332\n      jumpi\n        /* \"#utility.yul\":13880:13888   */\n      dup2\n        /* \"#utility.yul\":13865:13888   */\n      swap1\n      pop\n        /* \"#utility.yul\":13841:13890   */\n    tag_332:\n        /* \"#utility.yul\":13903:13983   */\n      tag_333\n        /* \"#utility.yul\":13959:13981   */\n      tag_334\n        /* \"#utility.yul\":13977:13980   */\n      dup6\n        /* \"#utility.yul\":13959:13981   */\n      tag_164\n      jump\t// in\n    tag_334:\n        /* \"#utility.yul\":13949:13957   */\n      dup4\n        /* \"#utility.yul\":13945:13982   */\n      add\n        /* \"#utility.yul\":13932:13943   */\n      dup3\n        /* \"#utility.yul\":13903:13983   */\n      tag_173\n      jump\t// in\n    tag_333:\n        /* \"#utility.yul\":13562:13993   */\n      pop\n      pop\n        /* \"#utility.yul\":13547:13993   */\n    tag_329:\n        /* \"#utility.yul\":13457:14000   */\n      pop\n      pop\n      pop\n      jump\t// out\n        /* \"#utility.yul\":14006:14123   */\n    tag_175:\n        /* \"#utility.yul\":14060:14068   */\n      0x00\n        /* \"#utility.yul\":14110:14115   */\n      dup3\n        /* \"#utility.yul\":14104:14108   */\n      dup3\n        /* \"#utility.yul\":14100:14116   */\n      shr\n        /* \"#utility.yul\":14079:14116   */\n      swap1\n      pop\n        /* \"#utility.yul\":14006:14123   */\n      swap3\n      swap2\n      pop\n      pop\n      jump\t// out\n        /* \"#utility.yul\":14129:14298   */\n    tag_176:\n        /* \"#utility.yul\":14173:14179   */\n      0x00\n        /* \"#utility.yul\":14206:14257   */\n      tag_337\n        /* \"#utility.yul\":14254:14255   */\n      0x00\n        /* \"#utility.yul\":14250:14256   */\n      not\n        /* \"#utility.yul\":14242:14247   */\n      dup5\n        /* \"#utility.yul\":14239:14240   */\n      0x08\n        /* \"#utility.yul\":14235:14248   */\n      mul\n        /* \"#utility.yul\":14206:14257   */\n      tag_175\n      jump\t// in\n    tag_337:\n        /* \"#utility.yul\":14202:14258   */\n      not\n        /* \"#utility.yul\":14287:14291   */\n      dup1\n        /* \"#utility.yul\":14281:14285   */\n      dup4\n        /* \"#utility.yul\":14277:14292   */\n      and\n        /* \"#utility.yul\":14267:14292   */\n      swap2\n      pop\n        /* \"#utility.yul\":14180:14298   */\n      pop\n        /* \"#utility.yul\":14129:14298   */\n      swap3\n      swap2\n      pop\n      pop\n      jump\t// out\n        /* \"#utility.yul\":14303:14598   */\n    tag_177:\n        /* \"#utility.yul\":14379:14383   */\n      0x00\n        /* \"#utility.yul\":14525:14554   */\n      tag_339\n        /* \"#utility.yul\":14550:14553   */\n      dup4\n        /* \"#utility.yul\":14544:14548   */\n      dup4\n        /* \"#utility.yul\":14525:14554   */\n      tag_176\n      jump\t// in\n    tag_339:\n        /* \"#utility.yul\":14517:14554   */\n      swap2\n      pop\n        /* \"#utility.yul\":14587:14590   */\n      dup3\n        /* \"#utility.yul\":14584:14585   */\n      0x02\n        /* \"#utility.yul\":14580:14591   */\n      mul\n        /* \"#utility.yul\":14574:14578   */\n      dup3\n        /* \"#utility.yul\":14571:14592   */\n      or\n        /* \"#utility.yul\":14563:14592   */\n      swap1\n      pop\n        /* \"#utility.yul\":14303:14598   */\n      swap3\n      swap2\n      pop\n      pop\n      jump\t// out\n        /* \"#utility.yul\":14603:15998   */\n    tag_79:\n        /* \"#utility.yul\":14720:14757   */\n      tag_341\n        /* \"#utility.yul\":14753:14756   */\n      dup3\n        /* \"#utility.yul\":14720:14757   */\n      tag_143\n      jump\t// in\n    tag_341:\n        /* \"#utility.yul\":14822:14840   */\n      0xffffffffffffffff\n        /* \"#utility.yul\":14814:14820   */\n      dup2\n        /* \"#utility.yul\":14811:14841   */\n      gt\n        /* \"#utility.yul\":14808:14864   */\n      iszero\n      tag_342\n      jumpi\n        /* \"#utility.yul\":14844:14862   */\n      tag_343\n      tag_136\n      jump\t// in\n    tag_343:\n        /* \"#utility.yul\":14808:14864   */\n    tag_342:\n        /* \"#utility.yul\":14888:14926   */\n      tag_344\n        /* \"#utility.yul\":14920:14924   */\n      dup3\n        /* \"#utility.yul\":14914:14925   */\n      sload\n        /* \"#utility.yul\":14888:14926   */\n      tag_86\n      jump\t// in\n    tag_344:\n        /* \"#utility.yul\":14973:15040   */\n      tag_345\n        /* \"#utility.yul\":15033:15039   */\n      dup3\n        /* \"#utility.yul\":15025:15031   */\n      dup3\n        /* \"#utility.yul\":15019:15023   */\n      dup6\n        /* \"#utility.yul\":14973:15040   */\n      tag_174\n      jump\t// in\n    tag_345:\n        /* \"#utility.yul\":15067:15068   */\n      0x00\n        /* \"#utility.yul\":15091:15095   */\n      0x20\n        /* \"#utility.yul\":15078:15095   */\n      swap1\n      pop\n        /* \"#utility.yul\":15123:15125   */\n      0x1f\n        /* \"#utility.yul\":15115:15121   */\n      dup4\n        /* \"#utility.yul\":15112:15126   */\n      gt\n        /* \"#utility.yul\":15140:15141   */\n      0x01\n        /* \"#utility.yul\":15135:15753   */\n      dup2\n      eq\n      tag_347\n      jumpi\n        /* \"#utility.yul\":15797:15798   */\n      0x00\n        /* \"#utility.yul\":15814:15820   */\n      dup5\n        /* \"#utility.yul\":15811:15888   */\n      iszero\n      tag_348\n      jumpi\n        /* \"#utility.yul\":15863:15872   */\n      dup3\n        /* \"#utility.yul\":15858:15861   */\n      dup8\n        /* \"#utility.yul\":15854:15873   */\n      add\n        /* \"#utility.yul\":15848:15874   */\n      mload\n        /* \"#utility.yul\":15839:15874   */\n      swap1\n      pop\n        /* \"#utility.yul\":15811:15888   */\n    tag_348:\n        /* \"#utility.yul\":15914:15981   */\n      tag_349\n        /* \"#utility.yul\":15974:15980   */\n      dup6\n        /* \"#utility.yul\":15967:15972   */\n      dup3\n        /* \"#utility.yul\":15914:15981   */\n      tag_177\n      jump\t// in\n    tag_349:\n        /* \"#utility.yul\":15908:15912   */\n      dup7\n        /* \"#utility.yul\":15901:15982   */\n      sstore\n        /* \"#utility.yul\":15770:15992   */\n      pop\n        /* \"#utility.yul\":15105:15992   */\n      jump(tag_346)\n        /* \"#utility.yul\":15135:15753   */\n    tag_347:\n        /* \"#utility.yul\":15187:15191   */\n      0x1f\n        /* \"#utility.yul\":15183:15192   */\n      not\n        /* \"#utility.yul\":15175:15181   */\n      dup5\n        /* \"#utility.yul\":15171:15193   */\n      and\n        /* \"#utility.yul\":15221:15258   */\n      tag_350\n        /* \"#utility.yul\":15253:15257   */\n      dup7\n        /* \"#utility.yul\":15221:15258   */\n      tag_163\n      jump\t// in\n    tag_350:\n        /* \"#utility.yul\":15280:15281   */\n      0x00\n        /* \"#utility.yul\":15294:15502   */\n    tag_351:\n        /* \"#utility.yul\":15308:15315   */\n      dup3\n        /* \"#utility.yul\":15305:15306   */\n      dup2\n        /* \"#utility.yul\":15302:15316   */\n      lt\n        /* \"#utility.yul\":15294:15502   */\n      iszero\n      tag_353\n      jumpi\n        /* \"#utility.yul\":15387:15396   */\n      dup5\n        /* \"#utility.yul\":15382:15385   */\n      dup10\n        /* \"#utility.yul\":15378:15397   */\n      add\n        /* \"#utility.yul\":15372:15398   */\n      mload\n        /* \"#utility.yul\":15364:15370   */\n      dup3\n        /* \"#utility.yul\":15357:15399   */\n      sstore\n        /* \"#utility.yul\":15438:15439   */\n      0x01\n        /* \"#utility.yul\":15430:15436   */\n      dup3\n        /* \"#utility.yul\":15426:15440   */\n      add\n        /* \"#utility.yul\":15416:15440   */\n      swap2\n      pop\n        /* \"#utility.yul\":15485:15487   */\n      0x20\n        /* \"#utility.yul\":15474:15483   */\n      dup6\n        /* \"#utility.yul\":15470:15488   */\n      add\n        /* \"#utility.yul\":15457:15488   */\n      swap5\n      pop\n        /* \"#utility.yul\":15331:15335   */\n      0x20\n        /* \"#utility.yul\":15328:15329   */\n      dup2\n        /* \"#utility.yul\":15324:15336   */\n      add\n        /* \"#utility.yul\":15319:15336   */\n      swap1\n      pop\n        /* \"#utility.yul\":15294:15502   */\n      jump(tag_351)\n    tag_353:\n        /* \"#utility.yul\":15530:15536   */\n      dup7\n        /* \"#utility.yul\":15521:15528   */\n      dup4\n        /* \"#utility.yul\":15518:15537   */\n      lt\n        /* \"#utility.yul\":15515:15694   */\n      iszero\n      tag_354\n      jumpi\n        /* \"#utility.yul\":15588:15597   */\n      dup5\n        /* \"#utility.yul\":15583:15586   */\n      dup10\n        /* \"#utility.yul\":15579:15598   */\n      add\n        /* \"#utility.yul\":15573:15599   */\n      mload\n        /* \"#utility.yul\":15631:15679   */\n      tag_355\n        /* \"#utility.yul\":15673:15677   */\n      0x1f\n        /* \"#utility.yul\":15665:15671   */\n      dup10\n        /* \"#utility.yul\":15661:15678   */\n      and\n        /* \"#utility.yul\":15650:15659   */\n      dup3\n        /* \"#utility.yul\":15631:15679   */\n      tag_176\n      jump\t// in\n    tag_355:\n        /* \"#utility.yul\":15623:15629   */\n      dup4\n        /* \"#utility.yul\":15616:15680   */\n      sstore\n        /* \"#utility.yul\":15538:15694   */\n      pop\n        /* \"#utility.yul\":15515:15694   */\n    tag_354:\n        /* \"#utility.yul\":15740:15741   */\n      0x01\n        /* \"#utility.yul\":15736:15737   */\n      0x02\n        /* \"#utility.yul\":15728:15734   */\n      dup9\n        /* \"#utility.yul\":15724:15738   */\n      mul\n        /* \"#utility.yul\":15720:15742   */\n      add\n        /* \"#utility.yul\":15714:15718   */\n      dup9\n        /* \"#utility.yul\":15707:15743   */\n      sstore\n        /* \"#utility.yul\":15142:15753   */\n      pop\n      pop\n      pop\n        /* \"#utility.yul\":15105:15992   */\n    tag_346:\n      pop\n        /* \"#utility.yul\":14695:15998   */\n      pop\n      pop\n      pop\n        /* \"#utility.yul\":14603:15998   */\n      pop\n      pop\n      jump\t// out\n        /* \"#utility.yul\":16004:16237   */\n    tag_82:\n        /* \"#utility.yul\":16043:16046   */\n      0x00\n        /* \"#utility.yul\":16066:16090   */\n      tag_357\n        /* \"#utility.yul\":16084:16089   */\n      dup3\n        /* \"#utility.yul\":16066:16090   */\n      tag_130\n      jump\t// in\n    tag_357:\n        /* \"#utility.yul\":16057:16090   */\n      swap2\n      pop\n        /* \"#utility.yul\":16112:16178   */\n      0xffffffffffffffffffffffffffffffffffffffffffffffffffffffffffffffff\n        /* \"#utility.yul\":16105:16110   */\n      dup3\n        /* \"#utility.yul\":16102:16179   */\n      sub\n        /* \"#utility.yul\":16099:16202   */\n      tag_358\n      jumpi\n        /* \"#utility.yul\":16182:16200   */\n      tag_359\n      tag_157\n      jump\t// in\n    tag_359:\n        /* \"#utility.yul\":16099:16202   */\n    tag_358:\n        /* \"#utility.yul\":16229:16230   */\n      0x01\n        /* \"#utility.yul\":16222:16227   */\n      dup3\n        /* \"#utility.yul\":16218:16231   */\n      add\n        /* \"#utility.yul\":16211:16231   */\n      swap1\n      pop\n        /* \"#utility.yul\":16004:16237   */\n      swap2\n      swap1\n      pop\n      jump\t// out\n        /* \"#utility.yul\":16243:16419   */\n    tag_178:\n        /* \"#utility.yul\":16383:16411   */\n      0x6f6e6c79206d616e616765722063616e2063616c6c2074686973000000000000\n        /* \"#utility.yul\":16379:16380   */\n      0x00\n        /* \"#utility.yul\":16371:16377   */\n      dup3\n        /* \"#utility.yul\":16367:16381   */\n      add\n        /* \"#utility.yul\":16360:16412   */\n      mstore\n        /* \"#utility.yul\":16243:16419   */\n      pop\n      jump\t// out\n        /* \"#utility.yul\":16425:16791   */\n    tag_179:\n        /* \"#utility.yul\":16567:16570   */\n      0x00\n        /* \"#utility.yul\":16588:16655   */\n      tag_362\n        /* \"#utility.yul\":16652:16654   */\n      0x1a\n        /* \"#utility.yul\":16647:16650   */\n      dup4\n        /* \"#utility.yul\":16588:16655   */\n      tag_144\n      jump\t// in\n    tag_362:\n        /* \"#utility.yul\":16581:16655   */\n      swap2\n      pop\n        /* \"#utility.yul\":16664:16757   */\n      tag_363\n        /* \"#utility.yul\":16753:16756   */\n      dup3\n        /* \"#utility.yul\":16664:16757   */\n      tag_178\n      jump\t// in\n    tag_363:\n        /* \"#utility.yul\":16782:16784   */\n      0x20\n        /* \"#utility.yul\":16777:16780   */\n      dup3\n        /* \"#utility.yul\":16773:16785   */\n      add\n        /* \"#utility.yul\":16766:16785   */\n      swap1\n      pop\n        /* \"#utility.yul\":16425:16791   */\n      swap2\n      swap1\n      pop\n      jump\t// out\n        /* \"#utility.yul\":16797:17216   */\n    tag_102:\n        /* \"#utility.yul\":16963:16967   */\n      0x00\n        /* \"#utility.yul\":17001:17003   */\n      0x20\n        /* \"#utility.yul\":16990:16999   */\n      dup3\n        /* \"#utility.yul\":16986:17004   */\n      add\n        /* \"#utility.yul\":16978:17004   */\n      swap1\n      pop\n        /* \"#utility.yul\":17050:17059   */\n      dup2\n        /* \"#utility.yul\":17044:17048   */\n      dup2\n        /* \"#utility.yul\":17040:17060   */\n      sub\n        /* \"#utility.yul\":17036:17037   */\n      0x00\n        /* \"#utility.yul\":17025:17034   */\n      dup4\n        /* \"#utility.yul\":17021:17038   */\n      add\n        /* \"#utility.yul\":17014:17061   */\n      mstore\n        /* \"#utility.yul\":17078:17209   */\n      tag_365\n        /* \"#utility.yul\":17204:17208   */\n      dup2\n        /* \"#utility.yul\":17078:17209   */\n      tag_179\n      jump\t// in\n    tag_365:\n        /* \"#utility.yul\":17070:17209   */\n      swap1\n      pop\n        /* \"#utility.yul\":16797:17216   */\n      swap2\n      swap1\n      pop\n      jump\t// out\n        /* \"#utility.yul\":17222:17391   */\n    tag_180:\n        /* \"#utility.yul\":17362:17383   */\n      0x5061792074686520657861637420707269636500000000000000000000000000\n        /* \"#utility.yul\":17358:17359   */\n      0x00\n        /* \"#utility.yul\":17350:17356   */\n      dup3\n        /* \"#utility.yul\":17346:17360   */\n      add\n        /* \"#utility.yul\":17339:17384   */\n      mstore\n        /* \"#utility.yul\":17222:17391   */\n      pop\n      jump\t// out\n        /* \"#utility.yul\":17397:17763   */\n    tag_181:\n        /* \"#utility.yul\":17539:17542   */\n      0x00\n        /* \"#utility.yul\":17560:17627   */\n      tag_368\n        /* \"#utility.yul\":17624:17626   */\n      0x13\n        /* \"#utility.yul\":17619:17622   */\n      dup4\n        /* \"#utility.yul\":17560:17627   */\n      tag_144\n      jump\t// in\n    tag_368:\n        /* \"#utility.yul\":17553:17627   */\n      swap2\n      pop\n        /* \"#utility.yul\":17636:17729   */\n      tag_369\n        /* \"#utility.yul\":17725:17728   */\n      dup3\n        /* \"#utility.yul\":17636:17729   */\n      tag_180\n      jump\t// in\n    tag_369:\n        /* \"#utility.yul\":17754:17756   */\n      0x20\n        /* \"#utility.yul\":17749:17752   */\n      dup3\n        /* \"#utility.yul\":17745:17757   */\n      add\n        /* \"#utility.yul\":17738:17757   */\n      swap1\n      pop\n        /* \"#utility.yul\":17397:17763   */\n      swap2\n      swap1\n      pop\n      jump\t// out\n        /* \"#utility.yul\":17769:18188   */\n    tag_115:\n        /* \"#utility.yul\":17935:17939   */\n      0x00\n        /* \"#utility.yul\":17973:17975   */\n      0x20\n        /* \"#utility.yul\":17962:17971   */\n      dup3\n        /* \"#utility.yul\":17958:17976   */\n      add\n        /* \"#utility.yul\":17950:17976   */\n      swap1\n      pop\n        /* \"#utility.yul\":18022:18031   */\n      dup2\n        /* \"#utility.yul\":18016:18020   */\n      dup2\n        /* \"#utility.yul\":18012:18032   */\n      sub\n        /* \"#utility.yul\":18008:18009   */\n      0x00\n        /* \"#utility.yul\":17997:18006   */\n      dup4\n        /* \"#utility.yul\":17993:18010   */\n      add\n        /* \"#utility.yul\":17986:18033   */\n      mstore\n        /* \"#utility.yul\":18050:18181   */\n      tag_371\n        /* \"#utility.yul\":18176:18180   */\n      dup2\n        /* \"#utility.yul\":18050:18181   */\n      tag_181\n      jump\t// in\n    tag_371:\n        /* \"#utility.yul\":18042:18181   */\n      swap1\n      pop\n        /* \"#utility.yul\":17769:18188   */\n      swap2\n      swap1\n      pop\n      jump\t// out\n        /* \"#utility.yul\":18194:18361   */\n    tag_182:\n        /* \"#utility.yul\":18334:18353   */\n      0x53656c6c65722063616e6e6f7420627579000000000000000000000000000000\n        /* \"#utility.yul\":18330:18331   */\n      0x00\n        /* \"#utility.yul\":18322:18328   */\n      dup3\n        /* \"#utility.yul\":18318:18332   */\n      add\n        /* \"#utility.yul\":18311:18354   */\n      mstore\n        /* \"#utility.yul\":18194:18361   */\n      pop\n      jump\t// out\n        /* \"#utility.yul\":18367:18733   */\n    tag_183:\n        /* \"#utility.yul\":18509:18512   */\n      0x00\n        /* \"#utility.yul\":18530:18597   */\n      tag_374\n        /* \"#utility.yul\":18594:18596   */\n      0x11\n        /* \"#utility.yul\":18589:18592   */\n      dup4\n        /* \"#utility.yul\":18530:18597   */\n      tag_144\n      jump\t// in\n    tag_374:\n        /* \"#utility.yul\":18523:18597   */\n      swap2\n      pop\n        /* \"#utility.yul\":18606:18699   */\n      tag_375\n        /* \"#utility.yul\":18695:18698   */\n      dup3\n        /* \"#utility.yul\":18606:18699   */\n      tag_182\n      jump\t// in\n    tag_375:\n        /* \"#utility.yul\":18724:18726   */\n      0x20\n        /* \"#utility.yul\":18719:18722   */\n      dup3\n        /* \"#utility.yul\":18715:18727   */\n      add\n        /* \"#utility.yul\":18708:18727   */\n      swap1\n      pop\n        /* \"#utility.yul\":18367:18733   */\n      swap2\n      swap1\n      pop\n      jump\t// out\n        /* \"#utility.yul\":18739:19158   */\n    tag_122:\n        /* \"#utility.yul\":18905:18909   */\n      0x00\n        /* \"#utility.yul\":18943:18945   */\n      0x20\n        /* \"#utility.yul\":18932:18941   */\n      dup3\n        /* \"#utility.yul\":18928:18946   */\n      add\n        /* \"#utility.yul\":18920:18946   */\n      swap1\n      pop\n        /* \"#utility.yul\":18992:19001   */\n      dup2\n        /* \"#utility.yul\":18986:18990   */\n      dup2\n        /* \"#utility.yul\":18982:19002   */\n      sub\n        /* \"#utility.yul\":18978:18979   */\n      0x00\n        /* \"#utility.yul\":18967:18976   */\n      dup4\n        /* \"#utility.yul\":18963:18980   */\n      add\n        /* \"#utility.yul\":18956:19003   */\n      mstore\n        /* \"#utility.yul\":19020:19151   */\n      tag_377\n        /* \"#utility.yul\":19146:19150   */\n      dup2\n        /* \"#utility.yul\":19020:19151   */\n      tag_183\n      jump\t// in\n    tag_377:\n        /* \"#utility.yul\":19012:19151   */\n      swap1\n      pop\n        /* \"#utility.yul\":18739:19158   */\n      swap2\n      swap1\n      pop\n      jump\t// out\n\n    auxdata: 0xa2646970667358221220ecb43de6cf9fb1b3fd72a0cb677962a557979bd08f30ee10abac05c36b27a83b64736f6c63430008160033\n}\n",
				"bytecode": {
					"linkReferences": {},
					"object": "60806040525f8060146101000a81548160ff0219169083151502179055506001805534801561002c575f80fd5b50335f806101000a81548173ffffffffffffffffffffffffffffffffffffffff021916908373ffffffffffffffffffffffffffffffffffffffff16021790555061159f806100795f395ff3fe60806040526004361061004d575f3560e01c80631144fd72146100dc5780633153a15b146101045780637acc0b201461012c57806383197ef01461016e578063d96a094a1461018457610097565b36610097573073ffffffffffffffffffffffffffffffffffffffff166108fc3490811502906040515f60405180830381858888f19350505050158015610095573d5f803e3d5ffd5b005b3373ffffffffffffffffffffffffffffffffffffffff166108fc3490811502906040515f60405180830381858888f193505050501580156100da573d5f803e3d5ffd5b005b3480156100e7575f80fd5b5061010260048036038101906100fd9190610b89565b6101a0565b005b34801561010f575f80fd5b5061012a60048036038101906101259190610cf0565b6103b7565b005b348015610137575f80fd5b50610152600480360381019061014d9190610b89565b6105f4565b6040516101659796959493929190610e7a565b60405180910390f35b348015610179575f80fd5b50610182610798565b005b61019e60048036038101906101999190610b89565b6108f3565b005b5f60149054906101000a900460ff16156101ef576040517f08c379a00000000000000000000000000000000000000000000000000000000081526004016101e690610f3f565b60405180910390fd5b3373ffffffffffffffffffffffffffffffffffffffff1660026001836102159190610f8a565b8154811061022657610225610fbd565b5b905f5260205f2090600602016005015f9054906101000a900473ffffffffffffffffffffffffffffffffffffffff1673ffffffffffffffffffffffffffffffffffffffff16146102ab576040517f08c379a00000000000000000000000000000000000000000000000000000000081526004016102a290611034565b60405180910390fd5b600160026001836102bc9190610f8a565b815481106102cd576102cc610fbd565b5b905f5260205f20906006020160050160146101000a81548160ff02191690831515021790555060026001826103029190610f8a565b8154811061031357610312610fbd565b5b905f5260205f2090600602016002015f9054906101000a900473ffffffffffffffffffffffffffffffffffffffff1673ffffffffffffffffffffffffffffffffffffffff166108fc600260018461036a9190610f8a565b8154811061037b5761037a610fbd565b5b905f5260205f2090600602016004015490811502906040515f60405180830381858888f193505050501580156103b3573d5f803e3d5ffd5b5050565b5f60149054906101000a900460ff1615610406576040517f08c379a00000000000000000000000000000000000000000000000000000000081526004016103fd90610f3f565b60405180910390fd5b5f8111610448576040517f08c379a000000000000000000000000000000000000000000000000000000000815260040161043f906110c2565b60405180910390fd5b610450610adf565b83815f0181905250828160200181905250670de0b6b3a76400008261047591906110e0565b81608001818152505033816040019073ffffffffffffffffffffffffffffffffffffffff16908173ffffffffffffffffffffffffffffffffffffffff1681525050600154816060018181525050600281908060018154018082558091505060019003905f5260205f2090600602015f909190919091505f820151815f0190816104fe919061131b565b506020820151816001019081610514919061131b565b506040820151816002015f6101000a81548173ffffffffffffffffffffffffffffffffffffffff021916908373ffffffffffffffffffffffffffffffffffffffff160217905550606082015181600301556080820151816004015560a0820151816005015f6101000a81548173ffffffffffffffffffffffffffffffffffffffff021916908373ffffffffffffffffffffffffffffffffffffffff16021790555060c08201518160050160146101000a81548160ff021916908315150217905550505060015f8154809291906105e9906113ea565b919050555050505050565b60028181548110610603575f80fd5b905f5260205f2090600602015f91509050805f0180546106229061114e565b80601f016020809104026020016040519081016040528092919081815260200182805461064e9061114e565b80156106995780601f1061067057610100808354040283529160200191610699565b820191905f5260205f20905b81548152906001019060200180831161067c57829003601f168201915b5050505050908060010180546106ae9061114e565b80601f01602080910402602001604051908101604052809291908181526020018280546106da9061114e565b80156107255780601f106106fc57610100808354040283529160200191610725565b820191905f5260205f20905b81548152906001019060200180831161070857829003601f168201915b505050505090806002015f9054906101000a900473ffffffffffffffffffffffffffffffffffffffff1690806003015490806004015490806005015f9054906101000a900473ffffffffffffffffffffffffffffffffffffffff16908060050160149054906101000a900460ff16905087565b5f60149054906101000a900460ff16156107e7576040517f08c379a00000000000000000000000000000000000000000000000000000000081526004016107de90610f3f565b60405180910390fd5b3373ffffffffffffffffffffffffffffffffffffffff165f8054906101000a900473ffffffffffffffffffffffffffffffffffffffff1673ffffffffffffffffffffffffffffffffffffffff1614610874576040517f08c379a000000000000000000000000000000000000000000000000000000000815260040161086b9061147b565b60405180910390fd5b5f8054906101000a900473ffffffffffffffffffffffffffffffffffffffff1673ffffffffffffffffffffffffffffffffffffffff166108fc4790811502906040515f60405180830381858888f193505050501580156108d6573d5f803e3d5ffd5b5060015f60146101000a81548160ff021916908315150217905550565b5f60149054906101000a900460ff1615610942576040517f08c379a000000000000000000000000000000000000000000000000000000000815260040161093990610f3f565b60405180910390fd5b3460026001836109529190610f8a565b8154811061096357610962610fbd565b5b905f5260205f20906006020160040154146109b3576040517f08c379a00000000000000000000000000000000000000000000000000000000081526004016109aa906114e3565b60405180910390fd5b3373ffffffffffffffffffffffffffffffffffffffff1660026001836109d99190610f8a565b815481106109ea576109e9610fbd565b5b905f5260205f2090600602016002015f9054906101000a900473ffffffffffffffffffffffffffffffffffffffff1673ffffffffffffffffffffffffffffffffffffffff1603610a6f576040517f08c379a0000000000000000000000000000000000000000000000000000000008152600401610a669061154b565b60405180910390fd5b336002600183610a7f9190610f8a565b81548110610a9057610a8f610fbd565b5b905f5260205f2090600602016005015f6101000a81548173ffffffffffffffffffffffffffffffffffffffff021916908373ffffffffffffffffffffffffffffffffffffffff16021790555050565b6040518060e0016040528060608152602001606081526020015f73ffffffffffffffffffffffffffffffffffffffff1681526020015f81526020015f81526020015f73ffffffffffffffffffffffffffffffffffffffff1681526020015f151581525090565b5f604051905090565b5f80fd5b5f80fd5b5f819050919050565b610b6881610b56565b8114610b72575f80fd5b50565b5f81359050610b8381610b5f565b92915050565b5f60208284031215610b9e57610b9d610b4e565b5b5f610bab84828501610b75565b91505092915050565b5f80fd5b5f80fd5b5f601f19601f8301169050919050565b7f4e487b71000000000000000000000000000000000000000000000000000000005f52604160045260245ffd5b610c0282610bbc565b810181811067ffffffffffffffff82111715610c2157610c20610bcc565b5b80604052505050565b5f610c33610b45565b9050610c3f8282610bf9565b919050565b5f67ffffffffffffffff821115610c5e57610c5d610bcc565b5b610c6782610bbc565b9050602081019050919050565b828183375f83830152505050565b5f610c94610c8f84610c44565b610c2a565b905082815260208101848484011115610cb057610caf610bb8565b5b610cbb848285610c74565b509392505050565b5f82601f830112610cd757610cd6610bb4565b5b8135610ce7848260208601610c82565b91505092915050565b5f805f60608486031215610d0757610d06610b4e565b5b5f84013567ffffffffffffffff811115610d2457610d23610b52565b5b610d3086828701610cc3565b935050602084013567ffffffffffffffff811115610d5157610d50610b52565b5b610d5d86828701610cc3565b9250506040610d6e86828701610b75565b9150509250925092565b5f81519050919050565b5f82825260208201905092915050565b5f5b83811015610daf578082015181840152602081019050610d94565b5f8484015250505050565b5f610dc482610d78565b610dce8185610d82565b9350610dde818560208601610d92565b610de781610bbc565b840191505092915050565b5f73ffffffffffffffffffffffffffffffffffffffff82169050919050565b5f610e1b82610df2565b9050919050565b610e2b81610e11565b82525050565b610e3a81610b56565b82525050565b5f610e4a82610df2565b9050919050565b610e5a81610e40565b82525050565b5f8115159050919050565b610e7481610e60565b82525050565b5f60e0820190508181035f830152610e92818a610dba565b90508181036020830152610ea68189610dba565b9050610eb56040830188610e22565b610ec26060830187610e31565b610ecf6080830186610e31565b610edc60a0830185610e51565b610ee960c0830184610e6b565b98975050505050505050565b7f436f6e747261637420646f6573206e6f742065786973740000000000000000005f82015250565b5f610f29601783610d82565b9150610f3482610ef5565b602082019050919050565b5f6020820190508181035f830152610f5681610f1d565b9050919050565b7f4e487b71000000000000000000000000000000000000000000000000000000005f52601160045260245ffd5b5f610f9482610b56565b9150610f9f83610b56565b9250828203905081811115610fb757610fb6610f5d565b5b92915050565b7f4e487b71000000000000000000000000000000000000000000000000000000005f52603260045260245ffd5b7f4f6e6c792062757965722063616e20636f6e6669726d000000000000000000005f82015250565b5f61101e601683610d82565b915061102982610fea565b602082019050919050565b5f6020820190508181035f83015261104b81611012565b9050919050565b7f50726963652073686f756c642062652067726561746572207468616e207a65725f8201527f6f00000000000000000000000000000000000000000000000000000000000000602082015250565b5f6110ac602183610d82565b91506110b782611052565b604082019050919050565b5f6020820190508181035f8301526110d9816110a0565b9050919050565b5f6110ea82610b56565b91506110f583610b56565b925082820261110381610b56565b9150828204841483151761111a57611119610f5d565b5b5092915050565b7f4e487b71000000000000000000000000000000000000000000000000000000005f52602260045260245ffd5b5f600282049050600182168061116557607f821691505b60208210810361117857611177611121565b5b50919050565b5f819050815f5260205f209050919050565b5f6020601f8301049050919050565b5f82821b905092915050565b5f600883026111da7fffffffffffffffffffffffffffffffffffffffffffffffffffffffffffffffff8261119f565b6111e4868361119f565b95508019841693508086168417925050509392505050565b5f819050919050565b5f61121f61121a61121584610b56565b6111fc565b610b56565b9050919050565b5f819050919050565b61123883611205565b61124c61124482611226565b8484546111ab565b825550505050565b5f90565b611260611254565b61126b81848461122f565b505050565b5b8181101561128e576112835f82611258565b600181019050611271565b5050565b601f8211156112d3576112a48161117e565b6112ad84611190565b810160208510156112bc578190505b6112d06112c885611190565b830182611270565b50505b505050565b5f82821c905092915050565b5f6112f35f19846008026112d8565b1980831691505092915050565b5f61130b83836112e4565b9150826002028217905092915050565b61132482610d78565b67ffffffffffffffff81111561133d5761133c610bcc565b5b611347825461114e565b611352828285611292565b5f60209050601f831160018114611383575f8415611371578287015190505b61137b8582611300565b8655506113e2565b601f1984166113918661117e565b5f5b828110156113b857848901518255600182019150602085019450602081019050611393565b868310156113d557848901516113d1601f8916826112e4565b8355505b6001600288020188555050505b505050505050565b5f6113f482610b56565b91507fffffffffffffffffffffffffffffffffffffffffffffffffffffffffffffffff820361142657611425610f5d565b5b600182019050919050565b7f6f6e6c79206d616e616765722063616e2063616c6c20746869730000000000005f82015250565b5f611465601a83610d82565b915061147082611431565b602082019050919050565b5f6020820190508181035f83015261149281611459565b9050919050565b7f50617920746865206578616374207072696365000000000000000000000000005f82015250565b5f6114cd601383610d82565b91506114d882611499565b602082019050919050565b5f6020820190508181035f8301526114fa816114c1565b9050919050565b7f53656c6c65722063616e6e6f74206275790000000000000000000000000000005f82015250565b5f611535601183610d82565b915061154082611501565b602082019050919050565b5f6020820190508181035f83015261156281611529565b905091905056fea2646970667358221220ecb43de6cf9fb1b3fd72a0cb677962a557979bd08f30ee10abac05c36b27a83b64736f6c63430008160033",
					"opcodes": "PUSH1 0x80 PUSH1 0x40 MSTORE PUSH0 DUP1 PUSH1 0x14 PUSH2 0x100 EXP DUP2 SLOAD DUP2 PUSH1 0xFF MUL NOT AND SWAP1 DUP4 ISZERO ISZERO MUL OR SWAP1 SSTORE POP PUSH1 0x1 DUP1 SSTORE CALLVALUE DUP1 ISZERO PUSH2 0x2C JUMPI PUSH0 DUP1 REVERT JUMPDEST POP CALLER PUSH0 DUP1 PUSH2 0x100 EXP DUP2 SLOAD DUP2 PUSH20 0xFFFFFFFFFFFFFFFFFFFFFFFFFFFFFFFFFFFFFFFF MUL NOT AND SWAP1 DUP4 PUSH20 0xFFFFFFFFFFFFFFFFFFFFFFFFFFFFFFFFFFFFFFFF AND MUL OR SWAP1 SSTORE POP PUSH2 0x159F DUP1 PUSH2 0x79 PUSH0 CODECOPY PUSH0 RETURN INVALID PUSH1 0x80 PUSH1 0x40 MSTORE PUSH1 0x4 CALLDATASIZE LT PUSH2 0x4D JUMPI PUSH0 CALLDATALOAD PUSH1 0xE0 SHR DUP1 PUSH4 0x1144FD72 EQ PUSH2 0xDC JUMPI DUP1 PUSH4 0x3153A15B EQ PUSH2 0x104 JUMPI DUP1 PUSH4 0x7ACC0B20 EQ PUSH2 0x12C JUMPI DUP1 PUSH4 0x83197EF0 EQ PUSH2 0x16E JUMPI DUP1 PUSH4 0xD96A094A EQ PUSH2 0x184 JUMPI PUSH2 0x97 JUMP JUMPDEST CALLDATASIZE PUSH2 0x97 JUMPI ADDRESS PUSH20 0xFFFFFFFFFFFFFFFFFFFFFFFFFFFFFFFFFFFFFFFF AND PUSH2 0x8FC CALLVALUE SWAP1 DUP2 ISZERO MUL SWAP1 PUSH1 0x40 MLOAD PUSH0 PUSH1 0x40 MLOAD DUP1 DUP4 SUB DUP2 DUP6 DUP9 DUP9 CALL SWAP4 POP POP POP POP ISZERO DUP1 ISZERO PUSH2 0x95 JUMPI RETURNDATASIZE PUSH0 DUP1 RETURNDATACOPY RETURNDATASIZE PUSH0 REVERT JUMPDEST STOP JUMPDEST CALLER PUSH20 0xFFFFFFFFFFFFFFFFFFFFFFFFFFFFFFFFFFFFFFFF AND PUSH2 0x8FC CALLVALUE SWAP1 DUP2 ISZERO MUL SWAP1 PUSH1 0x40 MLOAD PUSH0 PUSH1 0x40 MLOAD DUP1 DUP4 SUB DUP2 DUP6 DUP9 DUP9 CALL SWAP4 POP POP POP POP ISZERO DUP1 ISZERO PUSH2 0xDA JUMPI RETURNDATASIZE PUSH0 DUP1 RETURNDATACOPY RETURNDATASIZE PUSH0 REVERT JUMPDEST STOP JUMPDEST CALLVALUE DUP1 ISZERO PUSH2 0xE7 JUMPI PUSH0 DUP1 REVERT JUMPDEST POP PUSH2 0x102 PUSH1 0x4 DUP1 CALLDATASIZE SUB DUP2 ADD SWAP1 PUSH2 0xFD SWAP2 SWAP1 PUSH2 0xB89 JUMP JUMPDEST PUSH2 0x1A0 JUMP JUMPDEST STOP JUMPDEST CALLVALUE DUP1 ISZERO PUSH2 0x10F JUMPI PUSH0 DUP1 REVERT JUMPDEST POP PUSH2 0x12A PUSH1 0x4 DUP1 CALLDATASIZE SUB DUP2 ADD SWAP1 PUSH2 0x125 SWAP2 SWAP1 PUSH2 0xCF0 JUMP JUMPDEST PUSH2 0x3B7 JUMP JUMPDEST STOP JUMPDEST CALLVALUE DUP1 ISZERO PUSH2 0x137 JUMPI PUSH0 DUP1 REVERT JUMPDEST POP PUSH2 0x152 PUSH1 0x4 DUP1 CALLDATASIZE SUB DUP2 ADD SWAP1 PUSH2 0x14D SWAP2 SWAP1 PUSH2 0xB89 JUMP JUMPDEST PUSH2 0x5F4 JUMP JUMPDEST PUSH1 0x40 MLOAD PUSH2 0x165 SWAP8 SWAP7 SWAP6 SWAP5 SWAP4 SWAP3 SWAP2 SWAP1 PUSH2 0xE7A JUMP JUMPDEST PUSH1 0x40 MLOAD DUP1 SWAP2 SUB SWAP1 RETURN JUMPDEST CALLVALUE DUP1 ISZERO PUSH2 0x179 JUMPI PUSH0 DUP1 REVERT JUMPDEST POP PUSH2 0x182 PUSH2 0x798 JUMP JUMPDEST STOP JUMPDEST PUSH2 0x19E PUSH1 0x4 DUP1 CALLDATASIZE SUB DUP2 ADD SWAP1 PUSH2 0x199 SWAP2 SWAP1 PUSH2 0xB89 JUMP JUMPDEST PUSH2 0x8F3 JUMP JUMPDEST STOP JUMPDEST PUSH0 PUSH1 0x14 SWAP1 SLOAD SWAP1 PUSH2 0x100 EXP SWAP1 DIV PUSH1 0xFF AND ISZERO PUSH2 0x1EF JUMPI PUSH1 0x40 MLOAD PUSH32 0x8C379A000000000000000000000000000000000000000000000000000000000 DUP2 MSTORE PUSH1 0x4 ADD PUSH2 0x1E6 SWAP1 PUSH2 0xF3F JUMP JUMPDEST PUSH1 0x40 MLOAD DUP1 SWAP2 SUB SWAP1 REVERT JUMPDEST CALLER PUSH20 0xFFFFFFFFFFFFFFFFFFFFFFFFFFFFFFFFFFFFFFFF AND PUSH1 0x2 PUSH1 0x1 DUP4 PUSH2 0x215 SWAP2 SWAP1 PUSH2 0xF8A JUMP JUMPDEST DUP2 SLOAD DUP2 LT PUSH2 0x226 JUMPI PUSH2 0x225 PUSH2 0xFBD JUMP JUMPDEST JUMPDEST SWAP1 PUSH0 MSTORE PUSH1 0x20 PUSH0 KECCAK256 SWAP1 PUSH1 0x6 MUL ADD PUSH1 0x5 ADD PUSH0 SWAP1 SLOAD SWAP1 PUSH2 0x100 EXP SWAP1 DIV PUSH20 0xFFFFFFFFFFFFFFFFFFFFFFFFFFFFFFFFFFFFFFFF AND PUSH20 0xFFFFFFFFFFFFFFFFFFFFFFFFFFFFFFFFFFFFFFFF AND EQ PUSH2 0x2AB JUMPI PUSH1 0x40 MLOAD PUSH32 0x8C379A000000000000000000000000000000000000000000000000000000000 DUP2 MSTORE PUSH1 0x4 ADD PUSH2 0x2A2 SWAP1 PUSH2 0x1034 JUMP JUMPDEST PUSH1 0x40 MLOAD DUP1 SWAP2 SUB SWAP1 REVERT JUMPDEST PUSH1 0x1 PUSH1 0x2 PUSH1 0x1 DUP4 PUSH2 0x2BC SWAP2 SWAP1 PUSH2 0xF8A JUMP JUMPDEST DUP2 SLOAD DUP2 LT PUSH2 0x2CD JUMPI PUSH2 0x2CC PUSH2 0xFBD JUMP JUMPDEST JUMPDEST SWAP1 PUSH0 MSTORE PUSH1 0x20 PUSH0 KECCAK256 SWAP1 PUSH1 0x6 MUL ADD PUSH1 0x5 ADD PUSH1 0x14 PUSH2 0x100 EXP DUP2 SLOAD DUP2 PUSH1 0xFF MUL NOT AND SWAP1 DUP4 ISZERO ISZERO MUL OR SWAP1 SSTORE POP PUSH1 0x2 PUSH1 0x1 DUP3 PUSH2 0x302 SWAP2 SWAP1 PUSH2 0xF8A JUMP JUMPDEST DUP2 SLOAD DUP2 LT PUSH2 0x313 JUMPI PUSH2 0x312 PUSH2 0xFBD JUMP JUMPDEST JUMPDEST SWAP1 PUSH0 MSTORE PUSH1 0x20 PUSH0 KECCAK256 SWAP1 PUSH1 0x6 MUL ADD PUSH1 0x2 ADD PUSH0 SWAP1 SLOAD SWAP1 PUSH2 0x100 EXP SWAP1 DIV PUSH20 0xFFFFFFFFFFFFFFFFFFFFFFFFFFFFFFFFFFFFFFFF AND PUSH20 0xFFFFFFFFFFFFFFFFFFFFFFFFFFFFFFFFFFFFFFFF AND PUSH2 0x8FC PUSH1 0x2 PUSH1 0x1 DUP5 PUSH2 0x36A SWAP2 SWAP1 PUSH2 0xF8A JUMP JUMPDEST DUP2 SLOAD DUP2 LT PUSH2 0x37B JUMPI PUSH2 0x37A PUSH2 0xFBD JUMP JUMPDEST JUMPDEST SWAP1 PUSH0 MSTORE PUSH1 0x20 PUSH0 KECCAK256 SWAP1 PUSH1 0x6 MUL ADD PUSH1 0x4 ADD SLOAD SWAP1 DUP2 ISZERO MUL SWAP1 PUSH1 0x40 MLOAD PUSH0 PUSH1 0x40 MLOAD DUP1 DUP4 SUB DUP2 DUP6 DUP9 DUP9 CALL SWAP4 POP POP POP POP ISZERO DUP1 ISZERO PUSH2 0x3B3 JUMPI RETURNDATASIZE PUSH0 DUP1 RETURNDATACOPY RETURNDATASIZE PUSH0 REVERT JUMPDEST POP POP JUMP JUMPDEST PUSH0 PUSH1 0x14 SWAP1 SLOAD SWAP1 PUSH2 0x100 EXP SWAP1 DIV PUSH1 0xFF AND ISZERO PUSH2 0x406 JUMPI PUSH1 0x40 MLOAD PUSH32 0x8C379A000000000000000000000000000000000000000000000000000000000 DUP2 MSTORE PUSH1 0x4 ADD PUSH2 0x3FD SWAP1 PUSH2 0xF3F JUMP JUMPDEST PUSH1 0x40 MLOAD DUP1 SWAP2 SUB SWAP1 REVERT JUMPDEST PUSH0 DUP2 GT PUSH2 0x448 JUMPI PUSH1 0x40 MLOAD PUSH32 0x8C379A000000000000000000000000000000000000000000000000000000000 DUP2 MSTORE PUSH1 0x4 ADD PUSH2 0x43F SWAP1 PUSH2 0x10C2 JUMP JUMPDEST PUSH1 0x40 MLOAD DUP1 SWAP2 SUB SWAP1 REVERT JUMPDEST PUSH2 0x450 PUSH2 0xADF JUMP JUMPDEST DUP4 DUP2 PUSH0 ADD DUP2 SWAP1 MSTORE POP DUP3 DUP2 PUSH1 0x20 ADD DUP2 SWAP1 MSTORE POP PUSH8 0xDE0B6B3A7640000 DUP3 PUSH2 0x475 SWAP2 SWAP1 PUSH2 0x10E0 JUMP JUMPDEST DUP2 PUSH1 0x80 ADD DUP2 DUP2 MSTORE POP POP CALLER DUP2 PUSH1 0x40 ADD SWAP1 PUSH20 0xFFFFFFFFFFFFFFFFFFFFFFFFFFFFFFFFFFFFFFFF AND SWAP1 DUP2 PUSH20 0xFFFFFFFFFFFFFFFFFFFFFFFFFFFFFFFFFFFFFFFF AND DUP2 MSTORE POP POP PUSH1 0x1 SLOAD DUP2 PUSH1 0x60 ADD DUP2 DUP2 MSTORE POP POP PUSH1 0x2 DUP2 SWAP1 DUP1 PUSH1 0x1 DUP2 SLOAD ADD DUP1 DUP3 SSTORE DUP1 SWAP2 POP POP PUSH1 0x1 SWAP1 SUB SWAP1 PUSH0 MSTORE PUSH1 0x20 PUSH0 KECCAK256 SWAP1 PUSH1 0x6 MUL ADD PUSH0 SWAP1 SWAP2 SWAP1 SWAP2 SWAP1 SWAP2 POP PUSH0 DUP3 ADD MLOAD DUP2 PUSH0 ADD SWAP1 DUP2 PUSH2 0x4FE SWAP2 SWAP1 PUSH2 0x131B JUMP JUMPDEST POP PUSH1 0x20 DUP3 ADD MLOAD DUP2 PUSH1 0x1 ADD SWAP1 DUP2 PUSH2 0x514 SWAP2 SWAP1 PUSH2 0x131B JUMP JUMPDEST POP PUSH1 0x40 DUP3 ADD MLOAD DUP2 PUSH1 0x2 ADD PUSH0 PUSH2 0x100 EXP DUP2 SLOAD DUP2 PUSH20 0xFFFFFFFFFFFFFFFFFFFFFFFFFFFFFFFFFFFFFFFF MUL NOT AND SWAP1 DUP4 PUSH20 0xFFFFFFFFFFFFFFFFFFFFFFFFFFFFFFFFFFFFFFFF AND MUL OR SWAP1 SSTORE POP PUSH1 0x60 DUP3 ADD MLOAD DUP2 PUSH1 0x3 ADD SSTORE PUSH1 0x80 DUP3 ADD MLOAD DUP2 PUSH1 0x4 ADD SSTORE PUSH1 0xA0 DUP3 ADD MLOAD DUP2 PUSH1 0x5 ADD PUSH0 PUSH2 0x100 EXP DUP2 SLOAD DUP2 PUSH20 0xFFFFFFFFFFFFFFFFFFFFFFFFFFFFFFFFFFFFFFFF MUL NOT AND SWAP1 DUP4 PUSH20 0xFFFFFFFFFFFFFFFFFFFFFFFFFFFFFFFFFFFFFFFF AND MUL OR SWAP1 SSTORE POP PUSH1 0xC0 DUP3 ADD MLOAD DUP2 PUSH1 0x5 ADD PUSH1 0x14 PUSH2 0x100 EXP DUP2 SLOAD DUP2 PUSH1 0xFF MUL NOT AND SWAP1 DUP4 ISZERO ISZERO MUL OR SWAP1 SSTORE POP POP POP PUSH1 0x1 PUSH0 DUP2 SLOAD DUP1 SWAP3 SWAP2 SWAP1 PUSH2 0x5E9 SWAP1 PUSH2 0x13EA JUMP JUMPDEST SWAP2 SWAP1 POP SSTORE POP POP POP POP POP JUMP JUMPDEST PUSH1 0x2 DUP2 DUP2 SLOAD DUP2 LT PUSH2 0x603 JUMPI PUSH0 DUP1 REVERT JUMPDEST SWAP1 PUSH0 MSTORE PUSH1 0x20 PUSH0 KECCAK256 SWAP1 PUSH1 0x6 MUL ADD PUSH0 SWAP2 POP SWAP1 POP DUP1 PUSH0 ADD DUP1 SLOAD PUSH2 0x622 SWAP1 PUSH2 0x114E JUMP JUMPDEST DUP1 PUSH1 0x1F ADD PUSH1 0x20 DUP1 SWAP2 DIV MUL PUSH1 0x20 ADD PUSH1 0x40 MLOAD SWAP1 DUP2 ADD PUSH1 0x40 MSTORE DUP1 SWAP3 SWAP2 SWAP1 DUP2 DUP2 MSTORE PUSH1 0x20 ADD DUP3 DUP1 SLOAD PUSH2 0x64E SWAP1 PUSH2 0x114E JUMP JUMPDEST DUP1 ISZERO PUSH2 0x699 JUMPI DUP1 PUSH1 0x1F LT PUSH2 0x670 JUMPI PUSH2 0x100 DUP1 DUP4 SLOAD DIV MUL DUP4 MSTORE SWAP2 PUSH1 0x20 ADD SWAP2 PUSH2 0x699 JUMP JUMPDEST DUP3 ADD SWAP2 SWAP1 PUSH0 MSTORE PUSH1 0x20 PUSH0 KECCAK256 SWAP1 JUMPDEST DUP2 SLOAD DUP2 MSTORE SWAP1 PUSH1 0x1 ADD SWAP1 PUSH1 0x20 ADD DUP1 DUP4 GT PUSH2 0x67C JUMPI DUP3 SWAP1 SUB PUSH1 0x1F AND DUP3 ADD SWAP2 JUMPDEST POP POP POP POP POP SWAP1 DUP1 PUSH1 0x1 ADD DUP1 SLOAD PUSH2 0x6AE SWAP1 PUSH2 0x114E JUMP JUMPDEST DUP1 PUSH1 0x1F ADD PUSH1 0x20 DUP1 SWAP2 DIV MUL PUSH1 0x20 ADD PUSH1 0x40 MLOAD SWAP1 DUP2 ADD PUSH1 0x40 MSTORE DUP1 SWAP3 SWAP2 SWAP1 DUP2 DUP2 MSTORE PUSH1 0x20 ADD DUP3 DUP1 SLOAD PUSH2 0x6DA SWAP1 PUSH2 0x114E JUMP JUMPDEST DUP1 ISZERO PUSH2 0x725 JUMPI DUP1 PUSH1 0x1F LT PUSH2 0x6FC JUMPI PUSH2 0x100 DUP1 DUP4 SLOAD DIV MUL DUP4 MSTORE SWAP2 PUSH1 0x20 ADD SWAP2 PUSH2 0x725 JUMP JUMPDEST DUP3 ADD SWAP2 SWAP1 PUSH0 MSTORE PUSH1 0x20 PUSH0 KECCAK256 SWAP1 JUMPDEST DUP2 SLOAD DUP2 MSTORE SWAP1 PUSH1 0x1 ADD SWAP1 PUSH1 0x20 ADD DUP1 DUP4 GT PUSH2 0x708 JUMPI DUP3 SWAP1 SUB PUSH1 0x1F AND DUP3 ADD SWAP2 JUMPDEST POP POP POP POP POP SWAP1 DUP1 PUSH1 0x2 ADD PUSH0 SWAP1 SLOAD SWAP1 PUSH2 0x100 EXP SWAP1 DIV PUSH20 0xFFFFFFFFFFFFFFFFFFFFFFFFFFFFFFFFFFFFFFFF AND SWAP1 DUP1 PUSH1 0x3 ADD SLOAD SWAP1 DUP1 PUSH1 0x4 ADD SLOAD SWAP1 DUP1 PUSH1 0x5 ADD PUSH0 SWAP1 SLOAD SWAP1 PUSH2 0x100 EXP SWAP1 DIV PUSH20 0xFFFFFFFFFFFFFFFFFFFFFFFFFFFFFFFFFFFFFFFF AND SWAP1 DUP1 PUSH1 0x5 ADD PUSH1 0x14 SWAP1 SLOAD SWAP1 PUSH2 0x100 EXP SWAP1 DIV PUSH1 0xFF AND SWAP1 POP DUP8 JUMP JUMPDEST PUSH0 PUSH1 0x14 SWAP1 SLOAD SWAP1 PUSH2 0x100 EXP SWAP1 DIV PUSH1 0xFF AND ISZERO PUSH2 0x7E7 JUMPI PUSH1 0x40 MLOAD PUSH32 0x8C379A000000000000000000000000000000000000000000000000000000000 DUP2 MSTORE PUSH1 0x4 ADD PUSH2 0x7DE SWAP1 PUSH2 0xF3F JUMP JUMPDEST PUSH1 0x40 MLOAD DUP1 SWAP2 SUB SWAP1 REVERT JUMPDEST CALLER PUSH20 0xFFFFFFFFFFFFFFFFFFFFFFFFFFFFFFFFFFFFFFFF AND PUSH0 DUP1 SLOAD SWAP1 PUSH2 0x100 EXP SWAP1 DIV PUSH20 0xFFFFFFFFFFFFFFFFFFFFFFFFFFFFFFFFFFFFFFFF AND PUSH20 0xFFFFFFFFFFFFFFFFFFFFFFFFFFFFFFFFFFFFFFFF AND EQ PUSH2 0x874 JUMPI PUSH1 0x40 MLOAD PUSH32 0x8C379A000000000000000000000000000000000000000000000000000000000 DUP2 MSTORE PUSH1 0x4 ADD PUSH2 0x86B SWAP1 PUSH2 0x147B JUMP JUMPDEST PUSH1 0x40 MLOAD DUP1 SWAP2 SUB SWAP1 REVERT JUMPDEST PUSH0 DUP1 SLOAD SWAP1 PUSH2 0x100 EXP SWAP1 DIV PUSH20 0xFFFFFFFFFFFFFFFFFFFFFFFFFFFFFFFFFFFFFFFF AND PUSH20 0xFFFFFFFFFFFFFFFFFFFFFFFFFFFFFFFFFFFFFFFF AND PUSH2 0x8FC SELFBALANCE SWAP1 DUP2 ISZERO MUL SWAP1 PUSH1 0x40 MLOAD PUSH0 PUSH1 0x40 MLOAD DUP1 DUP4 SUB DUP2 DUP6 DUP9 DUP9 CALL SWAP4 POP POP POP POP ISZERO DUP1 ISZERO PUSH2 0x8D6 JUMPI RETURNDATASIZE PUSH0 DUP1 RETURNDATACOPY RETURNDATASIZE PUSH0 REVERT JUMPDEST POP PUSH1 0x1 PUSH0 PUSH1 0x14 PUSH2 0x100 EXP DUP2 SLOAD DUP2 PUSH1 0xFF MUL NOT AND SWAP1 DUP4 ISZERO ISZERO MUL OR SWAP1 SSTORE POP JUMP JUMPDEST PUSH0 PUSH1 0x14 SWAP1 SLOAD SWAP1 PUSH2 0x100 EXP SWAP1 DIV PUSH1 0xFF AND ISZERO PUSH2 0x942 JUMPI PUSH1 0x40 MLOAD PUSH32 0x8C379A000000000000000000000000000000000000000000000000000000000 DUP2 MSTORE PUSH1 0x4 ADD PUSH2 0x939 SWAP1 PUSH2 0xF3F JUMP JUMPDEST PUSH1 0x40 MLOAD DUP1 SWAP2 SUB SWAP1 REVERT JUMPDEST CALLVALUE PUSH1 0x2 PUSH1 0x1 DUP4 PUSH2 0x952 SWAP2 SWAP1 PUSH2 0xF8A JUMP JUMPDEST DUP2 SLOAD DUP2 LT PUSH2 0x963 JUMPI PUSH2 0x962 PUSH2 0xFBD JUMP JUMPDEST JUMPDEST SWAP1 PUSH0 MSTORE PUSH1 0x20 PUSH0 KECCAK256 SWAP1 PUSH1 0x6 MUL ADD PUSH1 0x4 ADD SLOAD EQ PUSH2 0x9B3 JUMPI PUSH1 0x40 MLOAD PUSH32 0x8C379A000000000000000000000000000000000000000000000000000000000 DUP2 MSTORE PUSH1 0x4 ADD PUSH2 0x9AA SWAP1 PUSH2 0x14E3 JUMP JUMPDEST PUSH1 0x40 MLOAD DUP1 SWAP2 SUB SWAP1 REVERT JUMPDEST CALLER PUSH20 0xFFFFFFFFFFFFFFFFFFFFFFFFFFFFFFFFFFFFFFFF AND PUSH1 0x2 PUSH1 0x1 DUP4 PUSH2 0x9D9 SWAP2 SWAP1 PUSH2 0xF8A JUMP JUMPDEST DUP2 SLOAD DUP2 LT PUSH2 0x9EA JUMPI PUSH2 0x9E9 PUSH2 0xFBD JUMP JUMPDEST JUMPDEST SWAP1 PUSH0 MSTORE PUSH1 0x20 PUSH0 KECCAK256 SWAP1 PUSH1 0x6 MUL ADD PUSH1 0x2 ADD PUSH0 SWAP1 SLOAD SWAP1 PUSH2 0x100 EXP SWAP1 DIV PUSH20 0xFFFFFFFFFFFFFFFFFFFFFFFFFFFFFFFFFFFFFFFF AND PUSH20 0xFFFFFFFFFFFFFFFFFFFFFFFFFFFFFFFFFFFFFFFF AND SUB PUSH2 0xA6F JUMPI PUSH1 0x40 MLOAD PUSH32 0x8C379A000000000000000000000000000000000000000000000000000000000 DUP2 MSTORE PUSH1 0x4 ADD PUSH2 0xA66 SWAP1 PUSH2 0x154B JUMP JUMPDEST PUSH1 0x40 MLOAD DUP1 SWAP2 SUB SWAP1 REVERT JUMPDEST CALLER PUSH1 0x2 PUSH1 0x1 DUP4 PUSH2 0xA7F SWAP2 SWAP1 PUSH2 0xF8A JUMP JUMPDEST DUP2 SLOAD DUP2 LT PUSH2 0xA90 JUMPI PUSH2 0xA8F PUSH2 0xFBD JUMP JUMPDEST JUMPDEST SWAP1 PUSH0 MSTORE PUSH1 0x20 PUSH0 KECCAK256 SWAP1 PUSH1 0x6 MUL ADD PUSH1 0x5 ADD PUSH0 PUSH2 0x100 EXP DUP2 SLOAD DUP2 PUSH20 0xFFFFFFFFFFFFFFFFFFFFFFFFFFFFFFFFFFFFFFFF MUL NOT AND SWAP1 DUP4 PUSH20 0xFFFFFFFFFFFFFFFFFFFFFFFFFFFFFFFFFFFFFFFF AND MUL OR SWAP1 SSTORE POP POP JUMP JUMPDEST PUSH1 0x40 MLOAD DUP1 PUSH1 0xE0 ADD PUSH1 0x40 MSTORE DUP1 PUSH1 0x60 DUP2 MSTORE PUSH1 0x20 ADD PUSH1 0x60 DUP2 MSTORE PUSH1 0x20 ADD PUSH0 PUSH20 0xFFFFFFFFFFFFFFFFFFFFFFFFFFFFFFFFFFFFFFFF AND DUP2 MSTORE PUSH1 0x20 ADD PUSH0 DUP2 MSTORE PUSH1 0x20 ADD PUSH0 DUP2 MSTORE PUSH1 0x20 ADD PUSH0 PUSH20 0xFFFFFFFFFFFFFFFFFFFFFFFFFFFFFFFFFFFFFFFF AND DUP2 MSTORE PUSH1 0x20 ADD PUSH0 ISZERO ISZERO DUP2 MSTORE POP SWAP1 JUMP JUMPDEST PUSH0 PUSH1 0x40 MLOAD SWAP1 POP SWAP1 JUMP JUMPDEST PUSH0 DUP1 REVERT JUMPDEST PUSH0 DUP1 REVERT JUMPDEST PUSH0 DUP2 SWAP1 POP SWAP2 SWAP1 POP JUMP JUMPDEST PUSH2 0xB68 DUP2 PUSH2 0xB56 JUMP JUMPDEST DUP2 EQ PUSH2 0xB72 JUMPI PUSH0 DUP1 REVERT JUMPDEST POP JUMP JUMPDEST PUSH0 DUP2 CALLDATALOAD SWAP1 POP PUSH2 0xB83 DUP2 PUSH2 0xB5F JUMP JUMPDEST SWAP3 SWAP2 POP POP JUMP JUMPDEST PUSH0 PUSH1 0x20 DUP3 DUP5 SUB SLT ISZERO PUSH2 0xB9E JUMPI PUSH2 0xB9D PUSH2 0xB4E JUMP JUMPDEST JUMPDEST PUSH0 PUSH2 0xBAB DUP5 DUP3 DUP6 ADD PUSH2 0xB75 JUMP JUMPDEST SWAP2 POP POP SWAP3 SWAP2 POP POP JUMP JUMPDEST PUSH0 DUP1 REVERT JUMPDEST PUSH0 DUP1 REVERT JUMPDEST PUSH0 PUSH1 0x1F NOT PUSH1 0x1F DUP4 ADD AND SWAP1 POP SWAP2 SWAP1 POP JUMP JUMPDEST PUSH32 0x4E487B7100000000000000000000000000000000000000000000000000000000 PUSH0 MSTORE PUSH1 0x41 PUSH1 0x4 MSTORE PUSH1 0x24 PUSH0 REVERT JUMPDEST PUSH2 0xC02 DUP3 PUSH2 0xBBC JUMP JUMPDEST DUP2 ADD DUP2 DUP2 LT PUSH8 0xFFFFFFFFFFFFFFFF DUP3 GT OR ISZERO PUSH2 0xC21 JUMPI PUSH2 0xC20 PUSH2 0xBCC JUMP JUMPDEST JUMPDEST DUP1 PUSH1 0x40 MSTORE POP POP POP JUMP JUMPDEST PUSH0 PUSH2 0xC33 PUSH2 0xB45 JUMP JUMPDEST SWAP1 POP PUSH2 0xC3F DUP3 DUP3 PUSH2 0xBF9 JUMP JUMPDEST SWAP2 SWAP1 POP JUMP JUMPDEST PUSH0 PUSH8 0xFFFFFFFFFFFFFFFF DUP3 GT ISZERO PUSH2 0xC5E JUMPI PUSH2 0xC5D PUSH2 0xBCC JUMP JUMPDEST JUMPDEST PUSH2 0xC67 DUP3 PUSH2 0xBBC JUMP JUMPDEST SWAP1 POP PUSH1 0x20 DUP2 ADD SWAP1 POP SWAP2 SWAP1 POP JUMP JUMPDEST DUP3 DUP2 DUP4 CALLDATACOPY PUSH0 DUP4 DUP4 ADD MSTORE POP POP POP JUMP JUMPDEST PUSH0 PUSH2 0xC94 PUSH2 0xC8F DUP5 PUSH2 0xC44 JUMP JUMPDEST PUSH2 0xC2A JUMP JUMPDEST SWAP1 POP DUP3 DUP2 MSTORE PUSH1 0x20 DUP2 ADD DUP5 DUP5 DUP5 ADD GT ISZERO PUSH2 0xCB0 JUMPI PUSH2 0xCAF PUSH2 0xBB8 JUMP JUMPDEST JUMPDEST PUSH2 0xCBB DUP5 DUP3 DUP6 PUSH2 0xC74 JUMP JUMPDEST POP SWAP4 SWAP3 POP POP POP JUMP JUMPDEST PUSH0 DUP3 PUSH1 0x1F DUP4 ADD SLT PUSH2 0xCD7 JUMPI PUSH2 0xCD6 PUSH2 0xBB4 JUMP JUMPDEST JUMPDEST DUP2 CALLDATALOAD PUSH2 0xCE7 DUP5 DUP3 PUSH1 0x20 DUP7 ADD PUSH2 0xC82 JUMP JUMPDEST SWAP2 POP POP SWAP3 SWAP2 POP POP JUMP JUMPDEST PUSH0 DUP1 PUSH0 PUSH1 0x60 DUP5 DUP7 SUB SLT ISZERO PUSH2 0xD07 JUMPI PUSH2 0xD06 PUSH2 0xB4E JUMP JUMPDEST JUMPDEST PUSH0 DUP5 ADD CALLDATALOAD PUSH8 0xFFFFFFFFFFFFFFFF DUP2 GT ISZERO PUSH2 0xD24 JUMPI PUSH2 0xD23 PUSH2 0xB52 JUMP JUMPDEST JUMPDEST PUSH2 0xD30 DUP7 DUP3 DUP8 ADD PUSH2 0xCC3 JUMP JUMPDEST SWAP4 POP POP PUSH1 0x20 DUP5 ADD CALLDATALOAD PUSH8 0xFFFFFFFFFFFFFFFF DUP2 GT ISZERO PUSH2 0xD51 JUMPI PUSH2 0xD50 PUSH2 0xB52 JUMP JUMPDEST JUMPDEST PUSH2 0xD5D DUP7 DUP3 DUP8 ADD PUSH2 0xCC3 JUMP JUMPDEST SWAP3 POP POP PUSH1 0x40 PUSH2 0xD6E DUP7 DUP3 DUP8 ADD PUSH2 0xB75 JUMP JUMPDEST SWAP2 POP POP SWAP3 POP SWAP3 POP SWAP3 JUMP JUMPDEST PUSH0 DUP2 MLOAD SWAP1 POP SWAP2 SWAP1 POP JUMP JUMPDEST PUSH0 DUP3 DUP3 MSTORE PUSH1 0x20 DUP3 ADD SWAP1 POP SWAP3 SWAP2 POP POP JUMP JUMPDEST PUSH0 JUMPDEST DUP4 DUP2 LT ISZERO PUSH2 0xDAF JUMPI DUP1 DUP3 ADD MLOAD DUP2 DUP5 ADD MSTORE PUSH1 0x20 DUP2 ADD SWAP1 POP PUSH2 0xD94 JUMP JUMPDEST PUSH0 DUP5 DUP5 ADD MSTORE POP POP POP POP JUMP JUMPDEST PUSH0 PUSH2 0xDC4 DUP3 PUSH2 0xD78 JUMP JUMPDEST PUSH2 0xDCE DUP2 DUP6 PUSH2 0xD82 JUMP JUMPDEST SWAP4 POP PUSH2 0xDDE DUP2 DUP6 PUSH1 0x20 DUP7 ADD PUSH2 0xD92 JUMP JUMPDEST PUSH2 0xDE7 DUP2 PUSH2 0xBBC JUMP JUMPDEST DUP5 ADD SWAP2 POP POP SWAP3 SWAP2 POP POP JUMP JUMPDEST PUSH0 PUSH20 0xFFFFFFFFFFFFFFFFFFFFFFFFFFFFFFFFFFFFFFFF DUP3 AND SWAP1 POP SWAP2 SWAP1 POP JUMP JUMPDEST PUSH0 PUSH2 0xE1B DUP3 PUSH2 0xDF2 JUMP JUMPDEST SWAP1 POP SWAP2 SWAP1 POP JUMP JUMPDEST PUSH2 0xE2B DUP2 PUSH2 0xE11 JUMP JUMPDEST DUP3 MSTORE POP POP JUMP JUMPDEST PUSH2 0xE3A DUP2 PUSH2 0xB56 JUMP JUMPDEST DUP3 MSTORE POP POP JUMP JUMPDEST PUSH0 PUSH2 0xE4A DUP3 PUSH2 0xDF2 JUMP JUMPDEST SWAP1 POP SWAP2 SWAP1 POP JUMP JUMPDEST PUSH2 0xE5A DUP2 PUSH2 0xE40 JUMP JUMPDEST DUP3 MSTORE POP POP JUMP JUMPDEST PUSH0 DUP2 ISZERO ISZERO SWAP1 POP SWAP2 SWAP1 POP JUMP JUMPDEST PUSH2 0xE74 DUP2 PUSH2 0xE60 JUMP JUMPDEST DUP3 MSTORE POP POP JUMP JUMPDEST PUSH0 PUSH1 0xE0 DUP3 ADD SWAP1 POP DUP2 DUP2 SUB PUSH0 DUP4 ADD MSTORE PUSH2 0xE92 DUP2 DUP11 PUSH2 0xDBA JUMP JUMPDEST SWAP1 POP DUP2 DUP2 SUB PUSH1 0x20 DUP4 ADD MSTORE PUSH2 0xEA6 DUP2 DUP10 PUSH2 0xDBA JUMP JUMPDEST SWAP1 POP PUSH2 0xEB5 PUSH1 0x40 DUP4 ADD DUP9 PUSH2 0xE22 JUMP JUMPDEST PUSH2 0xEC2 PUSH1 0x60 DUP4 ADD DUP8 PUSH2 0xE31 JUMP JUMPDEST PUSH2 0xECF PUSH1 0x80 DUP4 ADD DUP7 PUSH2 0xE31 JUMP JUMPDEST PUSH2 0xEDC PUSH1 0xA0 DUP4 ADD DUP6 PUSH2 0xE51 JUMP JUMPDEST PUSH2 0xEE9 PUSH1 0xC0 DUP4 ADD DUP5 PUSH2 0xE6B JUMP JUMPDEST SWAP9 SWAP8 POP POP POP POP POP POP POP POP JUMP JUMPDEST PUSH32 0x436F6E747261637420646F6573206E6F74206578697374000000000000000000 PUSH0 DUP3 ADD MSTORE POP JUMP JUMPDEST PUSH0 PUSH2 0xF29 PUSH1 0x17 DUP4 PUSH2 0xD82 JUMP JUMPDEST SWAP2 POP PUSH2 0xF34 DUP3 PUSH2 0xEF5 JUMP JUMPDEST PUSH1 0x20 DUP3 ADD SWAP1 POP SWAP2 SWAP1 POP JUMP JUMPDEST PUSH0 PUSH1 0x20 DUP3 ADD SWAP1 POP DUP2 DUP2 SUB PUSH0 DUP4 ADD MSTORE PUSH2 0xF56 DUP2 PUSH2 0xF1D JUMP JUMPDEST SWAP1 POP SWAP2 SWAP1 POP JUMP JUMPDEST PUSH32 0x4E487B7100000000000000000000000000000000000000000000000000000000 PUSH0 MSTORE PUSH1 0x11 PUSH1 0x4 MSTORE PUSH1 0x24 PUSH0 REVERT JUMPDEST PUSH0 PUSH2 0xF94 DUP3 PUSH2 0xB56 JUMP JUMPDEST SWAP2 POP PUSH2 0xF9F DUP4 PUSH2 0xB56 JUMP JUMPDEST SWAP3 POP DUP3 DUP3 SUB SWAP1 POP DUP2 DUP2 GT ISZERO PUSH2 0xFB7 JUMPI PUSH2 0xFB6 PUSH2 0xF5D JUMP JUMPDEST JUMPDEST SWAP3 SWAP2 POP POP JUMP JUMPDEST PUSH32 0x4E487B7100000000000000000000000000000000000000000000000000000000 PUSH0 MSTORE PUSH1 0x32 PUSH1 0x4 MSTORE PUSH1 0x24 PUSH0 REVERT JUMPDEST PUSH32 0x4F6E6C792062757965722063616E20636F6E6669726D00000000000000000000 PUSH0 DUP3 ADD MSTORE POP JUMP JUMPDEST PUSH0 PUSH2 0x101E PUSH1 0x16 DUP4 PUSH2 0xD82 JUMP JUMPDEST SWAP2 POP PUSH2 0x1029 DUP3 PUSH2 0xFEA JUMP JUMPDEST PUSH1 0x20 DUP3 ADD SWAP1 POP SWAP2 SWAP1 POP JUMP JUMPDEST PUSH0 PUSH1 0x20 DUP3 ADD SWAP1 POP DUP2 DUP2 SUB PUSH0 DUP4 ADD MSTORE PUSH2 0x104B DUP2 PUSH2 0x1012 JUMP JUMPDEST SWAP1 POP SWAP2 SWAP1 POP JUMP JUMPDEST PUSH32 0x50726963652073686F756C642062652067726561746572207468616E207A6572 PUSH0 DUP3 ADD MSTORE PUSH32 0x6F00000000000000000000000000000000000000000000000000000000000000 PUSH1 0x20 DUP3 ADD MSTORE POP JUMP JUMPDEST PUSH0 PUSH2 0x10AC PUSH1 0x21 DUP4 PUSH2 0xD82 JUMP JUMPDEST SWAP2 POP PUSH2 0x10B7 DUP3 PUSH2 0x1052 JUMP JUMPDEST PUSH1 0x40 DUP3 ADD SWAP1 POP SWAP2 SWAP1 POP JUMP JUMPDEST PUSH0 PUSH1 0x20 DUP3 ADD SWAP1 POP DUP2 DUP2 SUB PUSH0 DUP4 ADD MSTORE PUSH2 0x10D9 DUP2 PUSH2 0x10A0 JUMP JUMPDEST SWAP1 POP SWAP2 SWAP1 POP JUMP JUMPDEST PUSH0 PUSH2 0x10EA DUP3 PUSH2 0xB56 JUMP JUMPDEST SWAP2 POP PUSH2 0x10F5 DUP4 PUSH2 0xB56 JUMP JUMPDEST SWAP3 POP DUP3 DUP3 MUL PUSH2 0x1103 DUP2 PUSH2 0xB56 JUMP JUMPDEST SWAP2 POP DUP3 DUP3 DIV DUP5 EQ DUP4 ISZERO OR PUSH2 0x111A JUMPI PUSH2 0x1119 PUSH2 0xF5D JUMP JUMPDEST JUMPDEST POP SWAP3 SWAP2 POP POP JUMP JUMPDEST PUSH32 0x4E487B7100000000000000000000000000000000000000000000000000000000 PUSH0 MSTORE PUSH1 0x22 PUSH1 0x4 MSTORE PUSH1 0x24 PUSH0 REVERT JUMPDEST PUSH0 PUSH1 0x2 DUP3 DIV SWAP1 POP PUSH1 0x1 DUP3 AND DUP1 PUSH2 0x1165 JUMPI PUSH1 0x7F DUP3 AND SWAP2 POP JUMPDEST PUSH1 0x20 DUP3 LT DUP2 SUB PUSH2 0x1178 JUMPI PUSH2 0x1177 PUSH2 0x1121 JUMP JUMPDEST JUMPDEST POP SWAP2 SWAP1 POP JUMP JUMPDEST PUSH0 DUP2 SWAP1 POP DUP2 PUSH0 MSTORE PUSH1 0x20 PUSH0 KECCAK256 SWAP1 POP SWAP2 SWAP1 POP JUMP JUMPDEST PUSH0 PUSH1 0x20 PUSH1 0x1F DUP4 ADD DIV SWAP1 POP SWAP2 SWAP1 POP JUMP JUMPDEST PUSH0 DUP3 DUP3 SHL SWAP1 POP SWAP3 SWAP2 POP POP JUMP JUMPDEST PUSH0 PUSH1 0x8 DUP4 MUL PUSH2 0x11DA PUSH32 0xFFFFFFFFFFFFFFFFFFFFFFFFFFFFFFFFFFFFFFFFFFFFFFFFFFFFFFFFFFFFFFFF DUP3 PUSH2 0x119F JUMP JUMPDEST PUSH2 0x11E4 DUP7 DUP4 PUSH2 0x119F JUMP JUMPDEST SWAP6 POP DUP1 NOT DUP5 AND SWAP4 POP DUP1 DUP7 AND DUP5 OR SWAP3 POP POP POP SWAP4 SWAP3 POP POP POP JUMP JUMPDEST PUSH0 DUP2 SWAP1 POP SWAP2 SWAP1 POP JUMP JUMPDEST PUSH0 PUSH2 0x121F PUSH2 0x121A PUSH2 0x1215 DUP5 PUSH2 0xB56 JUMP JUMPDEST PUSH2 0x11FC JUMP JUMPDEST PUSH2 0xB56 JUMP JUMPDEST SWAP1 POP SWAP2 SWAP1 POP JUMP JUMPDEST PUSH0 DUP2 SWAP1 POP SWAP2 SWAP1 POP JUMP JUMPDEST PUSH2 0x1238 DUP4 PUSH2 0x1205 JUMP JUMPDEST PUSH2 0x124C PUSH2 0x1244 DUP3 PUSH2 0x1226 JUMP JUMPDEST DUP5 DUP5 SLOAD PUSH2 0x11AB JUMP JUMPDEST DUP3 SSTORE POP POP POP POP JUMP JUMPDEST PUSH0 SWAP1 JUMP JUMPDEST PUSH2 0x1260 PUSH2 0x1254 JUMP JUMPDEST PUSH2 0x126B DUP2 DUP5 DUP5 PUSH2 0x122F JUMP JUMPDEST POP POP POP JUMP JUMPDEST JUMPDEST DUP2 DUP2 LT ISZERO PUSH2 0x128E JUMPI PUSH2 0x1283 PUSH0 DUP3 PUSH2 0x1258 JUMP JUMPDEST PUSH1 0x1 DUP2 ADD SWAP1 POP PUSH2 0x1271 JUMP JUMPDEST POP POP JUMP JUMPDEST PUSH1 0x1F DUP3 GT ISZERO PUSH2 0x12D3 JUMPI PUSH2 0x12A4 DUP2 PUSH2 0x117E JUMP JUMPDEST PUSH2 0x12AD DUP5 PUSH2 0x1190 JUMP JUMPDEST DUP2 ADD PUSH1 0x20 DUP6 LT ISZERO PUSH2 0x12BC JUMPI DUP2 SWAP1 POP JUMPDEST PUSH2 0x12D0 PUSH2 0x12C8 DUP6 PUSH2 0x1190 JUMP JUMPDEST DUP4 ADD DUP3 PUSH2 0x1270 JUMP JUMPDEST POP POP JUMPDEST POP POP POP JUMP JUMPDEST PUSH0 DUP3 DUP3 SHR SWAP1 POP SWAP3 SWAP2 POP POP JUMP JUMPDEST PUSH0 PUSH2 0x12F3 PUSH0 NOT DUP5 PUSH1 0x8 MUL PUSH2 0x12D8 JUMP JUMPDEST NOT DUP1 DUP4 AND SWAP2 POP POP SWAP3 SWAP2 POP POP JUMP JUMPDEST PUSH0 PUSH2 0x130B DUP4 DUP4 PUSH2 0x12E4 JUMP JUMPDEST SWAP2 POP DUP3 PUSH1 0x2 MUL DUP3 OR SWAP1 POP SWAP3 SWAP2 POP POP JUMP JUMPDEST PUSH2 0x1324 DUP3 PUSH2 0xD78 JUMP JUMPDEST PUSH8 0xFFFFFFFFFFFFFFFF DUP2 GT ISZERO PUSH2 0x133D JUMPI PUSH2 0x133C PUSH2 0xBCC JUMP JUMPDEST JUMPDEST PUSH2 0x1347 DUP3 SLOAD PUSH2 0x114E JUMP JUMPDEST PUSH2 0x1352 DUP3 DUP3 DUP6 PUSH2 0x1292 JUMP JUMPDEST PUSH0 PUSH1 0x20 SWAP1 POP PUSH1 0x1F DUP4 GT PUSH1 0x1 DUP2 EQ PUSH2 0x1383 JUMPI PUSH0 DUP5 ISZERO PUSH2 0x1371 JUMPI DUP3 DUP8 ADD MLOAD SWAP1 POP JUMPDEST PUSH2 0x137B DUP6 DUP3 PUSH2 0x1300 JUMP JUMPDEST DUP7 SSTORE POP PUSH2 0x13E2 JUMP JUMPDEST PUSH1 0x1F NOT DUP5 AND PUSH2 0x1391 DUP7 PUSH2 0x117E JUMP JUMPDEST PUSH0 JUMPDEST DUP3 DUP2 LT ISZERO PUSH2 0x13B8 JUMPI DUP5 DUP10 ADD MLOAD DUP3 SSTORE PUSH1 0x1 DUP3 ADD SWAP2 POP PUSH1 0x20 DUP6 ADD SWAP5 POP PUSH1 0x20 DUP2 ADD SWAP1 POP PUSH2 0x1393 JUMP JUMPDEST DUP7 DUP4 LT ISZERO PUSH2 0x13D5 JUMPI DUP5 DUP10 ADD MLOAD PUSH2 0x13D1 PUSH1 0x1F DUP10 AND DUP3 PUSH2 0x12E4 JUMP JUMPDEST DUP4 SSTORE POP JUMPDEST PUSH1 0x1 PUSH1 0x2 DUP9 MUL ADD DUP9 SSTORE POP POP POP JUMPDEST POP POP POP POP POP POP JUMP JUMPDEST PUSH0 PUSH2 0x13F4 DUP3 PUSH2 0xB56 JUMP JUMPDEST SWAP2 POP PUSH32 0xFFFFFFFFFFFFFFFFFFFFFFFFFFFFFFFFFFFFFFFFFFFFFFFFFFFFFFFFFFFFFFFF DUP3 SUB PUSH2 0x1426 JUMPI PUSH2 0x1425 PUSH2 0xF5D JUMP JUMPDEST JUMPDEST PUSH1 0x1 DUP3 ADD SWAP1 POP SWAP2 SWAP1 POP JUMP JUMPDEST PUSH32 0x6F6E6C79206D616E616765722063616E2063616C6C2074686973000000000000 PUSH0 DUP3 ADD MSTORE POP JUMP JUMPDEST PUSH0 PUSH2 0x1465 PUSH1 0x1A DUP4 PUSH2 0xD82 JUMP JUMPDEST SWAP2 POP PUSH2 0x1470 DUP3 PUSH2 0x1431 JUMP JUMPDEST PUSH1 0x20 DUP3 ADD SWAP1 POP SWAP2 SWAP1 POP JUMP JUMPDEST PUSH0 PUSH1 0x20 DUP3 ADD SWAP1 POP DUP2 DUP2 SUB PUSH0 DUP4 ADD MSTORE PUSH2 0x1492 DUP2 PUSH2 0x1459 JUMP JUMPDEST SWAP1 POP SWAP2 SWAP1 POP JUMP JUMPDEST PUSH32 0x5061792074686520657861637420707269636500000000000000000000000000 PUSH0 DUP3 ADD MSTORE POP JUMP JUMPDEST PUSH0 PUSH2 0x14CD PUSH1 0x13 DUP4 PUSH2 0xD82 JUMP JUMPDEST SWAP2 POP PUSH2 0x14D8 DUP3 PUSH2 0x1499 JUMP JUMPDEST PUSH1 0x20 DUP3 ADD SWAP1 POP SWAP2 SWAP1 POP JUMP JUMPDEST PUSH0 PUSH1 0x20 DUP3 ADD SWAP1 POP DUP2 DUP2 SUB PUSH0 DUP4 ADD MSTORE PUSH2 0x14FA DUP2 PUSH2 0x14C1 JUMP JUMPDEST SWAP1 POP SWAP2 SWAP1 POP JUMP JUMPDEST PUSH32 0x53656C6C65722063616E6E6F7420627579000000000000000000000000000000 PUSH0 DUP3 ADD MSTORE POP JUMP JUMPDEST PUSH0 PUSH2 0x1535 PUSH1 0x11 DUP4 PUSH2 0xD82 JUMP JUMPDEST SWAP2 POP PUSH2 0x1540 DUP3 PUSH2 0x1501 JUMP JUMPDEST PUSH1 0x20 DUP3 ADD SWAP1 POP SWAP2 SWAP1 POP JUMP JUMPDEST PUSH0 PUSH1 0x20 DUP3 ADD SWAP1 POP DUP2 DUP2 SUB PUSH0 DUP4 ADD MSTORE PUSH2 0x1562 DUP2 PUSH2 0x1529 JUMP JUMPDEST SWAP1 POP SWAP2 SWAP1 POP JUMP INVALID LOG2 PUSH5 0x6970667358 0x22 SLT KECCAK256 0xEC 0xB4 RETURNDATASIZE 0xE6 0xCF SWAP16 0xB1 0xB3 REVERT PUSH19 0xA0CB677962A557979BD08F30EE10ABAC05C36B 0x27 0xA8 EXTCODESIZE PUSH5 0x736F6C6343 STOP ADDMOD AND STOP CALLER "
				},
				"gasEstimates": {
					"creation": {
						"codeDepositCost": "1107000",
						"executionCost": "71832",
						"totalCost": "1178832"
					},
					"external": {
						"": "infinite",
						"buy(uint256)": "infinite",
						"delivery(uint256)": "infinite",
						"destroy()": "infinite",
						"products(uint256)": "infinite",
						"registerProduct(string,string,uint256)": "infinite"
					}
				},
				"methodIdentifiers": {
					"buy(uint256)": "d96a094a",
					"delivery(uint256)": "1144fd72",
					"destroy()": "83197ef0",
					"products(uint256)": "7acc0b20",
					"registerProduct(string,string,uint256)": "3153a15b"
				}
			},
			"storageLayout": {
				"storage": [
					{
						"astId": 18,
						"contract": "ecormerce.sol:Ecommerce",
						"label": "manager",
						"offset": 0,
						"slot": "0",
						"type": "t_address_payable"
					},
					{
						"astId": 21,
						"contract": "ecormerce.sol:Ecommerce",
						"label": "destroyed",
						"offset": 20,
						"slot": "0",
						"type": "t_bool"
					},
					{
						"astId": 36,
						"contract": "ecormerce.sol:Ecommerce",
						"label": "counter",
						"offset": 0,
						"slot": "1",
						"type": "t_uint256"
					},
					{
						"astId": 40,
						"contract": "ecormerce.sol:Ecommerce",
						"label": "products",
						"offset": 0,
						"slot": "2",
						"type": "t_array(t_struct(Product)16_storage)dyn_storage"
					}
				],
				"types": {
					"t_address": {
						"encoding": "inplace",
						"label": "address",
						"numberOfBytes": "20"
					},
					"t_address_payable": {
						"encoding": "inplace",
						"label": "address payable",
						"numberOfBytes": "20"
					},
					"t_array(t_struct(Product)16_storage)dyn_storage": {
						"base": "t_struct(Product)16_storage",
						"encoding": "dynamic_array",
						"label": "struct Ecommerce.Product[]",
						"numberOfBytes": "32"
					},
					"t_bool": {
						"encoding": "inplace",
						"label": "bool",
						"numberOfBytes": "1"
					},
					"t_string_storage": {
						"encoding": "bytes",
						"label": "string",
						"numberOfBytes": "32"
					},
					"t_struct(Product)16_storage": {
						"encoding": "inplace",
						"label": "struct Ecommerce.Product",
						"members": [
							{
								"astId": 3,
								"contract": "ecormerce.sol:Ecommerce",
								"label": "title",
								"offset": 0,
								"slot": "0",
								"type": "t_string_storage"
							},
							{
								"astId": 5,
								"contract": "ecormerce.sol:Ecommerce",
								"label": "desc",
								"offset": 0,
								"slot": "1",
								"type": "t_string_storage"
							},
							{
								"astId": 7,
								"contract": "ecormerce.sol:Ecommerce",
								"label": "seller",
								"offset": 0,
								"slot": "2",
								"type": "t_address_payable"
							},
							{
								"astId": 9,
								"contract": "ecormerce.sol:Ecommerce",
								"label": "productId",
								"offset": 0,
								"slot": "3",
								"type": "t_uint256"
							},
							{
								"astId": 11,
								"contract": "ecormerce.sol:Ecommerce",
								"label": "price",
								"offset": 0,
								"slot": "4",
								"type": "t_uint256"
							},
							{
								"astId": 13,
								"contract": "ecormerce.sol:Ecommerce",
								"label": "buyer",
								"offset": 0,
								"slot": "5",
								"type": "t_address"
							},
							{
								"astId": 15,
								"contract": "ecormerce.sol:Ecommerce",
								"label": "delivered",
								"offset": 20,
								"slot": "5",
								"type": "t_bool"
							}
						],
						"numberOfBytes": "192"
					},
					"t_uint256": {
						"encoding": "inplace",
						"label": "uint256",
						"numberOfBytes": "32"
					}
				}
			},
			"userdoc": {
				"kind": "user",
				"methods": {},
				"version": 1
			}
		}
	}
}