{
	"dao.sol": {
		"DAO": {
			"abi": [
				{
					"inputs": [
						{
							"internalType": "uint256",
							"name": "contributionTime",
							"type": "uint256"
						},
						{
							"internalType": "uint256",
							"name": "_voteTime",
							"type": "uint256"
						},
						{
							"internalType": "uint256",
							"name": "_quorum",
							"type": "uint256"
						}
					],
					"stateMutability": "nonpayable",
					"type": "constructor"
				},
				{
					"inputs": [],
					"name": "admin",
					"outputs": [
						{
							"internalType": "address",
							"name": "",
							"type": "address"
						}
					],
					"stateMutability": "view",
					"type": "function"
				},
				{
					"inputs": [],
					"name": "availableFunds",
					"outputs": [
						{
							"internalType": "uint256",
							"name": "",
							"type": "uint256"
						}
					],
					"stateMutability": "view",
					"type": "function"
				},
				{
					"inputs": [],
					"name": "contribute",
					"outputs": [],
					"stateMutability": "payable",
					"type": "function"
				},
				{
					"inputs": [],
					"name": "contributionEnd",
					"outputs": [
						{
							"internalType": "uint256",
							"name": "",
							"type": "uint256"
						}
					],
					"stateMutability": "view",
					"type": "function"
				},
				{
					"inputs": [
						{
							"internalType": "string",
							"name": "name",
							"type": "string"
						},
						{
							"internalType": "uint256",
							"name": "amount",
							"type": "uint256"
						},
						{
							"internalType": "address payable",
							"name": "recipient",
							"type": "address"
						}
					],
					"name": "createProposal",
					"outputs": [],
					"stateMutability": "nonpayable",
					"type": "function"
				},
				{
					"inputs": [
						{
							"internalType": "uint256",
							"name": "proposalId",
							"type": "uint256"
						}
					],
					"name": "executeProposal",
					"outputs": [],
					"stateMutability": "nonpayable",
					"type": "function"
				},
				{
					"inputs": [
						{
							"internalType": "address",
							"name": "",
							"type": "address"
						}
					],
					"name": "investors",
					"outputs": [
						{
							"internalType": "bool",
							"name": "",
							"type": "bool"
						}
					],
					"stateMutability": "view",
					"type": "function"
				},
				{
					"inputs": [],
					"name": "nextProposalId",
					"outputs": [
						{
							"internalType": "uint256",
							"name": "",
							"type": "uint256"
						}
					],
					"stateMutability": "view",
					"type": "function"
				},
				{
					"inputs": [
						{
							"internalType": "uint256",
							"name": "",
							"type": "uint256"
						}
					],
					"name": "proposals",
					"outputs": [
						{
							"internalType": "uint256",
							"name": "id",
							"type": "uint256"
						},
						{
							"internalType": "string",
							"name": "name",
							"type": "string"
						},
						{
							"internalType": "uint256",
							"name": "amount",
							"type": "uint256"
						},
						{
							"internalType": "address payable",
							"name": "recipient",
							"type": "address"
						},
						{
							"internalType": "uint256",
							"name": "votes",
							"type": "uint256"
						},
						{
							"internalType": "uint256",
							"name": "end",
							"type": "uint256"
						},
						{
							"internalType": "bool",
							"name": "executed",
							"type": "bool"
						}
					],
					"stateMutability": "view",
					"type": "function"
				},
				{
					"inputs": [],
					"name": "quorum",
					"outputs": [
						{
							"internalType": "uint256",
							"name": "",
							"type": "uint256"
						}
					],
					"stateMutability": "view",
					"type": "function"
				},
				{
					"inputs": [
						{
							"internalType": "uint256",
							"name": "amount",
							"type": "uint256"
						}
					],
					"name": "redeemShare",
					"outputs": [],
					"stateMutability": "nonpayable",
					"type": "function"
				},
				{
					"inputs": [
						{
							"internalType": "address",
							"name": "",
							"type": "address"
						}
					],
					"name": "shares",
					"outputs": [
						{
							"internalType": "uint256",
							"name": "",
							"type": "uint256"
						}
					],
					"stateMutability": "view",
					"type": "function"
				},
				{
					"inputs": [],
					"name": "totalShares",
					"outputs": [
						{
							"internalType": "uint256",
							"name": "",
							"type": "uint256"
						}
					],
					"stateMutability": "view",
					"type": "function"
				},
				{
					"inputs": [
						{
							"internalType": "uint256",
							"name": "amount",
							"type": "uint256"
						},
						{
							"internalType": "address",
							"name": "to",
							"type": "address"
						}
					],
					"name": "transferShare",
					"outputs": [],
					"stateMutability": "nonpayable",
					"type": "function"
				},
				{
					"inputs": [
						{
							"internalType": "uint256",
							"name": "proposalId",
							"type": "uint256"
						}
					],
					"name": "vote",
					"outputs": [],
					"stateMutability": "nonpayable",
					"type": "function"
				},
				{
					"inputs": [],
					"name": "voteTime",
					"outputs": [
						{
							"internalType": "uint256",
							"name": "",
							"type": "uint256"
						}
					],
					"stateMutability": "view",
					"type": "function"
				},
				{
					"inputs": [
						{
							"internalType": "address",
							"name": "",
							"type": "address"
						},
						{
							"internalType": "uint256",
							"name": "",
							"type": "uint256"
						}
					],
					"name": "votes",
					"outputs": [
						{
							"internalType": "bool",
							"name": "",
							"type": "bool"
						}
					],
					"stateMutability": "view",
					"type": "function"
				},
				{
					"inputs": [
						{
							"internalType": "uint256",
							"name": "amount",
							"type": "uint256"
						},
						{
							"internalType": "address payable",
							"name": "to",
							"type": "address"
						}
					],
					"name": "withdrawEther",
					"outputs": [],
					"stateMutability": "nonpayable",
					"type": "function"
				},
				{
					"stateMutability": "payable",
					"type": "receive"
				}
			],
			"devdoc": {
				"kind": "dev",
				"methods": {},
				"version": 1
			},
			"evm": {
				"assembly": "    /* \"dao.sol\":335:3979  contract DAO {... */\n  mstore(0x40, 0x80)\n    /* \"dao.sol\":907:1209  constructor(... */\n  callvalue\n  dup1\n  iszero\n  tag_1\n  jumpi\n  0x00\n  dup1\n  revert\ntag_1:\n  pop\n  mload(0x40)\n  sub(codesize, bytecodeSize)\n  dup1\n  bytecodeSize\n  dup4\n  codecopy\n  dup2\n  dup2\n  add\n  0x40\n  mstore\n  dup2\n  add\n  swap1\n  tag_2\n  swap2\n  swap1\n  tag_3\n  jump\t// in\ntag_2:\n    /* \"dao.sol\":1014:1015  0 */\n  0x00\n    /* \"dao.sol\":1004:1011  _quorum */\n  dup2\n    /* \"dao.sol\":1004:1015  _quorum > 0 */\n  gt\n    /* \"dao.sol\":1004:1032  _quorum > 0 && _quorum < 100 */\n  dup1\n  iszero\n  tag_6\n  jumpi\n  pop\n    /* \"dao.sol\":1029:1032  100 */\n  0x64\n    /* \"dao.sol\":1019:1026  _quorum */\n  dup2\n    /* \"dao.sol\":1019:1032  _quorum < 100 */\n  lt\n    /* \"dao.sol\":1004:1032  _quorum > 0 && _quorum < 100 */\ntag_6:\n    /* \"dao.sol\":996:1069  require(_quorum > 0 && _quorum < 100, 'quorum must be between 0 and 100') */\n  tag_7\n  jumpi\n  mload(0x40)\n  0x08c379a000000000000000000000000000000000000000000000000000000000\n  dup2\n  mstore\n  0x04\n  add\n  tag_8\n  swap1\n  tag_9\n  jump\t// in\ntag_8:\n  mload(0x40)\n  dup1\n  swap2\n  sub\n  swap1\n  revert\ntag_7:\n    /* \"dao.sol\":1112:1128  contributionTime */\n  dup3\n    /* \"dao.sol\":1094:1109  block.timestamp */\n  timestamp\n    /* \"dao.sol\":1094:1128  block.timestamp + contributionTime */\n  tag_10\n  swap2\n  swap1\n  tag_11\n  jump\t// in\ntag_10:\n    /* \"dao.sol\":1076:1091  contributionEnd */\n  0x06\n    /* \"dao.sol\":1076:1128  contributionEnd = block.timestamp + contributionTime */\n  dup2\n  swap1\n  sstore\n  pop\n    /* \"dao.sol\":1146:1155  _voteTime */\n  dup2\n    /* \"dao.sol\":1135:1143  voteTime */\n  0x08\n    /* \"dao.sol\":1135:1155  voteTime = _voteTime */\n  dup2\n  swap1\n  sstore\n  pop\n    /* \"dao.sol\":1171:1178  _quorum */\n  dup1\n    /* \"dao.sol\":1162:1168  quorum */\n  0x09\n    /* \"dao.sol\":1162:1178  quorum = _quorum */\n  dup2\n  swap1\n  sstore\n  pop\n    /* \"dao.sol\":1193:1203  msg.sender */\n  caller\n    /* \"dao.sol\":1185:1190  admin */\n  0x0a\n  0x00\n    /* \"dao.sol\":1185:1203  admin = msg.sender */\n  0x0100\n  exp\n  dup2\n  sload\n  dup2\n  0xffffffffffffffffffffffffffffffffffffffff\n  mul\n  not\n  and\n  swap1\n  dup4\n  0xffffffffffffffffffffffffffffffffffffffff\n  and\n  mul\n  or\n  swap1\n  sstore\n  pop\n    /* \"dao.sol\":907:1209  constructor(... */\n  pop\n  pop\n  pop\n    /* \"dao.sol\":335:3979  contract DAO {... */\n  jump(tag_12)\n    /* \"#utility.yul\":88:205   */\ntag_14:\n    /* \"#utility.yul\":197:198   */\n  0x00\n    /* \"#utility.yul\":194:195   */\n  dup1\n    /* \"#utility.yul\":187:199   */\n  revert\n    /* \"#utility.yul\":334:411   */\ntag_16:\n    /* \"#utility.yul\":371:378   */\n  0x00\n    /* \"#utility.yul\":400:405   */\n  dup2\n    /* \"#utility.yul\":389:405   */\n  swap1\n  pop\n    /* \"#utility.yul\":334:411   */\n  swap2\n  swap1\n  pop\n  jump\t// out\n    /* \"#utility.yul\":417:539   */\ntag_17:\n    /* \"#utility.yul\":490:514   */\n  tag_29\n    /* \"#utility.yul\":508:513   */\n  dup2\n    /* \"#utility.yul\":490:514   */\n  tag_16\n  jump\t// in\ntag_29:\n    /* \"#utility.yul\":483:488   */\n  dup2\n    /* \"#utility.yul\":480:515   */\n  eq\n    /* \"#utility.yul\":470:533   */\n  tag_30\n  jumpi\n    /* \"#utility.yul\":529:530   */\n  0x00\n    /* \"#utility.yul\":526:527   */\n  dup1\n    /* \"#utility.yul\":519:531   */\n  revert\n    /* \"#utility.yul\":470:533   */\ntag_30:\n    /* \"#utility.yul\":417:539   */\n  pop\n  jump\t// out\n    /* \"#utility.yul\":545:688   */\ntag_18:\n    /* \"#utility.yul\":602:607   */\n  0x00\n    /* \"#utility.yul\":633:639   */\n  dup2\n    /* \"#utility.yul\":627:640   */\n  mload\n    /* \"#utility.yul\":618:640   */\n  swap1\n  pop\n    /* \"#utility.yul\":649:682   */\n  tag_32\n    /* \"#utility.yul\":676:681   */\n  dup2\n    /* \"#utility.yul\":649:682   */\n  tag_17\n  jump\t// in\ntag_32:\n    /* \"#utility.yul\":545:688   */\n  swap3\n  swap2\n  pop\n  pop\n  jump\t// out\n    /* \"#utility.yul\":694:1357   */\ntag_3:\n    /* \"#utility.yul\":782:788   */\n  0x00\n    /* \"#utility.yul\":790:796   */\n  dup1\n    /* \"#utility.yul\":798:804   */\n  0x00\n    /* \"#utility.yul\":847:849   */\n  0x60\n    /* \"#utility.yul\":835:844   */\n  dup5\n    /* \"#utility.yul\":826:833   */\n  dup7\n    /* \"#utility.yul\":822:845   */\n  sub\n    /* \"#utility.yul\":818:850   */\n  slt\n    /* \"#utility.yul\":815:934   */\n  iszero\n  tag_34\n  jumpi\n    /* \"#utility.yul\":853:932   */\n  tag_35\n  tag_14\n  jump\t// in\ntag_35:\n    /* \"#utility.yul\":815:934   */\ntag_34:\n    /* \"#utility.yul\":973:974   */\n  0x00\n    /* \"#utility.yul\":998:1062   */\n  tag_36\n    /* \"#utility.yul\":1054:1061   */\n  dup7\n    /* \"#utility.yul\":1045:1051   */\n  dup3\n    /* \"#utility.yul\":1034:1043   */\n  dup8\n    /* \"#utility.yul\":1030:1052   */\n  add\n    /* \"#utility.yul\":998:1062   */\n  tag_18\n  jump\t// in\ntag_36:\n    /* \"#utility.yul\":988:1062   */\n  swap4\n  pop\n    /* \"#utility.yul\":944:1072   */\n  pop\n    /* \"#utility.yul\":1111:1113   */\n  0x20\n    /* \"#utility.yul\":1137:1201   */\n  tag_37\n    /* \"#utility.yul\":1193:1200   */\n  dup7\n    /* \"#utility.yul\":1184:1190   */\n  dup3\n    /* \"#utility.yul\":1173:1182   */\n  dup8\n    /* \"#utility.yul\":1169:1191   */\n  add\n    /* \"#utility.yul\":1137:1201   */\n  tag_18\n  jump\t// in\ntag_37:\n    /* \"#utility.yul\":1127:1201   */\n  swap3\n  pop\n    /* \"#utility.yul\":1082:1211   */\n  pop\n    /* \"#utility.yul\":1250:1252   */\n  0x40\n    /* \"#utility.yul\":1276:1340   */\n  tag_38\n    /* \"#utility.yul\":1332:1339   */\n  dup7\n    /* \"#utility.yul\":1323:1329   */\n  dup3\n    /* \"#utility.yul\":1312:1321   */\n  dup8\n    /* \"#utility.yul\":1308:1330   */\n  add\n    /* \"#utility.yul\":1276:1340   */\n  tag_18\n  jump\t// in\ntag_38:\n    /* \"#utility.yul\":1266:1340   */\n  swap2\n  pop\n    /* \"#utility.yul\":1221:1350   */\n  pop\n    /* \"#utility.yul\":694:1357   */\n  swap3\n  pop\n  swap3\n  pop\n  swap3\n  jump\t// out\n    /* \"#utility.yul\":1363:1532   */\ntag_19:\n    /* \"#utility.yul\":1447:1458   */\n  0x00\n    /* \"#utility.yul\":1481:1487   */\n  dup3\n    /* \"#utility.yul\":1476:1479   */\n  dup3\n    /* \"#utility.yul\":1469:1488   */\n  mstore\n    /* \"#utility.yul\":1521:1525   */\n  0x20\n    /* \"#utility.yul\":1516:1519   */\n  dup3\n    /* \"#utility.yul\":1512:1526   */\n  add\n    /* \"#utility.yul\":1497:1526   */\n  swap1\n  pop\n    /* \"#utility.yul\":1363:1532   */\n  swap3\n  swap2\n  pop\n  pop\n  jump\t// out\n    /* \"#utility.yul\":1538:1720   */\ntag_20:\n    /* \"#utility.yul\":1678:1712   */\n  0x71756f72756d206d757374206265206265747765656e203020616e6420313030\n    /* \"#utility.yul\":1674:1675   */\n  0x00\n    /* \"#utility.yul\":1666:1672   */\n  dup3\n    /* \"#utility.yul\":1662:1676   */\n  add\n    /* \"#utility.yul\":1655:1713   */\n  mstore\n    /* \"#utility.yul\":1538:1720   */\n  pop\n  jump\t// out\n    /* \"#utility.yul\":1726:2092   */\ntag_21:\n    /* \"#utility.yul\":1868:1871   */\n  0x00\n    /* \"#utility.yul\":1889:1956   */\n  tag_42\n    /* \"#utility.yul\":1953:1955   */\n  0x20\n    /* \"#utility.yul\":1948:1951   */\n  dup4\n    /* \"#utility.yul\":1889:1956   */\n  tag_19\n  jump\t// in\ntag_42:\n    /* \"#utility.yul\":1882:1956   */\n  swap2\n  pop\n    /* \"#utility.yul\":1965:2058   */\n  tag_43\n    /* \"#utility.yul\":2054:2057   */\n  dup3\n    /* \"#utility.yul\":1965:2058   */\n  tag_20\n  jump\t// in\ntag_43:\n    /* \"#utility.yul\":2083:2085   */\n  0x20\n    /* \"#utility.yul\":2078:2081   */\n  dup3\n    /* \"#utility.yul\":2074:2086   */\n  add\n    /* \"#utility.yul\":2067:2086   */\n  swap1\n  pop\n    /* \"#utility.yul\":1726:2092   */\n  swap2\n  swap1\n  pop\n  jump\t// out\n    /* \"#utility.yul\":2098:2517   */\ntag_9:\n    /* \"#utility.yul\":2264:2268   */\n  0x00\n    /* \"#utility.yul\":2302:2304   */\n  0x20\n    /* \"#utility.yul\":2291:2300   */\n  dup3\n    /* \"#utility.yul\":2287:2305   */\n  add\n    /* \"#utility.yul\":2279:2305   */\n  swap1\n  pop\n    /* \"#utility.yul\":2351:2360   */\n  dup2\n    /* \"#utility.yul\":2345:2349   */\n  dup2\n    /* \"#utility.yul\":2341:2361   */\n  sub\n    /* \"#utility.yul\":2337:2338   */\n  0x00\n    /* \"#utility.yul\":2326:2335   */\n  dup4\n    /* \"#utility.yul\":2322:2339   */\n  add\n    /* \"#utility.yul\":2315:2362   */\n  mstore\n    /* \"#utility.yul\":2379:2510   */\n  tag_45\n    /* \"#utility.yul\":2505:2509   */\n  dup2\n    /* \"#utility.yul\":2379:2510   */\n  tag_21\n  jump\t// in\ntag_45:\n    /* \"#utility.yul\":2371:2510   */\n  swap1\n  pop\n    /* \"#utility.yul\":2098:2517   */\n  swap2\n  swap1\n  pop\n  jump\t// out\n    /* \"#utility.yul\":2523:2703   */\ntag_22:\n    /* \"#utility.yul\":2571:2648   */\n  0x4e487b7100000000000000000000000000000000000000000000000000000000\n    /* \"#utility.yul\":2568:2569   */\n  0x00\n    /* \"#utility.yul\":2561:2649   */\n  mstore\n    /* \"#utility.yul\":2668:2672   */\n  0x11\n    /* \"#utility.yul\":2665:2666   */\n  0x04\n    /* \"#utility.yul\":2658:2673   */\n  mstore\n    /* \"#utility.yul\":2692:2696   */\n  0x24\n    /* \"#utility.yul\":2689:2690   */\n  0x00\n    /* \"#utility.yul\":2682:2697   */\n  revert\n    /* \"#utility.yul\":2709:2900   */\ntag_11:\n    /* \"#utility.yul\":2749:2752   */\n  0x00\n    /* \"#utility.yul\":2768:2788   */\n  tag_48\n    /* \"#utility.yul\":2786:2787   */\n  dup3\n    /* \"#utility.yul\":2768:2788   */\n  tag_16\n  jump\t// in\ntag_48:\n    /* \"#utility.yul\":2763:2788   */\n  swap2\n  pop\n    /* \"#utility.yul\":2802:2822   */\n  tag_49\n    /* \"#utility.yul\":2820:2821   */\n  dup4\n    /* \"#utility.yul\":2802:2822   */\n  tag_16\n  jump\t// in\ntag_49:\n    /* \"#utility.yul\":2797:2822   */\n  swap3\n  pop\n    /* \"#utility.yul\":2845:2846   */\n  dup3\n    /* \"#utility.yul\":2842:2843   */\n  dup3\n    /* \"#utility.yul\":2838:2847   */\n  add\n    /* \"#utility.yul\":2831:2847   */\n  swap1\n  pop\n    /* \"#utility.yul\":2866:2869   */\n  dup1\n    /* \"#utility.yul\":2863:2864   */\n  dup3\n    /* \"#utility.yul\":2860:2870   */\n  gt\n    /* \"#utility.yul\":2857:2893   */\n  iszero\n  tag_50\n  jumpi\n    /* \"#utility.yul\":2873:2891   */\n  tag_51\n  tag_22\n  jump\t// in\ntag_51:\n    /* \"#utility.yul\":2857:2893   */\ntag_50:\n    /* \"#utility.yul\":2709:2900   */\n  swap3\n  swap2\n  pop\n  pop\n  jump\t// out\n    /* \"dao.sol\":335:3979  contract DAO {... */\ntag_12:\n  dataSize(sub_0)\n  dup1\n  dataOffset(sub_0)\n  0x00\n  codecopy\n  0x00\n  return\nstop\n\nsub_0: assembly {\n        /* \"dao.sol\":335:3979  contract DAO {... */\n      mstore(0x40, 0x80)\n      jumpi(tag_1, lt(calldatasize, 0x04))\n      shr(0xe0, calldataload(0x00))\n      dup1\n      0x6f7bc9be\n      gt\n      tag_21\n      jumpi\n      dup1\n      0xce56c454\n      gt\n      tag_22\n      jumpi\n      dup1\n      0xce56c454\n      eq\n      tag_16\n      jumpi\n      dup1\n      0xce7c2ac2\n      eq\n      tag_17\n      jumpi\n      dup1\n      0xd151b516\n      eq\n      tag_18\n      jumpi\n      dup1\n      0xd7bb99ba\n      eq\n      tag_19\n      jumpi\n      dup1\n      0xf851a440\n      eq\n      tag_20\n      jumpi\n      jump(tag_2)\n    tag_22:\n      dup1\n      0x6f7bc9be\n      eq\n      tag_12\n      jumpi\n      dup1\n      0x868643df\n      eq\n      tag_13\n      jumpi\n      dup1\n      0x9f2524ee\n      eq\n      tag_14\n      jumpi\n      dup1\n      0xbcf93dd6\n      eq\n      tag_15\n      jumpi\n      jump(tag_2)\n    tag_21:\n      dup1\n      0x1703a018\n      gt\n      tag_23\n      jumpi\n      dup1\n      0x1703a018\n      eq\n      tag_7\n      jumpi\n      dup1\n      0x2ab09d14\n      eq\n      tag_8\n      jumpi\n      dup1\n      0x3a98ef39\n      eq\n      tag_9\n      jumpi\n      dup1\n      0x46fcff4c\n      eq\n      tag_10\n      jumpi\n      dup1\n      0x6ac1e01f\n      eq\n      tag_11\n      jumpi\n      jump(tag_2)\n    tag_23:\n      dup1\n      0x0121b93f\n      eq\n      tag_3\n      jumpi\n      dup1\n      0x013cf08b\n      eq\n      tag_4\n      jumpi\n      dup1\n      0x039383e6\n      eq\n      tag_5\n      jumpi\n      dup1\n      0x0d61b519\n      eq\n      tag_6\n      jumpi\n      jump(tag_2)\n    tag_1:\n      jumpi(tag_2, calldatasize)\n        /* \"dao.sol\":3763:3772  msg.value */\n      callvalue\n        /* \"dao.sol\":3745:3759  availableFunds */\n      0x05\n      0x00\n        /* \"dao.sol\":3745:3772  availableFunds += msg.value */\n      dup3\n      dup3\n      sload\n      tag_26\n      swap2\n      swap1\n      tag_27\n      jump\t// in\n    tag_26:\n      swap3\n      pop\n      pop\n      dup2\n      swap1\n      sstore\n      stop\n        /* \"dao.sol\":335:3979  contract DAO {... */\n    tag_2:\n      0x00\n      dup1\n      revert\n        /* \"dao.sol\":2459:2850  function vote(uint proposalId) external onlyInvestors() {... */\n    tag_3:\n      callvalue\n      dup1\n      iszero\n      tag_28\n      jumpi\n      0x00\n      dup1\n      revert\n    tag_28:\n      pop\n      tag_29\n      0x04\n      dup1\n      calldatasize\n      sub\n      dup2\n      add\n      swap1\n      tag_30\n      swap2\n      swap1\n      tag_31\n      jump\t// in\n    tag_30:\n      tag_32\n      jump\t// in\n    tag_29:\n      stop\n        /* \"dao.sol\":663:705  mapping(uint => Proposal) public proposals */\n    tag_4:\n      callvalue\n      dup1\n      iszero\n      tag_33\n      jumpi\n      0x00\n      dup1\n      revert\n    tag_33:\n      pop\n      tag_34\n      0x04\n      dup1\n      calldatasize\n      sub\n      dup2\n      add\n      swap1\n      tag_35\n      swap2\n      swap1\n      tag_31\n      jump\t// in\n    tag_35:\n      tag_36\n      jump\t// in\n    tag_34:\n      mload(0x40)\n      tag_37\n      swap8\n      swap7\n      swap6\n      swap5\n      swap4\n      swap3\n      swap2\n      swap1\n      tag_38\n      jump\t// in\n    tag_37:\n      mload(0x40)\n      dup1\n      swap2\n      sub\n      swap1\n      return\n        /* \"dao.sol\":1799:2016  function transferShare(uint amount, address to) external {... */\n    tag_5:\n      callvalue\n      dup1\n      iszero\n      tag_39\n      jumpi\n      0x00\n      dup1\n      revert\n    tag_39:\n      pop\n      tag_40\n      0x04\n      dup1\n      calldatasize\n      sub\n      dup2\n      add\n      swap1\n      tag_41\n      swap2\n      swap1\n      tag_42\n      jump\t// in\n    tag_41:\n      tag_43\n      jump\t// in\n    tag_40:\n      stop\n        /* \"dao.sol\":2856:3330  function executeProposal(uint proposalId) external onlyAdmin() {... */\n    tag_6:\n      callvalue\n      dup1\n      iszero\n      tag_44\n      jumpi\n      0x00\n      dup1\n      revert\n    tag_44:\n      pop\n      tag_45\n      0x04\n      dup1\n      calldatasize\n      sub\n      dup2\n      add\n      swap1\n      tag_46\n      swap2\n      swap1\n      tag_31\n      jump\t// in\n    tag_46:\n      tag_47\n      jump\t// in\n    tag_45:\n      stop\n        /* \"dao.sol\":857:875  uint public quorum */\n    tag_7:\n      callvalue\n      dup1\n      iszero\n      tag_48\n      jumpi\n      0x00\n      dup1\n      revert\n    tag_48:\n      pop\n      tag_49\n      tag_50\n      jump\t// in\n    tag_49:\n      mload(0x40)\n      tag_51\n      swap2\n      swap1\n      tag_52\n      jump\t// in\n    tag_51:\n      mload(0x40)\n      dup1\n      swap2\n      sub\n      swap1\n      return\n        /* \"dao.sol\":801:827  uint public nextProposalId */\n    tag_8:\n      callvalue\n      dup1\n      iszero\n      tag_53\n      jumpi\n      0x00\n      dup1\n      revert\n    tag_53:\n      pop\n      tag_54\n      tag_55\n      jump\t// in\n    tag_54:\n      mload(0x40)\n      tag_56\n      swap2\n      swap1\n      tag_52\n      jump\t// in\n    tag_56:\n      mload(0x40)\n      dup1\n      swap2\n      sub\n      swap1\n      return\n        /* \"dao.sol\":710:733  uint public totalShares */\n    tag_9:\n      callvalue\n      dup1\n      iszero\n      tag_57\n      jumpi\n      0x00\n      dup1\n      revert\n    tag_57:\n      pop\n      tag_58\n      tag_59\n      jump\t// in\n    tag_58:\n      mload(0x40)\n      tag_60\n      swap2\n      swap1\n      tag_52\n      jump\t// in\n    tag_60:\n      mload(0x40)\n      dup1\n      swap2\n      sub\n      swap1\n      return\n        /* \"dao.sol\":738:764  uint public availableFunds */\n    tag_10:\n      callvalue\n      dup1\n      iszero\n      tag_61\n      jumpi\n      0x00\n      dup1\n      revert\n    tag_61:\n      pop\n      tag_62\n      tag_63\n      jump\t// in\n    tag_62:\n      mload(0x40)\n      tag_64\n      swap2\n      swap1\n      tag_52\n      jump\t// in\n    tag_64:\n      mload(0x40)\n      dup1\n      swap2\n      sub\n      swap1\n      return\n        /* \"dao.sol\":2022:2453  function createProposal(... */\n    tag_11:\n      callvalue\n      dup1\n      iszero\n      tag_65\n      jumpi\n      0x00\n      dup1\n      revert\n    tag_65:\n      pop\n      tag_66\n      0x04\n      dup1\n      calldatasize\n      sub\n      dup2\n      add\n      swap1\n      tag_67\n      swap2\n      swap1\n      tag_68\n      jump\t// in\n    tag_67:\n      tag_69\n      jump\t// in\n    tag_66:\n      stop\n        /* \"dao.sol\":515:556  mapping(address => bool) public investors */\n    tag_12:\n      callvalue\n      dup1\n      iszero\n      tag_70\n      jumpi\n      0x00\n      dup1\n      revert\n    tag_70:\n      pop\n      tag_71\n      0x04\n      dup1\n      calldatasize\n      sub\n      dup2\n      add\n      swap1\n      tag_72\n      swap2\n      swap1\n      tag_73\n      jump\t// in\n    tag_72:\n      tag_74\n      jump\t// in\n    tag_71:\n      mload(0x40)\n      tag_75\n      swap2\n      swap1\n      tag_76\n      jump\t// in\n    tag_75:\n      mload(0x40)\n      dup1\n      swap2\n      sub\n      swap1\n      return\n        /* \"dao.sol\":1496:1789  function redeemShare(uint amount) external {... */\n    tag_13:\n      callvalue\n      dup1\n      iszero\n      tag_77\n      jumpi\n      0x00\n      dup1\n      revert\n    tag_77:\n      pop\n      tag_78\n      0x04\n      dup1\n      calldatasize\n      sub\n      dup2\n      add\n      swap1\n      tag_79\n      swap2\n      swap1\n      tag_31\n      jump\t// in\n    tag_79:\n      tag_80\n      jump\t// in\n    tag_78:\n      stop\n        /* \"dao.sol\":604:658  mapping(address => mapping(uint => bool)) public votes */\n    tag_14:\n      callvalue\n      dup1\n      iszero\n      tag_81\n      jumpi\n      0x00\n      dup1\n      revert\n    tag_81:\n      pop\n      tag_82\n      0x04\n      dup1\n      calldatasize\n      sub\n      dup2\n      add\n      swap1\n      tag_83\n      swap2\n      swap1\n      tag_84\n      jump\t// in\n    tag_83:\n      tag_85\n      jump\t// in\n    tag_82:\n      mload(0x40)\n      tag_86\n      swap2\n      swap1\n      tag_76\n      jump\t// in\n    tag_86:\n      mload(0x40)\n      dup1\n      swap2\n      sub\n      swap1\n      return\n        /* \"dao.sol\":832:852  uint public voteTime */\n    tag_15:\n      callvalue\n      dup1\n      iszero\n      tag_87\n      jumpi\n      0x00\n      dup1\n      revert\n    tag_87:\n      pop\n      tag_88\n      tag_89\n      jump\t// in\n    tag_88:\n      mload(0x40)\n      tag_90\n      swap2\n      swap1\n      tag_52\n      jump\t// in\n    tag_90:\n      mload(0x40)\n      dup1\n      swap2\n      sub\n      swap1\n      return\n        /* \"dao.sol\":3336:3452  function withdrawEther(uint amount, address payable to) external onlyAdmin() {... */\n    tag_16:\n      callvalue\n      dup1\n      iszero\n      tag_91\n      jumpi\n      0x00\n      dup1\n      revert\n    tag_91:\n      pop\n      tag_92\n      0x04\n      dup1\n      calldatasize\n      sub\n      dup2\n      add\n      swap1\n      tag_93\n      swap2\n      swap1\n      tag_94\n      jump\t// in\n    tag_93:\n      tag_95\n      jump\t// in\n    tag_92:\n      stop\n        /* \"dao.sol\":561:599  mapping(address => uint) public shares */\n    tag_17:\n      callvalue\n      dup1\n      iszero\n      tag_96\n      jumpi\n      0x00\n      dup1\n      revert\n    tag_96:\n      pop\n      tag_97\n      0x04\n      dup1\n      calldatasize\n      sub\n      dup2\n      add\n      swap1\n      tag_98\n      swap2\n      swap1\n      tag_73\n      jump\t// in\n    tag_98:\n      tag_99\n      jump\t// in\n    tag_97:\n      mload(0x40)\n      tag_100\n      swap2\n      swap1\n      tag_52\n      jump\t// in\n    tag_100:\n      mload(0x40)\n      dup1\n      swap2\n      sub\n      swap1\n      return\n        /* \"dao.sol\":769:796  uint public contributionEnd */\n    tag_18:\n      callvalue\n      dup1\n      iszero\n      tag_101\n      jumpi\n      0x00\n      dup1\n      revert\n    tag_101:\n      pop\n      tag_102\n      tag_103\n      jump\t// in\n    tag_102:\n      mload(0x40)\n      tag_104\n      swap2\n      swap1\n      tag_52\n      jump\t// in\n    tag_104:\n      mload(0x40)\n      dup1\n      swap2\n      sub\n      swap1\n      return\n        /* \"dao.sol\":1215:1490  function contribute() payable external {... */\n    tag_19:\n      tag_105\n      tag_106\n      jump\t// in\n    tag_105:\n      stop\n        /* \"dao.sol\":880:900  address public admin */\n    tag_20:\n      callvalue\n      dup1\n      iszero\n      tag_107\n      jumpi\n      0x00\n      dup1\n      revert\n    tag_107:\n      pop\n      tag_108\n      tag_109\n      jump\t// in\n    tag_108:\n      mload(0x40)\n      tag_110\n      swap2\n      swap1\n      tag_111\n      jump\t// in\n    tag_110:\n      mload(0x40)\n      dup1\n      swap2\n      sub\n      swap1\n      return\n        /* \"dao.sol\":2459:2850  function vote(uint proposalId) external onlyInvestors() {... */\n    tag_32:\n        /* \"dao.sol\":3849:3853  true */\n      0x01\n        /* \"dao.sol\":3824:3853  investors[msg.sender] == true */\n      iszero\n      iszero\n        /* \"dao.sol\":3824:3833  investors */\n      0x00\n        /* \"dao.sol\":3824:3845  investors[msg.sender] */\n      dup1\n        /* \"dao.sol\":3834:3844  msg.sender */\n      caller\n        /* \"dao.sol\":3824:3845  investors[msg.sender] */\n      0xffffffffffffffffffffffffffffffffffffffff\n      and\n      0xffffffffffffffffffffffffffffffffffffffff\n      and\n      dup2\n      mstore\n      0x20\n      add\n      swap1\n      dup2\n      mstore\n      0x20\n      add\n      0x00\n      keccak256\n      0x00\n      swap1\n      sload\n      swap1\n      0x0100\n      exp\n      swap1\n      div\n      0xff\n      and\n        /* \"dao.sol\":3824:3853  investors[msg.sender] == true */\n      iszero\n      iszero\n      eq\n        /* \"dao.sol\":3816:3872  require(investors[msg.sender] == true, 'only investors') */\n      tag_113\n      jumpi\n      mload(0x40)\n      0x08c379a000000000000000000000000000000000000000000000000000000000\n      dup2\n      mstore\n      0x04\n      add\n      tag_114\n      swap1\n      tag_115\n      jump\t// in\n    tag_114:\n      mload(0x40)\n      dup1\n      swap2\n      sub\n      swap1\n      revert\n    tag_113:\n        /* \"dao.sol\":2522:2547  Proposal storage proposal */\n      0x00\n        /* \"dao.sol\":2550:2559  proposals */\n      0x03\n        /* \"dao.sol\":2550:2571  proposals[proposalId] */\n      0x00\n        /* \"dao.sol\":2560:2570  proposalId */\n      dup4\n        /* \"dao.sol\":2550:2571  proposals[proposalId] */\n      dup2\n      mstore\n      0x20\n      add\n      swap1\n      dup2\n      mstore\n      0x20\n      add\n      0x00\n      keccak256\n        /* \"dao.sol\":2522:2571  Proposal storage proposal = proposals[proposalId] */\n      swap1\n      pop\n        /* \"dao.sol\":2619:2624  false */\n      0x00\n        /* \"dao.sol\":2586:2624  votes[msg.sender][proposalId] == false */\n      iszero\n      iszero\n        /* \"dao.sol\":2586:2591  votes */\n      0x02\n        /* \"dao.sol\":2586:2603  votes[msg.sender] */\n      0x00\n        /* \"dao.sol\":2592:2602  msg.sender */\n      caller\n        /* \"dao.sol\":2586:2603  votes[msg.sender] */\n      0xffffffffffffffffffffffffffffffffffffffff\n      and\n      0xffffffffffffffffffffffffffffffffffffffff\n      and\n      dup2\n      mstore\n      0x20\n      add\n      swap1\n      dup2\n      mstore\n      0x20\n      add\n      0x00\n      keccak256\n        /* \"dao.sol\":2586:2615  votes[msg.sender][proposalId] */\n      0x00\n        /* \"dao.sol\":2604:2614  proposalId */\n      dup5\n        /* \"dao.sol\":2586:2615  votes[msg.sender][proposalId] */\n      dup2\n      mstore\n      0x20\n      add\n      swap1\n      dup2\n      mstore\n      0x20\n      add\n      0x00\n      keccak256\n      0x00\n      swap1\n      sload\n      swap1\n      0x0100\n      exp\n      swap1\n      div\n      0xff\n      and\n        /* \"dao.sol\":2586:2624  votes[msg.sender][proposalId] == false */\n      iszero\n      iszero\n      eq\n        /* \"dao.sol\":2578:2671  require(votes[msg.sender][proposalId] == false, 'investor can only vote once for a proposal') */\n      tag_117\n      jumpi\n      mload(0x40)\n      0x08c379a000000000000000000000000000000000000000000000000000000000\n      dup2\n      mstore\n      0x04\n      add\n      tag_118\n      swap1\n      tag_119\n      jump\t// in\n    tag_118:\n      mload(0x40)\n      dup1\n      swap2\n      sub\n      swap1\n      revert\n    tag_117:\n        /* \"dao.sol\":2704:2712  proposal */\n      dup1\n        /* \"dao.sol\":2704:2716  proposal.end */\n      0x05\n      add\n      sload\n        /* \"dao.sol\":2686:2701  block.timestamp */\n      timestamp\n        /* \"dao.sol\":2686:2716  block.timestamp < proposal.end */\n      lt\n        /* \"dao.sol\":2678:2758  require(block.timestamp < proposal.end, 'can only vote until proposal end date') */\n      tag_120\n      jumpi\n      mload(0x40)\n      0x08c379a000000000000000000000000000000000000000000000000000000000\n      dup2\n      mstore\n      0x04\n      add\n      tag_121\n      swap1\n      tag_122\n      jump\t// in\n    tag_121:\n      mload(0x40)\n      dup1\n      swap2\n      sub\n      swap1\n      revert\n    tag_120:\n        /* \"dao.sol\":2797:2801  true */\n      0x01\n        /* \"dao.sol\":2765:2770  votes */\n      0x02\n        /* \"dao.sol\":2765:2782  votes[msg.sender] */\n      0x00\n        /* \"dao.sol\":2771:2781  msg.sender */\n      caller\n        /* \"dao.sol\":2765:2782  votes[msg.sender] */\n      0xffffffffffffffffffffffffffffffffffffffff\n      and\n      0xffffffffffffffffffffffffffffffffffffffff\n      and\n      dup2\n      mstore\n      0x20\n      add\n      swap1\n      dup2\n      mstore\n      0x20\n      add\n      0x00\n      keccak256\n        /* \"dao.sol\":2765:2794  votes[msg.sender][proposalId] */\n      0x00\n        /* \"dao.sol\":2783:2793  proposalId */\n      dup5\n        /* \"dao.sol\":2765:2794  votes[msg.sender][proposalId] */\n      dup2\n      mstore\n      0x20\n      add\n      swap1\n      dup2\n      mstore\n      0x20\n      add\n      0x00\n      keccak256\n      0x00\n        /* \"dao.sol\":2765:2801  votes[msg.sender][proposalId] = true */\n      0x0100\n      exp\n      dup2\n      sload\n      dup2\n      0xff\n      mul\n      not\n      and\n      swap1\n      dup4\n      iszero\n      iszero\n      mul\n      or\n      swap1\n      sstore\n      pop\n        /* \"dao.sol\":2826:2832  shares */\n      0x01\n        /* \"dao.sol\":2826:2844  shares[msg.sender] */\n      0x00\n        /* \"dao.sol\":2833:2843  msg.sender */\n      caller\n        /* \"dao.sol\":2826:2844  shares[msg.sender] */\n      0xffffffffffffffffffffffffffffffffffffffff\n      and\n      0xffffffffffffffffffffffffffffffffffffffff\n      and\n      dup2\n      mstore\n      0x20\n      add\n      swap1\n      dup2\n      mstore\n      0x20\n      add\n      0x00\n      keccak256\n      sload\n        /* \"dao.sol\":2808:2816  proposal */\n      dup2\n        /* \"dao.sol\":2808:2822  proposal.votes */\n      0x04\n      add\n      0x00\n        /* \"dao.sol\":2808:2844  proposal.votes += shares[msg.sender] */\n      dup3\n      dup3\n      sload\n      tag_123\n      swap2\n      swap1\n      tag_27\n      jump\t// in\n    tag_123:\n      swap3\n      pop\n      pop\n      dup2\n      swap1\n      sstore\n      pop\n        /* \"dao.sol\":2515:2850  {... */\n      pop\n        /* \"dao.sol\":2459:2850  function vote(uint proposalId) external onlyInvestors() {... */\n      pop\n      jump\t// out\n        /* \"dao.sol\":663:705  mapping(uint => Proposal) public proposals */\n    tag_36:\n      mstore(0x20, 0x03)\n      dup1\n      0x00\n      mstore\n      keccak256(0x00, 0x40)\n      0x00\n      swap2\n      pop\n      swap1\n      pop\n      dup1\n      0x00\n      add\n      sload\n      swap1\n      dup1\n      0x01\n      add\n      dup1\n      sload\n      tag_124\n      swap1\n      tag_125\n      jump\t// in\n    tag_124:\n      dup1\n      0x1f\n      add\n      0x20\n      dup1\n      swap2\n      div\n      mul\n      0x20\n      add\n      mload(0x40)\n      swap1\n      dup2\n      add\n      0x40\n      mstore\n      dup1\n      swap3\n      swap2\n      swap1\n      dup2\n      dup2\n      mstore\n      0x20\n      add\n      dup3\n      dup1\n      sload\n      tag_126\n      swap1\n      tag_125\n      jump\t// in\n    tag_126:\n      dup1\n      iszero\n      tag_127\n      jumpi\n      dup1\n      0x1f\n      lt\n      tag_128\n      jumpi\n      0x0100\n      dup1\n      dup4\n      sload\n      div\n      mul\n      dup4\n      mstore\n      swap2\n      0x20\n      add\n      swap2\n      jump(tag_127)\n    tag_128:\n      dup3\n      add\n      swap2\n      swap1\n      0x00\n      mstore\n      keccak256(0x00, 0x20)\n      swap1\n    tag_129:\n      dup2\n      sload\n      dup2\n      mstore\n      swap1\n      0x01\n      add\n      swap1\n      0x20\n      add\n      dup1\n      dup4\n      gt\n      tag_129\n      jumpi\n      dup3\n      swap1\n      sub\n      0x1f\n      and\n      dup3\n      add\n      swap2\n    tag_127:\n      pop\n      pop\n      pop\n      pop\n      pop\n      swap1\n      dup1\n      0x02\n      add\n      sload\n      swap1\n      dup1\n      0x03\n      add\n      0x00\n      swap1\n      sload\n      swap1\n      0x0100\n      exp\n      swap1\n      div\n      0xffffffffffffffffffffffffffffffffffffffff\n      and\n      swap1\n      dup1\n      0x04\n      add\n      sload\n      swap1\n      dup1\n      0x05\n      add\n      sload\n      swap1\n      dup1\n      0x06\n      add\n      0x00\n      swap1\n      sload\n      swap1\n      0x0100\n      exp\n      swap1\n      div\n      0xff\n      and\n      swap1\n      pop\n      dup8\n      jump\t// out\n        /* \"dao.sol\":1799:2016  function transferShare(uint amount, address to) external {... */\n    tag_43:\n        /* \"dao.sol\":1893:1899  amount */\n      dup2\n        /* \"dao.sol\":1871:1877  shares */\n      0x01\n        /* \"dao.sol\":1871:1889  shares[msg.sender] */\n      0x00\n        /* \"dao.sol\":1878:1888  msg.sender */\n      caller\n        /* \"dao.sol\":1871:1889  shares[msg.sender] */\n      0xffffffffffffffffffffffffffffffffffffffff\n      and\n      0xffffffffffffffffffffffffffffffffffffffff\n      and\n      dup2\n      mstore\n      0x20\n      add\n      swap1\n      dup2\n      mstore\n      0x20\n      add\n      0x00\n      keccak256\n      sload\n        /* \"dao.sol\":1871:1899  shares[msg.sender] >= amount */\n      lt\n      iszero\n        /* \"dao.sol\":1863:1921  require(shares[msg.sender] >= amount, 'not enough shares') */\n      tag_131\n      jumpi\n      mload(0x40)\n      0x08c379a000000000000000000000000000000000000000000000000000000000\n      dup2\n      mstore\n      0x04\n      add\n      tag_132\n      swap1\n      tag_133\n      jump\t// in\n    tag_132:\n      mload(0x40)\n      dup1\n      swap2\n      sub\n      swap1\n      revert\n    tag_131:\n        /* \"dao.sol\":1950:1956  amount */\n      dup2\n        /* \"dao.sol\":1928:1934  shares */\n      0x01\n        /* \"dao.sol\":1928:1946  shares[msg.sender] */\n      0x00\n        /* \"dao.sol\":1935:1945  msg.sender */\n      caller\n        /* \"dao.sol\":1928:1946  shares[msg.sender] */\n      0xffffffffffffffffffffffffffffffffffffffff\n      and\n      0xffffffffffffffffffffffffffffffffffffffff\n      and\n      dup2\n      mstore\n      0x20\n      add\n      swap1\n      dup2\n      mstore\n      0x20\n      add\n      0x00\n      keccak256\n      0x00\n        /* \"dao.sol\":1928:1956  shares[msg.sender] -= amount */\n      dup3\n      dup3\n      sload\n      tag_134\n      swap2\n      swap1\n      tag_135\n      jump\t// in\n    tag_134:\n      swap3\n      pop\n      pop\n      dup2\n      swap1\n      sstore\n      pop\n        /* \"dao.sol\":1977:1983  amount */\n      dup2\n        /* \"dao.sol\":1963:1969  shares */\n      0x01\n        /* \"dao.sol\":1963:1973  shares[to] */\n      0x00\n        /* \"dao.sol\":1970:1972  to */\n      dup4\n        /* \"dao.sol\":1963:1973  shares[to] */\n      0xffffffffffffffffffffffffffffffffffffffff\n      and\n      0xffffffffffffffffffffffffffffffffffffffff\n      and\n      dup2\n      mstore\n      0x20\n      add\n      swap1\n      dup2\n      mstore\n      0x20\n      add\n      0x00\n      keccak256\n      0x00\n        /* \"dao.sol\":1963:1983  shares[to] += amount */\n      dup3\n      dup3\n      sload\n      tag_136\n      swap2\n      swap1\n      tag_27\n      jump\t// in\n    tag_136:\n      swap3\n      pop\n      pop\n      dup2\n      swap1\n      sstore\n      pop\n        /* \"dao.sol\":2006:2010  true */\n      0x01\n        /* \"dao.sol\":1990:1999  investors */\n      0x00\n        /* \"dao.sol\":1990:2003  investors[to] */\n      dup1\n        /* \"dao.sol\":2000:2002  to */\n      dup4\n        /* \"dao.sol\":1990:2003  investors[to] */\n      0xffffffffffffffffffffffffffffffffffffffff\n      and\n      0xffffffffffffffffffffffffffffffffffffffff\n      and\n      dup2\n      mstore\n      0x20\n      add\n      swap1\n      dup2\n      mstore\n      0x20\n      add\n      0x00\n      keccak256\n      0x00\n        /* \"dao.sol\":1990:2010  investors[to] = true */\n      0x0100\n      exp\n      dup2\n      sload\n      dup2\n      0xff\n      mul\n      not\n      and\n      swap1\n      dup4\n      iszero\n      iszero\n      mul\n      or\n      swap1\n      sstore\n      pop\n        /* \"dao.sol\":1799:2016  function transferShare(uint amount, address to) external {... */\n      pop\n      pop\n      jump\t// out\n        /* \"dao.sol\":2856:3330  function executeProposal(uint proposalId) external onlyAdmin() {... */\n    tag_47:\n        /* \"dao.sol\":3942:3947  admin */\n      0x0a\n      0x00\n      swap1\n      sload\n      swap1\n      0x0100\n      exp\n      swap1\n      div\n      0xffffffffffffffffffffffffffffffffffffffff\n      and\n        /* \"dao.sol\":3928:3947  msg.sender == admin */\n      0xffffffffffffffffffffffffffffffffffffffff\n      and\n        /* \"dao.sol\":3928:3938  msg.sender */\n      caller\n        /* \"dao.sol\":3928:3947  msg.sender == admin */\n      0xffffffffffffffffffffffffffffffffffffffff\n      and\n      eq\n        /* \"dao.sol\":3920:3962  require(msg.sender == admin, 'only admin') */\n      tag_138\n      jumpi\n      mload(0x40)\n      0x08c379a000000000000000000000000000000000000000000000000000000000\n      dup2\n      mstore\n      0x04\n      add\n      tag_139\n      swap1\n      tag_140\n      jump\t// in\n    tag_139:\n      mload(0x40)\n      dup1\n      swap2\n      sub\n      swap1\n      revert\n    tag_138:\n        /* \"dao.sol\":2926:2951  Proposal storage proposal */\n      0x00\n        /* \"dao.sol\":2954:2963  proposals */\n      0x03\n        /* \"dao.sol\":2954:2975  proposals[proposalId] */\n      0x00\n        /* \"dao.sol\":2964:2974  proposalId */\n      dup4\n        /* \"dao.sol\":2954:2975  proposals[proposalId] */\n      dup2\n      mstore\n      0x20\n      add\n      swap1\n      dup2\n      mstore\n      0x20\n      add\n      0x00\n      keccak256\n        /* \"dao.sol\":2926:2975  Proposal storage proposal = proposals[proposalId] */\n      swap1\n      pop\n        /* \"dao.sol\":3009:3017  proposal */\n      dup1\n        /* \"dao.sol\":3009:3021  proposal.end */\n      0x05\n      add\n      sload\n        /* \"dao.sol\":2990:3005  block.timestamp */\n      timestamp\n        /* \"dao.sol\":2990:3021  block.timestamp >= proposal.end */\n      lt\n      iszero\n        /* \"dao.sol\":2982:3065  require(block.timestamp >= proposal.end, 'cannot execute proposal before end date') */\n      tag_142\n      jumpi\n      mload(0x40)\n      0x08c379a000000000000000000000000000000000000000000000000000000000\n      dup2\n      mstore\n      0x04\n      add\n      tag_143\n      swap1\n      tag_144\n      jump\t// in\n    tag_143:\n      mload(0x40)\n      dup1\n      swap2\n      sub\n      swap1\n      revert\n    tag_142:\n        /* \"dao.sol\":3101:3106  false */\n      0x00\n        /* \"dao.sol\":3080:3106  proposal.executed == false */\n      iszero\n      iszero\n        /* \"dao.sol\":3080:3088  proposal */\n      dup2\n        /* \"dao.sol\":3080:3097  proposal.executed */\n      0x06\n      add\n      0x00\n      swap1\n      sload\n      swap1\n      0x0100\n      exp\n      swap1\n      div\n      0xff\n      and\n        /* \"dao.sol\":3080:3106  proposal.executed == false */\n      iszero\n      iszero\n      eq\n        /* \"dao.sol\":3072:3151  require(proposal.executed == false, 'cannot execute proposal already executed') */\n      tag_145\n      jumpi\n      mload(0x40)\n      0x08c379a000000000000000000000000000000000000000000000000000000000\n      dup2\n      mstore\n      0x04\n      add\n      tag_146\n      swap1\n      tag_147\n      jump\t// in\n    tag_146:\n      mload(0x40)\n      dup1\n      swap2\n      sub\n      swap1\n      revert\n    tag_145:\n        /* \"dao.sol\":3206:3212  quorum */\n      sload(0x09)\n        /* \"dao.sol\":3199:3202  100 */\n      0x64\n        /* \"dao.sol\":3184:3195  totalShares */\n      sload(0x04)\n        /* \"dao.sol\":3167:3175  proposal */\n      dup4\n        /* \"dao.sol\":3167:3181  proposal.votes */\n      0x04\n      add\n      sload\n        /* \"dao.sol\":3167:3195  proposal.votes / totalShares */\n      tag_148\n      swap2\n      swap1\n      tag_149\n      jump\t// in\n    tag_148:\n        /* \"dao.sol\":3166:3202  (proposal.votes / totalShares) * 100 */\n      tag_150\n      swap2\n      swap1\n      tag_151\n      jump\t// in\n    tag_150:\n        /* \"dao.sol\":3166:3212  (proposal.votes / totalShares) * 100 >= quorum */\n      lt\n      iszero\n        /* \"dao.sol\":3158:3266  require((proposal.votes / totalShares) * 100 >= quorum, 'cannot execute proposal with votes # below quorum') */\n      tag_152\n      jumpi\n      mload(0x40)\n      0x08c379a000000000000000000000000000000000000000000000000000000000\n      dup2\n      mstore\n      0x04\n      add\n      tag_153\n      swap1\n      tag_154\n      jump\t// in\n    tag_153:\n      mload(0x40)\n      dup1\n      swap2\n      sub\n      swap1\n      revert\n    tag_152:\n        /* \"dao.sol\":3273:3324  _transferEther(proposal.amount, proposal.recipient) */\n      tag_155\n        /* \"dao.sol\":3288:3296  proposal */\n      dup2\n        /* \"dao.sol\":3288:3303  proposal.amount */\n      0x02\n      add\n      sload\n        /* \"dao.sol\":3305:3313  proposal */\n      dup3\n        /* \"dao.sol\":3305:3323  proposal.recipient */\n      0x03\n      add\n      0x00\n      swap1\n      sload\n      swap1\n      0x0100\n      exp\n      swap1\n      div\n      0xffffffffffffffffffffffffffffffffffffffff\n      and\n        /* \"dao.sol\":3273:3287  _transferEther */\n      tag_156\n        /* \"dao.sol\":3273:3324  _transferEther(proposal.amount, proposal.recipient) */\n      jump\t// in\n    tag_155:\n        /* \"dao.sol\":2919:3330  {... */\n      pop\n        /* \"dao.sol\":2856:3330  function executeProposal(uint proposalId) external onlyAdmin() {... */\n      pop\n      jump\t// out\n        /* \"dao.sol\":857:875  uint public quorum */\n    tag_50:\n      sload(0x09)\n      dup2\n      jump\t// out\n        /* \"dao.sol\":801:827  uint public nextProposalId */\n    tag_55:\n      sload(0x07)\n      dup2\n      jump\t// out\n        /* \"dao.sol\":710:733  uint public totalShares */\n    tag_59:\n      sload(0x04)\n      dup2\n      jump\t// out\n        /* \"dao.sol\":738:764  uint public availableFunds */\n    tag_63:\n      sload(0x05)\n      dup2\n      jump\t// out\n        /* \"dao.sol\":2022:2453  function createProposal(... */\n    tag_69:\n        /* \"dao.sol\":3849:3853  true */\n      0x01\n        /* \"dao.sol\":3824:3853  investors[msg.sender] == true */\n      iszero\n      iszero\n        /* \"dao.sol\":3824:3833  investors */\n      0x00\n        /* \"dao.sol\":3824:3845  investors[msg.sender] */\n      dup1\n        /* \"dao.sol\":3834:3844  msg.sender */\n      caller\n        /* \"dao.sol\":3824:3845  investors[msg.sender] */\n      0xffffffffffffffffffffffffffffffffffffffff\n      and\n      0xffffffffffffffffffffffffffffffffffffffff\n      and\n      dup2\n      mstore\n      0x20\n      add\n      swap1\n      dup2\n      mstore\n      0x20\n      add\n      0x00\n      keccak256\n      0x00\n      swap1\n      sload\n      swap1\n      0x0100\n      exp\n      swap1\n      div\n      0xff\n      and\n        /* \"dao.sol\":3824:3853  investors[msg.sender] == true */\n      iszero\n      iszero\n      eq\n        /* \"dao.sol\":3816:3872  require(investors[msg.sender] == true, 'only investors') */\n      tag_158\n      jumpi\n      mload(0x40)\n      0x08c379a000000000000000000000000000000000000000000000000000000000\n      dup2\n      mstore\n      0x04\n      add\n      tag_159\n      swap1\n      tag_115\n      jump\t// in\n    tag_159:\n      mload(0x40)\n      dup1\n      swap2\n      sub\n      swap1\n      revert\n    tag_158:\n        /* \"dao.sol\":2190:2196  amount */\n      dup2\n        /* \"dao.sol\":2172:2186  availableFunds */\n      sload(0x05)\n        /* \"dao.sol\":2172:2196  availableFunds >= amount */\n      lt\n      iszero\n        /* \"dao.sol\":2164:2215  require(availableFunds >= amount, 'amount too big') */\n      tag_161\n      jumpi\n      mload(0x40)\n      0x08c379a000000000000000000000000000000000000000000000000000000000\n      dup2\n      mstore\n      0x04\n      add\n      tag_162\n      swap1\n      tag_163\n      jump\t// in\n    tag_162:\n      mload(0x40)\n      dup1\n      swap2\n      sub\n      swap1\n      revert\n    tag_161:\n        /* \"dao.sol\":2250:2393  Proposal(... */\n      mload(0x40)\n      dup1\n      0xe0\n      add\n      0x40\n      mstore\n      dup1\n        /* \"dao.sol\":2267:2281  nextProposalId */\n      sload(0x07)\n        /* \"dao.sol\":2250:2393  Proposal(... */\n      dup2\n      mstore\n      0x20\n      add\n        /* \"dao.sol\":2290:2294  name */\n      dup5\n        /* \"dao.sol\":2250:2393  Proposal(... */\n      dup2\n      mstore\n      0x20\n      add\n        /* \"dao.sol\":2303:2309  amount */\n      dup4\n        /* \"dao.sol\":2250:2393  Proposal(... */\n      dup2\n      mstore\n      0x20\n      add\n        /* \"dao.sol\":2318:2327  recipient */\n      dup3\n        /* \"dao.sol\":2250:2393  Proposal(... */\n      0xffffffffffffffffffffffffffffffffffffffff\n      and\n      dup2\n      mstore\n      0x20\n      add\n        /* \"dao.sol\":2336:2337  0 */\n      0x00\n        /* \"dao.sol\":2250:2393  Proposal(... */\n      dup2\n      mstore\n      0x20\n      add\n        /* \"dao.sol\":2364:2372  voteTime */\n      sload(0x08)\n        /* \"dao.sol\":2346:2361  block.timestamp */\n      timestamp\n        /* \"dao.sol\":2346:2372  block.timestamp + voteTime */\n      tag_164\n      swap2\n      swap1\n      tag_27\n      jump\t// in\n    tag_164:\n        /* \"dao.sol\":2250:2393  Proposal(... */\n      dup2\n      mstore\n      0x20\n      add\n        /* \"dao.sol\":2381:2386  false */\n      0x00\n        /* \"dao.sol\":2250:2393  Proposal(... */\n      iszero\n      iszero\n      dup2\n      mstore\n      pop\n        /* \"dao.sol\":2222:2231  proposals */\n      0x03\n        /* \"dao.sol\":2222:2247  proposals[nextProposalId] */\n      0x00\n        /* \"dao.sol\":2232:2246  nextProposalId */\n      sload(0x07)\n        /* \"dao.sol\":2222:2247  proposals[nextProposalId] */\n      dup2\n      mstore\n      0x20\n      add\n      swap1\n      dup2\n      mstore\n      0x20\n      add\n      0x00\n      keccak256\n        /* \"dao.sol\":2222:2393  proposals[nextProposalId] = Proposal(... */\n      0x00\n      dup3\n      add\n      mload\n      dup2\n      0x00\n      add\n      sstore\n      0x20\n      dup3\n      add\n      mload\n      dup2\n      0x01\n      add\n      swap1\n      dup2\n      tag_165\n      swap2\n      swap1\n      tag_166\n      jump\t// in\n    tag_165:\n      pop\n      0x40\n      dup3\n      add\n      mload\n      dup2\n      0x02\n      add\n      sstore\n      0x60\n      dup3\n      add\n      mload\n      dup2\n      0x03\n      add\n      exp(0x0100, 0x00)\n      dup2\n      sload\n      dup2\n      0xffffffffffffffffffffffffffffffffffffffff\n      mul\n      not\n      and\n      swap1\n      dup4\n      0xffffffffffffffffffffffffffffffffffffffff\n      and\n      mul\n      or\n      swap1\n      sstore\n      pop\n      0x80\n      dup3\n      add\n      mload\n      dup2\n      0x04\n      add\n      sstore\n      0xa0\n      dup3\n      add\n      mload\n      dup2\n      0x05\n      add\n      sstore\n      0xc0\n      dup3\n      add\n      mload\n      dup2\n      0x06\n      add\n      exp(0x0100, 0x00)\n      dup2\n      sload\n      dup2\n      0xff\n      mul\n      not\n      and\n      swap1\n      dup4\n      iszero\n      iszero\n      mul\n      or\n      swap1\n      sstore\n      pop\n      swap1\n      pop\n      pop\n        /* \"dao.sol\":2418:2424  amount */\n      dup2\n        /* \"dao.sol\":2400:2414  availableFunds */\n      0x05\n      0x00\n        /* \"dao.sol\":2400:2424  availableFunds -= amount */\n      dup3\n      dup3\n      sload\n      tag_167\n      swap2\n      swap1\n      tag_135\n      jump\t// in\n    tag_167:\n      swap3\n      pop\n      pop\n      dup2\n      swap1\n      sstore\n      pop\n        /* \"dao.sol\":2431:2445  nextProposalId */\n      0x07\n      0x00\n        /* \"dao.sol\":2431:2447  nextProposalId++ */\n      dup2\n      sload\n      dup1\n      swap3\n      swap2\n      swap1\n      tag_168\n      swap1\n      tag_169\n      jump\t// in\n    tag_168:\n      swap2\n      swap1\n      pop\n      sstore\n      pop\n        /* \"dao.sol\":2022:2453  function createProposal(... */\n      pop\n      pop\n      pop\n      jump\t// out\n        /* \"dao.sol\":515:556  mapping(address => bool) public investors */\n    tag_74:\n      mstore(0x20, 0x00)\n      dup1\n      0x00\n      mstore\n      keccak256(0x00, 0x40)\n      0x00\n      swap2\n      pop\n      sload\n      swap1\n      0x0100\n      exp\n      swap1\n      div\n      0xff\n      and\n      dup2\n      jump\t// out\n        /* \"dao.sol\":1496:1789  function redeemShare(uint amount) external {... */\n    tag_80:\n        /* \"dao.sol\":1576:1582  amount */\n      dup1\n        /* \"dao.sol\":1554:1560  shares */\n      0x01\n        /* \"dao.sol\":1554:1572  shares[msg.sender] */\n      0x00\n        /* \"dao.sol\":1561:1571  msg.sender */\n      caller\n        /* \"dao.sol\":1554:1572  shares[msg.sender] */\n      0xffffffffffffffffffffffffffffffffffffffff\n      and\n      0xffffffffffffffffffffffffffffffffffffffff\n      and\n      dup2\n      mstore\n      0x20\n      add\n      swap1\n      dup2\n      mstore\n      0x20\n      add\n      0x00\n      keccak256\n      sload\n        /* \"dao.sol\":1554:1582  shares[msg.sender] >= amount */\n      lt\n      iszero\n        /* \"dao.sol\":1546:1604  require(shares[msg.sender] >= amount, 'not enough shares') */\n      tag_171\n      jumpi\n      mload(0x40)\n      0x08c379a000000000000000000000000000000000000000000000000000000000\n      dup2\n      mstore\n      0x04\n      add\n      tag_172\n      swap1\n      tag_133\n      jump\t// in\n    tag_172:\n      mload(0x40)\n      dup1\n      swap2\n      sub\n      swap1\n      revert\n    tag_171:\n        /* \"dao.sol\":1637:1643  amount */\n      dup1\n        /* \"dao.sol\":1619:1633  availableFunds */\n      sload(0x05)\n        /* \"dao.sol\":1619:1643  availableFunds >= amount */\n      lt\n      iszero\n        /* \"dao.sol\":1611:1674  require(availableFunds >= amount, 'not enough available funds') */\n      tag_173\n      jumpi\n      mload(0x40)\n      0x08c379a000000000000000000000000000000000000000000000000000000000\n      dup2\n      mstore\n      0x04\n      add\n      tag_174\n      swap1\n      tag_175\n      jump\t// in\n    tag_174:\n      mload(0x40)\n      dup1\n      swap2\n      sub\n      swap1\n      revert\n    tag_173:\n        /* \"dao.sol\":1703:1709  amount */\n      dup1\n        /* \"dao.sol\":1681:1687  shares */\n      0x01\n        /* \"dao.sol\":1681:1699  shares[msg.sender] */\n      0x00\n        /* \"dao.sol\":1688:1698  msg.sender */\n      caller\n        /* \"dao.sol\":1681:1699  shares[msg.sender] */\n      0xffffffffffffffffffffffffffffffffffffffff\n      and\n      0xffffffffffffffffffffffffffffffffffffffff\n      and\n      dup2\n      mstore\n      0x20\n      add\n      swap1\n      dup2\n      mstore\n      0x20\n      add\n      0x00\n      keccak256\n      0x00\n        /* \"dao.sol\":1681:1709  shares[msg.sender] -= amount */\n      dup3\n      dup3\n      sload\n      tag_176\n      swap2\n      swap1\n      tag_135\n      jump\t// in\n    tag_176:\n      swap3\n      pop\n      pop\n      dup2\n      swap1\n      sstore\n      pop\n        /* \"dao.sol\":1734:1740  amount */\n      dup1\n        /* \"dao.sol\":1716:1730  availableFunds */\n      0x05\n      0x00\n        /* \"dao.sol\":1716:1740  availableFunds -= amount */\n      dup3\n      dup3\n      sload\n      tag_177\n      swap2\n      swap1\n      tag_135\n      jump\t// in\n    tag_177:\n      swap3\n      pop\n      pop\n      dup2\n      swap1\n      sstore\n      pop\n        /* \"dao.sol\":1755:1765  msg.sender */\n      caller\n        /* \"dao.sol\":1747:1775  payable(msg.sender).transfer */\n      0xffffffffffffffffffffffffffffffffffffffff\n      and\n        /* \"dao.sol\":1747:1783  payable(msg.sender).transfer(amount) */\n      0x08fc\n        /* \"dao.sol\":1776:1782  amount */\n      dup3\n        /* \"dao.sol\":1747:1783  payable(msg.sender).transfer(amount) */\n      swap1\n      dup2\n      iszero\n      mul\n      swap1\n      mload(0x40)\n      0x00\n      mload(0x40)\n      dup1\n      dup4\n      sub\n      dup2\n      dup6\n      dup9\n      dup9\n      call\n      swap4\n      pop\n      pop\n      pop\n      pop\n      iszero\n      dup1\n      iszero\n      tag_179\n      jumpi\n      returndatasize\n      0x00\n      dup1\n      returndatacopy\n      revert(0x00, returndatasize)\n    tag_179:\n      pop\n        /* \"dao.sol\":1496:1789  function redeemShare(uint amount) external {... */\n      pop\n      jump\t// out\n        /* \"dao.sol\":604:658  mapping(address => mapping(uint => bool)) public votes */\n    tag_85:\n      mstore(0x20, 0x02)\n      dup2\n      0x00\n      mstore\n      mstore(0x20, keccak256(0x00, 0x40))\n      dup1\n      0x00\n      mstore\n      keccak256(0x00, 0x40)\n      0x00\n      swap2\n      pop\n      swap2\n      pop\n      swap1\n      sload\n      swap1\n      0x0100\n      exp\n      swap1\n      div\n      0xff\n      and\n      dup2\n      jump\t// out\n        /* \"dao.sol\":832:852  uint public voteTime */\n    tag_89:\n      sload(0x08)\n      dup2\n      jump\t// out\n        /* \"dao.sol\":3336:3452  function withdrawEther(uint amount, address payable to) external onlyAdmin() {... */\n    tag_95:\n        /* \"dao.sol\":3942:3947  admin */\n      0x0a\n      0x00\n      swap1\n      sload\n      swap1\n      0x0100\n      exp\n      swap1\n      div\n      0xffffffffffffffffffffffffffffffffffffffff\n      and\n        /* \"dao.sol\":3928:3947  msg.sender == admin */\n      0xffffffffffffffffffffffffffffffffffffffff\n      and\n        /* \"dao.sol\":3928:3938  msg.sender */\n      caller\n        /* \"dao.sol\":3928:3947  msg.sender == admin */\n      0xffffffffffffffffffffffffffffffffffffffff\n      and\n      eq\n        /* \"dao.sol\":3920:3962  require(msg.sender == admin, 'only admin') */\n      tag_181\n      jumpi\n      mload(0x40)\n      0x08c379a000000000000000000000000000000000000000000000000000000000\n      dup2\n      mstore\n      0x04\n      add\n      tag_182\n      swap1\n      tag_140\n      jump\t// in\n    tag_182:\n      mload(0x40)\n      dup1\n      swap2\n      sub\n      swap1\n      revert\n    tag_181:\n        /* \"dao.sol\":3420:3446  _transferEther(amount, to) */\n      tag_184\n        /* \"dao.sol\":3435:3441  amount */\n      dup3\n        /* \"dao.sol\":3443:3445  to */\n      dup3\n        /* \"dao.sol\":3420:3434  _transferEther */\n      tag_156\n        /* \"dao.sol\":3420:3446  _transferEther(amount, to) */\n      jump\t// in\n    tag_184:\n        /* \"dao.sol\":3336:3452  function withdrawEther(uint amount, address payable to) external onlyAdmin() {... */\n      pop\n      pop\n      jump\t// out\n        /* \"dao.sol\":561:599  mapping(address => uint) public shares */\n    tag_99:\n      mstore(0x20, 0x01)\n      dup1\n      0x00\n      mstore\n      keccak256(0x00, 0x40)\n      0x00\n      swap2\n      pop\n      swap1\n      pop\n      sload\n      dup2\n      jump\t// out\n        /* \"dao.sol\":769:796  uint public contributionEnd */\n    tag_103:\n      sload(0x06)\n      dup2\n      jump\t// out\n        /* \"dao.sol\":1215:1490  function contribute() payable external {... */\n    tag_106:\n        /* \"dao.sol\":1287:1302  contributionEnd */\n      sload(0x06)\n        /* \"dao.sol\":1269:1284  block.timestamp */\n      timestamp\n        /* \"dao.sol\":1269:1302  block.timestamp < contributionEnd */\n      lt\n        /* \"dao.sol\":1261:1346  require(block.timestamp < contributionEnd, 'cannot contribute after contributionEnd') */\n      tag_186\n      jumpi\n      mload(0x40)\n      0x08c379a000000000000000000000000000000000000000000000000000000000\n      dup2\n      mstore\n      0x04\n      add\n      tag_187\n      swap1\n      tag_188\n      jump\t// in\n    tag_187:\n      mload(0x40)\n      dup1\n      swap2\n      sub\n      swap1\n      revert\n    tag_186:\n        /* \"dao.sol\":1377:1381  true */\n      0x01\n        /* \"dao.sol\":1353:1362  investors */\n      0x00\n        /* \"dao.sol\":1353:1374  investors[msg.sender] */\n      dup1\n        /* \"dao.sol\":1363:1373  msg.sender */\n      caller\n        /* \"dao.sol\":1353:1374  investors[msg.sender] */\n      0xffffffffffffffffffffffffffffffffffffffff\n      and\n      0xffffffffffffffffffffffffffffffffffffffff\n      and\n      dup2\n      mstore\n      0x20\n      add\n      swap1\n      dup2\n      mstore\n      0x20\n      add\n      0x00\n      keccak256\n      0x00\n        /* \"dao.sol\":1353:1381  investors[msg.sender] = true */\n      0x0100\n      exp\n      dup2\n      sload\n      dup2\n      0xff\n      mul\n      not\n      and\n      swap1\n      dup4\n      iszero\n      iszero\n      mul\n      or\n      swap1\n      sstore\n      pop\n        /* \"dao.sol\":1410:1419  msg.value */\n      callvalue\n        /* \"dao.sol\":1388:1394  shares */\n      0x01\n        /* \"dao.sol\":1388:1406  shares[msg.sender] */\n      0x00\n        /* \"dao.sol\":1395:1405  msg.sender */\n      caller\n        /* \"dao.sol\":1388:1406  shares[msg.sender] */\n      0xffffffffffffffffffffffffffffffffffffffff\n      and\n      0xffffffffffffffffffffffffffffffffffffffff\n      and\n      dup2\n      mstore\n      0x20\n      add\n      swap1\n      dup2\n      mstore\n      0x20\n      add\n      0x00\n      keccak256\n      0x00\n        /* \"dao.sol\":1388:1419  shares[msg.sender] += msg.value */\n      dup3\n      dup3\n      sload\n      tag_189\n      swap2\n      swap1\n      tag_27\n      jump\t// in\n    tag_189:\n      swap3\n      pop\n      pop\n      dup2\n      swap1\n      sstore\n      pop\n        /* \"dao.sol\":1441:1450  msg.value */\n      callvalue\n        /* \"dao.sol\":1426:1437  totalShares */\n      0x04\n      0x00\n        /* \"dao.sol\":1426:1450  totalShares += msg.value */\n      dup3\n      dup3\n      sload\n      tag_190\n      swap2\n      swap1\n      tag_27\n      jump\t// in\n    tag_190:\n      swap3\n      pop\n      pop\n      dup2\n      swap1\n      sstore\n      pop\n        /* \"dao.sol\":1475:1484  msg.value */\n      callvalue\n        /* \"dao.sol\":1457:1471  availableFunds */\n      0x05\n      0x00\n        /* \"dao.sol\":1457:1484  availableFunds += msg.value */\n      dup3\n      dup3\n      sload\n      tag_191\n      swap2\n      swap1\n      tag_27\n      jump\t// in\n    tag_191:\n      swap3\n      pop\n      pop\n      dup2\n      swap1\n      sstore\n      pop\n        /* \"dao.sol\":1215:1490  function contribute() payable external {... */\n      jump\t// out\n        /* \"dao.sol\":880:900  address public admin */\n    tag_109:\n      0x0a\n      0x00\n      swap1\n      sload\n      swap1\n      0x0100\n      exp\n      swap1\n      div\n      0xffffffffffffffffffffffffffffffffffffffff\n      and\n      dup2\n      jump\t// out\n        /* \"dao.sol\":3460:3658  function _transferEther(uint amount, address payable to) internal {... */\n    tag_156:\n        /* \"dao.sol\":3551:3565  availableFunds */\n      sload(0x05)\n        /* \"dao.sol\":3541:3547  amount */\n      dup3\n        /* \"dao.sol\":3541:3565  amount <= availableFunds */\n      gt\n      iszero\n        /* \"dao.sol\":3533:3595  require(amount <= availableFunds, 'not enough availableFunds') */\n      tag_193\n      jumpi\n      mload(0x40)\n      0x08c379a000000000000000000000000000000000000000000000000000000000\n      dup2\n      mstore\n      0x04\n      add\n      tag_194\n      swap1\n      tag_195\n      jump\t// in\n    tag_194:\n      mload(0x40)\n      dup1\n      swap2\n      sub\n      swap1\n      revert\n    tag_193:\n        /* \"dao.sol\":3620:3626  amount */\n      dup2\n        /* \"dao.sol\":3602:3616  availableFunds */\n      0x05\n      0x00\n        /* \"dao.sol\":3602:3626  availableFunds -= amount */\n      dup3\n      dup3\n      sload\n      tag_196\n      swap2\n      swap1\n      tag_135\n      jump\t// in\n    tag_196:\n      swap3\n      pop\n      pop\n      dup2\n      swap1\n      sstore\n      pop\n        /* \"dao.sol\":3633:3635  to */\n      dup1\n        /* \"dao.sol\":3633:3644  to.transfer */\n      0xffffffffffffffffffffffffffffffffffffffff\n      and\n        /* \"dao.sol\":3633:3652  to.transfer(amount) */\n      0x08fc\n        /* \"dao.sol\":3645:3651  amount */\n      dup4\n        /* \"dao.sol\":3633:3652  to.transfer(amount) */\n      swap1\n      dup2\n      iszero\n      mul\n      swap1\n      mload(0x40)\n      0x00\n      mload(0x40)\n      dup1\n      dup4\n      sub\n      dup2\n      dup6\n      dup9\n      dup9\n      call\n      swap4\n      pop\n      pop\n      pop\n      pop\n      iszero\n      dup1\n      iszero\n      tag_198\n      jumpi\n      returndatasize\n      0x00\n      dup1\n      returndatacopy\n      revert(0x00, returndatasize)\n    tag_198:\n      pop\n        /* \"dao.sol\":3460:3658  function _transferEther(uint amount, address payable to) internal {... */\n      pop\n      pop\n      jump\t// out\n        /* \"#utility.yul\":7:84   */\n    tag_199:\n        /* \"#utility.yul\":44:51   */\n      0x00\n        /* \"#utility.yul\":73:78   */\n      dup2\n        /* \"#utility.yul\":62:78   */\n      swap1\n      pop\n        /* \"#utility.yul\":7:84   */\n      swap2\n      swap1\n      pop\n      jump\t// out\n        /* \"#utility.yul\":90:270   */\n    tag_200:\n        /* \"#utility.yul\":138:215   */\n      0x4e487b7100000000000000000000000000000000000000000000000000000000\n        /* \"#utility.yul\":135:136   */\n      0x00\n        /* \"#utility.yul\":128:216   */\n      mstore\n        /* \"#utility.yul\":235:239   */\n      0x11\n        /* \"#utility.yul\":232:233   */\n      0x04\n        /* \"#utility.yul\":225:240   */\n      mstore\n        /* \"#utility.yul\":259:263   */\n      0x24\n        /* \"#utility.yul\":256:257   */\n      0x00\n        /* \"#utility.yul\":249:264   */\n      revert\n        /* \"#utility.yul\":276:467   */\n    tag_27:\n        /* \"#utility.yul\":316:319   */\n      0x00\n        /* \"#utility.yul\":335:355   */\n      tag_277\n        /* \"#utility.yul\":353:354   */\n      dup3\n        /* \"#utility.yul\":335:355   */\n      tag_199\n      jump\t// in\n    tag_277:\n        /* \"#utility.yul\":330:355   */\n      swap2\n      pop\n        /* \"#utility.yul\":369:389   */\n      tag_278\n        /* \"#utility.yul\":387:388   */\n      dup4\n        /* \"#utility.yul\":369:389   */\n      tag_199\n      jump\t// in\n    tag_278:\n        /* \"#utility.yul\":364:389   */\n      swap3\n      pop\n        /* \"#utility.yul\":412:413   */\n      dup3\n        /* \"#utility.yul\":409:410   */\n      dup3\n        /* \"#utility.yul\":405:414   */\n      add\n        /* \"#utility.yul\":398:414   */\n      swap1\n      pop\n        /* \"#utility.yul\":433:436   */\n      dup1\n        /* \"#utility.yul\":430:431   */\n      dup3\n        /* \"#utility.yul\":427:437   */\n      gt\n        /* \"#utility.yul\":424:460   */\n      iszero\n      tag_279\n      jumpi\n        /* \"#utility.yul\":440:458   */\n      tag_280\n      tag_200\n      jump\t// in\n    tag_280:\n        /* \"#utility.yul\":424:460   */\n    tag_279:\n        /* \"#utility.yul\":276:467   */\n      swap3\n      swap2\n      pop\n      pop\n      jump\t// out\n        /* \"#utility.yul\":473:548   */\n    tag_201:\n        /* \"#utility.yul\":506:512   */\n      0x00\n        /* \"#utility.yul\":539:541   */\n      0x40\n        /* \"#utility.yul\":533:542   */\n      mload\n        /* \"#utility.yul\":523:542   */\n      swap1\n      pop\n        /* \"#utility.yul\":473:548   */\n      swap1\n      jump\t// out\n        /* \"#utility.yul\":554:671   */\n    tag_202:\n        /* \"#utility.yul\":663:664   */\n      0x00\n        /* \"#utility.yul\":660:661   */\n      dup1\n        /* \"#utility.yul\":653:665   */\n      revert\n        /* \"#utility.yul\":677:794   */\n    tag_203:\n        /* \"#utility.yul\":786:787   */\n      0x00\n        /* \"#utility.yul\":783:784   */\n      dup1\n        /* \"#utility.yul\":776:788   */\n      revert\n        /* \"#utility.yul\":800:922   */\n    tag_204:\n        /* \"#utility.yul\":873:897   */\n      tag_285\n        /* \"#utility.yul\":891:896   */\n      dup2\n        /* \"#utility.yul\":873:897   */\n      tag_199\n      jump\t// in\n    tag_285:\n        /* \"#utility.yul\":866:871   */\n      dup2\n        /* \"#utility.yul\":863:898   */\n      eq\n        /* \"#utility.yul\":853:916   */\n      tag_286\n      jumpi\n        /* \"#utility.yul\":912:913   */\n      0x00\n        /* \"#utility.yul\":909:910   */\n      dup1\n        /* \"#utility.yul\":902:914   */\n      revert\n        /* \"#utility.yul\":853:916   */\n    tag_286:\n        /* \"#utility.yul\":800:922   */\n      pop\n      jump\t// out\n        /* \"#utility.yul\":928:1067   */\n    tag_205:\n        /* \"#utility.yul\":974:979   */\n      0x00\n        /* \"#utility.yul\":1012:1018   */\n      dup2\n        /* \"#utility.yul\":999:1019   */\n      calldataload\n        /* \"#utility.yul\":990:1019   */\n      swap1\n      pop\n        /* \"#utility.yul\":1028:1061   */\n      tag_288\n        /* \"#utility.yul\":1055:1060   */\n      dup2\n        /* \"#utility.yul\":1028:1061   */\n      tag_204\n      jump\t// in\n    tag_288:\n        /* \"#utility.yul\":928:1067   */\n      swap3\n      swap2\n      pop\n      pop\n      jump\t// out\n        /* \"#utility.yul\":1073:1402   */\n    tag_31:\n        /* \"#utility.yul\":1132:1138   */\n      0x00\n        /* \"#utility.yul\":1181:1183   */\n      0x20\n        /* \"#utility.yul\":1169:1178   */\n      dup3\n        /* \"#utility.yul\":1160:1167   */\n      dup5\n        /* \"#utility.yul\":1156:1179   */\n      sub\n        /* \"#utility.yul\":1152:1184   */\n      slt\n        /* \"#utility.yul\":1149:1268   */\n      iszero\n      tag_290\n      jumpi\n        /* \"#utility.yul\":1187:1266   */\n      tag_291\n      tag_202\n      jump\t// in\n    tag_291:\n        /* \"#utility.yul\":1149:1268   */\n    tag_290:\n        /* \"#utility.yul\":1307:1308   */\n      0x00\n        /* \"#utility.yul\":1332:1385   */\n      tag_292\n        /* \"#utility.yul\":1377:1384   */\n      dup5\n        /* \"#utility.yul\":1368:1374   */\n      dup3\n        /* \"#utility.yul\":1357:1366   */\n      dup6\n        /* \"#utility.yul\":1353:1375   */\n      add\n        /* \"#utility.yul\":1332:1385   */\n      tag_205\n      jump\t// in\n    tag_292:\n        /* \"#utility.yul\":1322:1385   */\n      swap2\n      pop\n        /* \"#utility.yul\":1278:1395   */\n      pop\n        /* \"#utility.yul\":1073:1402   */\n      swap3\n      swap2\n      pop\n      pop\n      jump\t// out\n        /* \"#utility.yul\":1408:1526   */\n    tag_206:\n        /* \"#utility.yul\":1495:1519   */\n      tag_294\n        /* \"#utility.yul\":1513:1518   */\n      dup2\n        /* \"#utility.yul\":1495:1519   */\n      tag_199\n      jump\t// in\n    tag_294:\n        /* \"#utility.yul\":1490:1493   */\n      dup3\n        /* \"#utility.yul\":1483:1520   */\n      mstore\n        /* \"#utility.yul\":1408:1526   */\n      pop\n      pop\n      jump\t// out\n        /* \"#utility.yul\":1532:1631   */\n    tag_207:\n        /* \"#utility.yul\":1584:1590   */\n      0x00\n        /* \"#utility.yul\":1618:1623   */\n      dup2\n        /* \"#utility.yul\":1612:1624   */\n      mload\n        /* \"#utility.yul\":1602:1624   */\n      swap1\n      pop\n        /* \"#utility.yul\":1532:1631   */\n      swap2\n      swap1\n      pop\n      jump\t// out\n        /* \"#utility.yul\":1637:1806   */\n    tag_208:\n        /* \"#utility.yul\":1721:1732   */\n      0x00\n        /* \"#utility.yul\":1755:1761   */\n      dup3\n        /* \"#utility.yul\":1750:1753   */\n      dup3\n        /* \"#utility.yul\":1743:1762   */\n      mstore\n        /* \"#utility.yul\":1795:1799   */\n      0x20\n        /* \"#utility.yul\":1790:1793   */\n      dup3\n        /* \"#utility.yul\":1786:1800   */\n      add\n        /* \"#utility.yul\":1771:1800   */\n      swap1\n      pop\n        /* \"#utility.yul\":1637:1806   */\n      swap3\n      swap2\n      pop\n      pop\n      jump\t// out\n        /* \"#utility.yul\":1812:2058   */\n    tag_209:\n        /* \"#utility.yul\":1893:1894   */\n      0x00\n        /* \"#utility.yul\":1903:2016   */\n    tag_298:\n        /* \"#utility.yul\":1917:1923   */\n      dup4\n        /* \"#utility.yul\":1914:1915   */\n      dup2\n        /* \"#utility.yul\":1911:1924   */\n      lt\n        /* \"#utility.yul\":1903:2016   */\n      iszero\n      tag_300\n      jumpi\n        /* \"#utility.yul\":2002:2003   */\n      dup1\n        /* \"#utility.yul\":1997:2000   */\n      dup3\n        /* \"#utility.yul\":1993:2004   */\n      add\n        /* \"#utility.yul\":1987:2005   */\n      mload\n        /* \"#utility.yul\":1983:1984   */\n      dup2\n        /* \"#utility.yul\":1978:1981   */\n      dup5\n        /* \"#utility.yul\":1974:1985   */\n      add\n        /* \"#utility.yul\":1967:2006   */\n      mstore\n        /* \"#utility.yul\":1939:1941   */\n      0x20\n        /* \"#utility.yul\":1936:1937   */\n      dup2\n        /* \"#utility.yul\":1932:1942   */\n      add\n        /* \"#utility.yul\":1927:1942   */\n      swap1\n      pop\n        /* \"#utility.yul\":1903:2016   */\n      jump(tag_298)\n    tag_300:\n        /* \"#utility.yul\":2050:2051   */\n      0x00\n        /* \"#utility.yul\":2041:2047   */\n      dup5\n        /* \"#utility.yul\":2036:2039   */\n      dup5\n        /* \"#utility.yul\":2032:2048   */\n      add\n        /* \"#utility.yul\":2025:2052   */\n      mstore\n        /* \"#utility.yul\":1874:2058   */\n      pop\n        /* \"#utility.yul\":1812:2058   */\n      pop\n      pop\n      pop\n      jump\t// out\n        /* \"#utility.yul\":2064:2166   */\n    tag_210:\n        /* \"#utility.yul\":2105:2111   */\n      0x00\n        /* \"#utility.yul\":2156:2158   */\n      0x1f\n        /* \"#utility.yul\":2152:2159   */\n      not\n        /* \"#utility.yul\":2147:2149   */\n      0x1f\n        /* \"#utility.yul\":2140:2145   */\n      dup4\n        /* \"#utility.yul\":2136:2150   */\n      add\n        /* \"#utility.yul\":2132:2160   */\n      and\n        /* \"#utility.yul\":2122:2160   */\n      swap1\n      pop\n        /* \"#utility.yul\":2064:2166   */\n      swap2\n      swap1\n      pop\n      jump\t// out\n        /* \"#utility.yul\":2172:2549   */\n    tag_211:\n        /* \"#utility.yul\":2260:2263   */\n      0x00\n        /* \"#utility.yul\":2288:2327   */\n      tag_303\n        /* \"#utility.yul\":2321:2326   */\n      dup3\n        /* \"#utility.yul\":2288:2327   */\n      tag_207\n      jump\t// in\n    tag_303:\n        /* \"#utility.yul\":2343:2414   */\n      tag_304\n        /* \"#utility.yul\":2407:2413   */\n      dup2\n        /* \"#utility.yul\":2402:2405   */\n      dup6\n        /* \"#utility.yul\":2343:2414   */\n      tag_208\n      jump\t// in\n    tag_304:\n        /* \"#utility.yul\":2336:2414   */\n      swap4\n      pop\n        /* \"#utility.yul\":2423:2488   */\n      tag_305\n        /* \"#utility.yul\":2481:2487   */\n      dup2\n        /* \"#utility.yul\":2476:2479   */\n      dup6\n        /* \"#utility.yul\":2469:2473   */\n      0x20\n        /* \"#utility.yul\":2462:2467   */\n      dup7\n        /* \"#utility.yul\":2458:2474   */\n      add\n        /* \"#utility.yul\":2423:2488   */\n      tag_209\n      jump\t// in\n    tag_305:\n        /* \"#utility.yul\":2513:2542   */\n      tag_306\n        /* \"#utility.yul\":2535:2541   */\n      dup2\n        /* \"#utility.yul\":2513:2542   */\n      tag_210\n      jump\t// in\n    tag_306:\n        /* \"#utility.yul\":2508:2511   */\n      dup5\n        /* \"#utility.yul\":2504:2543   */\n      add\n        /* \"#utility.yul\":2497:2543   */\n      swap2\n      pop\n        /* \"#utility.yul\":2264:2549   */\n      pop\n        /* \"#utility.yul\":2172:2549   */\n      swap3\n      swap2\n      pop\n      pop\n      jump\t// out\n        /* \"#utility.yul\":2555:2681   */\n    tag_212:\n        /* \"#utility.yul\":2592:2599   */\n      0x00\n        /* \"#utility.yul\":2632:2674   */\n      0xffffffffffffffffffffffffffffffffffffffff\n        /* \"#utility.yul\":2625:2630   */\n      dup3\n        /* \"#utility.yul\":2621:2675   */\n      and\n        /* \"#utility.yul\":2610:2675   */\n      swap1\n      pop\n        /* \"#utility.yul\":2555:2681   */\n      swap2\n      swap1\n      pop\n      jump\t// out\n        /* \"#utility.yul\":2687:2791   */\n    tag_213:\n        /* \"#utility.yul\":2732:2739   */\n      0x00\n        /* \"#utility.yul\":2761:2785   */\n      tag_309\n        /* \"#utility.yul\":2779:2784   */\n      dup3\n        /* \"#utility.yul\":2761:2785   */\n      tag_212\n      jump\t// in\n    tag_309:\n        /* \"#utility.yul\":2750:2785   */\n      swap1\n      pop\n        /* \"#utility.yul\":2687:2791   */\n      swap2\n      swap1\n      pop\n      jump\t// out\n        /* \"#utility.yul\":2797:2939   */\n    tag_214:\n        /* \"#utility.yul\":2900:2932   */\n      tag_311\n        /* \"#utility.yul\":2926:2931   */\n      dup2\n        /* \"#utility.yul\":2900:2932   */\n      tag_213\n      jump\t// in\n    tag_311:\n        /* \"#utility.yul\":2895:2898   */\n      dup3\n        /* \"#utility.yul\":2888:2933   */\n      mstore\n        /* \"#utility.yul\":2797:2939   */\n      pop\n      pop\n      jump\t// out\n        /* \"#utility.yul\":2945:3035   */\n    tag_215:\n        /* \"#utility.yul\":2979:2986   */\n      0x00\n        /* \"#utility.yul\":3022:3027   */\n      dup2\n        /* \"#utility.yul\":3015:3028   */\n      iszero\n        /* \"#utility.yul\":3008:3029   */\n      iszero\n        /* \"#utility.yul\":2997:3029   */\n      swap1\n      pop\n        /* \"#utility.yul\":2945:3035   */\n      swap2\n      swap1\n      pop\n      jump\t// out\n        /* \"#utility.yul\":3041:3150   */\n    tag_216:\n        /* \"#utility.yul\":3122:3143   */\n      tag_314\n        /* \"#utility.yul\":3137:3142   */\n      dup2\n        /* \"#utility.yul\":3122:3143   */\n      tag_215\n      jump\t// in\n    tag_314:\n        /* \"#utility.yul\":3117:3120   */\n      dup3\n        /* \"#utility.yul\":3110:3144   */\n      mstore\n        /* \"#utility.yul\":3041:3150   */\n      pop\n      pop\n      jump\t// out\n        /* \"#utility.yul\":3156:4153   */\n    tag_38:\n        /* \"#utility.yul\":3447:3451   */\n      0x00\n        /* \"#utility.yul\":3485:3488   */\n      0xe0\n        /* \"#utility.yul\":3474:3483   */\n      dup3\n        /* \"#utility.yul\":3470:3489   */\n      add\n        /* \"#utility.yul\":3462:3489   */\n      swap1\n      pop\n        /* \"#utility.yul\":3499:3570   */\n      tag_316\n        /* \"#utility.yul\":3567:3568   */\n      0x00\n        /* \"#utility.yul\":3556:3565   */\n      dup4\n        /* \"#utility.yul\":3552:3569   */\n      add\n        /* \"#utility.yul\":3543:3549   */\n      dup11\n        /* \"#utility.yul\":3499:3570   */\n      tag_206\n      jump\t// in\n    tag_316:\n        /* \"#utility.yul\":3617:3626   */\n      dup2\n        /* \"#utility.yul\":3611:3615   */\n      dup2\n        /* \"#utility.yul\":3607:3627   */\n      sub\n        /* \"#utility.yul\":3602:3604   */\n      0x20\n        /* \"#utility.yul\":3591:3600   */\n      dup4\n        /* \"#utility.yul\":3587:3605   */\n      add\n        /* \"#utility.yul\":3580:3628   */\n      mstore\n        /* \"#utility.yul\":3645:3723   */\n      tag_317\n        /* \"#utility.yul\":3718:3722   */\n      dup2\n        /* \"#utility.yul\":3709:3715   */\n      dup10\n        /* \"#utility.yul\":3645:3723   */\n      tag_211\n      jump\t// in\n    tag_317:\n        /* \"#utility.yul\":3637:3723   */\n      swap1\n      pop\n        /* \"#utility.yul\":3733:3805   */\n      tag_318\n        /* \"#utility.yul\":3801:3803   */\n      0x40\n        /* \"#utility.yul\":3790:3799   */\n      dup4\n        /* \"#utility.yul\":3786:3804   */\n      add\n        /* \"#utility.yul\":3777:3783   */\n      dup9\n        /* \"#utility.yul\":3733:3805   */\n      tag_206\n      jump\t// in\n    tag_318:\n        /* \"#utility.yul\":3815:3903   */\n      tag_319\n        /* \"#utility.yul\":3899:3901   */\n      0x60\n        /* \"#utility.yul\":3888:3897   */\n      dup4\n        /* \"#utility.yul\":3884:3902   */\n      add\n        /* \"#utility.yul\":3875:3881   */\n      dup8\n        /* \"#utility.yul\":3815:3903   */\n      tag_214\n      jump\t// in\n    tag_319:\n        /* \"#utility.yul\":3913:3986   */\n      tag_320\n        /* \"#utility.yul\":3981:3984   */\n      0x80\n        /* \"#utility.yul\":3970:3979   */\n      dup4\n        /* \"#utility.yul\":3966:3985   */\n      add\n        /* \"#utility.yul\":3957:3963   */\n      dup7\n        /* \"#utility.yul\":3913:3986   */\n      tag_206\n      jump\t// in\n    tag_320:\n        /* \"#utility.yul\":3996:4069   */\n      tag_321\n        /* \"#utility.yul\":4064:4067   */\n      0xa0\n        /* \"#utility.yul\":4053:4062   */\n      dup4\n        /* \"#utility.yul\":4049:4068   */\n      add\n        /* \"#utility.yul\":4040:4046   */\n      dup6\n        /* \"#utility.yul\":3996:4069   */\n      tag_206\n      jump\t// in\n    tag_321:\n        /* \"#utility.yul\":4079:4146   */\n      tag_322\n        /* \"#utility.yul\":4141:4144   */\n      0xc0\n        /* \"#utility.yul\":4130:4139   */\n      dup4\n        /* \"#utility.yul\":4126:4145   */\n      add\n        /* \"#utility.yul\":4117:4123   */\n      dup5\n        /* \"#utility.yul\":4079:4146   */\n      tag_216\n      jump\t// in\n    tag_322:\n        /* \"#utility.yul\":3156:4153   */\n      swap9\n      swap8\n      pop\n      pop\n      pop\n      pop\n      pop\n      pop\n      pop\n      pop\n      jump\t// out\n        /* \"#utility.yul\":4159:4255   */\n    tag_217:\n        /* \"#utility.yul\":4196:4203   */\n      0x00\n        /* \"#utility.yul\":4225:4249   */\n      tag_324\n        /* \"#utility.yul\":4243:4248   */\n      dup3\n        /* \"#utility.yul\":4225:4249   */\n      tag_212\n      jump\t// in\n    tag_324:\n        /* \"#utility.yul\":4214:4249   */\n      swap1\n      pop\n        /* \"#utility.yul\":4159:4255   */\n      swap2\n      swap1\n      pop\n      jump\t// out\n        /* \"#utility.yul\":4261:4383   */\n    tag_218:\n        /* \"#utility.yul\":4334:4358   */\n      tag_326\n        /* \"#utility.yul\":4352:4357   */\n      dup2\n        /* \"#utility.yul\":4334:4358   */\n      tag_217\n      jump\t// in\n    tag_326:\n        /* \"#utility.yul\":4327:4332   */\n      dup2\n        /* \"#utility.yul\":4324:4359   */\n      eq\n        /* \"#utility.yul\":4314:4377   */\n      tag_327\n      jumpi\n        /* \"#utility.yul\":4373:4374   */\n      0x00\n        /* \"#utility.yul\":4370:4371   */\n      dup1\n        /* \"#utility.yul\":4363:4375   */\n      revert\n        /* \"#utility.yul\":4314:4377   */\n    tag_327:\n        /* \"#utility.yul\":4261:4383   */\n      pop\n      jump\t// out\n        /* \"#utility.yul\":4389:4528   */\n    tag_219:\n        /* \"#utility.yul\":4435:4440   */\n      0x00\n        /* \"#utility.yul\":4473:4479   */\n      dup2\n        /* \"#utility.yul\":4460:4480   */\n      calldataload\n        /* \"#utility.yul\":4451:4480   */\n      swap1\n      pop\n        /* \"#utility.yul\":4489:4522   */\n      tag_329\n        /* \"#utility.yul\":4516:4521   */\n      dup2\n        /* \"#utility.yul\":4489:4522   */\n      tag_218\n      jump\t// in\n    tag_329:\n        /* \"#utility.yul\":4389:4528   */\n      swap3\n      swap2\n      pop\n      pop\n      jump\t// out\n        /* \"#utility.yul\":4534:5008   */\n    tag_42:\n        /* \"#utility.yul\":4602:4608   */\n      0x00\n        /* \"#utility.yul\":4610:4616   */\n      dup1\n        /* \"#utility.yul\":4659:4661   */\n      0x40\n        /* \"#utility.yul\":4647:4656   */\n      dup4\n        /* \"#utility.yul\":4638:4645   */\n      dup6\n        /* \"#utility.yul\":4634:4657   */\n      sub\n        /* \"#utility.yul\":4630:4662   */\n      slt\n        /* \"#utility.yul\":4627:4746   */\n      iszero\n      tag_331\n      jumpi\n        /* \"#utility.yul\":4665:4744   */\n      tag_332\n      tag_202\n      jump\t// in\n    tag_332:\n        /* \"#utility.yul\":4627:4746   */\n    tag_331:\n        /* \"#utility.yul\":4785:4786   */\n      0x00\n        /* \"#utility.yul\":4810:4863   */\n      tag_333\n        /* \"#utility.yul\":4855:4862   */\n      dup6\n        /* \"#utility.yul\":4846:4852   */\n      dup3\n        /* \"#utility.yul\":4835:4844   */\n      dup7\n        /* \"#utility.yul\":4831:4853   */\n      add\n        /* \"#utility.yul\":4810:4863   */\n      tag_205\n      jump\t// in\n    tag_333:\n        /* \"#utility.yul\":4800:4863   */\n      swap3\n      pop\n        /* \"#utility.yul\":4756:4873   */\n      pop\n        /* \"#utility.yul\":4912:4914   */\n      0x20\n        /* \"#utility.yul\":4938:4991   */\n      tag_334\n        /* \"#utility.yul\":4983:4990   */\n      dup6\n        /* \"#utility.yul\":4974:4980   */\n      dup3\n        /* \"#utility.yul\":4963:4972   */\n      dup7\n        /* \"#utility.yul\":4959:4981   */\n      add\n        /* \"#utility.yul\":4938:4991   */\n      tag_219\n      jump\t// in\n    tag_334:\n        /* \"#utility.yul\":4928:4991   */\n      swap2\n      pop\n        /* \"#utility.yul\":4883:5001   */\n      pop\n        /* \"#utility.yul\":4534:5008   */\n      swap3\n      pop\n      swap3\n      swap1\n      pop\n      jump\t// out\n        /* \"#utility.yul\":5014:5236   */\n    tag_52:\n        /* \"#utility.yul\":5107:5111   */\n      0x00\n        /* \"#utility.yul\":5145:5147   */\n      0x20\n        /* \"#utility.yul\":5134:5143   */\n      dup3\n        /* \"#utility.yul\":5130:5148   */\n      add\n        /* \"#utility.yul\":5122:5148   */\n      swap1\n      pop\n        /* \"#utility.yul\":5158:5229   */\n      tag_336\n        /* \"#utility.yul\":5226:5227   */\n      0x00\n        /* \"#utility.yul\":5215:5224   */\n      dup4\n        /* \"#utility.yul\":5211:5228   */\n      add\n        /* \"#utility.yul\":5202:5208   */\n      dup5\n        /* \"#utility.yul\":5158:5229   */\n      tag_206\n      jump\t// in\n    tag_336:\n        /* \"#utility.yul\":5014:5236   */\n      swap3\n      swap2\n      pop\n      pop\n      jump\t// out\n        /* \"#utility.yul\":5242:5359   */\n    tag_220:\n        /* \"#utility.yul\":5351:5352   */\n      0x00\n        /* \"#utility.yul\":5348:5349   */\n      dup1\n        /* \"#utility.yul\":5341:5353   */\n      revert\n        /* \"#utility.yul\":5365:5482   */\n    tag_221:\n        /* \"#utility.yul\":5474:5475   */\n      0x00\n        /* \"#utility.yul\":5471:5472   */\n      dup1\n        /* \"#utility.yul\":5464:5476   */\n      revert\n        /* \"#utility.yul\":5488:5668   */\n    tag_222:\n        /* \"#utility.yul\":5536:5613   */\n      0x4e487b7100000000000000000000000000000000000000000000000000000000\n        /* \"#utility.yul\":5533:5534   */\n      0x00\n        /* \"#utility.yul\":5526:5614   */\n      mstore\n        /* \"#utility.yul\":5633:5637   */\n      0x41\n        /* \"#utility.yul\":5630:5631   */\n      0x04\n        /* \"#utility.yul\":5623:5638   */\n      mstore\n        /* \"#utility.yul\":5657:5661   */\n      0x24\n        /* \"#utility.yul\":5654:5655   */\n      0x00\n        /* \"#utility.yul\":5647:5662   */\n      revert\n        /* \"#utility.yul\":5674:5955   */\n    tag_223:\n        /* \"#utility.yul\":5757:5784   */\n      tag_341\n        /* \"#utility.yul\":5779:5783   */\n      dup3\n        /* \"#utility.yul\":5757:5784   */\n      tag_210\n      jump\t// in\n    tag_341:\n        /* \"#utility.yul\":5749:5755   */\n      dup2\n        /* \"#utility.yul\":5745:5785   */\n      add\n        /* \"#utility.yul\":5887:5893   */\n      dup2\n        /* \"#utility.yul\":5875:5885   */\n      dup2\n        /* \"#utility.yul\":5872:5894   */\n      lt\n        /* \"#utility.yul\":5851:5869   */\n      0xffffffffffffffff\n        /* \"#utility.yul\":5839:5849   */\n      dup3\n        /* \"#utility.yul\":5836:5870   */\n      gt\n        /* \"#utility.yul\":5833:5895   */\n      or\n        /* \"#utility.yul\":5830:5918   */\n      iszero\n      tag_342\n      jumpi\n        /* \"#utility.yul\":5898:5916   */\n      tag_343\n      tag_222\n      jump\t// in\n    tag_343:\n        /* \"#utility.yul\":5830:5918   */\n    tag_342:\n        /* \"#utility.yul\":5938:5948   */\n      dup1\n        /* \"#utility.yul\":5934:5936   */\n      0x40\n        /* \"#utility.yul\":5927:5949   */\n      mstore\n        /* \"#utility.yul\":5717:5955   */\n      pop\n        /* \"#utility.yul\":5674:5955   */\n      pop\n      pop\n      jump\t// out\n        /* \"#utility.yul\":5961:6090   */\n    tag_224:\n        /* \"#utility.yul\":5995:6001   */\n      0x00\n        /* \"#utility.yul\":6022:6042   */\n      tag_345\n      tag_201\n      jump\t// in\n    tag_345:\n        /* \"#utility.yul\":6012:6042   */\n      swap1\n      pop\n        /* \"#utility.yul\":6051:6084   */\n      tag_346\n        /* \"#utility.yul\":6079:6083   */\n      dup3\n        /* \"#utility.yul\":6071:6077   */\n      dup3\n        /* \"#utility.yul\":6051:6084   */\n      tag_223\n      jump\t// in\n    tag_346:\n        /* \"#utility.yul\":5961:6090   */\n      swap2\n      swap1\n      pop\n      jump\t// out\n        /* \"#utility.yul\":6096:6404   */\n    tag_225:\n        /* \"#utility.yul\":6158:6162   */\n      0x00\n        /* \"#utility.yul\":6248:6266   */\n      0xffffffffffffffff\n        /* \"#utility.yul\":6240:6246   */\n      dup3\n        /* \"#utility.yul\":6237:6267   */\n      gt\n        /* \"#utility.yul\":6234:6290   */\n      iszero\n      tag_348\n      jumpi\n        /* \"#utility.yul\":6270:6288   */\n      tag_349\n      tag_222\n      jump\t// in\n    tag_349:\n        /* \"#utility.yul\":6234:6290   */\n    tag_348:\n        /* \"#utility.yul\":6308:6337   */\n      tag_350\n        /* \"#utility.yul\":6330:6336   */\n      dup3\n        /* \"#utility.yul\":6308:6337   */\n      tag_210\n      jump\t// in\n    tag_350:\n        /* \"#utility.yul\":6300:6337   */\n      swap1\n      pop\n        /* \"#utility.yul\":6392:6396   */\n      0x20\n        /* \"#utility.yul\":6386:6390   */\n      dup2\n        /* \"#utility.yul\":6382:6397   */\n      add\n        /* \"#utility.yul\":6374:6397   */\n      swap1\n      pop\n        /* \"#utility.yul\":6096:6404   */\n      swap2\n      swap1\n      pop\n      jump\t// out\n        /* \"#utility.yul\":6410:6556   */\n    tag_226:\n        /* \"#utility.yul\":6507:6513   */\n      dup3\n        /* \"#utility.yul\":6502:6505   */\n      dup2\n        /* \"#utility.yul\":6497:6500   */\n      dup4\n        /* \"#utility.yul\":6484:6514   */\n      calldatacopy\n        /* \"#utility.yul\":6548:6549   */\n      0x00\n        /* \"#utility.yul\":6539:6545   */\n      dup4\n        /* \"#utility.yul\":6534:6537   */\n      dup4\n        /* \"#utility.yul\":6530:6546   */\n      add\n        /* \"#utility.yul\":6523:6550   */\n      mstore\n        /* \"#utility.yul\":6410:6556   */\n      pop\n      pop\n      pop\n      jump\t// out\n        /* \"#utility.yul\":6562:6987   */\n    tag_227:\n        /* \"#utility.yul\":6640:6645   */\n      0x00\n        /* \"#utility.yul\":6665:6731   */\n      tag_353\n        /* \"#utility.yul\":6681:6730   */\n      tag_354\n        /* \"#utility.yul\":6723:6729   */\n      dup5\n        /* \"#utility.yul\":6681:6730   */\n      tag_225\n      jump\t// in\n    tag_354:\n        /* \"#utility.yul\":6665:6731   */\n      tag_224\n      jump\t// in\n    tag_353:\n        /* \"#utility.yul\":6656:6731   */\n      swap1\n      pop\n        /* \"#utility.yul\":6754:6760   */\n      dup3\n        /* \"#utility.yul\":6747:6752   */\n      dup2\n        /* \"#utility.yul\":6740:6761   */\n      mstore\n        /* \"#utility.yul\":6792:6796   */\n      0x20\n        /* \"#utility.yul\":6785:6790   */\n      dup2\n        /* \"#utility.yul\":6781:6797   */\n      add\n        /* \"#utility.yul\":6830:6833   */\n      dup5\n        /* \"#utility.yul\":6821:6827   */\n      dup5\n        /* \"#utility.yul\":6816:6819   */\n      dup5\n        /* \"#utility.yul\":6812:6828   */\n      add\n        /* \"#utility.yul\":6809:6834   */\n      gt\n        /* \"#utility.yul\":6806:6918   */\n      iszero\n      tag_355\n      jumpi\n        /* \"#utility.yul\":6837:6916   */\n      tag_356\n      tag_221\n      jump\t// in\n    tag_356:\n        /* \"#utility.yul\":6806:6918   */\n    tag_355:\n        /* \"#utility.yul\":6927:6981   */\n      tag_357\n        /* \"#utility.yul\":6974:6980   */\n      dup5\n        /* \"#utility.yul\":6969:6972   */\n      dup3\n        /* \"#utility.yul\":6964:6967   */\n      dup6\n        /* \"#utility.yul\":6927:6981   */\n      tag_226\n      jump\t// in\n    tag_357:\n        /* \"#utility.yul\":6646:6987   */\n      pop\n        /* \"#utility.yul\":6562:6987   */\n      swap4\n      swap3\n      pop\n      pop\n      pop\n      jump\t// out\n        /* \"#utility.yul\":7007:7347   */\n    tag_228:\n        /* \"#utility.yul\":7063:7068   */\n      0x00\n        /* \"#utility.yul\":7112:7115   */\n      dup3\n        /* \"#utility.yul\":7105:7109   */\n      0x1f\n        /* \"#utility.yul\":7097:7103   */\n      dup4\n        /* \"#utility.yul\":7093:7110   */\n      add\n        /* \"#utility.yul\":7089:7116   */\n      slt\n        /* \"#utility.yul\":7079:7201   */\n      tag_359\n      jumpi\n        /* \"#utility.yul\":7120:7199   */\n      tag_360\n      tag_220\n      jump\t// in\n    tag_360:\n        /* \"#utility.yul\":7079:7201   */\n    tag_359:\n        /* \"#utility.yul\":7237:7243   */\n      dup2\n        /* \"#utility.yul\":7224:7244   */\n      calldataload\n        /* \"#utility.yul\":7262:7341   */\n      tag_361\n        /* \"#utility.yul\":7337:7340   */\n      dup5\n        /* \"#utility.yul\":7329:7335   */\n      dup3\n        /* \"#utility.yul\":7322:7326   */\n      0x20\n        /* \"#utility.yul\":7314:7320   */\n      dup7\n        /* \"#utility.yul\":7310:7327   */\n      add\n        /* \"#utility.yul\":7262:7341   */\n      tag_227\n      jump\t// in\n    tag_361:\n        /* \"#utility.yul\":7253:7341   */\n      swap2\n      pop\n        /* \"#utility.yul\":7069:7347   */\n      pop\n        /* \"#utility.yul\":7007:7347   */\n      swap3\n      swap2\n      pop\n      pop\n      jump\t// out\n        /* \"#utility.yul\":7353:7491   */\n    tag_229:\n        /* \"#utility.yul\":7434:7466   */\n      tag_363\n        /* \"#utility.yul\":7460:7465   */\n      dup2\n        /* \"#utility.yul\":7434:7466   */\n      tag_213\n      jump\t// in\n    tag_363:\n        /* \"#utility.yul\":7427:7432   */\n      dup2\n        /* \"#utility.yul\":7424:7467   */\n      eq\n        /* \"#utility.yul\":7414:7485   */\n      tag_364\n      jumpi\n        /* \"#utility.yul\":7481:7482   */\n      0x00\n        /* \"#utility.yul\":7478:7479   */\n      dup1\n        /* \"#utility.yul\":7471:7483   */\n      revert\n        /* \"#utility.yul\":7414:7485   */\n    tag_364:\n        /* \"#utility.yul\":7353:7491   */\n      pop\n      jump\t// out\n        /* \"#utility.yul\":7497:7652   */\n    tag_230:\n        /* \"#utility.yul\":7551:7556   */\n      0x00\n        /* \"#utility.yul\":7589:7595   */\n      dup2\n        /* \"#utility.yul\":7576:7596   */\n      calldataload\n        /* \"#utility.yul\":7567:7596   */\n      swap1\n      pop\n        /* \"#utility.yul\":7605:7646   */\n      tag_366\n        /* \"#utility.yul\":7640:7645   */\n      dup2\n        /* \"#utility.yul\":7605:7646   */\n      tag_229\n      jump\t// in\n    tag_366:\n        /* \"#utility.yul\":7497:7652   */\n      swap3\n      swap2\n      pop\n      pop\n      jump\t// out\n        /* \"#utility.yul\":7658:8473   */\n    tag_68:\n        /* \"#utility.yul\":7753:7759   */\n      0x00\n        /* \"#utility.yul\":7761:7767   */\n      dup1\n        /* \"#utility.yul\":7769:7775   */\n      0x00\n        /* \"#utility.yul\":7818:7820   */\n      0x60\n        /* \"#utility.yul\":7806:7815   */\n      dup5\n        /* \"#utility.yul\":7797:7804   */\n      dup7\n        /* \"#utility.yul\":7793:7816   */\n      sub\n        /* \"#utility.yul\":7789:7821   */\n      slt\n        /* \"#utility.yul\":7786:7905   */\n      iszero\n      tag_368\n      jumpi\n        /* \"#utility.yul\":7824:7903   */\n      tag_369\n      tag_202\n      jump\t// in\n    tag_369:\n        /* \"#utility.yul\":7786:7905   */\n    tag_368:\n        /* \"#utility.yul\":7972:7973   */\n      0x00\n        /* \"#utility.yul\":7961:7970   */\n      dup5\n        /* \"#utility.yul\":7957:7974   */\n      add\n        /* \"#utility.yul\":7944:7975   */\n      calldataload\n        /* \"#utility.yul\":8002:8020   */\n      0xffffffffffffffff\n        /* \"#utility.yul\":7994:8000   */\n      dup2\n        /* \"#utility.yul\":7991:8021   */\n      gt\n        /* \"#utility.yul\":7988:8105   */\n      iszero\n      tag_370\n      jumpi\n        /* \"#utility.yul\":8024:8103   */\n      tag_371\n      tag_203\n      jump\t// in\n    tag_371:\n        /* \"#utility.yul\":7988:8105   */\n    tag_370:\n        /* \"#utility.yul\":8129:8192   */\n      tag_372\n        /* \"#utility.yul\":8184:8191   */\n      dup7\n        /* \"#utility.yul\":8175:8181   */\n      dup3\n        /* \"#utility.yul\":8164:8173   */\n      dup8\n        /* \"#utility.yul\":8160:8182   */\n      add\n        /* \"#utility.yul\":8129:8192   */\n      tag_228\n      jump\t// in\n    tag_372:\n        /* \"#utility.yul\":8119:8192   */\n      swap4\n      pop\n        /* \"#utility.yul\":7915:8202   */\n      pop\n        /* \"#utility.yul\":8241:8243   */\n      0x20\n        /* \"#utility.yul\":8267:8320   */\n      tag_373\n        /* \"#utility.yul\":8312:8319   */\n      dup7\n        /* \"#utility.yul\":8303:8309   */\n      dup3\n        /* \"#utility.yul\":8292:8301   */\n      dup8\n        /* \"#utility.yul\":8288:8310   */\n      add\n        /* \"#utility.yul\":8267:8320   */\n      tag_205\n      jump\t// in\n    tag_373:\n        /* \"#utility.yul\":8257:8320   */\n      swap3\n      pop\n        /* \"#utility.yul\":8212:8330   */\n      pop\n        /* \"#utility.yul\":8369:8371   */\n      0x40\n        /* \"#utility.yul\":8395:8456   */\n      tag_374\n        /* \"#utility.yul\":8448:8455   */\n      dup7\n        /* \"#utility.yul\":8439:8445   */\n      dup3\n        /* \"#utility.yul\":8428:8437   */\n      dup8\n        /* \"#utility.yul\":8424:8446   */\n      add\n        /* \"#utility.yul\":8395:8456   */\n      tag_230\n      jump\t// in\n    tag_374:\n        /* \"#utility.yul\":8385:8456   */\n      swap2\n      pop\n        /* \"#utility.yul\":8340:8466   */\n      pop\n        /* \"#utility.yul\":7658:8473   */\n      swap3\n      pop\n      swap3\n      pop\n      swap3\n      jump\t// out\n        /* \"#utility.yul\":8479:8808   */\n    tag_73:\n        /* \"#utility.yul\":8538:8544   */\n      0x00\n        /* \"#utility.yul\":8587:8589   */\n      0x20\n        /* \"#utility.yul\":8575:8584   */\n      dup3\n        /* \"#utility.yul\":8566:8573   */\n      dup5\n        /* \"#utility.yul\":8562:8585   */\n      sub\n        /* \"#utility.yul\":8558:8590   */\n      slt\n        /* \"#utility.yul\":8555:8674   */\n      iszero\n      tag_376\n      jumpi\n        /* \"#utility.yul\":8593:8672   */\n      tag_377\n      tag_202\n      jump\t// in\n    tag_377:\n        /* \"#utility.yul\":8555:8674   */\n    tag_376:\n        /* \"#utility.yul\":8713:8714   */\n      0x00\n        /* \"#utility.yul\":8738:8791   */\n      tag_378\n        /* \"#utility.yul\":8783:8790   */\n      dup5\n        /* \"#utility.yul\":8774:8780   */\n      dup3\n        /* \"#utility.yul\":8763:8772   */\n      dup6\n        /* \"#utility.yul\":8759:8781   */\n      add\n        /* \"#utility.yul\":8738:8791   */\n      tag_219\n      jump\t// in\n    tag_378:\n        /* \"#utility.yul\":8728:8791   */\n      swap2\n      pop\n        /* \"#utility.yul\":8684:8801   */\n      pop\n        /* \"#utility.yul\":8479:8808   */\n      swap3\n      swap2\n      pop\n      pop\n      jump\t// out\n        /* \"#utility.yul\":8814:9024   */\n    tag_76:\n        /* \"#utility.yul\":8901:8905   */\n      0x00\n        /* \"#utility.yul\":8939:8941   */\n      0x20\n        /* \"#utility.yul\":8928:8937   */\n      dup3\n        /* \"#utility.yul\":8924:8942   */\n      add\n        /* \"#utility.yul\":8916:8942   */\n      swap1\n      pop\n        /* \"#utility.yul\":8952:9017   */\n      tag_380\n        /* \"#utility.yul\":9014:9015   */\n      0x00\n        /* \"#utility.yul\":9003:9012   */\n      dup4\n        /* \"#utility.yul\":8999:9016   */\n      add\n        /* \"#utility.yul\":8990:8996   */\n      dup5\n        /* \"#utility.yul\":8952:9017   */\n      tag_216\n      jump\t// in\n    tag_380:\n        /* \"#utility.yul\":8814:9024   */\n      swap3\n      swap2\n      pop\n      pop\n      jump\t// out\n        /* \"#utility.yul\":9030:9504   */\n    tag_84:\n        /* \"#utility.yul\":9098:9104   */\n      0x00\n        /* \"#utility.yul\":9106:9112   */\n      dup1\n        /* \"#utility.yul\":9155:9157   */\n      0x40\n        /* \"#utility.yul\":9143:9152   */\n      dup4\n        /* \"#utility.yul\":9134:9141   */\n      dup6\n        /* \"#utility.yul\":9130:9153   */\n      sub\n        /* \"#utility.yul\":9126:9158   */\n      slt\n        /* \"#utility.yul\":9123:9242   */\n      iszero\n      tag_382\n      jumpi\n        /* \"#utility.yul\":9161:9240   */\n      tag_383\n      tag_202\n      jump\t// in\n    tag_383:\n        /* \"#utility.yul\":9123:9242   */\n    tag_382:\n        /* \"#utility.yul\":9281:9282   */\n      0x00\n        /* \"#utility.yul\":9306:9359   */\n      tag_384\n        /* \"#utility.yul\":9351:9358   */\n      dup6\n        /* \"#utility.yul\":9342:9348   */\n      dup3\n        /* \"#utility.yul\":9331:9340   */\n      dup7\n        /* \"#utility.yul\":9327:9349   */\n      add\n        /* \"#utility.yul\":9306:9359   */\n      tag_219\n      jump\t// in\n    tag_384:\n        /* \"#utility.yul\":9296:9359   */\n      swap3\n      pop\n        /* \"#utility.yul\":9252:9369   */\n      pop\n        /* \"#utility.yul\":9408:9410   */\n      0x20\n        /* \"#utility.yul\":9434:9487   */\n      tag_385\n        /* \"#utility.yul\":9479:9486   */\n      dup6\n        /* \"#utility.yul\":9470:9476   */\n      dup3\n        /* \"#utility.yul\":9459:9468   */\n      dup7\n        /* \"#utility.yul\":9455:9477   */\n      add\n        /* \"#utility.yul\":9434:9487   */\n      tag_205\n      jump\t// in\n    tag_385:\n        /* \"#utility.yul\":9424:9487   */\n      swap2\n      pop\n        /* \"#utility.yul\":9379:9497   */\n      pop\n        /* \"#utility.yul\":9030:9504   */\n      swap3\n      pop\n      swap3\n      swap1\n      pop\n      jump\t// out\n        /* \"#utility.yul\":9510:10000   */\n    tag_94:\n        /* \"#utility.yul\":9586:9592   */\n      0x00\n        /* \"#utility.yul\":9594:9600   */\n      dup1\n        /* \"#utility.yul\":9643:9645   */\n      0x40\n        /* \"#utility.yul\":9631:9640   */\n      dup4\n        /* \"#utility.yul\":9622:9629   */\n      dup6\n        /* \"#utility.yul\":9618:9641   */\n      sub\n        /* \"#utility.yul\":9614:9646   */\n      slt\n        /* \"#utility.yul\":9611:9730   */\n      iszero\n      tag_387\n      jumpi\n        /* \"#utility.yul\":9649:9728   */\n      tag_388\n      tag_202\n      jump\t// in\n    tag_388:\n        /* \"#utility.yul\":9611:9730   */\n    tag_387:\n        /* \"#utility.yul\":9769:9770   */\n      0x00\n        /* \"#utility.yul\":9794:9847   */\n      tag_389\n        /* \"#utility.yul\":9839:9846   */\n      dup6\n        /* \"#utility.yul\":9830:9836   */\n      dup3\n        /* \"#utility.yul\":9819:9828   */\n      dup7\n        /* \"#utility.yul\":9815:9837   */\n      add\n        /* \"#utility.yul\":9794:9847   */\n      tag_205\n      jump\t// in\n    tag_389:\n        /* \"#utility.yul\":9784:9847   */\n      swap3\n      pop\n        /* \"#utility.yul\":9740:9857   */\n      pop\n        /* \"#utility.yul\":9896:9898   */\n      0x20\n        /* \"#utility.yul\":9922:9983   */\n      tag_390\n        /* \"#utility.yul\":9975:9982   */\n      dup6\n        /* \"#utility.yul\":9966:9972   */\n      dup3\n        /* \"#utility.yul\":9955:9964   */\n      dup7\n        /* \"#utility.yul\":9951:9973   */\n      add\n        /* \"#utility.yul\":9922:9983   */\n      tag_230\n      jump\t// in\n    tag_390:\n        /* \"#utility.yul\":9912:9983   */\n      swap2\n      pop\n        /* \"#utility.yul\":9867:9993   */\n      pop\n        /* \"#utility.yul\":9510:10000   */\n      swap3\n      pop\n      swap3\n      swap1\n      pop\n      jump\t// out\n        /* \"#utility.yul\":10006:10124   */\n    tag_231:\n        /* \"#utility.yul\":10093:10117   */\n      tag_392\n        /* \"#utility.yul\":10111:10116   */\n      dup2\n        /* \"#utility.yul\":10093:10117   */\n      tag_217\n      jump\t// in\n    tag_392:\n        /* \"#utility.yul\":10088:10091   */\n      dup3\n        /* \"#utility.yul\":10081:10118   */\n      mstore\n        /* \"#utility.yul\":10006:10124   */\n      pop\n      pop\n      jump\t// out\n        /* \"#utility.yul\":10130:10352   */\n    tag_111:\n        /* \"#utility.yul\":10223:10227   */\n      0x00\n        /* \"#utility.yul\":10261:10263   */\n      0x20\n        /* \"#utility.yul\":10250:10259   */\n      dup3\n        /* \"#utility.yul\":10246:10264   */\n      add\n        /* \"#utility.yul\":10238:10264   */\n      swap1\n      pop\n        /* \"#utility.yul\":10274:10345   */\n      tag_394\n        /* \"#utility.yul\":10342:10343   */\n      0x00\n        /* \"#utility.yul\":10331:10340   */\n      dup4\n        /* \"#utility.yul\":10327:10344   */\n      add\n        /* \"#utility.yul\":10318:10324   */\n      dup5\n        /* \"#utility.yul\":10274:10345   */\n      tag_231\n      jump\t// in\n    tag_394:\n        /* \"#utility.yul\":10130:10352   */\n      swap3\n      swap2\n      pop\n      pop\n      jump\t// out\n        /* \"#utility.yul\":10358:10522   */\n    tag_232:\n        /* \"#utility.yul\":10498:10514   */\n      0x6f6e6c7920696e766573746f7273000000000000000000000000000000000000\n        /* \"#utility.yul\":10494:10495   */\n      0x00\n        /* \"#utility.yul\":10486:10492   */\n      dup3\n        /* \"#utility.yul\":10482:10496   */\n      add\n        /* \"#utility.yul\":10475:10515   */\n      mstore\n        /* \"#utility.yul\":10358:10522   */\n      pop\n      jump\t// out\n        /* \"#utility.yul\":10528:10894   */\n    tag_233:\n        /* \"#utility.yul\":10670:10673   */\n      0x00\n        /* \"#utility.yul\":10691:10758   */\n      tag_397\n        /* \"#utility.yul\":10755:10757   */\n      0x0e\n        /* \"#utility.yul\":10750:10753   */\n      dup4\n        /* \"#utility.yul\":10691:10758   */\n      tag_208\n      jump\t// in\n    tag_397:\n        /* \"#utility.yul\":10684:10758   */\n      swap2\n      pop\n        /* \"#utility.yul\":10767:10860   */\n      tag_398\n        /* \"#utility.yul\":10856:10859   */\n      dup3\n        /* \"#utility.yul\":10767:10860   */\n      tag_232\n      jump\t// in\n    tag_398:\n        /* \"#utility.yul\":10885:10887   */\n      0x20\n        /* \"#utility.yul\":10880:10883   */\n      dup3\n        /* \"#utility.yul\":10876:10888   */\n      add\n        /* \"#utility.yul\":10869:10888   */\n      swap1\n      pop\n        /* \"#utility.yul\":10528:10894   */\n      swap2\n      swap1\n      pop\n      jump\t// out\n        /* \"#utility.yul\":10900:11319   */\n    tag_115:\n        /* \"#utility.yul\":11066:11070   */\n      0x00\n        /* \"#utility.yul\":11104:11106   */\n      0x20\n        /* \"#utility.yul\":11093:11102   */\n      dup3\n        /* \"#utility.yul\":11089:11107   */\n      add\n        /* \"#utility.yul\":11081:11107   */\n      swap1\n      pop\n        /* \"#utility.yul\":11153:11162   */\n      dup2\n        /* \"#utility.yul\":11147:11151   */\n      dup2\n        /* \"#utility.yul\":11143:11163   */\n      sub\n        /* \"#utility.yul\":11139:11140   */\n      0x00\n        /* \"#utility.yul\":11128:11137   */\n      dup4\n        /* \"#utility.yul\":11124:11141   */\n      add\n        /* \"#utility.yul\":11117:11164   */\n      mstore\n        /* \"#utility.yul\":11181:11312   */\n      tag_400\n        /* \"#utility.yul\":11307:11311   */\n      dup2\n        /* \"#utility.yul\":11181:11312   */\n      tag_233\n      jump\t// in\n    tag_400:\n        /* \"#utility.yul\":11173:11312   */\n      swap1\n      pop\n        /* \"#utility.yul\":10900:11319   */\n      swap2\n      swap1\n      pop\n      jump\t// out\n        /* \"#utility.yul\":11325:11554   */\n    tag_234:\n        /* \"#utility.yul\":11465:11499   */\n      0x696e766573746f722063616e206f6e6c7920766f7465206f6e636520666f7220\n        /* \"#utility.yul\":11461:11462   */\n      0x00\n        /* \"#utility.yul\":11453:11459   */\n      dup3\n        /* \"#utility.yul\":11449:11463   */\n      add\n        /* \"#utility.yul\":11442:11500   */\n      mstore\n        /* \"#utility.yul\":11534:11546   */\n      0x612070726f706f73616c00000000000000000000000000000000000000000000\n        /* \"#utility.yul\":11529:11531   */\n      0x20\n        /* \"#utility.yul\":11521:11527   */\n      dup3\n        /* \"#utility.yul\":11517:11532   */\n      add\n        /* \"#utility.yul\":11510:11547   */\n      mstore\n        /* \"#utility.yul\":11325:11554   */\n      pop\n      jump\t// out\n        /* \"#utility.yul\":11560:11926   */\n    tag_235:\n        /* \"#utility.yul\":11702:11705   */\n      0x00\n        /* \"#utility.yul\":11723:11790   */\n      tag_403\n        /* \"#utility.yul\":11787:11789   */\n      0x2a\n        /* \"#utility.yul\":11782:11785   */\n      dup4\n        /* \"#utility.yul\":11723:11790   */\n      tag_208\n      jump\t// in\n    tag_403:\n        /* \"#utility.yul\":11716:11790   */\n      swap2\n      pop\n        /* \"#utility.yul\":11799:11892   */\n      tag_404\n        /* \"#utility.yul\":11888:11891   */\n      dup3\n        /* \"#utility.yul\":11799:11892   */\n      tag_234\n      jump\t// in\n    tag_404:\n        /* \"#utility.yul\":11917:11919   */\n      0x40\n        /* \"#utility.yul\":11912:11915   */\n      dup3\n        /* \"#utility.yul\":11908:11920   */\n      add\n        /* \"#utility.yul\":11901:11920   */\n      swap1\n      pop\n        /* \"#utility.yul\":11560:11926   */\n      swap2\n      swap1\n      pop\n      jump\t// out\n        /* \"#utility.yul\":11932:12351   */\n    tag_119:\n        /* \"#utility.yul\":12098:12102   */\n      0x00\n        /* \"#utility.yul\":12136:12138   */\n      0x20\n        /* \"#utility.yul\":12125:12134   */\n      dup3\n        /* \"#utility.yul\":12121:12139   */\n      add\n        /* \"#utility.yul\":12113:12139   */\n      swap1\n      pop\n        /* \"#utility.yul\":12185:12194   */\n      dup2\n        /* \"#utility.yul\":12179:12183   */\n      dup2\n        /* \"#utility.yul\":12175:12195   */\n      sub\n        /* \"#utility.yul\":12171:12172   */\n      0x00\n        /* \"#utility.yul\":12160:12169   */\n      dup4\n        /* \"#utility.yul\":12156:12173   */\n      add\n        /* \"#utility.yul\":12149:12196   */\n      mstore\n        /* \"#utility.yul\":12213:12344   */\n      tag_406\n        /* \"#utility.yul\":12339:12343   */\n      dup2\n        /* \"#utility.yul\":12213:12344   */\n      tag_235\n      jump\t// in\n    tag_406:\n        /* \"#utility.yul\":12205:12344   */\n      swap1\n      pop\n        /* \"#utility.yul\":11932:12351   */\n      swap2\n      swap1\n      pop\n      jump\t// out\n        /* \"#utility.yul\":12357:12581   */\n    tag_236:\n        /* \"#utility.yul\":12497:12531   */\n      0x63616e206f6e6c7920766f746520756e74696c2070726f706f73616c20656e64\n        /* \"#utility.yul\":12493:12494   */\n      0x00\n        /* \"#utility.yul\":12485:12491   */\n      dup3\n        /* \"#utility.yul\":12481:12495   */\n      add\n        /* \"#utility.yul\":12474:12532   */\n      mstore\n        /* \"#utility.yul\":12566:12573   */\n      0x2064617465000000000000000000000000000000000000000000000000000000\n        /* \"#utility.yul\":12561:12563   */\n      0x20\n        /* \"#utility.yul\":12553:12559   */\n      dup3\n        /* \"#utility.yul\":12549:12564   */\n      add\n        /* \"#utility.yul\":12542:12574   */\n      mstore\n        /* \"#utility.yul\":12357:12581   */\n      pop\n      jump\t// out\n        /* \"#utility.yul\":12587:12953   */\n    tag_237:\n        /* \"#utility.yul\":12729:12732   */\n      0x00\n        /* \"#utility.yul\":12750:12817   */\n      tag_409\n        /* \"#utility.yul\":12814:12816   */\n      0x25\n        /* \"#utility.yul\":12809:12812   */\n      dup4\n        /* \"#utility.yul\":12750:12817   */\n      tag_208\n      jump\t// in\n    tag_409:\n        /* \"#utility.yul\":12743:12817   */\n      swap2\n      pop\n        /* \"#utility.yul\":12826:12919   */\n      tag_410\n        /* \"#utility.yul\":12915:12918   */\n      dup3\n        /* \"#utility.yul\":12826:12919   */\n      tag_236\n      jump\t// in\n    tag_410:\n        /* \"#utility.yul\":12944:12946   */\n      0x40\n        /* \"#utility.yul\":12939:12942   */\n      dup3\n        /* \"#utility.yul\":12935:12947   */\n      add\n        /* \"#utility.yul\":12928:12947   */\n      swap1\n      pop\n        /* \"#utility.yul\":12587:12953   */\n      swap2\n      swap1\n      pop\n      jump\t// out\n        /* \"#utility.yul\":12959:13378   */\n    tag_122:\n        /* \"#utility.yul\":13125:13129   */\n      0x00\n        /* \"#utility.yul\":13163:13165   */\n      0x20\n        /* \"#utility.yul\":13152:13161   */\n      dup3\n        /* \"#utility.yul\":13148:13166   */\n      add\n        /* \"#utility.yul\":13140:13166   */\n      swap1\n      pop\n        /* \"#utility.yul\":13212:13221   */\n      dup2\n        /* \"#utility.yul\":13206:13210   */\n      dup2\n        /* \"#utility.yul\":13202:13222   */\n      sub\n        /* \"#utility.yul\":13198:13199   */\n      0x00\n        /* \"#utility.yul\":13187:13196   */\n      dup4\n        /* \"#utility.yul\":13183:13200   */\n      add\n        /* \"#utility.yul\":13176:13223   */\n      mstore\n        /* \"#utility.yul\":13240:13371   */\n      tag_412\n        /* \"#utility.yul\":13366:13370   */\n      dup2\n        /* \"#utility.yul\":13240:13371   */\n      tag_237\n      jump\t// in\n    tag_412:\n        /* \"#utility.yul\":13232:13371   */\n      swap1\n      pop\n        /* \"#utility.yul\":12959:13378   */\n      swap2\n      swap1\n      pop\n      jump\t// out\n        /* \"#utility.yul\":13384:13564   */\n    tag_238:\n        /* \"#utility.yul\":13432:13509   */\n      0x4e487b7100000000000000000000000000000000000000000000000000000000\n        /* \"#utility.yul\":13429:13430   */\n      0x00\n        /* \"#utility.yul\":13422:13510   */\n      mstore\n        /* \"#utility.yul\":13529:13533   */\n      0x22\n        /* \"#utility.yul\":13526:13527   */\n      0x04\n        /* \"#utility.yul\":13519:13534   */\n      mstore\n        /* \"#utility.yul\":13553:13557   */\n      0x24\n        /* \"#utility.yul\":13550:13551   */\n      0x00\n        /* \"#utility.yul\":13543:13558   */\n      revert\n        /* \"#utility.yul\":13570:13890   */\n    tag_125:\n        /* \"#utility.yul\":13614:13620   */\n      0x00\n        /* \"#utility.yul\":13651:13652   */\n      0x02\n        /* \"#utility.yul\":13645:13649   */\n      dup3\n        /* \"#utility.yul\":13641:13653   */\n      div\n        /* \"#utility.yul\":13631:13653   */\n      swap1\n      pop\n        /* \"#utility.yul\":13698:13699   */\n      0x01\n        /* \"#utility.yul\":13692:13696   */\n      dup3\n        /* \"#utility.yul\":13688:13700   */\n      and\n        /* \"#utility.yul\":13719:13737   */\n      dup1\n        /* \"#utility.yul\":13709:13790   */\n      tag_415\n      jumpi\n        /* \"#utility.yul\":13775:13779   */\n      0x7f\n        /* \"#utility.yul\":13767:13773   */\n      dup3\n        /* \"#utility.yul\":13763:13780   */\n      and\n        /* \"#utility.yul\":13753:13780   */\n      swap2\n      pop\n        /* \"#utility.yul\":13709:13790   */\n    tag_415:\n        /* \"#utility.yul\":13837:13839   */\n      0x20\n        /* \"#utility.yul\":13829:13835   */\n      dup3\n        /* \"#utility.yul\":13826:13840   */\n      lt\n        /* \"#utility.yul\":13806:13824   */\n      dup2\n        /* \"#utility.yul\":13803:13841   */\n      sub\n        /* \"#utility.yul\":13800:13884   */\n      tag_416\n      jumpi\n        /* \"#utility.yul\":13856:13874   */\n      tag_417\n      tag_238\n      jump\t// in\n    tag_417:\n        /* \"#utility.yul\":13800:13884   */\n    tag_416:\n        /* \"#utility.yul\":13621:13890   */\n      pop\n        /* \"#utility.yul\":13570:13890   */\n      swap2\n      swap1\n      pop\n      jump\t// out\n        /* \"#utility.yul\":13896:14063   */\n    tag_239:\n        /* \"#utility.yul\":14036:14055   */\n      0x6e6f7420656e6f75676820736861726573000000000000000000000000000000\n        /* \"#utility.yul\":14032:14033   */\n      0x00\n        /* \"#utility.yul\":14024:14030   */\n      dup3\n        /* \"#utility.yul\":14020:14034   */\n      add\n        /* \"#utility.yul\":14013:14056   */\n      mstore\n        /* \"#utility.yul\":13896:14063   */\n      pop\n      jump\t// out\n        /* \"#utility.yul\":14069:14435   */\n    tag_240:\n        /* \"#utility.yul\":14211:14214   */\n      0x00\n        /* \"#utility.yul\":14232:14299   */\n      tag_420\n        /* \"#utility.yul\":14296:14298   */\n      0x11\n        /* \"#utility.yul\":14291:14294   */\n      dup4\n        /* \"#utility.yul\":14232:14299   */\n      tag_208\n      jump\t// in\n    tag_420:\n        /* \"#utility.yul\":14225:14299   */\n      swap2\n      pop\n        /* \"#utility.yul\":14308:14401   */\n      tag_421\n        /* \"#utility.yul\":14397:14400   */\n      dup3\n        /* \"#utility.yul\":14308:14401   */\n      tag_239\n      jump\t// in\n    tag_421:\n        /* \"#utility.yul\":14426:14428   */\n      0x20\n        /* \"#utility.yul\":14421:14424   */\n      dup3\n        /* \"#utility.yul\":14417:14429   */\n      add\n        /* \"#utility.yul\":14410:14429   */\n      swap1\n      pop\n        /* \"#utility.yul\":14069:14435   */\n      swap2\n      swap1\n      pop\n      jump\t// out\n        /* \"#utility.yul\":14441:14860   */\n    tag_133:\n        /* \"#utility.yul\":14607:14611   */\n      0x00\n        /* \"#utility.yul\":14645:14647   */\n      0x20\n        /* \"#utility.yul\":14634:14643   */\n      dup3\n        /* \"#utility.yul\":14630:14648   */\n      add\n        /* \"#utility.yul\":14622:14648   */\n      swap1\n      pop\n        /* \"#utility.yul\":14694:14703   */\n      dup2\n        /* \"#utility.yul\":14688:14692   */\n      dup2\n        /* \"#utility.yul\":14684:14704   */\n      sub\n        /* \"#utility.yul\":14680:14681   */\n      0x00\n        /* \"#utility.yul\":14669:14678   */\n      dup4\n        /* \"#utility.yul\":14665:14682   */\n      add\n        /* \"#utility.yul\":14658:14705   */\n      mstore\n        /* \"#utility.yul\":14722:14853   */\n      tag_423\n        /* \"#utility.yul\":14848:14852   */\n      dup2\n        /* \"#utility.yul\":14722:14853   */\n      tag_240\n      jump\t// in\n    tag_423:\n        /* \"#utility.yul\":14714:14853   */\n      swap1\n      pop\n        /* \"#utility.yul\":14441:14860   */\n      swap2\n      swap1\n      pop\n      jump\t// out\n        /* \"#utility.yul\":14866:15060   */\n    tag_135:\n        /* \"#utility.yul\":14906:14910   */\n      0x00\n        /* \"#utility.yul\":14926:14946   */\n      tag_425\n        /* \"#utility.yul\":14944:14945   */\n      dup3\n        /* \"#utility.yul\":14926:14946   */\n      tag_199\n      jump\t// in\n    tag_425:\n        /* \"#utility.yul\":14921:14946   */\n      swap2\n      pop\n        /* \"#utility.yul\":14960:14980   */\n      tag_426\n        /* \"#utility.yul\":14978:14979   */\n      dup4\n        /* \"#utility.yul\":14960:14980   */\n      tag_199\n      jump\t// in\n    tag_426:\n        /* \"#utility.yul\":14955:14980   */\n      swap3\n      pop\n        /* \"#utility.yul\":15004:15005   */\n      dup3\n        /* \"#utility.yul\":15001:15002   */\n      dup3\n        /* \"#utility.yul\":14997:15006   */\n      sub\n        /* \"#utility.yul\":14989:15006   */\n      swap1\n      pop\n        /* \"#utility.yul\":15028:15029   */\n      dup2\n        /* \"#utility.yul\":15022:15026   */\n      dup2\n        /* \"#utility.yul\":15019:15030   */\n      gt\n        /* \"#utility.yul\":15016:15053   */\n      iszero\n      tag_427\n      jumpi\n        /* \"#utility.yul\":15033:15051   */\n      tag_428\n      tag_200\n      jump\t// in\n    tag_428:\n        /* \"#utility.yul\":15016:15053   */\n    tag_427:\n        /* \"#utility.yul\":14866:15060   */\n      swap3\n      swap2\n      pop\n      pop\n      jump\t// out\n        /* \"#utility.yul\":15066:15226   */\n    tag_241:\n        /* \"#utility.yul\":15206:15218   */\n      0x6f6e6c792061646d696e00000000000000000000000000000000000000000000\n        /* \"#utility.yul\":15202:15203   */\n      0x00\n        /* \"#utility.yul\":15194:15200   */\n      dup3\n        /* \"#utility.yul\":15190:15204   */\n      add\n        /* \"#utility.yul\":15183:15219   */\n      mstore\n        /* \"#utility.yul\":15066:15226   */\n      pop\n      jump\t// out\n        /* \"#utility.yul\":15232:15598   */\n    tag_242:\n        /* \"#utility.yul\":15374:15377   */\n      0x00\n        /* \"#utility.yul\":15395:15462   */\n      tag_431\n        /* \"#utility.yul\":15459:15461   */\n      0x0a\n        /* \"#utility.yul\":15454:15457   */\n      dup4\n        /* \"#utility.yul\":15395:15462   */\n      tag_208\n      jump\t// in\n    tag_431:\n        /* \"#utility.yul\":15388:15462   */\n      swap2\n      pop\n        /* \"#utility.yul\":15471:15564   */\n      tag_432\n        /* \"#utility.yul\":15560:15563   */\n      dup3\n        /* \"#utility.yul\":15471:15564   */\n      tag_241\n      jump\t// in\n    tag_432:\n        /* \"#utility.yul\":15589:15591   */\n      0x20\n        /* \"#utility.yul\":15584:15587   */\n      dup3\n        /* \"#utility.yul\":15580:15592   */\n      add\n        /* \"#utility.yul\":15573:15592   */\n      swap1\n      pop\n        /* \"#utility.yul\":15232:15598   */\n      swap2\n      swap1\n      pop\n      jump\t// out\n        /* \"#utility.yul\":15604:16023   */\n    tag_140:\n        /* \"#utility.yul\":15770:15774   */\n      0x00\n        /* \"#utility.yul\":15808:15810   */\n      0x20\n        /* \"#utility.yul\":15797:15806   */\n      dup3\n        /* \"#utility.yul\":15793:15811   */\n      add\n        /* \"#utility.yul\":15785:15811   */\n      swap1\n      pop\n        /* \"#utility.yul\":15857:15866   */\n      dup2\n        /* \"#utility.yul\":15851:15855   */\n      dup2\n        /* \"#utility.yul\":15847:15867   */\n      sub\n        /* \"#utility.yul\":15843:15844   */\n      0x00\n        /* \"#utility.yul\":15832:15841   */\n      dup4\n        /* \"#utility.yul\":15828:15845   */\n      add\n        /* \"#utility.yul\":15821:15868   */\n      mstore\n        /* \"#utility.yul\":15885:16016   */\n      tag_434\n        /* \"#utility.yul\":16011:16015   */\n      dup2\n        /* \"#utility.yul\":15885:16016   */\n      tag_242\n      jump\t// in\n    tag_434:\n        /* \"#utility.yul\":15877:16016   */\n      swap1\n      pop\n        /* \"#utility.yul\":15604:16023   */\n      swap2\n      swap1\n      pop\n      jump\t// out\n        /* \"#utility.yul\":16029:16255   */\n    tag_243:\n        /* \"#utility.yul\":16169:16203   */\n      0x63616e6e6f7420657865637574652070726f706f73616c206265666f72652065\n        /* \"#utility.yul\":16165:16166   */\n      0x00\n        /* \"#utility.yul\":16157:16163   */\n      dup3\n        /* \"#utility.yul\":16153:16167   */\n      add\n        /* \"#utility.yul\":16146:16204   */\n      mstore\n        /* \"#utility.yul\":16238:16247   */\n      0x6e64206461746500000000000000000000000000000000000000000000000000\n        /* \"#utility.yul\":16233:16235   */\n      0x20\n        /* \"#utility.yul\":16225:16231   */\n      dup3\n        /* \"#utility.yul\":16221:16236   */\n      add\n        /* \"#utility.yul\":16214:16248   */\n      mstore\n        /* \"#utility.yul\":16029:16255   */\n      pop\n      jump\t// out\n        /* \"#utility.yul\":16261:16627   */\n    tag_244:\n        /* \"#utility.yul\":16403:16406   */\n      0x00\n        /* \"#utility.yul\":16424:16491   */\n      tag_437\n        /* \"#utility.yul\":16488:16490   */\n      0x27\n        /* \"#utility.yul\":16483:16486   */\n      dup4\n        /* \"#utility.yul\":16424:16491   */\n      tag_208\n      jump\t// in\n    tag_437:\n        /* \"#utility.yul\":16417:16491   */\n      swap2\n      pop\n        /* \"#utility.yul\":16500:16593   */\n      tag_438\n        /* \"#utility.yul\":16589:16592   */\n      dup3\n        /* \"#utility.yul\":16500:16593   */\n      tag_243\n      jump\t// in\n    tag_438:\n        /* \"#utility.yul\":16618:16620   */\n      0x40\n        /* \"#utility.yul\":16613:16616   */\n      dup3\n        /* \"#utility.yul\":16609:16621   */\n      add\n        /* \"#utility.yul\":16602:16621   */\n      swap1\n      pop\n        /* \"#utility.yul\":16261:16627   */\n      swap2\n      swap1\n      pop\n      jump\t// out\n        /* \"#utility.yul\":16633:17052   */\n    tag_144:\n        /* \"#utility.yul\":16799:16803   */\n      0x00\n        /* \"#utility.yul\":16837:16839   */\n      0x20\n        /* \"#utility.yul\":16826:16835   */\n      dup3\n        /* \"#utility.yul\":16822:16840   */\n      add\n        /* \"#utility.yul\":16814:16840   */\n      swap1\n      pop\n        /* \"#utility.yul\":16886:16895   */\n      dup2\n        /* \"#utility.yul\":16880:16884   */\n      dup2\n        /* \"#utility.yul\":16876:16896   */\n      sub\n        /* \"#utility.yul\":16872:16873   */\n      0x00\n        /* \"#utility.yul\":16861:16870   */\n      dup4\n        /* \"#utility.yul\":16857:16874   */\n      add\n        /* \"#utility.yul\":16850:16897   */\n      mstore\n        /* \"#utility.yul\":16914:17045   */\n      tag_440\n        /* \"#utility.yul\":17040:17044   */\n      dup2\n        /* \"#utility.yul\":16914:17045   */\n      tag_244\n      jump\t// in\n    tag_440:\n        /* \"#utility.yul\":16906:17045   */\n      swap1\n      pop\n        /* \"#utility.yul\":16633:17052   */\n      swap2\n      swap1\n      pop\n      jump\t// out\n        /* \"#utility.yul\":17058:17285   */\n    tag_245:\n        /* \"#utility.yul\":17198:17232   */\n      0x63616e6e6f7420657865637574652070726f706f73616c20616c726561647920\n        /* \"#utility.yul\":17194:17195   */\n      0x00\n        /* \"#utility.yul\":17186:17192   */\n      dup3\n        /* \"#utility.yul\":17182:17196   */\n      add\n        /* \"#utility.yul\":17175:17233   */\n      mstore\n        /* \"#utility.yul\":17267:17277   */\n      0x6578656375746564000000000000000000000000000000000000000000000000\n        /* \"#utility.yul\":17262:17264   */\n      0x20\n        /* \"#utility.yul\":17254:17260   */\n      dup3\n        /* \"#utility.yul\":17250:17265   */\n      add\n        /* \"#utility.yul\":17243:17278   */\n      mstore\n        /* \"#utility.yul\":17058:17285   */\n      pop\n      jump\t// out\n        /* \"#utility.yul\":17291:17657   */\n    tag_246:\n        /* \"#utility.yul\":17433:17436   */\n      0x00\n        /* \"#utility.yul\":17454:17521   */\n      tag_443\n        /* \"#utility.yul\":17518:17520   */\n      0x28\n        /* \"#utility.yul\":17513:17516   */\n      dup4\n        /* \"#utility.yul\":17454:17521   */\n      tag_208\n      jump\t// in\n    tag_443:\n        /* \"#utility.yul\":17447:17521   */\n      swap2\n      pop\n        /* \"#utility.yul\":17530:17623   */\n      tag_444\n        /* \"#utility.yul\":17619:17622   */\n      dup3\n        /* \"#utility.yul\":17530:17623   */\n      tag_245\n      jump\t// in\n    tag_444:\n        /* \"#utility.yul\":17648:17650   */\n      0x40\n        /* \"#utility.yul\":17643:17646   */\n      dup3\n        /* \"#utility.yul\":17639:17651   */\n      add\n        /* \"#utility.yul\":17632:17651   */\n      swap1\n      pop\n        /* \"#utility.yul\":17291:17657   */\n      swap2\n      swap1\n      pop\n      jump\t// out\n        /* \"#utility.yul\":17663:18082   */\n    tag_147:\n        /* \"#utility.yul\":17829:17833   */\n      0x00\n        /* \"#utility.yul\":17867:17869   */\n      0x20\n        /* \"#utility.yul\":17856:17865   */\n      dup3\n        /* \"#utility.yul\":17852:17870   */\n      add\n        /* \"#utility.yul\":17844:17870   */\n      swap1\n      pop\n        /* \"#utility.yul\":17916:17925   */\n      dup2\n        /* \"#utility.yul\":17910:17914   */\n      dup2\n        /* \"#utility.yul\":17906:17926   */\n      sub\n        /* \"#utility.yul\":17902:17903   */\n      0x00\n        /* \"#utility.yul\":17891:17900   */\n      dup4\n        /* \"#utility.yul\":17887:17904   */\n      add\n        /* \"#utility.yul\":17880:17927   */\n      mstore\n        /* \"#utility.yul\":17944:18075   */\n      tag_446\n        /* \"#utility.yul\":18070:18074   */\n      dup2\n        /* \"#utility.yul\":17944:18075   */\n      tag_246\n      jump\t// in\n    tag_446:\n        /* \"#utility.yul\":17936:18075   */\n      swap1\n      pop\n        /* \"#utility.yul\":17663:18082   */\n      swap2\n      swap1\n      pop\n      jump\t// out\n        /* \"#utility.yul\":18088:18268   */\n    tag_247:\n        /* \"#utility.yul\":18136:18213   */\n      0x4e487b7100000000000000000000000000000000000000000000000000000000\n        /* \"#utility.yul\":18133:18134   */\n      0x00\n        /* \"#utility.yul\":18126:18214   */\n      mstore\n        /* \"#utility.yul\":18233:18237   */\n      0x12\n        /* \"#utility.yul\":18230:18231   */\n      0x04\n        /* \"#utility.yul\":18223:18238   */\n      mstore\n        /* \"#utility.yul\":18257:18261   */\n      0x24\n        /* \"#utility.yul\":18254:18255   */\n      0x00\n        /* \"#utility.yul\":18247:18262   */\n      revert\n        /* \"#utility.yul\":18274:18459   */\n    tag_149:\n        /* \"#utility.yul\":18314:18315   */\n      0x00\n        /* \"#utility.yul\":18331:18351   */\n      tag_449\n        /* \"#utility.yul\":18349:18350   */\n      dup3\n        /* \"#utility.yul\":18331:18351   */\n      tag_199\n      jump\t// in\n    tag_449:\n        /* \"#utility.yul\":18326:18351   */\n      swap2\n      pop\n        /* \"#utility.yul\":18365:18385   */\n      tag_450\n        /* \"#utility.yul\":18383:18384   */\n      dup4\n        /* \"#utility.yul\":18365:18385   */\n      tag_199\n      jump\t// in\n    tag_450:\n        /* \"#utility.yul\":18360:18385   */\n      swap3\n      pop\n        /* \"#utility.yul\":18404:18405   */\n      dup3\n        /* \"#utility.yul\":18394:18429   */\n      tag_451\n      jumpi\n        /* \"#utility.yul\":18409:18427   */\n      tag_452\n      tag_247\n      jump\t// in\n    tag_452:\n        /* \"#utility.yul\":18394:18429   */\n    tag_451:\n        /* \"#utility.yul\":18451:18452   */\n      dup3\n        /* \"#utility.yul\":18448:18449   */\n      dup3\n        /* \"#utility.yul\":18444:18453   */\n      div\n        /* \"#utility.yul\":18439:18453   */\n      swap1\n      pop\n        /* \"#utility.yul\":18274:18459   */\n      swap3\n      swap2\n      pop\n      pop\n      jump\t// out\n        /* \"#utility.yul\":18465:18875   */\n    tag_151:\n        /* \"#utility.yul\":18505:18512   */\n      0x00\n        /* \"#utility.yul\":18528:18548   */\n      tag_454\n        /* \"#utility.yul\":18546:18547   */\n      dup3\n        /* \"#utility.yul\":18528:18548   */\n      tag_199\n      jump\t// in\n    tag_454:\n        /* \"#utility.yul\":18523:18548   */\n      swap2\n      pop\n        /* \"#utility.yul\":18562:18582   */\n      tag_455\n        /* \"#utility.yul\":18580:18581   */\n      dup4\n        /* \"#utility.yul\":18562:18582   */\n      tag_199\n      jump\t// in\n    tag_455:\n        /* \"#utility.yul\":18557:18582   */\n      swap3\n      pop\n        /* \"#utility.yul\":18617:18618   */\n      dup3\n        /* \"#utility.yul\":18614:18615   */\n      dup3\n        /* \"#utility.yul\":18610:18619   */\n      mul\n        /* \"#utility.yul\":18639:18669   */\n      tag_456\n        /* \"#utility.yul\":18657:18668   */\n      dup2\n        /* \"#utility.yul\":18639:18669   */\n      tag_199\n      jump\t// in\n    tag_456:\n        /* \"#utility.yul\":18628:18669   */\n      swap2\n      pop\n        /* \"#utility.yul\":18818:18819   */\n      dup3\n        /* \"#utility.yul\":18809:18816   */\n      dup3\n        /* \"#utility.yul\":18805:18820   */\n      div\n        /* \"#utility.yul\":18802:18803   */\n      dup5\n        /* \"#utility.yul\":18799:18821   */\n      eq\n        /* \"#utility.yul\":18779:18780   */\n      dup4\n        /* \"#utility.yul\":18772:18781   */\n      iszero\n        /* \"#utility.yul\":18752:18835   */\n      or\n        /* \"#utility.yul\":18729:18868   */\n      tag_457\n      jumpi\n        /* \"#utility.yul\":18848:18866   */\n      tag_458\n      tag_200\n      jump\t// in\n    tag_458:\n        /* \"#utility.yul\":18729:18868   */\n    tag_457:\n        /* \"#utility.yul\":18513:18875   */\n      pop\n        /* \"#utility.yul\":18465:18875   */\n      swap3\n      swap2\n      pop\n      pop\n      jump\t// out\n        /* \"#utility.yul\":18881:19117   */\n    tag_248:\n        /* \"#utility.yul\":19021:19055   */\n      0x63616e6e6f7420657865637574652070726f706f73616c207769746820766f74\n        /* \"#utility.yul\":19017:19018   */\n      0x00\n        /* \"#utility.yul\":19009:19015   */\n      dup3\n        /* \"#utility.yul\":19005:19019   */\n      add\n        /* \"#utility.yul\":18998:19056   */\n      mstore\n        /* \"#utility.yul\":19090:19109   */\n      0x657320232062656c6f772071756f72756d000000000000000000000000000000\n        /* \"#utility.yul\":19085:19087   */\n      0x20\n        /* \"#utility.yul\":19077:19083   */\n      dup3\n        /* \"#utility.yul\":19073:19088   */\n      add\n        /* \"#utility.yul\":19066:19110   */\n      mstore\n        /* \"#utility.yul\":18881:19117   */\n      pop\n      jump\t// out\n        /* \"#utility.yul\":19123:19489   */\n    tag_249:\n        /* \"#utility.yul\":19265:19268   */\n      0x00\n        /* \"#utility.yul\":19286:19353   */\n      tag_461\n        /* \"#utility.yul\":19350:19352   */\n      0x31\n        /* \"#utility.yul\":19345:19348   */\n      dup4\n        /* \"#utility.yul\":19286:19353   */\n      tag_208\n      jump\t// in\n    tag_461:\n        /* \"#utility.yul\":19279:19353   */\n      swap2\n      pop\n        /* \"#utility.yul\":19362:19455   */\n      tag_462\n        /* \"#utility.yul\":19451:19454   */\n      dup3\n        /* \"#utility.yul\":19362:19455   */\n      tag_248\n      jump\t// in\n    tag_462:\n        /* \"#utility.yul\":19480:19482   */\n      0x40\n        /* \"#utility.yul\":19475:19478   */\n      dup3\n        /* \"#utility.yul\":19471:19483   */\n      add\n        /* \"#utility.yul\":19464:19483   */\n      swap1\n      pop\n        /* \"#utility.yul\":19123:19489   */\n      swap2\n      swap1\n      pop\n      jump\t// out\n        /* \"#utility.yul\":19495:19914   */\n    tag_154:\n        /* \"#utility.yul\":19661:19665   */\n      0x00\n        /* \"#utility.yul\":19699:19701   */\n      0x20\n        /* \"#utility.yul\":19688:19697   */\n      dup3\n        /* \"#utility.yul\":19684:19702   */\n      add\n        /* \"#utility.yul\":19676:19702   */\n      swap1\n      pop\n        /* \"#utility.yul\":19748:19757   */\n      dup2\n        /* \"#utility.yul\":19742:19746   */\n      dup2\n        /* \"#utility.yul\":19738:19758   */\n      sub\n        /* \"#utility.yul\":19734:19735   */\n      0x00\n        /* \"#utility.yul\":19723:19732   */\n      dup4\n        /* \"#utility.yul\":19719:19736   */\n      add\n        /* \"#utility.yul\":19712:19759   */\n      mstore\n        /* \"#utility.yul\":19776:19907   */\n      tag_464\n        /* \"#utility.yul\":19902:19906   */\n      dup2\n        /* \"#utility.yul\":19776:19907   */\n      tag_249\n      jump\t// in\n    tag_464:\n        /* \"#utility.yul\":19768:19907   */\n      swap1\n      pop\n        /* \"#utility.yul\":19495:19914   */\n      swap2\n      swap1\n      pop\n      jump\t// out\n        /* \"#utility.yul\":19920:20084   */\n    tag_250:\n        /* \"#utility.yul\":20060:20076   */\n      0x616d6f756e7420746f6f20626967000000000000000000000000000000000000\n        /* \"#utility.yul\":20056:20057   */\n      0x00\n        /* \"#utility.yul\":20048:20054   */\n      dup3\n        /* \"#utility.yul\":20044:20058   */\n      add\n        /* \"#utility.yul\":20037:20077   */\n      mstore\n        /* \"#utility.yul\":19920:20084   */\n      pop\n      jump\t// out\n        /* \"#utility.yul\":20090:20456   */\n    tag_251:\n        /* \"#utility.yul\":20232:20235   */\n      0x00\n        /* \"#utility.yul\":20253:20320   */\n      tag_467\n        /* \"#utility.yul\":20317:20319   */\n      0x0e\n        /* \"#utility.yul\":20312:20315   */\n      dup4\n        /* \"#utility.yul\":20253:20320   */\n      tag_208\n      jump\t// in\n    tag_467:\n        /* \"#utility.yul\":20246:20320   */\n      swap2\n      pop\n        /* \"#utility.yul\":20329:20422   */\n      tag_468\n        /* \"#utility.yul\":20418:20421   */\n      dup3\n        /* \"#utility.yul\":20329:20422   */\n      tag_250\n      jump\t// in\n    tag_468:\n        /* \"#utility.yul\":20447:20449   */\n      0x20\n        /* \"#utility.yul\":20442:20445   */\n      dup3\n        /* \"#utility.yul\":20438:20450   */\n      add\n        /* \"#utility.yul\":20431:20450   */\n      swap1\n      pop\n        /* \"#utility.yul\":20090:20456   */\n      swap2\n      swap1\n      pop\n      jump\t// out\n        /* \"#utility.yul\":20462:20881   */\n    tag_163:\n        /* \"#utility.yul\":20628:20632   */\n      0x00\n        /* \"#utility.yul\":20666:20668   */\n      0x20\n        /* \"#utility.yul\":20655:20664   */\n      dup3\n        /* \"#utility.yul\":20651:20669   */\n      add\n        /* \"#utility.yul\":20643:20669   */\n      swap1\n      pop\n        /* \"#utility.yul\":20715:20724   */\n      dup2\n        /* \"#utility.yul\":20709:20713   */\n      dup2\n        /* \"#utility.yul\":20705:20725   */\n      sub\n        /* \"#utility.yul\":20701:20702   */\n      0x00\n        /* \"#utility.yul\":20690:20699   */\n      dup4\n        /* \"#utility.yul\":20686:20703   */\n      add\n        /* \"#utility.yul\":20679:20726   */\n      mstore\n        /* \"#utility.yul\":20743:20874   */\n      tag_470\n        /* \"#utility.yul\":20869:20873   */\n      dup2\n        /* \"#utility.yul\":20743:20874   */\n      tag_251\n      jump\t// in\n    tag_470:\n        /* \"#utility.yul\":20735:20874   */\n      swap1\n      pop\n        /* \"#utility.yul\":20462:20881   */\n      swap2\n      swap1\n      pop\n      jump\t// out\n        /* \"#utility.yul\":20887:21028   */\n    tag_252:\n        /* \"#utility.yul\":20936:20940   */\n      0x00\n        /* \"#utility.yul\":20959:20962   */\n      dup2\n        /* \"#utility.yul\":20951:20962   */\n      swap1\n      pop\n        /* \"#utility.yul\":20982:20985   */\n      dup2\n        /* \"#utility.yul\":20979:20980   */\n      0x00\n        /* \"#utility.yul\":20972:20986   */\n      mstore\n        /* \"#utility.yul\":21016:21020   */\n      0x20\n        /* \"#utility.yul\":21013:21014   */\n      0x00\n        /* \"#utility.yul\":21003:21021   */\n      keccak256\n        /* \"#utility.yul\":20995:21021   */\n      swap1\n      pop\n        /* \"#utility.yul\":20887:21028   */\n      swap2\n      swap1\n      pop\n      jump\t// out\n        /* \"#utility.yul\":21034:21127   */\n    tag_253:\n        /* \"#utility.yul\":21071:21077   */\n      0x00\n        /* \"#utility.yul\":21118:21120   */\n      0x20\n        /* \"#utility.yul\":21113:21115   */\n      0x1f\n        /* \"#utility.yul\":21106:21111   */\n      dup4\n        /* \"#utility.yul\":21102:21116   */\n      add\n        /* \"#utility.yul\":21098:21121   */\n      div\n        /* \"#utility.yul\":21088:21121   */\n      swap1\n      pop\n        /* \"#utility.yul\":21034:21127   */\n      swap2\n      swap1\n      pop\n      jump\t// out\n        /* \"#utility.yul\":21133:21240   */\n    tag_254:\n        /* \"#utility.yul\":21177:21185   */\n      0x00\n        /* \"#utility.yul\":21227:21232   */\n      dup3\n        /* \"#utility.yul\":21221:21225   */\n      dup3\n        /* \"#utility.yul\":21217:21233   */\n      shl\n        /* \"#utility.yul\":21196:21233   */\n      swap1\n      pop\n        /* \"#utility.yul\":21133:21240   */\n      swap3\n      swap2\n      pop\n      pop\n      jump\t// out\n        /* \"#utility.yul\":21246:21639   */\n    tag_255:\n        /* \"#utility.yul\":21315:21321   */\n      0x00\n        /* \"#utility.yul\":21365:21366   */\n      0x08\n        /* \"#utility.yul\":21353:21363   */\n      dup4\n        /* \"#utility.yul\":21349:21367   */\n      mul\n        /* \"#utility.yul\":21388:21485   */\n      tag_475\n        /* \"#utility.yul\":21418:21484   */\n      0xffffffffffffffffffffffffffffffffffffffffffffffffffffffffffffffff\n        /* \"#utility.yul\":21407:21416   */\n      dup3\n        /* \"#utility.yul\":21388:21485   */\n      tag_254\n      jump\t// in\n    tag_475:\n        /* \"#utility.yul\":21506:21545   */\n      tag_476\n        /* \"#utility.yul\":21536:21544   */\n      dup7\n        /* \"#utility.yul\":21525:21534   */\n      dup4\n        /* \"#utility.yul\":21506:21545   */\n      tag_254\n      jump\t// in\n    tag_476:\n        /* \"#utility.yul\":21494:21545   */\n      swap6\n      pop\n        /* \"#utility.yul\":21578:21582   */\n      dup1\n        /* \"#utility.yul\":21574:21583   */\n      not\n        /* \"#utility.yul\":21567:21572   */\n      dup5\n        /* \"#utility.yul\":21563:21584   */\n      and\n        /* \"#utility.yul\":21554:21584   */\n      swap4\n      pop\n        /* \"#utility.yul\":21627:21631   */\n      dup1\n        /* \"#utility.yul\":21617:21625   */\n      dup7\n        /* \"#utility.yul\":21613:21632   */\n      and\n        /* \"#utility.yul\":21606:21611   */\n      dup5\n        /* \"#utility.yul\":21603:21633   */\n      or\n        /* \"#utility.yul\":21593:21633   */\n      swap3\n      pop\n        /* \"#utility.yul\":21322:21639   */\n      pop\n      pop\n        /* \"#utility.yul\":21246:21639   */\n      swap4\n      swap3\n      pop\n      pop\n      pop\n      jump\t// out\n        /* \"#utility.yul\":21645:21705   */\n    tag_256:\n        /* \"#utility.yul\":21673:21676   */\n      0x00\n        /* \"#utility.yul\":21694:21699   */\n      dup2\n        /* \"#utility.yul\":21687:21699   */\n      swap1\n      pop\n        /* \"#utility.yul\":21645:21705   */\n      swap2\n      swap1\n      pop\n      jump\t// out\n        /* \"#utility.yul\":21711:21853   */\n    tag_257:\n        /* \"#utility.yul\":21761:21770   */\n      0x00\n        /* \"#utility.yul\":21794:21847   */\n      tag_479\n        /* \"#utility.yul\":21812:21846   */\n      tag_480\n        /* \"#utility.yul\":21821:21845   */\n      tag_481\n        /* \"#utility.yul\":21839:21844   */\n      dup5\n        /* \"#utility.yul\":21821:21845   */\n      tag_199\n      jump\t// in\n    tag_481:\n        /* \"#utility.yul\":21812:21846   */\n      tag_256\n      jump\t// in\n    tag_480:\n        /* \"#utility.yul\":21794:21847   */\n      tag_199\n      jump\t// in\n    tag_479:\n        /* \"#utility.yul\":21781:21847   */\n      swap1\n      pop\n        /* \"#utility.yul\":21711:21853   */\n      swap2\n      swap1\n      pop\n      jump\t// out\n        /* \"#utility.yul\":21859:21934   */\n    tag_258:\n        /* \"#utility.yul\":21902:21905   */\n      0x00\n        /* \"#utility.yul\":21923:21928   */\n      dup2\n        /* \"#utility.yul\":21916:21928   */\n      swap1\n      pop\n        /* \"#utility.yul\":21859:21934   */\n      swap2\n      swap1\n      pop\n      jump\t// out\n        /* \"#utility.yul\":21940:22209   */\n    tag_259:\n        /* \"#utility.yul\":22050:22089   */\n      tag_484\n        /* \"#utility.yul\":22081:22088   */\n      dup4\n        /* \"#utility.yul\":22050:22089   */\n      tag_257\n      jump\t// in\n    tag_484:\n        /* \"#utility.yul\":22111:22202   */\n      tag_485\n        /* \"#utility.yul\":22160:22201   */\n      tag_486\n        /* \"#utility.yul\":22184:22200   */\n      dup3\n        /* \"#utility.yul\":22160:22201   */\n      tag_258\n      jump\t// in\n    tag_486:\n        /* \"#utility.yul\":22152:22158   */\n      dup5\n        /* \"#utility.yul\":22145:22149   */\n      dup5\n        /* \"#utility.yul\":22139:22150   */\n      sload\n        /* \"#utility.yul\":22111:22202   */\n      tag_255\n      jump\t// in\n    tag_485:\n        /* \"#utility.yul\":22105:22109   */\n      dup3\n        /* \"#utility.yul\":22098:22203   */\n      sstore\n        /* \"#utility.yul\":22016:22209   */\n      pop\n        /* \"#utility.yul\":21940:22209   */\n      pop\n      pop\n      pop\n      jump\t// out\n        /* \"#utility.yul\":22215:22288   */\n    tag_260:\n        /* \"#utility.yul\":22260:22263   */\n      0x00\n        /* \"#utility.yul\":22215:22288   */\n      swap1\n      jump\t// out\n        /* \"#utility.yul\":22294:22483   */\n    tag_261:\n        /* \"#utility.yul\":22371:22403   */\n      tag_489\n      tag_260\n      jump\t// in\n    tag_489:\n        /* \"#utility.yul\":22412:22477   */\n      tag_490\n        /* \"#utility.yul\":22470:22476   */\n      dup2\n        /* \"#utility.yul\":22462:22468   */\n      dup5\n        /* \"#utility.yul\":22456:22460   */\n      dup5\n        /* \"#utility.yul\":22412:22477   */\n      tag_259\n      jump\t// in\n    tag_490:\n        /* \"#utility.yul\":22347:22483   */\n      pop\n        /* \"#utility.yul\":22294:22483   */\n      pop\n      pop\n      jump\t// out\n        /* \"#utility.yul\":22489:22675   */\n    tag_262:\n        /* \"#utility.yul\":22549:22669   */\n    tag_492:\n        /* \"#utility.yul\":22566:22569   */\n      dup2\n        /* \"#utility.yul\":22559:22564   */\n      dup2\n        /* \"#utility.yul\":22556:22570   */\n      lt\n        /* \"#utility.yul\":22549:22669   */\n      iszero\n      tag_494\n      jumpi\n        /* \"#utility.yul\":22620:22659   */\n      tag_495\n        /* \"#utility.yul\":22657:22658   */\n      0x00\n        /* \"#utility.yul\":22650:22655   */\n      dup3\n        /* \"#utility.yul\":22620:22659   */\n      tag_261\n      jump\t// in\n    tag_495:\n        /* \"#utility.yul\":22593:22594   */\n      0x01\n        /* \"#utility.yul\":22586:22591   */\n      dup2\n        /* \"#utility.yul\":22582:22595   */\n      add\n        /* \"#utility.yul\":22573:22595   */\n      swap1\n      pop\n        /* \"#utility.yul\":22549:22669   */\n      jump(tag_492)\n    tag_494:\n        /* \"#utility.yul\":22489:22675   */\n      pop\n      pop\n      jump\t// out\n        /* \"#utility.yul\":22681:23224   */\n    tag_263:\n        /* \"#utility.yul\":22782:22784   */\n      0x1f\n        /* \"#utility.yul\":22777:22780   */\n      dup3\n        /* \"#utility.yul\":22774:22785   */\n      gt\n        /* \"#utility.yul\":22771:23217   */\n      iszero\n      tag_497\n      jumpi\n        /* \"#utility.yul\":22816:22854   */\n      tag_498\n        /* \"#utility.yul\":22848:22853   */\n      dup2\n        /* \"#utility.yul\":22816:22854   */\n      tag_252\n      jump\t// in\n    tag_498:\n        /* \"#utility.yul\":22900:22929   */\n      tag_499\n        /* \"#utility.yul\":22918:22928   */\n      dup5\n        /* \"#utility.yul\":22900:22929   */\n      tag_253\n      jump\t// in\n    tag_499:\n        /* \"#utility.yul\":22890:22898   */\n      dup2\n        /* \"#utility.yul\":22886:22930   */\n      add\n        /* \"#utility.yul\":23083:23085   */\n      0x20\n        /* \"#utility.yul\":23071:23081   */\n      dup6\n        /* \"#utility.yul\":23068:23086   */\n      lt\n        /* \"#utility.yul\":23065:23114   */\n      iszero\n      tag_500\n      jumpi\n        /* \"#utility.yul\":23104:23112   */\n      dup2\n        /* \"#utility.yul\":23089:23112   */\n      swap1\n      pop\n        /* \"#utility.yul\":23065:23114   */\n    tag_500:\n        /* \"#utility.yul\":23127:23207   */\n      tag_501\n        /* \"#utility.yul\":23183:23205   */\n      tag_502\n        /* \"#utility.yul\":23201:23204   */\n      dup6\n        /* \"#utility.yul\":23183:23205   */\n      tag_253\n      jump\t// in\n    tag_502:\n        /* \"#utility.yul\":23173:23181   */\n      dup4\n        /* \"#utility.yul\":23169:23206   */\n      add\n        /* \"#utility.yul\":23156:23167   */\n      dup3\n        /* \"#utility.yul\":23127:23207   */\n      tag_262\n      jump\t// in\n    tag_501:\n        /* \"#utility.yul\":22786:23217   */\n      pop\n      pop\n        /* \"#utility.yul\":22771:23217   */\n    tag_497:\n        /* \"#utility.yul\":22681:23224   */\n      pop\n      pop\n      pop\n      jump\t// out\n        /* \"#utility.yul\":23230:23347   */\n    tag_264:\n        /* \"#utility.yul\":23284:23292   */\n      0x00\n        /* \"#utility.yul\":23334:23339   */\n      dup3\n        /* \"#utility.yul\":23328:23332   */\n      dup3\n        /* \"#utility.yul\":23324:23340   */\n      shr\n        /* \"#utility.yul\":23303:23340   */\n      swap1\n      pop\n        /* \"#utility.yul\":23230:23347   */\n      swap3\n      swap2\n      pop\n      pop\n      jump\t// out\n        /* \"#utility.yul\":23353:23522   */\n    tag_265:\n        /* \"#utility.yul\":23397:23403   */\n      0x00\n        /* \"#utility.yul\":23430:23481   */\n      tag_505\n        /* \"#utility.yul\":23478:23479   */\n      0x00\n        /* \"#utility.yul\":23474:23480   */\n      not\n        /* \"#utility.yul\":23466:23471   */\n      dup5\n        /* \"#utility.yul\":23463:23464   */\n      0x08\n        /* \"#utility.yul\":23459:23472   */\n      mul\n        /* \"#utility.yul\":23430:23481   */\n      tag_264\n      jump\t// in\n    tag_505:\n        /* \"#utility.yul\":23426:23482   */\n      not\n        /* \"#utility.yul\":23511:23515   */\n      dup1\n        /* \"#utility.yul\":23505:23509   */\n      dup4\n        /* \"#utility.yul\":23501:23516   */\n      and\n        /* \"#utility.yul\":23491:23516   */\n      swap2\n      pop\n        /* \"#utility.yul\":23404:23522   */\n      pop\n        /* \"#utility.yul\":23353:23522   */\n      swap3\n      swap2\n      pop\n      pop\n      jump\t// out\n        /* \"#utility.yul\":23527:23822   */\n    tag_266:\n        /* \"#utility.yul\":23603:23607   */\n      0x00\n        /* \"#utility.yul\":23749:23778   */\n      tag_507\n        /* \"#utility.yul\":23774:23777   */\n      dup4\n        /* \"#utility.yul\":23768:23772   */\n      dup4\n        /* \"#utility.yul\":23749:23778   */\n      tag_265\n      jump\t// in\n    tag_507:\n        /* \"#utility.yul\":23741:23778   */\n      swap2\n      pop\n        /* \"#utility.yul\":23811:23814   */\n      dup3\n        /* \"#utility.yul\":23808:23809   */\n      0x02\n        /* \"#utility.yul\":23804:23815   */\n      mul\n        /* \"#utility.yul\":23798:23802   */\n      dup3\n        /* \"#utility.yul\":23795:23816   */\n      or\n        /* \"#utility.yul\":23787:23816   */\n      swap1\n      pop\n        /* \"#utility.yul\":23527:23822   */\n      swap3\n      swap2\n      pop\n      pop\n      jump\t// out\n        /* \"#utility.yul\":23827:25222   */\n    tag_166:\n        /* \"#utility.yul\":23944:23981   */\n      tag_509\n        /* \"#utility.yul\":23977:23980   */\n      dup3\n        /* \"#utility.yul\":23944:23981   */\n      tag_207\n      jump\t// in\n    tag_509:\n        /* \"#utility.yul\":24046:24064   */\n      0xffffffffffffffff\n        /* \"#utility.yul\":24038:24044   */\n      dup2\n        /* \"#utility.yul\":24035:24065   */\n      gt\n        /* \"#utility.yul\":24032:24088   */\n      iszero\n      tag_510\n      jumpi\n        /* \"#utility.yul\":24068:24086   */\n      tag_511\n      tag_222\n      jump\t// in\n    tag_511:\n        /* \"#utility.yul\":24032:24088   */\n    tag_510:\n        /* \"#utility.yul\":24112:24150   */\n      tag_512\n        /* \"#utility.yul\":24144:24148   */\n      dup3\n        /* \"#utility.yul\":24138:24149   */\n      sload\n        /* \"#utility.yul\":24112:24150   */\n      tag_125\n      jump\t// in\n    tag_512:\n        /* \"#utility.yul\":24197:24264   */\n      tag_513\n        /* \"#utility.yul\":24257:24263   */\n      dup3\n        /* \"#utility.yul\":24249:24255   */\n      dup3\n        /* \"#utility.yul\":24243:24247   */\n      dup6\n        /* \"#utility.yul\":24197:24264   */\n      tag_263\n      jump\t// in\n    tag_513:\n        /* \"#utility.yul\":24291:24292   */\n      0x00\n        /* \"#utility.yul\":24315:24319   */\n      0x20\n        /* \"#utility.yul\":24302:24319   */\n      swap1\n      pop\n        /* \"#utility.yul\":24347:24349   */\n      0x1f\n        /* \"#utility.yul\":24339:24345   */\n      dup4\n        /* \"#utility.yul\":24336:24350   */\n      gt\n        /* \"#utility.yul\":24364:24365   */\n      0x01\n        /* \"#utility.yul\":24359:24977   */\n      dup2\n      eq\n      tag_515\n      jumpi\n        /* \"#utility.yul\":25021:25022   */\n      0x00\n        /* \"#utility.yul\":25038:25044   */\n      dup5\n        /* \"#utility.yul\":25035:25112   */\n      iszero\n      tag_516\n      jumpi\n        /* \"#utility.yul\":25087:25096   */\n      dup3\n        /* \"#utility.yul\":25082:25085   */\n      dup8\n        /* \"#utility.yul\":25078:25097   */\n      add\n        /* \"#utility.yul\":25072:25098   */\n      mload\n        /* \"#utility.yul\":25063:25098   */\n      swap1\n      pop\n        /* \"#utility.yul\":25035:25112   */\n    tag_516:\n        /* \"#utility.yul\":25138:25205   */\n      tag_517\n        /* \"#utility.yul\":25198:25204   */\n      dup6\n        /* \"#utility.yul\":25191:25196   */\n      dup3\n        /* \"#utility.yul\":25138:25205   */\n      tag_266\n      jump\t// in\n    tag_517:\n        /* \"#utility.yul\":25132:25136   */\n      dup7\n        /* \"#utility.yul\":25125:25206   */\n      sstore\n        /* \"#utility.yul\":24994:25216   */\n      pop\n        /* \"#utility.yul\":24329:25216   */\n      jump(tag_514)\n        /* \"#utility.yul\":24359:24977   */\n    tag_515:\n        /* \"#utility.yul\":24411:24415   */\n      0x1f\n        /* \"#utility.yul\":24407:24416   */\n      not\n        /* \"#utility.yul\":24399:24405   */\n      dup5\n        /* \"#utility.yul\":24395:24417   */\n      and\n        /* \"#utility.yul\":24445:24482   */\n      tag_518\n        /* \"#utility.yul\":24477:24481   */\n      dup7\n        /* \"#utility.yul\":24445:24482   */\n      tag_252\n      jump\t// in\n    tag_518:\n        /* \"#utility.yul\":24504:24505   */\n      0x00\n        /* \"#utility.yul\":24518:24726   */\n    tag_519:\n        /* \"#utility.yul\":24532:24539   */\n      dup3\n        /* \"#utility.yul\":24529:24530   */\n      dup2\n        /* \"#utility.yul\":24526:24540   */\n      lt\n        /* \"#utility.yul\":24518:24726   */\n      iszero\n      tag_521\n      jumpi\n        /* \"#utility.yul\":24611:24620   */\n      dup5\n        /* \"#utility.yul\":24606:24609   */\n      dup10\n        /* \"#utility.yul\":24602:24621   */\n      add\n        /* \"#utility.yul\":24596:24622   */\n      mload\n        /* \"#utility.yul\":24588:24594   */\n      dup3\n        /* \"#utility.yul\":24581:24623   */\n      sstore\n        /* \"#utility.yul\":24662:24663   */\n      0x01\n        /* \"#utility.yul\":24654:24660   */\n      dup3\n        /* \"#utility.yul\":24650:24664   */\n      add\n        /* \"#utility.yul\":24640:24664   */\n      swap2\n      pop\n        /* \"#utility.yul\":24709:24711   */\n      0x20\n        /* \"#utility.yul\":24698:24707   */\n      dup6\n        /* \"#utility.yul\":24694:24712   */\n      add\n        /* \"#utility.yul\":24681:24712   */\n      swap5\n      pop\n        /* \"#utility.yul\":24555:24559   */\n      0x20\n        /* \"#utility.yul\":24552:24553   */\n      dup2\n        /* \"#utility.yul\":24548:24560   */\n      add\n        /* \"#utility.yul\":24543:24560   */\n      swap1\n      pop\n        /* \"#utility.yul\":24518:24726   */\n      jump(tag_519)\n    tag_521:\n        /* \"#utility.yul\":24754:24760   */\n      dup7\n        /* \"#utility.yul\":24745:24752   */\n      dup4\n        /* \"#utility.yul\":24742:24761   */\n      lt\n        /* \"#utility.yul\":24739:24918   */\n      iszero\n      tag_522\n      jumpi\n        /* \"#utility.yul\":24812:24821   */\n      dup5\n        /* \"#utility.yul\":24807:24810   */\n      dup10\n        /* \"#utility.yul\":24803:24822   */\n      add\n        /* \"#utility.yul\":24797:24823   */\n      mload\n        /* \"#utility.yul\":24855:24903   */\n      tag_523\n        /* \"#utility.yul\":24897:24901   */\n      0x1f\n        /* \"#utility.yul\":24889:24895   */\n      dup10\n        /* \"#utility.yul\":24885:24902   */\n      and\n        /* \"#utility.yul\":24874:24883   */\n      dup3\n        /* \"#utility.yul\":24855:24903   */\n      tag_265\n      jump\t// in\n    tag_523:\n        /* \"#utility.yul\":24847:24853   */\n      dup4\n        /* \"#utility.yul\":24840:24904   */\n      sstore\n        /* \"#utility.yul\":24762:24918   */\n      pop\n        /* \"#utility.yul\":24739:24918   */\n    tag_522:\n        /* \"#utility.yul\":24964:24965   */\n      0x01\n        /* \"#utility.yul\":24960:24961   */\n      0x02\n        /* \"#utility.yul\":24952:24958   */\n      dup9\n        /* \"#utility.yul\":24948:24962   */\n      mul\n        /* \"#utility.yul\":24944:24966   */\n      add\n        /* \"#utility.yul\":24938:24942   */\n      dup9\n        /* \"#utility.yul\":24931:24967   */\n      sstore\n        /* \"#utility.yul\":24366:24977   */\n      pop\n      pop\n      pop\n        /* \"#utility.yul\":24329:25216   */\n    tag_514:\n      pop\n        /* \"#utility.yul\":23919:25222   */\n      pop\n      pop\n      pop\n        /* \"#utility.yul\":23827:25222   */\n      pop\n      pop\n      jump\t// out\n        /* \"#utility.yul\":25228:25461   */\n    tag_169:\n        /* \"#utility.yul\":25267:25270   */\n      0x00\n        /* \"#utility.yul\":25290:25314   */\n      tag_525\n        /* \"#utility.yul\":25308:25313   */\n      dup3\n        /* \"#utility.yul\":25290:25314   */\n      tag_199\n      jump\t// in\n    tag_525:\n        /* \"#utility.yul\":25281:25314   */\n      swap2\n      pop\n        /* \"#utility.yul\":25336:25402   */\n      0xffffffffffffffffffffffffffffffffffffffffffffffffffffffffffffffff\n        /* \"#utility.yul\":25329:25334   */\n      dup3\n        /* \"#utility.yul\":25326:25403   */\n      sub\n        /* \"#utility.yul\":25323:25426   */\n      tag_526\n      jumpi\n        /* \"#utility.yul\":25406:25424   */\n      tag_527\n      tag_200\n      jump\t// in\n    tag_527:\n        /* \"#utility.yul\":25323:25426   */\n    tag_526:\n        /* \"#utility.yul\":25453:25454   */\n      0x01\n        /* \"#utility.yul\":25446:25451   */\n      dup3\n        /* \"#utility.yul\":25442:25455   */\n      add\n        /* \"#utility.yul\":25435:25455   */\n      swap1\n      pop\n        /* \"#utility.yul\":25228:25461   */\n      swap2\n      swap1\n      pop\n      jump\t// out\n        /* \"#utility.yul\":25467:25643   */\n    tag_267:\n        /* \"#utility.yul\":25607:25635   */\n      0x6e6f7420656e6f75676820617661696c61626c652066756e6473000000000000\n        /* \"#utility.yul\":25603:25604   */\n      0x00\n        /* \"#utility.yul\":25595:25601   */\n      dup3\n        /* \"#utility.yul\":25591:25605   */\n      add\n        /* \"#utility.yul\":25584:25636   */\n      mstore\n        /* \"#utility.yul\":25467:25643   */\n      pop\n      jump\t// out\n        /* \"#utility.yul\":25649:26015   */\n    tag_268:\n        /* \"#utility.yul\":25791:25794   */\n      0x00\n        /* \"#utility.yul\":25812:25879   */\n      tag_530\n        /* \"#utility.yul\":25876:25878   */\n      0x1a\n        /* \"#utility.yul\":25871:25874   */\n      dup4\n        /* \"#utility.yul\":25812:25879   */\n      tag_208\n      jump\t// in\n    tag_530:\n        /* \"#utility.yul\":25805:25879   */\n      swap2\n      pop\n        /* \"#utility.yul\":25888:25981   */\n      tag_531\n        /* \"#utility.yul\":25977:25980   */\n      dup3\n        /* \"#utility.yul\":25888:25981   */\n      tag_267\n      jump\t// in\n    tag_531:\n        /* \"#utility.yul\":26006:26008   */\n      0x20\n        /* \"#utility.yul\":26001:26004   */\n      dup3\n        /* \"#utility.yul\":25997:26009   */\n      add\n        /* \"#utility.yul\":25990:26009   */\n      swap1\n      pop\n        /* \"#utility.yul\":25649:26015   */\n      swap2\n      swap1\n      pop\n      jump\t// out\n        /* \"#utility.yul\":26021:26440   */\n    tag_175:\n        /* \"#utility.yul\":26187:26191   */\n      0x00\n        /* \"#utility.yul\":26225:26227   */\n      0x20\n        /* \"#utility.yul\":26214:26223   */\n      dup3\n        /* \"#utility.yul\":26210:26228   */\n      add\n        /* \"#utility.yul\":26202:26228   */\n      swap1\n      pop\n        /* \"#utility.yul\":26274:26283   */\n      dup2\n        /* \"#utility.yul\":26268:26272   */\n      dup2\n        /* \"#utility.yul\":26264:26284   */\n      sub\n        /* \"#utility.yul\":26260:26261   */\n      0x00\n        /* \"#utility.yul\":26249:26258   */\n      dup4\n        /* \"#utility.yul\":26245:26262   */\n      add\n        /* \"#utility.yul\":26238:26285   */\n      mstore\n        /* \"#utility.yul\":26302:26433   */\n      tag_533\n        /* \"#utility.yul\":26428:26432   */\n      dup2\n        /* \"#utility.yul\":26302:26433   */\n      tag_268\n      jump\t// in\n    tag_533:\n        /* \"#utility.yul\":26294:26433   */\n      swap1\n      pop\n        /* \"#utility.yul\":26021:26440   */\n      swap2\n      swap1\n      pop\n      jump\t// out\n        /* \"#utility.yul\":26446:26672   */\n    tag_269:\n        /* \"#utility.yul\":26586:26620   */\n      0x63616e6e6f7420636f6e7472696275746520616674657220636f6e7472696275\n        /* \"#utility.yul\":26582:26583   */\n      0x00\n        /* \"#utility.yul\":26574:26580   */\n      dup3\n        /* \"#utility.yul\":26570:26584   */\n      add\n        /* \"#utility.yul\":26563:26621   */\n      mstore\n        /* \"#utility.yul\":26655:26664   */\n      0x74696f6e456e6400000000000000000000000000000000000000000000000000\n        /* \"#utility.yul\":26650:26652   */\n      0x20\n        /* \"#utility.yul\":26642:26648   */\n      dup3\n        /* \"#utility.yul\":26638:26653   */\n      add\n        /* \"#utility.yul\":26631:26665   */\n      mstore\n        /* \"#utility.yul\":26446:26672   */\n      pop\n      jump\t// out\n        /* \"#utility.yul\":26678:27044   */\n    tag_270:\n        /* \"#utility.yul\":26820:26823   */\n      0x00\n        /* \"#utility.yul\":26841:26908   */\n      tag_536\n        /* \"#utility.yul\":26905:26907   */\n      0x27\n        /* \"#utility.yul\":26900:26903   */\n      dup4\n        /* \"#utility.yul\":26841:26908   */\n      tag_208\n      jump\t// in\n    tag_536:\n        /* \"#utility.yul\":26834:26908   */\n      swap2\n      pop\n        /* \"#utility.yul\":26917:27010   */\n      tag_537\n        /* \"#utility.yul\":27006:27009   */\n      dup3\n        /* \"#utility.yul\":26917:27010   */\n      tag_269\n      jump\t// in\n    tag_537:\n        /* \"#utility.yul\":27035:27037   */\n      0x40\n        /* \"#utility.yul\":27030:27033   */\n      dup3\n        /* \"#utility.yul\":27026:27038   */\n      add\n        /* \"#utility.yul\":27019:27038   */\n      swap1\n      pop\n        /* \"#utility.yul\":26678:27044   */\n      swap2\n      swap1\n      pop\n      jump\t// out\n        /* \"#utility.yul\":27050:27469   */\n    tag_188:\n        /* \"#utility.yul\":27216:27220   */\n      0x00\n        /* \"#utility.yul\":27254:27256   */\n      0x20\n        /* \"#utility.yul\":27243:27252   */\n      dup3\n        /* \"#utility.yul\":27239:27257   */\n      add\n        /* \"#utility.yul\":27231:27257   */\n      swap1\n      pop\n        /* \"#utility.yul\":27303:27312   */\n      dup2\n        /* \"#utility.yul\":27297:27301   */\n      dup2\n        /* \"#utility.yul\":27293:27313   */\n      sub\n        /* \"#utility.yul\":27289:27290   */\n      0x00\n        /* \"#utility.yul\":27278:27287   */\n      dup4\n        /* \"#utility.yul\":27274:27291   */\n      add\n        /* \"#utility.yul\":27267:27314   */\n      mstore\n        /* \"#utility.yul\":27331:27462   */\n      tag_539\n        /* \"#utility.yul\":27457:27461   */\n      dup2\n        /* \"#utility.yul\":27331:27462   */\n      tag_270\n      jump\t// in\n    tag_539:\n        /* \"#utility.yul\":27323:27462   */\n      swap1\n      pop\n        /* \"#utility.yul\":27050:27469   */\n      swap2\n      swap1\n      pop\n      jump\t// out\n        /* \"#utility.yul\":27475:27650   */\n    tag_271:\n        /* \"#utility.yul\":27615:27642   */\n      0x6e6f7420656e6f75676820617661696c61626c6546756e647300000000000000\n        /* \"#utility.yul\":27611:27612   */\n      0x00\n        /* \"#utility.yul\":27603:27609   */\n      dup3\n        /* \"#utility.yul\":27599:27613   */\n      add\n        /* \"#utility.yul\":27592:27643   */\n      mstore\n        /* \"#utility.yul\":27475:27650   */\n      pop\n      jump\t// out\n        /* \"#utility.yul\":27656:28022   */\n    tag_272:\n        /* \"#utility.yul\":27798:27801   */\n      0x00\n        /* \"#utility.yul\":27819:27886   */\n      tag_542\n        /* \"#utility.yul\":27883:27885   */\n      0x19\n        /* \"#utility.yul\":27878:27881   */\n      dup4\n        /* \"#utility.yul\":27819:27886   */\n      tag_208\n      jump\t// in\n    tag_542:\n        /* \"#utility.yul\":27812:27886   */\n      swap2\n      pop\n        /* \"#utility.yul\":27895:27988   */\n      tag_543\n        /* \"#utility.yul\":27984:27987   */\n      dup3\n        /* \"#utility.yul\":27895:27988   */\n      tag_271\n      jump\t// in\n    tag_543:\n        /* \"#utility.yul\":28013:28015   */\n      0x20\n        /* \"#utility.yul\":28008:28011   */\n      dup3\n        /* \"#utility.yul\":28004:28016   */\n      add\n        /* \"#utility.yul\":27997:28016   */\n      swap1\n      pop\n        /* \"#utility.yul\":27656:28022   */\n      swap2\n      swap1\n      pop\n      jump\t// out\n        /* \"#utility.yul\":28028:28447   */\n    tag_195:\n        /* \"#utility.yul\":28194:28198   */\n      0x00\n        /* \"#utility.yul\":28232:28234   */\n      0x20\n        /* \"#utility.yul\":28221:28230   */\n      dup3\n        /* \"#utility.yul\":28217:28235   */\n      add\n        /* \"#utility.yul\":28209:28235   */\n      swap1\n      pop\n        /* \"#utility.yul\":28281:28290   */\n      dup2\n        /* \"#utility.yul\":28275:28279   */\n      dup2\n        /* \"#utility.yul\":28271:28291   */\n      sub\n        /* \"#utility.yul\":28267:28268   */\n      0x00\n        /* \"#utility.yul\":28256:28265   */\n      dup4\n        /* \"#utility.yul\":28252:28269   */\n      add\n        /* \"#utility.yul\":28245:28292   */\n      mstore\n        /* \"#utility.yul\":28309:28440   */\n      tag_545\n        /* \"#utility.yul\":28435:28439   */\n      dup2\n        /* \"#utility.yul\":28309:28440   */\n      tag_272\n      jump\t// in\n    tag_545:\n        /* \"#utility.yul\":28301:28440   */\n      swap1\n      pop\n        /* \"#utility.yul\":28028:28447   */\n      swap2\n      swap1\n      pop\n      jump\t// out\n\n    auxdata: 0xa2646970667358221220e18d04d221318fa5afa0f8f3e0ec5ad58cc4c3e9d2c310577f8a802df96c42ce64736f6c63430008160033\n}\n",
				"bytecode": {
					"linkReferences": {},
					"object": "60806040523480156200001157600080fd5b506040516200242e3803806200242e833981810160405281019062000037919062000136565b600081118015620000485750606481105b6200008a576040517f08c379a00000000000000000000000000000000000000000000000000000000081526004016200008190620001f3565b60405180910390fd5b824262000098919062000244565b600681905550816008819055508060098190555033600a60006101000a81548173ffffffffffffffffffffffffffffffffffffffff021916908373ffffffffffffffffffffffffffffffffffffffff1602179055505050506200027f565b600080fd5b6000819050919050565b6200011081620000fb565b81146200011c57600080fd5b50565b600081519050620001308162000105565b92915050565b600080600060608486031215620001525762000151620000f6565b5b600062000162868287016200011f565b935050602062000175868287016200011f565b925050604062000188868287016200011f565b9150509250925092565b600082825260208201905092915050565b7f71756f72756d206d757374206265206265747765656e203020616e6420313030600082015250565b6000620001db60208362000192565b9150620001e882620001a3565b602082019050919050565b600060208201905081810360008301526200020e81620001cc565b9050919050565b7f4e487b7100000000000000000000000000000000000000000000000000000000600052601160045260246000fd5b60006200025182620000fb565b91506200025e83620000fb565b925082820190508082111562000279576200027862000215565b5b92915050565b61219f806200028f6000396000f3fe60806040526004361061010d5760003560e01c80636f7bc9be11610095578063ce56c45411610064578063ce56c45414610392578063ce7c2ac2146103bb578063d151b516146103f8578063d7bb99ba14610423578063f851a4401461042d5761012c565b80636f7bc9be146102c4578063868643df146103015780639f2524ee1461032a578063bcf93dd6146103675761012c565b80631703a018116100dc5780631703a018146101ef5780632ab09d141461021a5780633a98ef391461024557806346fcff4c146102705780636ac1e01f1461029b5761012c565b80630121b93f14610131578063013cf08b1461015a578063039383e61461019d5780630d61b519146101c65761012c565b3661012c573460056000828254610124919061120c565b925050819055005b600080fd5b34801561013d57600080fd5b5061015860048036038101906101539190611280565b610458565b005b34801561016657600080fd5b50610181600480360381019061017c9190611280565b6106b2565b60405161019497969594939291906113a8565b60405180910390f35b3480156101a957600080fd5b506101c460048036038101906101bf919061145c565b6107a9565b005b3480156101d257600080fd5b506101ed60048036038101906101e89190611280565b610932565b005b3480156101fb57600080fd5b50610204610b10565b604051610211919061149c565b60405180910390f35b34801561022657600080fd5b5061022f610b16565b60405161023c919061149c565b60405180910390f35b34801561025157600080fd5b5061025a610b1c565b604051610267919061149c565b60405180910390f35b34801561027c57600080fd5b50610285610b22565b604051610292919061149c565b60405180910390f35b3480156102a757600080fd5b506102c260048036038101906102bd9190611618565b610b28565b005b3480156102d057600080fd5b506102eb60048036038101906102e69190611687565b610d4e565b6040516102f891906116b4565b60405180910390f35b34801561030d57600080fd5b5061032860048036038101906103239190611280565b610d6e565b005b34801561033657600080fd5b50610351600480360381019061034c91906116cf565b610eee565b60405161035e91906116b4565b60405180910390f35b34801561037357600080fd5b5061037c610f1d565b604051610389919061149c565b60405180910390f35b34801561039e57600080fd5b506103b960048036038101906103b4919061170f565b610f23565b005b3480156103c757600080fd5b506103e260048036038101906103dd9190611687565b610fc1565b6040516103ef919061149c565b60405180910390f35b34801561040457600080fd5b5061040d610fd9565b60405161041a919061149c565b60405180910390f35b61042b610fdf565b005b34801561043957600080fd5b50610442611104565b60405161044f919061175e565b60405180910390f35b600115156000803373ffffffffffffffffffffffffffffffffffffffff1673ffffffffffffffffffffffffffffffffffffffff16815260200190815260200160002060009054906101000a900460ff161515146104ea576040517f08c379a00000000000000000000000000000000000000000000000000000000081526004016104e1906117c5565b60405180910390fd5b600060036000838152602001908152602001600020905060001515600260003373ffffffffffffffffffffffffffffffffffffffff1673ffffffffffffffffffffffffffffffffffffffff168152602001908152602001600020600084815260200190815260200160002060009054906101000a900460ff161515146105a5576040517f08c379a000000000000000000000000000000000000000000000000000000000815260040161059c90611857565b60405180910390fd5b806005015442106105eb576040517f08c379a00000000000000000000000000000000000000000000000000000000081526004016105e2906118e9565b60405180910390fd5b6001600260003373ffffffffffffffffffffffffffffffffffffffff1673ffffffffffffffffffffffffffffffffffffffff168152602001908152602001600020600084815260200190815260200160002060006101000a81548160ff021916908315150217905550600160003373ffffffffffffffffffffffffffffffffffffffff1673ffffffffffffffffffffffffffffffffffffffff168152602001908152602001600020548160040160008282546106a7919061120c565b925050819055505050565b60036020528060005260406000206000915090508060000154908060010180546106db90611938565b80601f016020809104026020016040519081016040528092919081815260200182805461070790611938565b80156107545780601f1061072957610100808354040283529160200191610754565b820191906000526020600020905b81548152906001019060200180831161073757829003601f168201915b5050505050908060020154908060030160009054906101000a900473ffffffffffffffffffffffffffffffffffffffff16908060040154908060050154908060060160009054906101000a900460ff16905087565b81600160003373ffffffffffffffffffffffffffffffffffffffff1673ffffffffffffffffffffffffffffffffffffffff16815260200190815260200160002054101561082b576040517f08c379a0000000000000000000000000000000000000000000000000000000008152600401610822906119b5565b60405180910390fd5b81600160003373ffffffffffffffffffffffffffffffffffffffff1673ffffffffffffffffffffffffffffffffffffffff168152602001908152602001600020600082825461087a91906119d5565b9250508190555081600160008373ffffffffffffffffffffffffffffffffffffffff1673ffffffffffffffffffffffffffffffffffffffff16815260200190815260200160002060008282546108d0919061120c565b9250508190555060016000808373ffffffffffffffffffffffffffffffffffffffff1673ffffffffffffffffffffffffffffffffffffffff16815260200190815260200160002060006101000a81548160ff0219169083151502179055505050565b600a60009054906101000a900473ffffffffffffffffffffffffffffffffffffffff1673ffffffffffffffffffffffffffffffffffffffff163373ffffffffffffffffffffffffffffffffffffffff16146109c2576040517f08c379a00000000000000000000000000000000000000000000000000000000081526004016109b990611a55565b60405180910390fd5b60006003600083815260200190815260200160002090508060050154421015610a20576040517f08c379a0000000000000000000000000000000000000000000000000000000008152600401610a1790611ae7565b60405180910390fd5b600015158160060160009054906101000a900460ff16151514610a78576040517f08c379a0000000000000000000000000000000000000000000000000000000008152600401610a6f90611b79565b60405180910390fd5b60095460646004548360040154610a8f9190611bc8565b610a999190611bf9565b1015610ada576040517f08c379a0000000000000000000000000000000000000000000000000000000008152600401610ad190611cad565b60405180910390fd5b610b0c81600201548260030160009054906101000a900473ffffffffffffffffffffffffffffffffffffffff1661112a565b5050565b60095481565b60075481565b60045481565b60055481565b600115156000803373ffffffffffffffffffffffffffffffffffffffff1673ffffffffffffffffffffffffffffffffffffffff16815260200190815260200160002060009054906101000a900460ff16151514610bba576040517f08c379a0000000000000000000000000000000000000000000000000000000008152600401610bb1906117c5565b60405180910390fd5b816005541015610bff576040517f08c379a0000000000000000000000000000000000000000000000000000000008152600401610bf690611d19565b60405180910390fd5b6040518060e0016040528060075481526020018481526020018381526020018273ffffffffffffffffffffffffffffffffffffffff1681526020016000815260200160085442610c4f919061120c565b815260200160001515815250600360006007548152602001908152602001600020600082015181600001556020820151816001019081610c8f9190611ee5565b506040820151816002015560608201518160030160006101000a81548173ffffffffffffffffffffffffffffffffffffffff021916908373ffffffffffffffffffffffffffffffffffffffff1602179055506080820151816004015560a0820151816005015560c08201518160060160006101000a81548160ff0219169083151502179055509050508160056000828254610d2a91906119d5565b9250508190555060076000815480929190610d4490611fb7565b9190505550505050565b60006020528060005260406000206000915054906101000a900460ff1681565b80600160003373ffffffffffffffffffffffffffffffffffffffff1673ffffffffffffffffffffffffffffffffffffffff168152602001908152602001600020541015610df0576040517f08c379a0000000000000000000000000000000000000000000000000000000008152600401610de7906119b5565b60405180910390fd5b806005541015610e35576040517f08c379a0000000000000000000000000000000000000000000000000000000008152600401610e2c9061204b565b60405180910390fd5b80600160003373ffffffffffffffffffffffffffffffffffffffff1673ffffffffffffffffffffffffffffffffffffffff1681526020019081526020016000206000828254610e8491906119d5565b925050819055508060056000828254610e9d91906119d5565b925050819055503373ffffffffffffffffffffffffffffffffffffffff166108fc829081150290604051600060405180830381858888f19350505050158015610eea573d6000803e3d6000fd5b5050565b60026020528160005260406000206020528060005260406000206000915091509054906101000a900460ff1681565b60085481565b600a60009054906101000a900473ffffffffffffffffffffffffffffffffffffffff1673ffffffffffffffffffffffffffffffffffffffff163373ffffffffffffffffffffffffffffffffffffffff1614610fb3576040517f08c379a0000000000000000000000000000000000000000000000000000000008152600401610faa90611a55565b60405180910390fd5b610fbd828261112a565b5050565b60016020528060005260406000206000915090505481565b60065481565b6006544210611023576040517f08c379a000000000000000000000000000000000000000000000000000000000815260040161101a906120dd565b60405180910390fd5b60016000803373ffffffffffffffffffffffffffffffffffffffff1673ffffffffffffffffffffffffffffffffffffffff16815260200190815260200160002060006101000a81548160ff02191690831515021790555034600160003373ffffffffffffffffffffffffffffffffffffffff1673ffffffffffffffffffffffffffffffffffffffff16815260200190815260200160002060008282546110c9919061120c565b9250508190555034600460008282546110e2919061120c565b9250508190555034600560008282546110fb919061120c565b92505081905550565b600a60009054906101000a900473ffffffffffffffffffffffffffffffffffffffff1681565b60055482111561116f576040517f08c379a000000000000000000000000000000000000000000000000000000000815260040161116690612149565b60405180910390fd5b816005600082825461118191906119d5565b925050819055508073ffffffffffffffffffffffffffffffffffffffff166108fc839081150290604051600060405180830381858888f193505050501580156111ce573d6000803e3d6000fd5b505050565b6000819050919050565b7f4e487b7100000000000000000000000000000000000000000000000000000000600052601160045260246000fd5b6000611217826111d3565b9150611222836111d3565b925082820190508082111561123a576112396111dd565b5b92915050565b6000604051905090565b600080fd5b600080fd5b61125d816111d3565b811461126857600080fd5b50565b60008135905061127a81611254565b92915050565b6000602082840312156112965761129561124a565b5b60006112a48482850161126b565b91505092915050565b6112b6816111d3565b82525050565b600081519050919050565b600082825260208201905092915050565b60005b838110156112f65780820151818401526020810190506112db565b60008484015250505050565b6000601f19601f8301169050919050565b600061131e826112bc565b61132881856112c7565b93506113388185602086016112d8565b61134181611302565b840191505092915050565b600073ffffffffffffffffffffffffffffffffffffffff82169050919050565b60006113778261134c565b9050919050565b6113878161136c565b82525050565b60008115159050919050565b6113a28161138d565b82525050565b600060e0820190506113bd600083018a6112ad565b81810360208301526113cf8189611313565b90506113de60408301886112ad565b6113eb606083018761137e565b6113f860808301866112ad565b61140560a08301856112ad565b61141260c0830184611399565b98975050505050505050565b60006114298261134c565b9050919050565b6114398161141e565b811461144457600080fd5b50565b60008135905061145681611430565b92915050565b600080604083850312156114735761147261124a565b5b60006114818582860161126b565b925050602061149285828601611447565b9150509250929050565b60006020820190506114b160008301846112ad565b92915050565b600080fd5b600080fd5b7f4e487b7100000000000000000000000000000000000000000000000000000000600052604160045260246000fd5b6114f982611302565b810181811067ffffffffffffffff82111715611518576115176114c1565b5b80604052505050565b600061152b611240565b905061153782826114f0565b919050565b600067ffffffffffffffff821115611557576115566114c1565b5b61156082611302565b9050602081019050919050565b82818337600083830152505050565b600061158f61158a8461153c565b611521565b9050828152602081018484840111156115ab576115aa6114bc565b5b6115b684828561156d565b509392505050565b600082601f8301126115d3576115d26114b7565b5b81356115e384826020860161157c565b91505092915050565b6115f58161136c565b811461160057600080fd5b50565b600081359050611612816115ec565b92915050565b6000806000606084860312156116315761163061124a565b5b600084013567ffffffffffffffff81111561164f5761164e61124f565b5b61165b868287016115be565b935050602061166c8682870161126b565b925050604061167d86828701611603565b9150509250925092565b60006020828403121561169d5761169c61124a565b5b60006116ab84828501611447565b91505092915050565b60006020820190506116c96000830184611399565b92915050565b600080604083850312156116e6576116e561124a565b5b60006116f485828601611447565b92505060206117058582860161126b565b9150509250929050565b600080604083850312156117265761172561124a565b5b60006117348582860161126b565b925050602061174585828601611603565b9150509250929050565b6117588161141e565b82525050565b6000602082019050611773600083018461174f565b92915050565b7f6f6e6c7920696e766573746f7273000000000000000000000000000000000000600082015250565b60006117af600e836112c7565b91506117ba82611779565b602082019050919050565b600060208201905081810360008301526117de816117a2565b9050919050565b7f696e766573746f722063616e206f6e6c7920766f7465206f6e636520666f722060008201527f612070726f706f73616c00000000000000000000000000000000000000000000602082015250565b6000611841602a836112c7565b915061184c826117e5565b604082019050919050565b6000602082019050818103600083015261187081611834565b9050919050565b7f63616e206f6e6c7920766f746520756e74696c2070726f706f73616c20656e6460008201527f2064617465000000000000000000000000000000000000000000000000000000602082015250565b60006118d36025836112c7565b91506118de82611877565b604082019050919050565b60006020820190508181036000830152611902816118c6565b9050919050565b7f4e487b7100000000000000000000000000000000000000000000000000000000600052602260045260246000fd5b6000600282049050600182168061195057607f821691505b60208210810361196357611962611909565b5b50919050565b7f6e6f7420656e6f75676820736861726573000000000000000000000000000000600082015250565b600061199f6011836112c7565b91506119aa82611969565b602082019050919050565b600060208201905081810360008301526119ce81611992565b9050919050565b60006119e0826111d3565b91506119eb836111d3565b9250828203905081811115611a0357611a026111dd565b5b92915050565b7f6f6e6c792061646d696e00000000000000000000000000000000000000000000600082015250565b6000611a3f600a836112c7565b9150611a4a82611a09565b602082019050919050565b60006020820190508181036000830152611a6e81611a32565b9050919050565b7f63616e6e6f7420657865637574652070726f706f73616c206265666f7265206560008201527f6e64206461746500000000000000000000000000000000000000000000000000602082015250565b6000611ad16027836112c7565b9150611adc82611a75565b604082019050919050565b60006020820190508181036000830152611b0081611ac4565b9050919050565b7f63616e6e6f7420657865637574652070726f706f73616c20616c72656164792060008201527f6578656375746564000000000000000000000000000000000000000000000000602082015250565b6000611b636028836112c7565b9150611b6e82611b07565b604082019050919050565b60006020820190508181036000830152611b9281611b56565b9050919050565b7f4e487b7100000000000000000000000000000000000000000000000000000000600052601260045260246000fd5b6000611bd3826111d3565b9150611bde836111d3565b925082611bee57611bed611b99565b5b828204905092915050565b6000611c04826111d3565b9150611c0f836111d3565b9250828202611c1d816111d3565b91508282048414831517611c3457611c336111dd565b5b5092915050565b7f63616e6e6f7420657865637574652070726f706f73616c207769746820766f7460008201527f657320232062656c6f772071756f72756d000000000000000000000000000000602082015250565b6000611c976031836112c7565b9150611ca282611c3b565b604082019050919050565b60006020820190508181036000830152611cc681611c8a565b9050919050565b7f616d6f756e7420746f6f20626967000000000000000000000000000000000000600082015250565b6000611d03600e836112c7565b9150611d0e82611ccd565b602082019050919050565b60006020820190508181036000830152611d3281611cf6565b9050919050565b60008190508160005260206000209050919050565b60006020601f8301049050919050565b600082821b905092915050565b600060088302611d9b7fffffffffffffffffffffffffffffffffffffffffffffffffffffffffffffffff82611d5e565b611da58683611d5e565b95508019841693508086168417925050509392505050565b6000819050919050565b6000611de2611ddd611dd8846111d3565b611dbd565b6111d3565b9050919050565b6000819050919050565b611dfc83611dc7565b611e10611e0882611de9565b848454611d6b565b825550505050565b600090565b611e25611e18565b611e30818484611df3565b505050565b5b81811015611e5457611e49600082611e1d565b600181019050611e36565b5050565b601f821115611e9957611e6a81611d39565b611e7384611d4e565b81016020851015611e82578190505b611e96611e8e85611d4e565b830182611e35565b50505b505050565b600082821c905092915050565b6000611ebc60001984600802611e9e565b1980831691505092915050565b6000611ed58383611eab565b9150826002028217905092915050565b611eee826112bc565b67ffffffffffffffff811115611f0757611f066114c1565b5b611f118254611938565b611f1c828285611e58565b600060209050601f831160018114611f4f5760008415611f3d578287015190505b611f478582611ec9565b865550611faf565b601f198416611f5d86611d39565b60005b82811015611f8557848901518255600182019150602085019450602081019050611f60565b86831015611fa25784890151611f9e601f891682611eab565b8355505b6001600288020188555050505b505050505050565b6000611fc2826111d3565b91507fffffffffffffffffffffffffffffffffffffffffffffffffffffffffffffffff8203611ff457611ff36111dd565b5b600182019050919050565b7f6e6f7420656e6f75676820617661696c61626c652066756e6473000000000000600082015250565b6000612035601a836112c7565b915061204082611fff565b602082019050919050565b6000602082019050818103600083015261206481612028565b9050919050565b7f63616e6e6f7420636f6e7472696275746520616674657220636f6e747269627560008201527f74696f6e456e6400000000000000000000000000000000000000000000000000602082015250565b60006120c76027836112c7565b91506120d28261206b565b604082019050919050565b600060208201905081810360008301526120f6816120ba565b9050919050565b7f6e6f7420656e6f75676820617661696c61626c6546756e647300000000000000600082015250565b60006121336019836112c7565b915061213e826120fd565b602082019050919050565b6000602082019050818103600083015261216281612126565b905091905056fea2646970667358221220e18d04d221318fa5afa0f8f3e0ec5ad58cc4c3e9d2c310577f8a802df96c42ce64736f6c63430008160033",
					"opcodes": "PUSH1 0x80 PUSH1 0x40 MSTORE CALLVALUE DUP1 ISZERO PUSH3 0x11 JUMPI PUSH1 0x0 DUP1 REVERT JUMPDEST POP PUSH1 0x40 MLOAD PUSH3 0x242E CODESIZE SUB DUP1 PUSH3 0x242E DUP4 CODECOPY DUP2 DUP2 ADD PUSH1 0x40 MSTORE DUP2 ADD SWAP1 PUSH3 0x37 SWAP2 SWAP1 PUSH3 0x136 JUMP JUMPDEST PUSH1 0x0 DUP2 GT DUP1 ISZERO PUSH3 0x48 JUMPI POP PUSH1 0x64 DUP2 LT JUMPDEST PUSH3 0x8A JUMPI PUSH1 0x40 MLOAD PUSH32 0x8C379A000000000000000000000000000000000000000000000000000000000 DUP2 MSTORE PUSH1 0x4 ADD PUSH3 0x81 SWAP1 PUSH3 0x1F3 JUMP JUMPDEST PUSH1 0x40 MLOAD DUP1 SWAP2 SUB SWAP1 REVERT JUMPDEST DUP3 TIMESTAMP PUSH3 0x98 SWAP2 SWAP1 PUSH3 0x244 JUMP JUMPDEST PUSH1 0x6 DUP2 SWAP1 SSTORE POP DUP2 PUSH1 0x8 DUP2 SWAP1 SSTORE POP DUP1 PUSH1 0x9 DUP2 SWAP1 SSTORE POP CALLER PUSH1 0xA PUSH1 0x0 PUSH2 0x100 EXP DUP2 SLOAD DUP2 PUSH20 0xFFFFFFFFFFFFFFFFFFFFFFFFFFFFFFFFFFFFFFFF MUL NOT AND SWAP1 DUP4 PUSH20 0xFFFFFFFFFFFFFFFFFFFFFFFFFFFFFFFFFFFFFFFF AND MUL OR SWAP1 SSTORE POP POP POP POP PUSH3 0x27F JUMP JUMPDEST PUSH1 0x0 DUP1 REVERT JUMPDEST PUSH1 0x0 DUP2 SWAP1 POP SWAP2 SWAP1 POP JUMP JUMPDEST PUSH3 0x110 DUP2 PUSH3 0xFB JUMP JUMPDEST DUP2 EQ PUSH3 0x11C JUMPI PUSH1 0x0 DUP1 REVERT JUMPDEST POP JUMP JUMPDEST PUSH1 0x0 DUP2 MLOAD SWAP1 POP PUSH3 0x130 DUP2 PUSH3 0x105 JUMP JUMPDEST SWAP3 SWAP2 POP POP JUMP JUMPDEST PUSH1 0x0 DUP1 PUSH1 0x0 PUSH1 0x60 DUP5 DUP7 SUB SLT ISZERO PUSH3 0x152 JUMPI PUSH3 0x151 PUSH3 0xF6 JUMP JUMPDEST JUMPDEST PUSH1 0x0 PUSH3 0x162 DUP7 DUP3 DUP8 ADD PUSH3 0x11F JUMP JUMPDEST SWAP4 POP POP PUSH1 0x20 PUSH3 0x175 DUP7 DUP3 DUP8 ADD PUSH3 0x11F JUMP JUMPDEST SWAP3 POP POP PUSH1 0x40 PUSH3 0x188 DUP7 DUP3 DUP8 ADD PUSH3 0x11F JUMP JUMPDEST SWAP2 POP POP SWAP3 POP SWAP3 POP SWAP3 JUMP JUMPDEST PUSH1 0x0 DUP3 DUP3 MSTORE PUSH1 0x20 DUP3 ADD SWAP1 POP SWAP3 SWAP2 POP POP JUMP JUMPDEST PUSH32 0x71756F72756D206D757374206265206265747765656E203020616E6420313030 PUSH1 0x0 DUP3 ADD MSTORE POP JUMP JUMPDEST PUSH1 0x0 PUSH3 0x1DB PUSH1 0x20 DUP4 PUSH3 0x192 JUMP JUMPDEST SWAP2 POP PUSH3 0x1E8 DUP3 PUSH3 0x1A3 JUMP JUMPDEST PUSH1 0x20 DUP3 ADD SWAP1 POP SWAP2 SWAP1 POP JUMP JUMPDEST PUSH1 0x0 PUSH1 0x20 DUP3 ADD SWAP1 POP DUP2 DUP2 SUB PUSH1 0x0 DUP4 ADD MSTORE PUSH3 0x20E DUP2 PUSH3 0x1CC JUMP JUMPDEST SWAP1 POP SWAP2 SWAP1 POP JUMP JUMPDEST PUSH32 0x4E487B7100000000000000000000000000000000000000000000000000000000 PUSH1 0x0 MSTORE PUSH1 0x11 PUSH1 0x4 MSTORE PUSH1 0x24 PUSH1 0x0 REVERT JUMPDEST PUSH1 0x0 PUSH3 0x251 DUP3 PUSH3 0xFB JUMP JUMPDEST SWAP2 POP PUSH3 0x25E DUP4 PUSH3 0xFB JUMP JUMPDEST SWAP3 POP DUP3 DUP3 ADD SWAP1 POP DUP1 DUP3 GT ISZERO PUSH3 0x279 JUMPI PUSH3 0x278 PUSH3 0x215 JUMP JUMPDEST JUMPDEST SWAP3 SWAP2 POP POP JUMP JUMPDEST PUSH2 0x219F DUP1 PUSH3 0x28F PUSH1 0x0 CODECOPY PUSH1 0x0 RETURN INVALID PUSH1 0x80 PUSH1 0x40 MSTORE PUSH1 0x4 CALLDATASIZE LT PUSH2 0x10D JUMPI PUSH1 0x0 CALLDATALOAD PUSH1 0xE0 SHR DUP1 PUSH4 0x6F7BC9BE GT PUSH2 0x95 JUMPI DUP1 PUSH4 0xCE56C454 GT PUSH2 0x64 JUMPI DUP1 PUSH4 0xCE56C454 EQ PUSH2 0x392 JUMPI DUP1 PUSH4 0xCE7C2AC2 EQ PUSH2 0x3BB JUMPI DUP1 PUSH4 0xD151B516 EQ PUSH2 0x3F8 JUMPI DUP1 PUSH4 0xD7BB99BA EQ PUSH2 0x423 JUMPI DUP1 PUSH4 0xF851A440 EQ PUSH2 0x42D JUMPI PUSH2 0x12C JUMP JUMPDEST DUP1 PUSH4 0x6F7BC9BE EQ PUSH2 0x2C4 JUMPI DUP1 PUSH4 0x868643DF EQ PUSH2 0x301 JUMPI DUP1 PUSH4 0x9F2524EE EQ PUSH2 0x32A JUMPI DUP1 PUSH4 0xBCF93DD6 EQ PUSH2 0x367 JUMPI PUSH2 0x12C JUMP JUMPDEST DUP1 PUSH4 0x1703A018 GT PUSH2 0xDC JUMPI DUP1 PUSH4 0x1703A018 EQ PUSH2 0x1EF JUMPI DUP1 PUSH4 0x2AB09D14 EQ PUSH2 0x21A JUMPI DUP1 PUSH4 0x3A98EF39 EQ PUSH2 0x245 JUMPI DUP1 PUSH4 0x46FCFF4C EQ PUSH2 0x270 JUMPI DUP1 PUSH4 0x6AC1E01F EQ PUSH2 0x29B JUMPI PUSH2 0x12C JUMP JUMPDEST DUP1 PUSH4 0x121B93F EQ PUSH2 0x131 JUMPI DUP1 PUSH4 0x13CF08B EQ PUSH2 0x15A JUMPI DUP1 PUSH4 0x39383E6 EQ PUSH2 0x19D JUMPI DUP1 PUSH4 0xD61B519 EQ PUSH2 0x1C6 JUMPI PUSH2 0x12C JUMP JUMPDEST CALLDATASIZE PUSH2 0x12C JUMPI CALLVALUE PUSH1 0x5 PUSH1 0x0 DUP3 DUP3 SLOAD PUSH2 0x124 SWAP2 SWAP1 PUSH2 0x120C JUMP JUMPDEST SWAP3 POP POP DUP2 SWAP1 SSTORE STOP JUMPDEST PUSH1 0x0 DUP1 REVERT JUMPDEST CALLVALUE DUP1 ISZERO PUSH2 0x13D JUMPI PUSH1 0x0 DUP1 REVERT JUMPDEST POP PUSH2 0x158 PUSH1 0x4 DUP1 CALLDATASIZE SUB DUP2 ADD SWAP1 PUSH2 0x153 SWAP2 SWAP1 PUSH2 0x1280 JUMP JUMPDEST PUSH2 0x458 JUMP JUMPDEST STOP JUMPDEST CALLVALUE DUP1 ISZERO PUSH2 0x166 JUMPI PUSH1 0x0 DUP1 REVERT JUMPDEST POP PUSH2 0x181 PUSH1 0x4 DUP1 CALLDATASIZE SUB DUP2 ADD SWAP1 PUSH2 0x17C SWAP2 SWAP1 PUSH2 0x1280 JUMP JUMPDEST PUSH2 0x6B2 JUMP JUMPDEST PUSH1 0x40 MLOAD PUSH2 0x194 SWAP8 SWAP7 SWAP6 SWAP5 SWAP4 SWAP3 SWAP2 SWAP1 PUSH2 0x13A8 JUMP JUMPDEST PUSH1 0x40 MLOAD DUP1 SWAP2 SUB SWAP1 RETURN JUMPDEST CALLVALUE DUP1 ISZERO PUSH2 0x1A9 JUMPI PUSH1 0x0 DUP1 REVERT JUMPDEST POP PUSH2 0x1C4 PUSH1 0x4 DUP1 CALLDATASIZE SUB DUP2 ADD SWAP1 PUSH2 0x1BF SWAP2 SWAP1 PUSH2 0x145C JUMP JUMPDEST PUSH2 0x7A9 JUMP JUMPDEST STOP JUMPDEST CALLVALUE DUP1 ISZERO PUSH2 0x1D2 JUMPI PUSH1 0x0 DUP1 REVERT JUMPDEST POP PUSH2 0x1ED PUSH1 0x4 DUP1 CALLDATASIZE SUB DUP2 ADD SWAP1 PUSH2 0x1E8 SWAP2 SWAP1 PUSH2 0x1280 JUMP JUMPDEST PUSH2 0x932 JUMP JUMPDEST STOP JUMPDEST CALLVALUE DUP1 ISZERO PUSH2 0x1FB JUMPI PUSH1 0x0 DUP1 REVERT JUMPDEST POP PUSH2 0x204 PUSH2 0xB10 JUMP JUMPDEST PUSH1 0x40 MLOAD PUSH2 0x211 SWAP2 SWAP1 PUSH2 0x149C JUMP JUMPDEST PUSH1 0x40 MLOAD DUP1 SWAP2 SUB SWAP1 RETURN JUMPDEST CALLVALUE DUP1 ISZERO PUSH2 0x226 JUMPI PUSH1 0x0 DUP1 REVERT JUMPDEST POP PUSH2 0x22F PUSH2 0xB16 JUMP JUMPDEST PUSH1 0x40 MLOAD PUSH2 0x23C SWAP2 SWAP1 PUSH2 0x149C JUMP JUMPDEST PUSH1 0x40 MLOAD DUP1 SWAP2 SUB SWAP1 RETURN JUMPDEST CALLVALUE DUP1 ISZERO PUSH2 0x251 JUMPI PUSH1 0x0 DUP1 REVERT JUMPDEST POP PUSH2 0x25A PUSH2 0xB1C JUMP JUMPDEST PUSH1 0x40 MLOAD PUSH2 0x267 SWAP2 SWAP1 PUSH2 0x149C JUMP JUMPDEST PUSH1 0x40 MLOAD DUP1 SWAP2 SUB SWAP1 RETURN JUMPDEST CALLVALUE DUP1 ISZERO PUSH2 0x27C JUMPI PUSH1 0x0 DUP1 REVERT JUMPDEST POP PUSH2 0x285 PUSH2 0xB22 JUMP JUMPDEST PUSH1 0x40 MLOAD PUSH2 0x292 SWAP2 SWAP1 PUSH2 0x149C JUMP JUMPDEST PUSH1 0x40 MLOAD DUP1 SWAP2 SUB SWAP1 RETURN JUMPDEST CALLVALUE DUP1 ISZERO PUSH2 0x2A7 JUMPI PUSH1 0x0 DUP1 REVERT JUMPDEST POP PUSH2 0x2C2 PUSH1 0x4 DUP1 CALLDATASIZE SUB DUP2 ADD SWAP1 PUSH2 0x2BD SWAP2 SWAP1 PUSH2 0x1618 JUMP JUMPDEST PUSH2 0xB28 JUMP JUMPDEST STOP JUMPDEST CALLVALUE DUP1 ISZERO PUSH2 0x2D0 JUMPI PUSH1 0x0 DUP1 REVERT JUMPDEST POP PUSH2 0x2EB PUSH1 0x4 DUP1 CALLDATASIZE SUB DUP2 ADD SWAP1 PUSH2 0x2E6 SWAP2 SWAP1 PUSH2 0x1687 JUMP JUMPDEST PUSH2 0xD4E JUMP JUMPDEST PUSH1 0x40 MLOAD PUSH2 0x2F8 SWAP2 SWAP1 PUSH2 0x16B4 JUMP JUMPDEST PUSH1 0x40 MLOAD DUP1 SWAP2 SUB SWAP1 RETURN JUMPDEST CALLVALUE DUP1 ISZERO PUSH2 0x30D JUMPI PUSH1 0x0 DUP1 REVERT JUMPDEST POP PUSH2 0x328 PUSH1 0x4 DUP1 CALLDATASIZE SUB DUP2 ADD SWAP1 PUSH2 0x323 SWAP2 SWAP1 PUSH2 0x1280 JUMP JUMPDEST PUSH2 0xD6E JUMP JUMPDEST STOP JUMPDEST CALLVALUE DUP1 ISZERO PUSH2 0x336 JUMPI PUSH1 0x0 DUP1 REVERT JUMPDEST POP PUSH2 0x351 PUSH1 0x4 DUP1 CALLDATASIZE SUB DUP2 ADD SWAP1 PUSH2 0x34C SWAP2 SWAP1 PUSH2 0x16CF JUMP JUMPDEST PUSH2 0xEEE JUMP JUMPDEST PUSH1 0x40 MLOAD PUSH2 0x35E SWAP2 SWAP1 PUSH2 0x16B4 JUMP JUMPDEST PUSH1 0x40 MLOAD DUP1 SWAP2 SUB SWAP1 RETURN JUMPDEST CALLVALUE DUP1 ISZERO PUSH2 0x373 JUMPI PUSH1 0x0 DUP1 REVERT JUMPDEST POP PUSH2 0x37C PUSH2 0xF1D JUMP JUMPDEST PUSH1 0x40 MLOAD PUSH2 0x389 SWAP2 SWAP1 PUSH2 0x149C JUMP JUMPDEST PUSH1 0x40 MLOAD DUP1 SWAP2 SUB SWAP1 RETURN JUMPDEST CALLVALUE DUP1 ISZERO PUSH2 0x39E JUMPI PUSH1 0x0 DUP1 REVERT JUMPDEST POP PUSH2 0x3B9 PUSH1 0x4 DUP1 CALLDATASIZE SUB DUP2 ADD SWAP1 PUSH2 0x3B4 SWAP2 SWAP1 PUSH2 0x170F JUMP JUMPDEST PUSH2 0xF23 JUMP JUMPDEST STOP JUMPDEST CALLVALUE DUP1 ISZERO PUSH2 0x3C7 JUMPI PUSH1 0x0 DUP1 REVERT JUMPDEST POP PUSH2 0x3E2 PUSH1 0x4 DUP1 CALLDATASIZE SUB DUP2 ADD SWAP1 PUSH2 0x3DD SWAP2 SWAP1 PUSH2 0x1687 JUMP JUMPDEST PUSH2 0xFC1 JUMP JUMPDEST PUSH1 0x40 MLOAD PUSH2 0x3EF SWAP2 SWAP1 PUSH2 0x149C JUMP JUMPDEST PUSH1 0x40 MLOAD DUP1 SWAP2 SUB SWAP1 RETURN JUMPDEST CALLVALUE DUP1 ISZERO PUSH2 0x404 JUMPI PUSH1 0x0 DUP1 REVERT JUMPDEST POP PUSH2 0x40D PUSH2 0xFD9 JUMP JUMPDEST PUSH1 0x40 MLOAD PUSH2 0x41A SWAP2 SWAP1 PUSH2 0x149C JUMP JUMPDEST PUSH1 0x40 MLOAD DUP1 SWAP2 SUB SWAP1 RETURN JUMPDEST PUSH2 0x42B PUSH2 0xFDF JUMP JUMPDEST STOP JUMPDEST CALLVALUE DUP1 ISZERO PUSH2 0x439 JUMPI PUSH1 0x0 DUP1 REVERT JUMPDEST POP PUSH2 0x442 PUSH2 0x1104 JUMP JUMPDEST PUSH1 0x40 MLOAD PUSH2 0x44F SWAP2 SWAP1 PUSH2 0x175E JUMP JUMPDEST PUSH1 0x40 MLOAD DUP1 SWAP2 SUB SWAP1 RETURN JUMPDEST PUSH1 0x1 ISZERO ISZERO PUSH1 0x0 DUP1 CALLER PUSH20 0xFFFFFFFFFFFFFFFFFFFFFFFFFFFFFFFFFFFFFFFF AND PUSH20 0xFFFFFFFFFFFFFFFFFFFFFFFFFFFFFFFFFFFFFFFF AND DUP2 MSTORE PUSH1 0x20 ADD SWAP1 DUP2 MSTORE PUSH1 0x20 ADD PUSH1 0x0 KECCAK256 PUSH1 0x0 SWAP1 SLOAD SWAP1 PUSH2 0x100 EXP SWAP1 DIV PUSH1 0xFF AND ISZERO ISZERO EQ PUSH2 0x4EA JUMPI PUSH1 0x40 MLOAD PUSH32 0x8C379A000000000000000000000000000000000000000000000000000000000 DUP2 MSTORE PUSH1 0x4 ADD PUSH2 0x4E1 SWAP1 PUSH2 0x17C5 JUMP JUMPDEST PUSH1 0x40 MLOAD DUP1 SWAP2 SUB SWAP1 REVERT JUMPDEST PUSH1 0x0 PUSH1 0x3 PUSH1 0x0 DUP4 DUP2 MSTORE PUSH1 0x20 ADD SWAP1 DUP2 MSTORE PUSH1 0x20 ADD PUSH1 0x0 KECCAK256 SWAP1 POP PUSH1 0x0 ISZERO ISZERO PUSH1 0x2 PUSH1 0x0 CALLER PUSH20 0xFFFFFFFFFFFFFFFFFFFFFFFFFFFFFFFFFFFFFFFF AND PUSH20 0xFFFFFFFFFFFFFFFFFFFFFFFFFFFFFFFFFFFFFFFF AND DUP2 MSTORE PUSH1 0x20 ADD SWAP1 DUP2 MSTORE PUSH1 0x20 ADD PUSH1 0x0 KECCAK256 PUSH1 0x0 DUP5 DUP2 MSTORE PUSH1 0x20 ADD SWAP1 DUP2 MSTORE PUSH1 0x20 ADD PUSH1 0x0 KECCAK256 PUSH1 0x0 SWAP1 SLOAD SWAP1 PUSH2 0x100 EXP SWAP1 DIV PUSH1 0xFF AND ISZERO ISZERO EQ PUSH2 0x5A5 JUMPI PUSH1 0x40 MLOAD PUSH32 0x8C379A000000000000000000000000000000000000000000000000000000000 DUP2 MSTORE PUSH1 0x4 ADD PUSH2 0x59C SWAP1 PUSH2 0x1857 JUMP JUMPDEST PUSH1 0x40 MLOAD DUP1 SWAP2 SUB SWAP1 REVERT JUMPDEST DUP1 PUSH1 0x5 ADD SLOAD TIMESTAMP LT PUSH2 0x5EB JUMPI PUSH1 0x40 MLOAD PUSH32 0x8C379A000000000000000000000000000000000000000000000000000000000 DUP2 MSTORE PUSH1 0x4 ADD PUSH2 0x5E2 SWAP1 PUSH2 0x18E9 JUMP JUMPDEST PUSH1 0x40 MLOAD DUP1 SWAP2 SUB SWAP1 REVERT JUMPDEST PUSH1 0x1 PUSH1 0x2 PUSH1 0x0 CALLER PUSH20 0xFFFFFFFFFFFFFFFFFFFFFFFFFFFFFFFFFFFFFFFF AND PUSH20 0xFFFFFFFFFFFFFFFFFFFFFFFFFFFFFFFFFFFFFFFF AND DUP2 MSTORE PUSH1 0x20 ADD SWAP1 DUP2 MSTORE PUSH1 0x20 ADD PUSH1 0x0 KECCAK256 PUSH1 0x0 DUP5 DUP2 MSTORE PUSH1 0x20 ADD SWAP1 DUP2 MSTORE PUSH1 0x20 ADD PUSH1 0x0 KECCAK256 PUSH1 0x0 PUSH2 0x100 EXP DUP2 SLOAD DUP2 PUSH1 0xFF MUL NOT AND SWAP1 DUP4 ISZERO ISZERO MUL OR SWAP1 SSTORE POP PUSH1 0x1 PUSH1 0x0 CALLER PUSH20 0xFFFFFFFFFFFFFFFFFFFFFFFFFFFFFFFFFFFFFFFF AND PUSH20 0xFFFFFFFFFFFFFFFFFFFFFFFFFFFFFFFFFFFFFFFF AND DUP2 MSTORE PUSH1 0x20 ADD SWAP1 DUP2 MSTORE PUSH1 0x20 ADD PUSH1 0x0 KECCAK256 SLOAD DUP2 PUSH1 0x4 ADD PUSH1 0x0 DUP3 DUP3 SLOAD PUSH2 0x6A7 SWAP2 SWAP1 PUSH2 0x120C JUMP JUMPDEST SWAP3 POP POP DUP2 SWAP1 SSTORE POP POP POP JUMP JUMPDEST PUSH1 0x3 PUSH1 0x20 MSTORE DUP1 PUSH1 0x0 MSTORE PUSH1 0x40 PUSH1 0x0 KECCAK256 PUSH1 0x0 SWAP2 POP SWAP1 POP DUP1 PUSH1 0x0 ADD SLOAD SWAP1 DUP1 PUSH1 0x1 ADD DUP1 SLOAD PUSH2 0x6DB SWAP1 PUSH2 0x1938 JUMP JUMPDEST DUP1 PUSH1 0x1F ADD PUSH1 0x20 DUP1 SWAP2 DIV MUL PUSH1 0x20 ADD PUSH1 0x40 MLOAD SWAP1 DUP2 ADD PUSH1 0x40 MSTORE DUP1 SWAP3 SWAP2 SWAP1 DUP2 DUP2 MSTORE PUSH1 0x20 ADD DUP3 DUP1 SLOAD PUSH2 0x707 SWAP1 PUSH2 0x1938 JUMP JUMPDEST DUP1 ISZERO PUSH2 0x754 JUMPI DUP1 PUSH1 0x1F LT PUSH2 0x729 JUMPI PUSH2 0x100 DUP1 DUP4 SLOAD DIV MUL DUP4 MSTORE SWAP2 PUSH1 0x20 ADD SWAP2 PUSH2 0x754 JUMP JUMPDEST DUP3 ADD SWAP2 SWAP1 PUSH1 0x0 MSTORE PUSH1 0x20 PUSH1 0x0 KECCAK256 SWAP1 JUMPDEST DUP2 SLOAD DUP2 MSTORE SWAP1 PUSH1 0x1 ADD SWAP1 PUSH1 0x20 ADD DUP1 DUP4 GT PUSH2 0x737 JUMPI DUP3 SWAP1 SUB PUSH1 0x1F AND DUP3 ADD SWAP2 JUMPDEST POP POP POP POP POP SWAP1 DUP1 PUSH1 0x2 ADD SLOAD SWAP1 DUP1 PUSH1 0x3 ADD PUSH1 0x0 SWAP1 SLOAD SWAP1 PUSH2 0x100 EXP SWAP1 DIV PUSH20 0xFFFFFFFFFFFFFFFFFFFFFFFFFFFFFFFFFFFFFFFF AND SWAP1 DUP1 PUSH1 0x4 ADD SLOAD SWAP1 DUP1 PUSH1 0x5 ADD SLOAD SWAP1 DUP1 PUSH1 0x6 ADD PUSH1 0x0 SWAP1 SLOAD SWAP1 PUSH2 0x100 EXP SWAP1 DIV PUSH1 0xFF AND SWAP1 POP DUP8 JUMP JUMPDEST DUP2 PUSH1 0x1 PUSH1 0x0 CALLER PUSH20 0xFFFFFFFFFFFFFFFFFFFFFFFFFFFFFFFFFFFFFFFF AND PUSH20 0xFFFFFFFFFFFFFFFFFFFFFFFFFFFFFFFFFFFFFFFF AND DUP2 MSTORE PUSH1 0x20 ADD SWAP1 DUP2 MSTORE PUSH1 0x20 ADD PUSH1 0x0 KECCAK256 SLOAD LT ISZERO PUSH2 0x82B JUMPI PUSH1 0x40 MLOAD PUSH32 0x8C379A000000000000000000000000000000000000000000000000000000000 DUP2 MSTORE PUSH1 0x4 ADD PUSH2 0x822 SWAP1 PUSH2 0x19B5 JUMP JUMPDEST PUSH1 0x40 MLOAD DUP1 SWAP2 SUB SWAP1 REVERT JUMPDEST DUP2 PUSH1 0x1 PUSH1 0x0 CALLER PUSH20 0xFFFFFFFFFFFFFFFFFFFFFFFFFFFFFFFFFFFFFFFF AND PUSH20 0xFFFFFFFFFFFFFFFFFFFFFFFFFFFFFFFFFFFFFFFF AND DUP2 MSTORE PUSH1 0x20 ADD SWAP1 DUP2 MSTORE PUSH1 0x20 ADD PUSH1 0x0 KECCAK256 PUSH1 0x0 DUP3 DUP3 SLOAD PUSH2 0x87A SWAP2 SWAP1 PUSH2 0x19D5 JUMP JUMPDEST SWAP3 POP POP DUP2 SWAP1 SSTORE POP DUP2 PUSH1 0x1 PUSH1 0x0 DUP4 PUSH20 0xFFFFFFFFFFFFFFFFFFFFFFFFFFFFFFFFFFFFFFFF AND PUSH20 0xFFFFFFFFFFFFFFFFFFFFFFFFFFFFFFFFFFFFFFFF AND DUP2 MSTORE PUSH1 0x20 ADD SWAP1 DUP2 MSTORE PUSH1 0x20 ADD PUSH1 0x0 KECCAK256 PUSH1 0x0 DUP3 DUP3 SLOAD PUSH2 0x8D0 SWAP2 SWAP1 PUSH2 0x120C JUMP JUMPDEST SWAP3 POP POP DUP2 SWAP1 SSTORE POP PUSH1 0x1 PUSH1 0x0 DUP1 DUP4 PUSH20 0xFFFFFFFFFFFFFFFFFFFFFFFFFFFFFFFFFFFFFFFF AND PUSH20 0xFFFFFFFFFFFFFFFFFFFFFFFFFFFFFFFFFFFFFFFF AND DUP2 MSTORE PUSH1 0x20 ADD SWAP1 DUP2 MSTORE PUSH1 0x20 ADD PUSH1 0x0 KECCAK256 PUSH1 0x0 PUSH2 0x100 EXP DUP2 SLOAD DUP2 PUSH1 0xFF MUL NOT AND SWAP1 DUP4 ISZERO ISZERO MUL OR SWAP1 SSTORE POP POP POP JUMP JUMPDEST PUSH1 0xA PUSH1 0x0 SWAP1 SLOAD SWAP1 PUSH2 0x100 EXP SWAP1 DIV PUSH20 0xFFFFFFFFFFFFFFFFFFFFFFFFFFFFFFFFFFFFFFFF AND PUSH20 0xFFFFFFFFFFFFFFFFFFFFFFFFFFFFFFFFFFFFFFFF AND CALLER PUSH20 0xFFFFFFFFFFFFFFFFFFFFFFFFFFFFFFFFFFFFFFFF AND EQ PUSH2 0x9C2 JUMPI PUSH1 0x40 MLOAD PUSH32 0x8C379A000000000000000000000000000000000000000000000000000000000 DUP2 MSTORE PUSH1 0x4 ADD PUSH2 0x9B9 SWAP1 PUSH2 0x1A55 JUMP JUMPDEST PUSH1 0x40 MLOAD DUP1 SWAP2 SUB SWAP1 REVERT JUMPDEST PUSH1 0x0 PUSH1 0x3 PUSH1 0x0 DUP4 DUP2 MSTORE PUSH1 0x20 ADD SWAP1 DUP2 MSTORE PUSH1 0x20 ADD PUSH1 0x0 KECCAK256 SWAP1 POP DUP1 PUSH1 0x5 ADD SLOAD TIMESTAMP LT ISZERO PUSH2 0xA20 JUMPI PUSH1 0x40 MLOAD PUSH32 0x8C379A000000000000000000000000000000000000000000000000000000000 DUP2 MSTORE PUSH1 0x4 ADD PUSH2 0xA17 SWAP1 PUSH2 0x1AE7 JUMP JUMPDEST PUSH1 0x40 MLOAD DUP1 SWAP2 SUB SWAP1 REVERT JUMPDEST PUSH1 0x0 ISZERO ISZERO DUP2 PUSH1 0x6 ADD PUSH1 0x0 SWAP1 SLOAD SWAP1 PUSH2 0x100 EXP SWAP1 DIV PUSH1 0xFF AND ISZERO ISZERO EQ PUSH2 0xA78 JUMPI PUSH1 0x40 MLOAD PUSH32 0x8C379A000000000000000000000000000000000000000000000000000000000 DUP2 MSTORE PUSH1 0x4 ADD PUSH2 0xA6F SWAP1 PUSH2 0x1B79 JUMP JUMPDEST PUSH1 0x40 MLOAD DUP1 SWAP2 SUB SWAP1 REVERT JUMPDEST PUSH1 0x9 SLOAD PUSH1 0x64 PUSH1 0x4 SLOAD DUP4 PUSH1 0x4 ADD SLOAD PUSH2 0xA8F SWAP2 SWAP1 PUSH2 0x1BC8 JUMP JUMPDEST PUSH2 0xA99 SWAP2 SWAP1 PUSH2 0x1BF9 JUMP JUMPDEST LT ISZERO PUSH2 0xADA JUMPI PUSH1 0x40 MLOAD PUSH32 0x8C379A000000000000000000000000000000000000000000000000000000000 DUP2 MSTORE PUSH1 0x4 ADD PUSH2 0xAD1 SWAP1 PUSH2 0x1CAD JUMP JUMPDEST PUSH1 0x40 MLOAD DUP1 SWAP2 SUB SWAP1 REVERT JUMPDEST PUSH2 0xB0C DUP2 PUSH1 0x2 ADD SLOAD DUP3 PUSH1 0x3 ADD PUSH1 0x0 SWAP1 SLOAD SWAP1 PUSH2 0x100 EXP SWAP1 DIV PUSH20 0xFFFFFFFFFFFFFFFFFFFFFFFFFFFFFFFFFFFFFFFF AND PUSH2 0x112A JUMP JUMPDEST POP POP JUMP JUMPDEST PUSH1 0x9 SLOAD DUP2 JUMP JUMPDEST PUSH1 0x7 SLOAD DUP2 JUMP JUMPDEST PUSH1 0x4 SLOAD DUP2 JUMP JUMPDEST PUSH1 0x5 SLOAD DUP2 JUMP JUMPDEST PUSH1 0x1 ISZERO ISZERO PUSH1 0x0 DUP1 CALLER PUSH20 0xFFFFFFFFFFFFFFFFFFFFFFFFFFFFFFFFFFFFFFFF AND PUSH20 0xFFFFFFFFFFFFFFFFFFFFFFFFFFFFFFFFFFFFFFFF AND DUP2 MSTORE PUSH1 0x20 ADD SWAP1 DUP2 MSTORE PUSH1 0x20 ADD PUSH1 0x0 KECCAK256 PUSH1 0x0 SWAP1 SLOAD SWAP1 PUSH2 0x100 EXP SWAP1 DIV PUSH1 0xFF AND ISZERO ISZERO EQ PUSH2 0xBBA JUMPI PUSH1 0x40 MLOAD PUSH32 0x8C379A000000000000000000000000000000000000000000000000000000000 DUP2 MSTORE PUSH1 0x4 ADD PUSH2 0xBB1 SWAP1 PUSH2 0x17C5 JUMP JUMPDEST PUSH1 0x40 MLOAD DUP1 SWAP2 SUB SWAP1 REVERT JUMPDEST DUP2 PUSH1 0x5 SLOAD LT ISZERO PUSH2 0xBFF JUMPI PUSH1 0x40 MLOAD PUSH32 0x8C379A000000000000000000000000000000000000000000000000000000000 DUP2 MSTORE PUSH1 0x4 ADD PUSH2 0xBF6 SWAP1 PUSH2 0x1D19 JUMP JUMPDEST PUSH1 0x40 MLOAD DUP1 SWAP2 SUB SWAP1 REVERT JUMPDEST PUSH1 0x40 MLOAD DUP1 PUSH1 0xE0 ADD PUSH1 0x40 MSTORE DUP1 PUSH1 0x7 SLOAD DUP2 MSTORE PUSH1 0x20 ADD DUP5 DUP2 MSTORE PUSH1 0x20 ADD DUP4 DUP2 MSTORE PUSH1 0x20 ADD DUP3 PUSH20 0xFFFFFFFFFFFFFFFFFFFFFFFFFFFFFFFFFFFFFFFF AND DUP2 MSTORE PUSH1 0x20 ADD PUSH1 0x0 DUP2 MSTORE PUSH1 0x20 ADD PUSH1 0x8 SLOAD TIMESTAMP PUSH2 0xC4F SWAP2 SWAP1 PUSH2 0x120C JUMP JUMPDEST DUP2 MSTORE PUSH1 0x20 ADD PUSH1 0x0 ISZERO ISZERO DUP2 MSTORE POP PUSH1 0x3 PUSH1 0x0 PUSH1 0x7 SLOAD DUP2 MSTORE PUSH1 0x20 ADD SWAP1 DUP2 MSTORE PUSH1 0x20 ADD PUSH1 0x0 KECCAK256 PUSH1 0x0 DUP3 ADD MLOAD DUP2 PUSH1 0x0 ADD SSTORE PUSH1 0x20 DUP3 ADD MLOAD DUP2 PUSH1 0x1 ADD SWAP1 DUP2 PUSH2 0xC8F SWAP2 SWAP1 PUSH2 0x1EE5 JUMP JUMPDEST POP PUSH1 0x40 DUP3 ADD MLOAD DUP2 PUSH1 0x2 ADD SSTORE PUSH1 0x60 DUP3 ADD MLOAD DUP2 PUSH1 0x3 ADD PUSH1 0x0 PUSH2 0x100 EXP DUP2 SLOAD DUP2 PUSH20 0xFFFFFFFFFFFFFFFFFFFFFFFFFFFFFFFFFFFFFFFF MUL NOT AND SWAP1 DUP4 PUSH20 0xFFFFFFFFFFFFFFFFFFFFFFFFFFFFFFFFFFFFFFFF AND MUL OR SWAP1 SSTORE POP PUSH1 0x80 DUP3 ADD MLOAD DUP2 PUSH1 0x4 ADD SSTORE PUSH1 0xA0 DUP3 ADD MLOAD DUP2 PUSH1 0x5 ADD SSTORE PUSH1 0xC0 DUP3 ADD MLOAD DUP2 PUSH1 0x6 ADD PUSH1 0x0 PUSH2 0x100 EXP DUP2 SLOAD DUP2 PUSH1 0xFF MUL NOT AND SWAP1 DUP4 ISZERO ISZERO MUL OR SWAP1 SSTORE POP SWAP1 POP POP DUP2 PUSH1 0x5 PUSH1 0x0 DUP3 DUP3 SLOAD PUSH2 0xD2A SWAP2 SWAP1 PUSH2 0x19D5 JUMP JUMPDEST SWAP3 POP POP DUP2 SWAP1 SSTORE POP PUSH1 0x7 PUSH1 0x0 DUP2 SLOAD DUP1 SWAP3 SWAP2 SWAP1 PUSH2 0xD44 SWAP1 PUSH2 0x1FB7 JUMP JUMPDEST SWAP2 SWAP1 POP SSTORE POP POP POP POP JUMP JUMPDEST PUSH1 0x0 PUSH1 0x20 MSTORE DUP1 PUSH1 0x0 MSTORE PUSH1 0x40 PUSH1 0x0 KECCAK256 PUSH1 0x0 SWAP2 POP SLOAD SWAP1 PUSH2 0x100 EXP SWAP1 DIV PUSH1 0xFF AND DUP2 JUMP JUMPDEST DUP1 PUSH1 0x1 PUSH1 0x0 CALLER PUSH20 0xFFFFFFFFFFFFFFFFFFFFFFFFFFFFFFFFFFFFFFFF AND PUSH20 0xFFFFFFFFFFFFFFFFFFFFFFFFFFFFFFFFFFFFFFFF AND DUP2 MSTORE PUSH1 0x20 ADD SWAP1 DUP2 MSTORE PUSH1 0x20 ADD PUSH1 0x0 KECCAK256 SLOAD LT ISZERO PUSH2 0xDF0 JUMPI PUSH1 0x40 MLOAD PUSH32 0x8C379A000000000000000000000000000000000000000000000000000000000 DUP2 MSTORE PUSH1 0x4 ADD PUSH2 0xDE7 SWAP1 PUSH2 0x19B5 JUMP JUMPDEST PUSH1 0x40 MLOAD DUP1 SWAP2 SUB SWAP1 REVERT JUMPDEST DUP1 PUSH1 0x5 SLOAD LT ISZERO PUSH2 0xE35 JUMPI PUSH1 0x40 MLOAD PUSH32 0x8C379A000000000000000000000000000000000000000000000000000000000 DUP2 MSTORE PUSH1 0x4 ADD PUSH2 0xE2C SWAP1 PUSH2 0x204B JUMP JUMPDEST PUSH1 0x40 MLOAD DUP1 SWAP2 SUB SWAP1 REVERT JUMPDEST DUP1 PUSH1 0x1 PUSH1 0x0 CALLER PUSH20 0xFFFFFFFFFFFFFFFFFFFFFFFFFFFFFFFFFFFFFFFF AND PUSH20 0xFFFFFFFFFFFFFFFFFFFFFFFFFFFFFFFFFFFFFFFF AND DUP2 MSTORE PUSH1 0x20 ADD SWAP1 DUP2 MSTORE PUSH1 0x20 ADD PUSH1 0x0 KECCAK256 PUSH1 0x0 DUP3 DUP3 SLOAD PUSH2 0xE84 SWAP2 SWAP1 PUSH2 0x19D5 JUMP JUMPDEST SWAP3 POP POP DUP2 SWAP1 SSTORE POP DUP1 PUSH1 0x5 PUSH1 0x0 DUP3 DUP3 SLOAD PUSH2 0xE9D SWAP2 SWAP1 PUSH2 0x19D5 JUMP JUMPDEST SWAP3 POP POP DUP2 SWAP1 SSTORE POP CALLER PUSH20 0xFFFFFFFFFFFFFFFFFFFFFFFFFFFFFFFFFFFFFFFF AND PUSH2 0x8FC DUP3 SWAP1 DUP2 ISZERO MUL SWAP1 PUSH1 0x40 MLOAD PUSH1 0x0 PUSH1 0x40 MLOAD DUP1 DUP4 SUB DUP2 DUP6 DUP9 DUP9 CALL SWAP4 POP POP POP POP ISZERO DUP1 ISZERO PUSH2 0xEEA JUMPI RETURNDATASIZE PUSH1 0x0 DUP1 RETURNDATACOPY RETURNDATASIZE PUSH1 0x0 REVERT JUMPDEST POP POP JUMP JUMPDEST PUSH1 0x2 PUSH1 0x20 MSTORE DUP2 PUSH1 0x0 MSTORE PUSH1 0x40 PUSH1 0x0 KECCAK256 PUSH1 0x20 MSTORE DUP1 PUSH1 0x0 MSTORE PUSH1 0x40 PUSH1 0x0 KECCAK256 PUSH1 0x0 SWAP2 POP SWAP2 POP SWAP1 SLOAD SWAP1 PUSH2 0x100 EXP SWAP1 DIV PUSH1 0xFF AND DUP2 JUMP JUMPDEST PUSH1 0x8 SLOAD DUP2 JUMP JUMPDEST PUSH1 0xA PUSH1 0x0 SWAP1 SLOAD SWAP1 PUSH2 0x100 EXP SWAP1 DIV PUSH20 0xFFFFFFFFFFFFFFFFFFFFFFFFFFFFFFFFFFFFFFFF AND PUSH20 0xFFFFFFFFFFFFFFFFFFFFFFFFFFFFFFFFFFFFFFFF AND CALLER PUSH20 0xFFFFFFFFFFFFFFFFFFFFFFFFFFFFFFFFFFFFFFFF AND EQ PUSH2 0xFB3 JUMPI PUSH1 0x40 MLOAD PUSH32 0x8C379A000000000000000000000000000000000000000000000000000000000 DUP2 MSTORE PUSH1 0x4 ADD PUSH2 0xFAA SWAP1 PUSH2 0x1A55 JUMP JUMPDEST PUSH1 0x40 MLOAD DUP1 SWAP2 SUB SWAP1 REVERT JUMPDEST PUSH2 0xFBD DUP3 DUP3 PUSH2 0x112A JUMP JUMPDEST POP POP JUMP JUMPDEST PUSH1 0x1 PUSH1 0x20 MSTORE DUP1 PUSH1 0x0 MSTORE PUSH1 0x40 PUSH1 0x0 KECCAK256 PUSH1 0x0 SWAP2 POP SWAP1 POP SLOAD DUP2 JUMP JUMPDEST PUSH1 0x6 SLOAD DUP2 JUMP JUMPDEST PUSH1 0x6 SLOAD TIMESTAMP LT PUSH2 0x1023 JUMPI PUSH1 0x40 MLOAD PUSH32 0x8C379A000000000000000000000000000000000000000000000000000000000 DUP2 MSTORE PUSH1 0x4 ADD PUSH2 0x101A SWAP1 PUSH2 0x20DD JUMP JUMPDEST PUSH1 0x40 MLOAD DUP1 SWAP2 SUB SWAP1 REVERT JUMPDEST PUSH1 0x1 PUSH1 0x0 DUP1 CALLER PUSH20 0xFFFFFFFFFFFFFFFFFFFFFFFFFFFFFFFFFFFFFFFF AND PUSH20 0xFFFFFFFFFFFFFFFFFFFFFFFFFFFFFFFFFFFFFFFF AND DUP2 MSTORE PUSH1 0x20 ADD SWAP1 DUP2 MSTORE PUSH1 0x20 ADD PUSH1 0x0 KECCAK256 PUSH1 0x0 PUSH2 0x100 EXP DUP2 SLOAD DUP2 PUSH1 0xFF MUL NOT AND SWAP1 DUP4 ISZERO ISZERO MUL OR SWAP1 SSTORE POP CALLVALUE PUSH1 0x1 PUSH1 0x0 CALLER PUSH20 0xFFFFFFFFFFFFFFFFFFFFFFFFFFFFFFFFFFFFFFFF AND PUSH20 0xFFFFFFFFFFFFFFFFFFFFFFFFFFFFFFFFFFFFFFFF AND DUP2 MSTORE PUSH1 0x20 ADD SWAP1 DUP2 MSTORE PUSH1 0x20 ADD PUSH1 0x0 KECCAK256 PUSH1 0x0 DUP3 DUP3 SLOAD PUSH2 0x10C9 SWAP2 SWAP1 PUSH2 0x120C JUMP JUMPDEST SWAP3 POP POP DUP2 SWAP1 SSTORE POP CALLVALUE PUSH1 0x4 PUSH1 0x0 DUP3 DUP3 SLOAD PUSH2 0x10E2 SWAP2 SWAP1 PUSH2 0x120C JUMP JUMPDEST SWAP3 POP POP DUP2 SWAP1 SSTORE POP CALLVALUE PUSH1 0x5 PUSH1 0x0 DUP3 DUP3 SLOAD PUSH2 0x10FB SWAP2 SWAP1 PUSH2 0x120C JUMP JUMPDEST SWAP3 POP POP DUP2 SWAP1 SSTORE POP JUMP JUMPDEST PUSH1 0xA PUSH1 0x0 SWAP1 SLOAD SWAP1 PUSH2 0x100 EXP SWAP1 DIV PUSH20 0xFFFFFFFFFFFFFFFFFFFFFFFFFFFFFFFFFFFFFFFF AND DUP2 JUMP JUMPDEST PUSH1 0x5 SLOAD DUP3 GT ISZERO PUSH2 0x116F JUMPI PUSH1 0x40 MLOAD PUSH32 0x8C379A000000000000000000000000000000000000000000000000000000000 DUP2 MSTORE PUSH1 0x4 ADD PUSH2 0x1166 SWAP1 PUSH2 0x2149 JUMP JUMPDEST PUSH1 0x40 MLOAD DUP1 SWAP2 SUB SWAP1 REVERT JUMPDEST DUP2 PUSH1 0x5 PUSH1 0x0 DUP3 DUP3 SLOAD PUSH2 0x1181 SWAP2 SWAP1 PUSH2 0x19D5 JUMP JUMPDEST SWAP3 POP POP DUP2 SWAP1 SSTORE POP DUP1 PUSH20 0xFFFFFFFFFFFFFFFFFFFFFFFFFFFFFFFFFFFFFFFF AND PUSH2 0x8FC DUP4 SWAP1 DUP2 ISZERO MUL SWAP1 PUSH1 0x40 MLOAD PUSH1 0x0 PUSH1 0x40 MLOAD DUP1 DUP4 SUB DUP2 DUP6 DUP9 DUP9 CALL SWAP4 POP POP POP POP ISZERO DUP1 ISZERO PUSH2 0x11CE JUMPI RETURNDATASIZE PUSH1 0x0 DUP1 RETURNDATACOPY RETURNDATASIZE PUSH1 0x0 REVERT JUMPDEST POP POP POP JUMP JUMPDEST PUSH1 0x0 DUP2 SWAP1 POP SWAP2 SWAP1 POP JUMP JUMPDEST PUSH32 0x4E487B7100000000000000000000000000000000000000000000000000000000 PUSH1 0x0 MSTORE PUSH1 0x11 PUSH1 0x4 MSTORE PUSH1 0x24 PUSH1 0x0 REVERT JUMPDEST PUSH1 0x0 PUSH2 0x1217 DUP3 PUSH2 0x11D3 JUMP JUMPDEST SWAP2 POP PUSH2 0x1222 DUP4 PUSH2 0x11D3 JUMP JUMPDEST SWAP3 POP DUP3 DUP3 ADD SWAP1 POP DUP1 DUP3 GT ISZERO PUSH2 0x123A JUMPI PUSH2 0x1239 PUSH2 0x11DD JUMP JUMPDEST JUMPDEST SWAP3 SWAP2 POP POP JUMP JUMPDEST PUSH1 0x0 PUSH1 0x40 MLOAD SWAP1 POP SWAP1 JUMP JUMPDEST PUSH1 0x0 DUP1 REVERT JUMPDEST PUSH1 0x0 DUP1 REVERT JUMPDEST PUSH2 0x125D DUP2 PUSH2 0x11D3 JUMP JUMPDEST DUP2 EQ PUSH2 0x1268 JUMPI PUSH1 0x0 DUP1 REVERT JUMPDEST POP JUMP JUMPDEST PUSH1 0x0 DUP2 CALLDATALOAD SWAP1 POP PUSH2 0x127A DUP2 PUSH2 0x1254 JUMP JUMPDEST SWAP3 SWAP2 POP POP JUMP JUMPDEST PUSH1 0x0 PUSH1 0x20 DUP3 DUP5 SUB SLT ISZERO PUSH2 0x1296 JUMPI PUSH2 0x1295 PUSH2 0x124A JUMP JUMPDEST JUMPDEST PUSH1 0x0 PUSH2 0x12A4 DUP5 DUP3 DUP6 ADD PUSH2 0x126B JUMP JUMPDEST SWAP2 POP POP SWAP3 SWAP2 POP POP JUMP JUMPDEST PUSH2 0x12B6 DUP2 PUSH2 0x11D3 JUMP JUMPDEST DUP3 MSTORE POP POP JUMP JUMPDEST PUSH1 0x0 DUP2 MLOAD SWAP1 POP SWAP2 SWAP1 POP JUMP JUMPDEST PUSH1 0x0 DUP3 DUP3 MSTORE PUSH1 0x20 DUP3 ADD SWAP1 POP SWAP3 SWAP2 POP POP JUMP JUMPDEST PUSH1 0x0 JUMPDEST DUP4 DUP2 LT ISZERO PUSH2 0x12F6 JUMPI DUP1 DUP3 ADD MLOAD DUP2 DUP5 ADD MSTORE PUSH1 0x20 DUP2 ADD SWAP1 POP PUSH2 0x12DB JUMP JUMPDEST PUSH1 0x0 DUP5 DUP5 ADD MSTORE POP POP POP POP JUMP JUMPDEST PUSH1 0x0 PUSH1 0x1F NOT PUSH1 0x1F DUP4 ADD AND SWAP1 POP SWAP2 SWAP1 POP JUMP JUMPDEST PUSH1 0x0 PUSH2 0x131E DUP3 PUSH2 0x12BC JUMP JUMPDEST PUSH2 0x1328 DUP2 DUP6 PUSH2 0x12C7 JUMP JUMPDEST SWAP4 POP PUSH2 0x1338 DUP2 DUP6 PUSH1 0x20 DUP7 ADD PUSH2 0x12D8 JUMP JUMPDEST PUSH2 0x1341 DUP2 PUSH2 0x1302 JUMP JUMPDEST DUP5 ADD SWAP2 POP POP SWAP3 SWAP2 POP POP JUMP JUMPDEST PUSH1 0x0 PUSH20 0xFFFFFFFFFFFFFFFFFFFFFFFFFFFFFFFFFFFFFFFF DUP3 AND SWAP1 POP SWAP2 SWAP1 POP JUMP JUMPDEST PUSH1 0x0 PUSH2 0x1377 DUP3 PUSH2 0x134C JUMP JUMPDEST SWAP1 POP SWAP2 SWAP1 POP JUMP JUMPDEST PUSH2 0x1387 DUP2 PUSH2 0x136C JUMP JUMPDEST DUP3 MSTORE POP POP JUMP JUMPDEST PUSH1 0x0 DUP2 ISZERO ISZERO SWAP1 POP SWAP2 SWAP1 POP JUMP JUMPDEST PUSH2 0x13A2 DUP2 PUSH2 0x138D JUMP JUMPDEST DUP3 MSTORE POP POP JUMP JUMPDEST PUSH1 0x0 PUSH1 0xE0 DUP3 ADD SWAP1 POP PUSH2 0x13BD PUSH1 0x0 DUP4 ADD DUP11 PUSH2 0x12AD JUMP JUMPDEST DUP2 DUP2 SUB PUSH1 0x20 DUP4 ADD MSTORE PUSH2 0x13CF DUP2 DUP10 PUSH2 0x1313 JUMP JUMPDEST SWAP1 POP PUSH2 0x13DE PUSH1 0x40 DUP4 ADD DUP9 PUSH2 0x12AD JUMP JUMPDEST PUSH2 0x13EB PUSH1 0x60 DUP4 ADD DUP8 PUSH2 0x137E JUMP JUMPDEST PUSH2 0x13F8 PUSH1 0x80 DUP4 ADD DUP7 PUSH2 0x12AD JUMP JUMPDEST PUSH2 0x1405 PUSH1 0xA0 DUP4 ADD DUP6 PUSH2 0x12AD JUMP JUMPDEST PUSH2 0x1412 PUSH1 0xC0 DUP4 ADD DUP5 PUSH2 0x1399 JUMP JUMPDEST SWAP9 SWAP8 POP POP POP POP POP POP POP POP JUMP JUMPDEST PUSH1 0x0 PUSH2 0x1429 DUP3 PUSH2 0x134C JUMP JUMPDEST SWAP1 POP SWAP2 SWAP1 POP JUMP JUMPDEST PUSH2 0x1439 DUP2 PUSH2 0x141E JUMP JUMPDEST DUP2 EQ PUSH2 0x1444 JUMPI PUSH1 0x0 DUP1 REVERT JUMPDEST POP JUMP JUMPDEST PUSH1 0x0 DUP2 CALLDATALOAD SWAP1 POP PUSH2 0x1456 DUP2 PUSH2 0x1430 JUMP JUMPDEST SWAP3 SWAP2 POP POP JUMP JUMPDEST PUSH1 0x0 DUP1 PUSH1 0x40 DUP4 DUP6 SUB SLT ISZERO PUSH2 0x1473 JUMPI PUSH2 0x1472 PUSH2 0x124A JUMP JUMPDEST JUMPDEST PUSH1 0x0 PUSH2 0x1481 DUP6 DUP3 DUP7 ADD PUSH2 0x126B JUMP JUMPDEST SWAP3 POP POP PUSH1 0x20 PUSH2 0x1492 DUP6 DUP3 DUP7 ADD PUSH2 0x1447 JUMP JUMPDEST SWAP2 POP POP SWAP3 POP SWAP3 SWAP1 POP JUMP JUMPDEST PUSH1 0x0 PUSH1 0x20 DUP3 ADD SWAP1 POP PUSH2 0x14B1 PUSH1 0x0 DUP4 ADD DUP5 PUSH2 0x12AD JUMP JUMPDEST SWAP3 SWAP2 POP POP JUMP JUMPDEST PUSH1 0x0 DUP1 REVERT JUMPDEST PUSH1 0x0 DUP1 REVERT JUMPDEST PUSH32 0x4E487B7100000000000000000000000000000000000000000000000000000000 PUSH1 0x0 MSTORE PUSH1 0x41 PUSH1 0x4 MSTORE PUSH1 0x24 PUSH1 0x0 REVERT JUMPDEST PUSH2 0x14F9 DUP3 PUSH2 0x1302 JUMP JUMPDEST DUP2 ADD DUP2 DUP2 LT PUSH8 0xFFFFFFFFFFFFFFFF DUP3 GT OR ISZERO PUSH2 0x1518 JUMPI PUSH2 0x1517 PUSH2 0x14C1 JUMP JUMPDEST JUMPDEST DUP1 PUSH1 0x40 MSTORE POP POP POP JUMP JUMPDEST PUSH1 0x0 PUSH2 0x152B PUSH2 0x1240 JUMP JUMPDEST SWAP1 POP PUSH2 0x1537 DUP3 DUP3 PUSH2 0x14F0 JUMP JUMPDEST SWAP2 SWAP1 POP JUMP JUMPDEST PUSH1 0x0 PUSH8 0xFFFFFFFFFFFFFFFF DUP3 GT ISZERO PUSH2 0x1557 JUMPI PUSH2 0x1556 PUSH2 0x14C1 JUMP JUMPDEST JUMPDEST PUSH2 0x1560 DUP3 PUSH2 0x1302 JUMP JUMPDEST SWAP1 POP PUSH1 0x20 DUP2 ADD SWAP1 POP SWAP2 SWAP1 POP JUMP JUMPDEST DUP3 DUP2 DUP4 CALLDATACOPY PUSH1 0x0 DUP4 DUP4 ADD MSTORE POP POP POP JUMP JUMPDEST PUSH1 0x0 PUSH2 0x158F PUSH2 0x158A DUP5 PUSH2 0x153C JUMP JUMPDEST PUSH2 0x1521 JUMP JUMPDEST SWAP1 POP DUP3 DUP2 MSTORE PUSH1 0x20 DUP2 ADD DUP5 DUP5 DUP5 ADD GT ISZERO PUSH2 0x15AB JUMPI PUSH2 0x15AA PUSH2 0x14BC JUMP JUMPDEST JUMPDEST PUSH2 0x15B6 DUP5 DUP3 DUP6 PUSH2 0x156D JUMP JUMPDEST POP SWAP4 SWAP3 POP POP POP JUMP JUMPDEST PUSH1 0x0 DUP3 PUSH1 0x1F DUP4 ADD SLT PUSH2 0x15D3 JUMPI PUSH2 0x15D2 PUSH2 0x14B7 JUMP JUMPDEST JUMPDEST DUP2 CALLDATALOAD PUSH2 0x15E3 DUP5 DUP3 PUSH1 0x20 DUP7 ADD PUSH2 0x157C JUMP JUMPDEST SWAP2 POP POP SWAP3 SWAP2 POP POP JUMP JUMPDEST PUSH2 0x15F5 DUP2 PUSH2 0x136C JUMP JUMPDEST DUP2 EQ PUSH2 0x1600 JUMPI PUSH1 0x0 DUP1 REVERT JUMPDEST POP JUMP JUMPDEST PUSH1 0x0 DUP2 CALLDATALOAD SWAP1 POP PUSH2 0x1612 DUP2 PUSH2 0x15EC JUMP JUMPDEST SWAP3 SWAP2 POP POP JUMP JUMPDEST PUSH1 0x0 DUP1 PUSH1 0x0 PUSH1 0x60 DUP5 DUP7 SUB SLT ISZERO PUSH2 0x1631 JUMPI PUSH2 0x1630 PUSH2 0x124A JUMP JUMPDEST JUMPDEST PUSH1 0x0 DUP5 ADD CALLDATALOAD PUSH8 0xFFFFFFFFFFFFFFFF DUP2 GT ISZERO PUSH2 0x164F JUMPI PUSH2 0x164E PUSH2 0x124F JUMP JUMPDEST JUMPDEST PUSH2 0x165B DUP7 DUP3 DUP8 ADD PUSH2 0x15BE JUMP JUMPDEST SWAP4 POP POP PUSH1 0x20 PUSH2 0x166C DUP7 DUP3 DUP8 ADD PUSH2 0x126B JUMP JUMPDEST SWAP3 POP POP PUSH1 0x40 PUSH2 0x167D DUP7 DUP3 DUP8 ADD PUSH2 0x1603 JUMP JUMPDEST SWAP2 POP POP SWAP3 POP SWAP3 POP SWAP3 JUMP JUMPDEST PUSH1 0x0 PUSH1 0x20 DUP3 DUP5 SUB SLT ISZERO PUSH2 0x169D JUMPI PUSH2 0x169C PUSH2 0x124A JUMP JUMPDEST JUMPDEST PUSH1 0x0 PUSH2 0x16AB DUP5 DUP3 DUP6 ADD PUSH2 0x1447 JUMP JUMPDEST SWAP2 POP POP SWAP3 SWAP2 POP POP JUMP JUMPDEST PUSH1 0x0 PUSH1 0x20 DUP3 ADD SWAP1 POP PUSH2 0x16C9 PUSH1 0x0 DUP4 ADD DUP5 PUSH2 0x1399 JUMP JUMPDEST SWAP3 SWAP2 POP POP JUMP JUMPDEST PUSH1 0x0 DUP1 PUSH1 0x40 DUP4 DUP6 SUB SLT ISZERO PUSH2 0x16E6 JUMPI PUSH2 0x16E5 PUSH2 0x124A JUMP JUMPDEST JUMPDEST PUSH1 0x0 PUSH2 0x16F4 DUP6 DUP3 DUP7 ADD PUSH2 0x1447 JUMP JUMPDEST SWAP3 POP POP PUSH1 0x20 PUSH2 0x1705 DUP6 DUP3 DUP7 ADD PUSH2 0x126B JUMP JUMPDEST SWAP2 POP POP SWAP3 POP SWAP3 SWAP1 POP JUMP JUMPDEST PUSH1 0x0 DUP1 PUSH1 0x40 DUP4 DUP6 SUB SLT ISZERO PUSH2 0x1726 JUMPI PUSH2 0x1725 PUSH2 0x124A JUMP JUMPDEST JUMPDEST PUSH1 0x0 PUSH2 0x1734 DUP6 DUP3 DUP7 ADD PUSH2 0x126B JUMP JUMPDEST SWAP3 POP POP PUSH1 0x20 PUSH2 0x1745 DUP6 DUP3 DUP7 ADD PUSH2 0x1603 JUMP JUMPDEST SWAP2 POP POP SWAP3 POP SWAP3 SWAP1 POP JUMP JUMPDEST PUSH2 0x1758 DUP2 PUSH2 0x141E JUMP JUMPDEST DUP3 MSTORE POP POP JUMP JUMPDEST PUSH1 0x0 PUSH1 0x20 DUP3 ADD SWAP1 POP PUSH2 0x1773 PUSH1 0x0 DUP4 ADD DUP5 PUSH2 0x174F JUMP JUMPDEST SWAP3 SWAP2 POP POP JUMP JUMPDEST PUSH32 0x6F6E6C7920696E766573746F7273000000000000000000000000000000000000 PUSH1 0x0 DUP3 ADD MSTORE POP JUMP JUMPDEST PUSH1 0x0 PUSH2 0x17AF PUSH1 0xE DUP4 PUSH2 0x12C7 JUMP JUMPDEST SWAP2 POP PUSH2 0x17BA DUP3 PUSH2 0x1779 JUMP JUMPDEST PUSH1 0x20 DUP3 ADD SWAP1 POP SWAP2 SWAP1 POP JUMP JUMPDEST PUSH1 0x0 PUSH1 0x20 DUP3 ADD SWAP1 POP DUP2 DUP2 SUB PUSH1 0x0 DUP4 ADD MSTORE PUSH2 0x17DE DUP2 PUSH2 0x17A2 JUMP JUMPDEST SWAP1 POP SWAP2 SWAP1 POP JUMP JUMPDEST PUSH32 0x696E766573746F722063616E206F6E6C7920766F7465206F6E636520666F7220 PUSH1 0x0 DUP3 ADD MSTORE PUSH32 0x612070726F706F73616C00000000000000000000000000000000000000000000 PUSH1 0x20 DUP3 ADD MSTORE POP JUMP JUMPDEST PUSH1 0x0 PUSH2 0x1841 PUSH1 0x2A DUP4 PUSH2 0x12C7 JUMP JUMPDEST SWAP2 POP PUSH2 0x184C DUP3 PUSH2 0x17E5 JUMP JUMPDEST PUSH1 0x40 DUP3 ADD SWAP1 POP SWAP2 SWAP1 POP JUMP JUMPDEST PUSH1 0x0 PUSH1 0x20 DUP3 ADD SWAP1 POP DUP2 DUP2 SUB PUSH1 0x0 DUP4 ADD MSTORE PUSH2 0x1870 DUP2 PUSH2 0x1834 JUMP JUMPDEST SWAP1 POP SWAP2 SWAP1 POP JUMP JUMPDEST PUSH32 0x63616E206F6E6C7920766F746520756E74696C2070726F706F73616C20656E64 PUSH1 0x0 DUP3 ADD MSTORE PUSH32 0x2064617465000000000000000000000000000000000000000000000000000000 PUSH1 0x20 DUP3 ADD MSTORE POP JUMP JUMPDEST PUSH1 0x0 PUSH2 0x18D3 PUSH1 0x25 DUP4 PUSH2 0x12C7 JUMP JUMPDEST SWAP2 POP PUSH2 0x18DE DUP3 PUSH2 0x1877 JUMP JUMPDEST PUSH1 0x40 DUP3 ADD SWAP1 POP SWAP2 SWAP1 POP JUMP JUMPDEST PUSH1 0x0 PUSH1 0x20 DUP3 ADD SWAP1 POP DUP2 DUP2 SUB PUSH1 0x0 DUP4 ADD MSTORE PUSH2 0x1902 DUP2 PUSH2 0x18C6 JUMP JUMPDEST SWAP1 POP SWAP2 SWAP1 POP JUMP JUMPDEST PUSH32 0x4E487B7100000000000000000000000000000000000000000000000000000000 PUSH1 0x0 MSTORE PUSH1 0x22 PUSH1 0x4 MSTORE PUSH1 0x24 PUSH1 0x0 REVERT JUMPDEST PUSH1 0x0 PUSH1 0x2 DUP3 DIV SWAP1 POP PUSH1 0x1 DUP3 AND DUP1 PUSH2 0x1950 JUMPI PUSH1 0x7F DUP3 AND SWAP2 POP JUMPDEST PUSH1 0x20 DUP3 LT DUP2 SUB PUSH2 0x1963 JUMPI PUSH2 0x1962 PUSH2 0x1909 JUMP JUMPDEST JUMPDEST POP SWAP2 SWAP1 POP JUMP JUMPDEST PUSH32 0x6E6F7420656E6F75676820736861726573000000000000000000000000000000 PUSH1 0x0 DUP3 ADD MSTORE POP JUMP JUMPDEST PUSH1 0x0 PUSH2 0x199F PUSH1 0x11 DUP4 PUSH2 0x12C7 JUMP JUMPDEST SWAP2 POP PUSH2 0x19AA DUP3 PUSH2 0x1969 JUMP JUMPDEST PUSH1 0x20 DUP3 ADD SWAP1 POP SWAP2 SWAP1 POP JUMP JUMPDEST PUSH1 0x0 PUSH1 0x20 DUP3 ADD SWAP1 POP DUP2 DUP2 SUB PUSH1 0x0 DUP4 ADD MSTORE PUSH2 0x19CE DUP2 PUSH2 0x1992 JUMP JUMPDEST SWAP1 POP SWAP2 SWAP1 POP JUMP JUMPDEST PUSH1 0x0 PUSH2 0x19E0 DUP3 PUSH2 0x11D3 JUMP JUMPDEST SWAP2 POP PUSH2 0x19EB DUP4 PUSH2 0x11D3 JUMP JUMPDEST SWAP3 POP DUP3 DUP3 SUB SWAP1 POP DUP2 DUP2 GT ISZERO PUSH2 0x1A03 JUMPI PUSH2 0x1A02 PUSH2 0x11DD JUMP JUMPDEST JUMPDEST SWAP3 SWAP2 POP POP JUMP JUMPDEST PUSH32 0x6F6E6C792061646D696E00000000000000000000000000000000000000000000 PUSH1 0x0 DUP3 ADD MSTORE POP JUMP JUMPDEST PUSH1 0x0 PUSH2 0x1A3F PUSH1 0xA DUP4 PUSH2 0x12C7 JUMP JUMPDEST SWAP2 POP PUSH2 0x1A4A DUP3 PUSH2 0x1A09 JUMP JUMPDEST PUSH1 0x20 DUP3 ADD SWAP1 POP SWAP2 SWAP1 POP JUMP JUMPDEST PUSH1 0x0 PUSH1 0x20 DUP3 ADD SWAP1 POP DUP2 DUP2 SUB PUSH1 0x0 DUP4 ADD MSTORE PUSH2 0x1A6E DUP2 PUSH2 0x1A32 JUMP JUMPDEST SWAP1 POP SWAP2 SWAP1 POP JUMP JUMPDEST PUSH32 0x63616E6E6F7420657865637574652070726F706F73616C206265666F72652065 PUSH1 0x0 DUP3 ADD MSTORE PUSH32 0x6E64206461746500000000000000000000000000000000000000000000000000 PUSH1 0x20 DUP3 ADD MSTORE POP JUMP JUMPDEST PUSH1 0x0 PUSH2 0x1AD1 PUSH1 0x27 DUP4 PUSH2 0x12C7 JUMP JUMPDEST SWAP2 POP PUSH2 0x1ADC DUP3 PUSH2 0x1A75 JUMP JUMPDEST PUSH1 0x40 DUP3 ADD SWAP1 POP SWAP2 SWAP1 POP JUMP JUMPDEST PUSH1 0x0 PUSH1 0x20 DUP3 ADD SWAP1 POP DUP2 DUP2 SUB PUSH1 0x0 DUP4 ADD MSTORE PUSH2 0x1B00 DUP2 PUSH2 0x1AC4 JUMP JUMPDEST SWAP1 POP SWAP2 SWAP1 POP JUMP JUMPDEST PUSH32 0x63616E6E6F7420657865637574652070726F706F73616C20616C726561647920 PUSH1 0x0 DUP3 ADD MSTORE PUSH32 0x6578656375746564000000000000000000000000000000000000000000000000 PUSH1 0x20 DUP3 ADD MSTORE POP JUMP JUMPDEST PUSH1 0x0 PUSH2 0x1B63 PUSH1 0x28 DUP4 PUSH2 0x12C7 JUMP JUMPDEST SWAP2 POP PUSH2 0x1B6E DUP3 PUSH2 0x1B07 JUMP JUMPDEST PUSH1 0x40 DUP3 ADD SWAP1 POP SWAP2 SWAP1 POP JUMP JUMPDEST PUSH1 0x0 PUSH1 0x20 DUP3 ADD SWAP1 POP DUP2 DUP2 SUB PUSH1 0x0 DUP4 ADD MSTORE PUSH2 0x1B92 DUP2 PUSH2 0x1B56 JUMP JUMPDEST SWAP1 POP SWAP2 SWAP1 POP JUMP JUMPDEST PUSH32 0x4E487B7100000000000000000000000000000000000000000000000000000000 PUSH1 0x0 MSTORE PUSH1 0x12 PUSH1 0x4 MSTORE PUSH1 0x24 PUSH1 0x0 REVERT JUMPDEST PUSH1 0x0 PUSH2 0x1BD3 DUP3 PUSH2 0x11D3 JUMP JUMPDEST SWAP2 POP PUSH2 0x1BDE DUP4 PUSH2 0x11D3 JUMP JUMPDEST SWAP3 POP DUP3 PUSH2 0x1BEE JUMPI PUSH2 0x1BED PUSH2 0x1B99 JUMP JUMPDEST JUMPDEST DUP3 DUP3 DIV SWAP1 POP SWAP3 SWAP2 POP POP JUMP JUMPDEST PUSH1 0x0 PUSH2 0x1C04 DUP3 PUSH2 0x11D3 JUMP JUMPDEST SWAP2 POP PUSH2 0x1C0F DUP4 PUSH2 0x11D3 JUMP JUMPDEST SWAP3 POP DUP3 DUP3 MUL PUSH2 0x1C1D DUP2 PUSH2 0x11D3 JUMP JUMPDEST SWAP2 POP DUP3 DUP3 DIV DUP5 EQ DUP4 ISZERO OR PUSH2 0x1C34 JUMPI PUSH2 0x1C33 PUSH2 0x11DD JUMP JUMPDEST JUMPDEST POP SWAP3 SWAP2 POP POP JUMP JUMPDEST PUSH32 0x63616E6E6F7420657865637574652070726F706F73616C207769746820766F74 PUSH1 0x0 DUP3 ADD MSTORE PUSH32 0x657320232062656C6F772071756F72756D000000000000000000000000000000 PUSH1 0x20 DUP3 ADD MSTORE POP JUMP JUMPDEST PUSH1 0x0 PUSH2 0x1C97 PUSH1 0x31 DUP4 PUSH2 0x12C7 JUMP JUMPDEST SWAP2 POP PUSH2 0x1CA2 DUP3 PUSH2 0x1C3B JUMP JUMPDEST PUSH1 0x40 DUP3 ADD SWAP1 POP SWAP2 SWAP1 POP JUMP JUMPDEST PUSH1 0x0 PUSH1 0x20 DUP3 ADD SWAP1 POP DUP2 DUP2 SUB PUSH1 0x0 DUP4 ADD MSTORE PUSH2 0x1CC6 DUP2 PUSH2 0x1C8A JUMP JUMPDEST SWAP1 POP SWAP2 SWAP1 POP JUMP JUMPDEST PUSH32 0x616D6F756E7420746F6F20626967000000000000000000000000000000000000 PUSH1 0x0 DUP3 ADD MSTORE POP JUMP JUMPDEST PUSH1 0x0 PUSH2 0x1D03 PUSH1 0xE DUP4 PUSH2 0x12C7 JUMP JUMPDEST SWAP2 POP PUSH2 0x1D0E DUP3 PUSH2 0x1CCD JUMP JUMPDEST PUSH1 0x20 DUP3 ADD SWAP1 POP SWAP2 SWAP1 POP JUMP JUMPDEST PUSH1 0x0 PUSH1 0x20 DUP3 ADD SWAP1 POP DUP2 DUP2 SUB PUSH1 0x0 DUP4 ADD MSTORE PUSH2 0x1D32 DUP2 PUSH2 0x1CF6 JUMP JUMPDEST SWAP1 POP SWAP2 SWAP1 POP JUMP JUMPDEST PUSH1 0x0 DUP2 SWAP1 POP DUP2 PUSH1 0x0 MSTORE PUSH1 0x20 PUSH1 0x0 KECCAK256 SWAP1 POP SWAP2 SWAP1 POP JUMP JUMPDEST PUSH1 0x0 PUSH1 0x20 PUSH1 0x1F DUP4 ADD DIV SWAP1 POP SWAP2 SWAP1 POP JUMP JUMPDEST PUSH1 0x0 DUP3 DUP3 SHL SWAP1 POP SWAP3 SWAP2 POP POP JUMP JUMPDEST PUSH1 0x0 PUSH1 0x8 DUP4 MUL PUSH2 0x1D9B PUSH32 0xFFFFFFFFFFFFFFFFFFFFFFFFFFFFFFFFFFFFFFFFFFFFFFFFFFFFFFFFFFFFFFFF DUP3 PUSH2 0x1D5E JUMP JUMPDEST PUSH2 0x1DA5 DUP7 DUP4 PUSH2 0x1D5E JUMP JUMPDEST SWAP6 POP DUP1 NOT DUP5 AND SWAP4 POP DUP1 DUP7 AND DUP5 OR SWAP3 POP POP POP SWAP4 SWAP3 POP POP POP JUMP JUMPDEST PUSH1 0x0 DUP2 SWAP1 POP SWAP2 SWAP1 POP JUMP JUMPDEST PUSH1 0x0 PUSH2 0x1DE2 PUSH2 0x1DDD PUSH2 0x1DD8 DUP5 PUSH2 0x11D3 JUMP JUMPDEST PUSH2 0x1DBD JUMP JUMPDEST PUSH2 0x11D3 JUMP JUMPDEST SWAP1 POP SWAP2 SWAP1 POP JUMP JUMPDEST PUSH1 0x0 DUP2 SWAP1 POP SWAP2 SWAP1 POP JUMP JUMPDEST PUSH2 0x1DFC DUP4 PUSH2 0x1DC7 JUMP JUMPDEST PUSH2 0x1E10 PUSH2 0x1E08 DUP3 PUSH2 0x1DE9 JUMP JUMPDEST DUP5 DUP5 SLOAD PUSH2 0x1D6B JUMP JUMPDEST DUP3 SSTORE POP POP POP POP JUMP JUMPDEST PUSH1 0x0 SWAP1 JUMP JUMPDEST PUSH2 0x1E25 PUSH2 0x1E18 JUMP JUMPDEST PUSH2 0x1E30 DUP2 DUP5 DUP5 PUSH2 0x1DF3 JUMP JUMPDEST POP POP POP JUMP JUMPDEST JUMPDEST DUP2 DUP2 LT ISZERO PUSH2 0x1E54 JUMPI PUSH2 0x1E49 PUSH1 0x0 DUP3 PUSH2 0x1E1D JUMP JUMPDEST PUSH1 0x1 DUP2 ADD SWAP1 POP PUSH2 0x1E36 JUMP JUMPDEST POP POP JUMP JUMPDEST PUSH1 0x1F DUP3 GT ISZERO PUSH2 0x1E99 JUMPI PUSH2 0x1E6A DUP2 PUSH2 0x1D39 JUMP JUMPDEST PUSH2 0x1E73 DUP5 PUSH2 0x1D4E JUMP JUMPDEST DUP2 ADD PUSH1 0x20 DUP6 LT ISZERO PUSH2 0x1E82 JUMPI DUP2 SWAP1 POP JUMPDEST PUSH2 0x1E96 PUSH2 0x1E8E DUP6 PUSH2 0x1D4E JUMP JUMPDEST DUP4 ADD DUP3 PUSH2 0x1E35 JUMP JUMPDEST POP POP JUMPDEST POP POP POP JUMP JUMPDEST PUSH1 0x0 DUP3 DUP3 SHR SWAP1 POP SWAP3 SWAP2 POP POP JUMP JUMPDEST PUSH1 0x0 PUSH2 0x1EBC PUSH1 0x0 NOT DUP5 PUSH1 0x8 MUL PUSH2 0x1E9E JUMP JUMPDEST NOT DUP1 DUP4 AND SWAP2 POP POP SWAP3 SWAP2 POP POP JUMP JUMPDEST PUSH1 0x0 PUSH2 0x1ED5 DUP4 DUP4 PUSH2 0x1EAB JUMP JUMPDEST SWAP2 POP DUP3 PUSH1 0x2 MUL DUP3 OR SWAP1 POP SWAP3 SWAP2 POP POP JUMP JUMPDEST PUSH2 0x1EEE DUP3 PUSH2 0x12BC JUMP JUMPDEST PUSH8 0xFFFFFFFFFFFFFFFF DUP2 GT ISZERO PUSH2 0x1F07 JUMPI PUSH2 0x1F06 PUSH2 0x14C1 JUMP JUMPDEST JUMPDEST PUSH2 0x1F11 DUP3 SLOAD PUSH2 0x1938 JUMP JUMPDEST PUSH2 0x1F1C DUP3 DUP3 DUP6 PUSH2 0x1E58 JUMP JUMPDEST PUSH1 0x0 PUSH1 0x20 SWAP1 POP PUSH1 0x1F DUP4 GT PUSH1 0x1 DUP2 EQ PUSH2 0x1F4F JUMPI PUSH1 0x0 DUP5 ISZERO PUSH2 0x1F3D JUMPI DUP3 DUP8 ADD MLOAD SWAP1 POP JUMPDEST PUSH2 0x1F47 DUP6 DUP3 PUSH2 0x1EC9 JUMP JUMPDEST DUP7 SSTORE POP PUSH2 0x1FAF JUMP JUMPDEST PUSH1 0x1F NOT DUP5 AND PUSH2 0x1F5D DUP7 PUSH2 0x1D39 JUMP JUMPDEST PUSH1 0x0 JUMPDEST DUP3 DUP2 LT ISZERO PUSH2 0x1F85 JUMPI DUP5 DUP10 ADD MLOAD DUP3 SSTORE PUSH1 0x1 DUP3 ADD SWAP2 POP PUSH1 0x20 DUP6 ADD SWAP5 POP PUSH1 0x20 DUP2 ADD SWAP1 POP PUSH2 0x1F60 JUMP JUMPDEST DUP7 DUP4 LT ISZERO PUSH2 0x1FA2 JUMPI DUP5 DUP10 ADD MLOAD PUSH2 0x1F9E PUSH1 0x1F DUP10 AND DUP3 PUSH2 0x1EAB JUMP JUMPDEST DUP4 SSTORE POP JUMPDEST PUSH1 0x1 PUSH1 0x2 DUP9 MUL ADD DUP9 SSTORE POP POP POP JUMPDEST POP POP POP POP POP POP JUMP JUMPDEST PUSH1 0x0 PUSH2 0x1FC2 DUP3 PUSH2 0x11D3 JUMP JUMPDEST SWAP2 POP PUSH32 0xFFFFFFFFFFFFFFFFFFFFFFFFFFFFFFFFFFFFFFFFFFFFFFFFFFFFFFFFFFFFFFFF DUP3 SUB PUSH2 0x1FF4 JUMPI PUSH2 0x1FF3 PUSH2 0x11DD JUMP JUMPDEST JUMPDEST PUSH1 0x1 DUP3 ADD SWAP1 POP SWAP2 SWAP1 POP JUMP JUMPDEST PUSH32 0x6E6F7420656E6F75676820617661696C61626C652066756E6473000000000000 PUSH1 0x0 DUP3 ADD MSTORE POP JUMP JUMPDEST PUSH1 0x0 PUSH2 0x2035 PUSH1 0x1A DUP4 PUSH2 0x12C7 JUMP JUMPDEST SWAP2 POP PUSH2 0x2040 DUP3 PUSH2 0x1FFF JUMP JUMPDEST PUSH1 0x20 DUP3 ADD SWAP1 POP SWAP2 SWAP1 POP JUMP JUMPDEST PUSH1 0x0 PUSH1 0x20 DUP3 ADD SWAP1 POP DUP2 DUP2 SUB PUSH1 0x0 DUP4 ADD MSTORE PUSH2 0x2064 DUP2 PUSH2 0x2028 JUMP JUMPDEST SWAP1 POP SWAP2 SWAP1 POP JUMP JUMPDEST PUSH32 0x63616E6E6F7420636F6E7472696275746520616674657220636F6E7472696275 PUSH1 0x0 DUP3 ADD MSTORE PUSH32 0x74696F6E456E6400000000000000000000000000000000000000000000000000 PUSH1 0x20 DUP3 ADD MSTORE POP JUMP JUMPDEST PUSH1 0x0 PUSH2 0x20C7 PUSH1 0x27 DUP4 PUSH2 0x12C7 JUMP JUMPDEST SWAP2 POP PUSH2 0x20D2 DUP3 PUSH2 0x206B JUMP JUMPDEST PUSH1 0x40 DUP3 ADD SWAP1 POP SWAP2 SWAP1 POP JUMP JUMPDEST PUSH1 0x0 PUSH1 0x20 DUP3 ADD SWAP1 POP DUP2 DUP2 SUB PUSH1 0x0 DUP4 ADD MSTORE PUSH2 0x20F6 DUP2 PUSH2 0x20BA JUMP JUMPDEST SWAP1 POP SWAP2 SWAP1 POP JUMP JUMPDEST PUSH32 0x6E6F7420656E6F75676820617661696C61626C6546756E647300000000000000 PUSH1 0x0 DUP3 ADD MSTORE POP JUMP JUMPDEST PUSH1 0x0 PUSH2 0x2133 PUSH1 0x19 DUP4 PUSH2 0x12C7 JUMP JUMPDEST SWAP2 POP PUSH2 0x213E DUP3 PUSH2 0x20FD JUMP JUMPDEST PUSH1 0x20 DUP3 ADD SWAP1 POP SWAP2 SWAP1 POP JUMP JUMPDEST PUSH1 0x0 PUSH1 0x20 DUP3 ADD SWAP1 POP DUP2 DUP2 SUB PUSH1 0x0 DUP4 ADD MSTORE PUSH2 0x2162 DUP2 PUSH2 0x2126 JUMP JUMPDEST SWAP1 POP SWAP2 SWAP1 POP JUMP INVALID LOG2 PUSH5 0x6970667358 0x22 SLT KECCAK256 0xE1 DUP14 DIV 0xD2 0x21 BALANCE DUP16 0xA5 0xAF LOG0 0xF8 RETURN 0xE0 0xEC GAS 0xD5 DUP13 0xC4 0xC3 0xE9 0xD2 0xC3 LT JUMPI PUSH32 0x8A802DF96C42CE64736F6C634300081600330000000000000000000000000000 "
				},
				"gasEstimates": {
					"creation": {
						"codeDepositCost": "1721400",
						"executionCost": "infinite",
						"totalCost": "infinite"
					},
					"external": {
						"admin()": "2624",
						"availableFunds()": "2518",
						"contribute()": "infinite",
						"contributionEnd()": "2495",
						"createProposal(string,uint256,address)": "infinite",
						"executeProposal(uint256)": "infinite",
						"investors(address)": "2868",
						"nextProposalId()": "2474",
						"proposals(uint256)": "infinite",
						"quorum()": "2452",
						"redeemShare(uint256)": "infinite",
						"shares(address)": "2858",
						"totalShares()": "2496",
						"transferShare(uint256,address)": "infinite",
						"vote(uint256)": "infinite",
						"voteTime()": "2518",
						"votes(address,uint256)": "3154",
						"withdrawEther(uint256,address)": "infinite"
					},
					"internal": {
						"_transferEther(uint256,address payable)": "infinite"
					}
				},
				"methodIdentifiers": {
					"admin()": "f851a440",
					"availableFunds()": "46fcff4c",
					"contribute()": "d7bb99ba",
					"contributionEnd()": "d151b516",
					"createProposal(string,uint256,address)": "6ac1e01f",
					"executeProposal(uint256)": "0d61b519",
					"investors(address)": "6f7bc9be",
					"nextProposalId()": "2ab09d14",
					"proposals(uint256)": "013cf08b",
					"quorum()": "1703a018",
					"redeemShare(uint256)": "868643df",
					"shares(address)": "ce7c2ac2",
					"totalShares()": "3a98ef39",
					"transferShare(uint256,address)": "039383e6",
					"vote(uint256)": "0121b93f",
					"voteTime()": "bcf93dd6",
					"votes(address,uint256)": "9f2524ee",
					"withdrawEther(uint256,address)": "ce56c454"
				}
			},
			"storageLayout": {
				"storage": [
					{
						"astId": 21,
						"contract": "dao.sol:DAO",
						"label": "investors",
						"offset": 0,
						"slot": "0",
						"type": "t_mapping(t_address,t_bool)"
					},
					{
						"astId": 25,
						"contract": "dao.sol:DAO",
						"label": "shares",
						"offset": 0,
						"slot": "1",
						"type": "t_mapping(t_address,t_uint256)"
					},
					{
						"astId": 31,
						"contract": "dao.sol:DAO",
						"label": "votes",
						"offset": 0,
						"slot": "2",
						"type": "t_mapping(t_address,t_mapping(t_uint256,t_bool))"
					},
					{
						"astId": 36,
						"contract": "dao.sol:DAO",
						"label": "proposals",
						"offset": 0,
						"slot": "3",
						"type": "t_mapping(t_uint256,t_struct(Proposal)17_storage)"
					},
					{
						"astId": 38,
						"contract": "dao.sol:DAO",
						"label": "totalShares",
						"offset": 0,
						"slot": "4",
						"type": "t_uint256"
					},
					{
						"astId": 40,
						"contract": "dao.sol:DAO",
						"label": "availableFunds",
						"offset": 0,
						"slot": "5",
						"type": "t_uint256"
					},
					{
						"astId": 42,
						"contract": "dao.sol:DAO",
						"label": "contributionEnd",
						"offset": 0,
						"slot": "6",
						"type": "t_uint256"
					},
					{
						"astId": 44,
						"contract": "dao.sol:DAO",
						"label": "nextProposalId",
						"offset": 0,
						"slot": "7",
						"type": "t_uint256"
					},
					{
						"astId": 46,
						"contract": "dao.sol:DAO",
						"label": "voteTime",
						"offset": 0,
						"slot": "8",
						"type": "t_uint256"
					},
					{
						"astId": 48,
						"contract": "dao.sol:DAO",
						"label": "quorum",
						"offset": 0,
						"slot": "9",
						"type": "t_uint256"
					},
					{
						"astId": 50,
						"contract": "dao.sol:DAO",
						"label": "admin",
						"offset": 0,
						"slot": "10",
						"type": "t_address"
					}
				],
				"types": {
					"t_address": {
						"encoding": "inplace",
						"label": "address",
						"numberOfBytes": "20"
					},
					"t_address_payable": {
						"encoding": "inplace",
						"label": "address payable",
						"numberOfBytes": "20"
					},
					"t_bool": {
						"encoding": "inplace",
						"label": "bool",
						"numberOfBytes": "1"
					},
					"t_mapping(t_address,t_bool)": {
						"encoding": "mapping",
						"key": "t_address",
						"label": "mapping(address => bool)",
						"numberOfBytes": "32",
						"value": "t_bool"
					},
					"t_mapping(t_address,t_mapping(t_uint256,t_bool))": {
						"encoding": "mapping",
						"key": "t_address",
						"label": "mapping(address => mapping(uint256 => bool))",
						"numberOfBytes": "32",
						"value": "t_mapping(t_uint256,t_bool)"
					},
					"t_mapping(t_address,t_uint256)": {
						"encoding": "mapping",
						"key": "t_address",
						"label": "mapping(address => uint256)",
						"numberOfBytes": "32",
						"value": "t_uint256"
					},
					"t_mapping(t_uint256,t_bool)": {
						"encoding": "mapping",
						"key": "t_uint256",
						"label": "mapping(uint256 => bool)",
						"numberOfBytes": "32",
						"value": "t_bool"
					},
					"t_mapping(t_uint256,t_struct(Proposal)17_storage)": {
						"encoding": "mapping",
						"key": "t_uint256",
						"label": "mapping(uint256 => struct DAO.Proposal)",
						"numberOfBytes": "32",
						"value": "t_struct(Proposal)17_storage"
					},
					"t_string_storage": {
						"encoding": "bytes",
						"label": "string",
						"numberOfBytes": "32"
					},
					"t_struct(Proposal)17_storage": {
						"encoding": "inplace",
						"label": "struct DAO.Proposal",
						"members": [
							{
								"astId": 4,
								"contract": "dao.sol:DAO",
								"label": "id",
								"offset": 0,
								"slot": "0",
								"type": "t_uint256"
							},
							{
								"astId": 6,
								"contract": "dao.sol:DAO",
								"label": "name",
								"offset": 0,
								"slot": "1",
								"type": "t_string_storage"
							},
							{
								"astId": 8,
								"contract": "dao.sol:DAO",
								"label": "amount",
								"offset": 0,
								"slot": "2",
								"type": "t_uint256"
							},
							{
								"astId": 10,
								"contract": "dao.sol:DAO",
								"label": "recipient",
								"offset": 0,
								"slot": "3",
								"type": "t_address_payable"
							},
							{
								"astId": 12,
								"contract": "dao.sol:DAO",
								"label": "votes",
								"offset": 0,
								"slot": "4",
								"type": "t_uint256"
							},
							{
								"astId": 14,
								"contract": "dao.sol:DAO",
								"label": "end",
								"offset": 0,
								"slot": "5",
								"type": "t_uint256"
							},
							{
								"astId": 16,
								"contract": "dao.sol:DAO",
								"label": "executed",
								"offset": 0,
								"slot": "6",
								"type": "t_bool"
							}
						],
						"numberOfBytes": "224"
					},
					"t_uint256": {
						"encoding": "inplace",
						"label": "uint256",
						"numberOfBytes": "32"
					}
				}
			},
			"userdoc": {
				"kind": "user",
				"methods": {},
				"notice": "DAO contract: 1. Collects investors money (ether) & allocate shares 2. Keep track of investor contributions with shares 3. Allow investors to transfer shares 4. allow investment proposals to be created and voted 5. execute successful investment proposals (i.e send money)",
				"version": 1
			}
		}
	}
}